{
  "_format": "hh-sol-artifact-1",
  "contractName": "BettingDapp",
  "sourceName": "contracts/Lock.sol",
  "abi": [
    {
      "inputs": [],
      "stateMutability": "payable",
      "type": "constructor"
    },
    {
      "anonymous": false,
      "inputs": [
        {
          "indexed": false,
          "internalType": "string",
          "name": "status",
          "type": "string"
        },
        {
          "indexed": false,
          "internalType": "string",
          "name": "error",
          "type": "string"
        }
      ],
      "name": "Message",
      "type": "event"
    },
    {
      "inputs": [
        {
          "internalType": "uint256",
          "name": "",
          "type": "uint256"
        },
        {
          "internalType": "uint256",
          "name": "",
          "type": "uint256"
        },
        {
          "internalType": "uint256",
          "name": "",
          "type": "uint256"
        }
      ],
      "name": "bettors",
      "outputs": [
        {
          "internalType": "address",
          "name": "add",
          "type": "address"
        },
        {
          "internalType": "uint256",
          "name": "amount",
          "type": "uint256"
        },
        {
          "internalType": "uint256",
          "name": "teamID",
          "type": "uint256"
        },
        {
          "internalType": "uint256",
          "name": "amountWon",
          "type": "uint256"
        }
      ],
      "stateMutability": "view",
      "type": "function"
    },
    {
      "inputs": [
        {
          "internalType": "uint256",
          "name": "_eventID",
          "type": "uint256"
        },
        {
          "internalType": "uint256",
          "name": "_matchID",
          "type": "uint256"
        },
        {
          "internalType": "uint256",
          "name": "_teamID",
          "type": "uint256"
        }
      ],
      "name": "createBet",
      "outputs": [],
      "stateMutability": "payable",
      "type": "function"
    },
    {
      "inputs": [
        {
          "internalType": "string",
          "name": "_eventName",
          "type": "string"
        },
        {
          "internalType": "string",
          "name": "_uid",
          "type": "string"
        },
        {
          "internalType": "string[]",
          "name": "_tags",
          "type": "string[]"
        },
        {
          "internalType": "string",
          "name": "_hostedBy",
          "type": "string"
        },
        {
          "internalType": "string",
          "name": "_description",
          "type": "string"
        },
        {
          "internalType": "string",
          "name": "_status",
          "type": "string"
        },
        {
          "internalType": "string",
          "name": "_endDate",
          "type": "string"
        }
      ],
      "name": "createEvent",
      "outputs": [],
      "stateMutability": "nonpayable",
      "type": "function"
    },
    {
      "inputs": [
        {
          "internalType": "uint256",
          "name": "_eventID",
          "type": "uint256"
        },
        {
          "internalType": "uint256",
          "name": "_matchID",
          "type": "uint256"
        },
        {
          "internalType": "string",
          "name": "_side1",
          "type": "string"
        },
        {
          "internalType": "string",
          "name": "_side2",
          "type": "string"
        },
        {
          "internalType": "uint256",
          "name": "_ID1",
          "type": "uint256"
        },
        {
          "internalType": "uint256",
          "name": "_ID2",
          "type": "uint256"
        },
        {
          "internalType": "string",
          "name": "_duration",
          "type": "string"
        }
      ],
      "name": "createMatch",
      "outputs": [],
      "stateMutability": "nonpayable",
      "type": "function"
    },
    {
      "inputs": [
        {
          "internalType": "uint256",
          "name": "_eventID",
          "type": "uint256"
        },
        {
          "internalType": "uint256",
          "name": "_matchID",
          "type": "uint256"
        },
        {
          "internalType": "uint256",
          "name": "_teamID",
          "type": "uint256"
        }
      ],
      "name": "declareWinnerAndDistribute",
      "outputs": [],
      "stateMutability": "payable",
      "type": "function"
    },
    {
      "inputs": [
        {
          "internalType": "uint256",
          "name": "",
          "type": "uint256"
        }
      ],
      "name": "eventIDToEvent",
      "outputs": [
        {
          "internalType": "string",
          "name": "name",
          "type": "string"
        },
        {
          "internalType": "uint256",
          "name": "eventID",
          "type": "uint256"
        },
        {
          "internalType": "string",
          "name": "uid",
          "type": "string"
        },
        {
          "internalType": "string",
          "name": "hostedBy",
          "type": "string"
        },
        {
          "internalType": "string",
          "name": "description",
          "type": "string"
        },
        {
          "internalType": "string",
          "name": "status",
          "type": "string"
        },
        {
          "internalType": "string",
          "name": "endDate",
          "type": "string"
        }
      ],
      "stateMutability": "view",
      "type": "function"
    },
    {
      "inputs": [
        {
          "internalType": "uint256",
          "name": "",
          "type": "uint256"
        }
      ],
      "name": "events",
      "outputs": [
        {
          "internalType": "string",
          "name": "name",
          "type": "string"
        },
        {
          "internalType": "uint256",
          "name": "eventID",
          "type": "uint256"
        },
        {
          "internalType": "string",
          "name": "uid",
          "type": "string"
        },
        {
          "internalType": "string",
          "name": "hostedBy",
          "type": "string"
        },
        {
          "internalType": "string",
          "name": "description",
          "type": "string"
        },
        {
          "internalType": "string",
          "name": "status",
          "type": "string"
        },
        {
          "internalType": "string",
          "name": "endDate",
          "type": "string"
        }
      ],
      "stateMutability": "view",
      "type": "function"
    },
    {
      "inputs": [
        {
          "internalType": "uint256",
          "name": "_eventID",
          "type": "uint256"
        },
        {
          "internalType": "uint256",
          "name": "_matchID",
          "type": "uint256"
        }
      ],
      "name": "getBettors",
      "outputs": [
        {
          "components": [
            {
              "internalType": "address",
              "name": "add",
              "type": "address"
            },
            {
              "internalType": "uint256",
              "name": "amount",
              "type": "uint256"
            },
            {
              "internalType": "uint256",
              "name": "teamID",
              "type": "uint256"
            },
            {
              "internalType": "uint256",
              "name": "amountWon",
              "type": "uint256"
            }
          ],
          "internalType": "struct BettingDapp.Bettor[]",
          "name": "",
          "type": "tuple[]"
        }
      ],
      "stateMutability": "view",
      "type": "function"
    },
    {
      "inputs": [],
      "name": "getEvents",
      "outputs": [
        {
          "components": [
            {
              "internalType": "string",
              "name": "name",
              "type": "string"
            },
            {
              "internalType": "uint256",
              "name": "eventID",
              "type": "uint256"
            },
            {
              "internalType": "string",
              "name": "uid",
              "type": "string"
            },
            {
              "components": [
                {
                  "internalType": "uint256",
                  "name": "eventID",
                  "type": "uint256"
                },
                {
                  "internalType": "uint256",
                  "name": "matchID",
                  "type": "uint256"
                },
                {
                  "internalType": "string",
                  "name": "side1",
                  "type": "string"
                },
                {
                  "internalType": "string",
                  "name": "side2",
                  "type": "string"
                },
                {
                  "internalType": "uint256",
                  "name": "ID1",
                  "type": "uint256"
                },
                {
                  "internalType": "uint256",
                  "name": "ID2",
                  "type": "uint256"
                },
                {
                  "internalType": "string",
                  "name": "duration",
                  "type": "string"
                },
                {
                  "internalType": "string",
                  "name": "status",
                  "type": "string"
                },
                {
                  "internalType": "bool",
                  "name": "resultAnnounced",
                  "type": "bool"
                },
                {
                  "internalType": "uint256",
                  "name": "winnerID",
                  "type": "uint256"
                },
                {
                  "internalType": "uint256",
                  "name": "funds1",
                  "type": "uint256"
                },
                {
                  "internalType": "uint256",
                  "name": "funds2",
                  "type": "uint256"
                },
                {
                  "internalType": "uint256",
                  "name": "totalFunds",
                  "type": "uint256"
                }
              ],
              "internalType": "struct BettingDapp.Match[]",
              "name": "matches",
              "type": "tuple[]"
            },
            {
              "internalType": "string[]",
              "name": "tags",
              "type": "string[]"
            },
            {
              "internalType": "string",
              "name": "hostedBy",
              "type": "string"
            },
            {
              "internalType": "string",
              "name": "description",
              "type": "string"
            },
            {
              "internalType": "string",
              "name": "status",
              "type": "string"
            },
            {
              "internalType": "string",
              "name": "endDate",
              "type": "string"
            }
          ],
          "internalType": "struct BettingDapp.Event[]",
          "name": "",
          "type": "tuple[]"
        }
      ],
      "stateMutability": "view",
      "type": "function"
    },
    {
      "inputs": [
        {
          "internalType": "uint256",
          "name": "_eventID",
          "type": "uint256"
        }
      ],
      "name": "getMatches",
      "outputs": [
        {
          "components": [
            {
              "internalType": "uint256",
              "name": "eventID",
              "type": "uint256"
            },
            {
              "internalType": "uint256",
              "name": "matchID",
              "type": "uint256"
            },
            {
              "internalType": "string",
              "name": "side1",
              "type": "string"
            },
            {
              "internalType": "string",
              "name": "side2",
              "type": "string"
            },
            {
              "internalType": "uint256",
              "name": "ID1",
              "type": "uint256"
            },
            {
              "internalType": "uint256",
              "name": "ID2",
              "type": "uint256"
            },
            {
              "internalType": "string",
              "name": "duration",
              "type": "string"
            },
            {
              "internalType": "string",
              "name": "status",
              "type": "string"
            },
            {
              "internalType": "bool",
              "name": "resultAnnounced",
              "type": "bool"
            },
            {
              "internalType": "uint256",
              "name": "winnerID",
              "type": "uint256"
            },
            {
              "internalType": "uint256",
              "name": "funds1",
              "type": "uint256"
            },
            {
              "internalType": "uint256",
              "name": "funds2",
              "type": "uint256"
            },
            {
              "internalType": "uint256",
              "name": "totalFunds",
              "type": "uint256"
            }
          ],
          "internalType": "struct BettingDapp.Match[]",
          "name": "",
          "type": "tuple[]"
        }
      ],
      "stateMutability": "view",
      "type": "function"
    },
    {
      "inputs": [
        {
          "internalType": "uint256",
          "name": "_eventID",
          "type": "uint256"
        },
        {
          "internalType": "uint256",
          "name": "_matchID",
          "type": "uint256"
        }
      ],
      "name": "getTotalBetAmount",
      "outputs": [
        {
          "internalType": "uint256",
          "name": "",
          "type": "uint256"
        }
      ],
      "stateMutability": "view",
      "type": "function"
    },
    {
      "inputs": [
        {
          "internalType": "address",
          "name": "",
          "type": "address"
        },
        {
          "internalType": "uint256",
          "name": "",
          "type": "uint256"
        },
        {
          "internalType": "uint256",
          "name": "",
          "type": "uint256"
        }
      ],
      "name": "hasBetted",
      "outputs": [
        {
          "internalType": "bool",
          "name": "",
          "type": "bool"
        }
      ],
      "stateMutability": "view",
      "type": "function"
    },
    {
      "inputs": [],
      "name": "newEventID",
      "outputs": [
        {
          "internalType": "uint256",
          "name": "",
          "type": "uint256"
        }
      ],
      "stateMutability": "view",
      "type": "function"
    }
  ],
  "bytecode": "0x6080604052600160005533600160006101000a81548173ffffffffffffffffffffffffffffffffffffffff021916908373ffffffffffffffffffffffffffffffffffffffff1602179055506140e2806100596000396000f3fe6080604052600436106100c15760003560e01c80639062ce7d1161007f578063c4a4cd0311610059578063c4a4cd031461027e578063cd3fcd43146102bb578063e60d585a146102e6578063f2295ed114610323576100c1565b80639062ce7d1461021d5780639f299a5214610239578063b494ec6a14610255576100c1565b8062cee13d146100c65780630b7914301461010957806312ea5dcd1461014c578063404aa8f91461018c5780635605422b146101b75780637538e2a3146101e0575b600080fd5b3480156100d257600080fd5b506100ed60048036038101906100e89190612873565b610360565b604051610100979695949392919061293f565b60405180910390f35b34801561011557600080fd5b50610130600480360381019061012b9190612873565b6106d2565b604051610143979695949392919061293f565b60405180910390f35b34801561015857600080fd5b50610173600480360381019061016e91906129d8565b610a54565b6040516101839493929190612a6c565b60405180910390f35b34801561019857600080fd5b506101a1610ace565b6040516101ae9190612f8f565b60405180910390f35b3480156101c357600080fd5b506101de60048036038101906101d991906130e6565b611290565b005b3480156101ec57600080fd5b50610207600480360381019061020291906131dc565b6114f6565b604051610214919061321c565b60405180910390f35b610237600480360381019061023291906129d8565b6115b8565b005b610253600480360381019061024e91906129d8565b611aaa565b005b34801561026157600080fd5b5061027c6004803603810190610277919061331d565b611e61565b005b34801561028a57600080fd5b506102a560048036038101906102a091906134af565b61209f565b6040516102b29190613511565b60405180910390f35b3480156102c757600080fd5b506102d06120eb565b6040516102dd919061321c565b60405180910390f35b3480156102f257600080fd5b5061030d60048036038101906103089190612873565b6120f1565b60405161031a91906135b2565b60405180910390f35b34801561032f57600080fd5b5061034a600480360381019061034591906131dc565b612426565b60405161035791906136e7565b60405180910390f35b600260205280600052604060002060009150905080600001805461038390613738565b80601f01602080910402602001604051908101604052809291908181526020018280546103af90613738565b80156103fc5780601f106103d1576101008083540402835291602001916103fc565b820191906000526020600020905b8154815290600101906020018083116103df57829003601f168201915b50505050509080600101549080600201805461041790613738565b80601f016020809104026020016040519081016040528092919081815260200182805461044390613738565b80156104905780601f1061046557610100808354040283529160200191610490565b820191906000526020600020905b81548152906001019060200180831161047357829003601f168201915b5050505050908060050180546104a590613738565b80601f01602080910402602001604051908101604052809291908181526020018280546104d190613738565b801561051e5780601f106104f35761010080835404028352916020019161051e565b820191906000526020600020905b81548152906001019060200180831161050157829003601f168201915b50505050509080600601805461053390613738565b80601f016020809104026020016040519081016040528092919081815260200182805461055f90613738565b80156105ac5780601f10610581576101008083540402835291602001916105ac565b820191906000526020600020905b81548152906001019060200180831161058f57829003601f168201915b5050505050908060070180546105c190613738565b80601f01602080910402602001604051908101604052809291908181526020018280546105ed90613738565b801561063a5780601f1061060f5761010080835404028352916020019161063a565b820191906000526020600020905b81548152906001019060200180831161061d57829003601f168201915b50505050509080600801805461064f90613738565b80601f016020809104026020016040519081016040528092919081815260200182805461067b90613738565b80156106c85780601f1061069d576101008083540402835291602001916106c8565b820191906000526020600020905b8154815290600101906020018083116106ab57829003601f168201915b5050505050905087565b600581815481106106e257600080fd5b906000526020600020906009020160009150905080600001805461070590613738565b80601f016020809104026020016040519081016040528092919081815260200182805461073190613738565b801561077e5780601f106107535761010080835404028352916020019161077e565b820191906000526020600020905b81548152906001019060200180831161076157829003601f168201915b50505050509080600101549080600201805461079990613738565b80601f01602080910402602001604051908101604052809291908181526020018280546107c590613738565b80156108125780601f106107e757610100808354040283529160200191610812565b820191906000526020600020905b8154815290600101906020018083116107f557829003601f168201915b50505050509080600501805461082790613738565b80601f016020809104026020016040519081016040528092919081815260200182805461085390613738565b80156108a05780601f10610875576101008083540402835291602001916108a0565b820191906000526020600020905b81548152906001019060200180831161088357829003601f168201915b5050505050908060060180546108b590613738565b80601f01602080910402602001604051908101604052809291908181526020018280546108e190613738565b801561092e5780601f106109035761010080835404028352916020019161092e565b820191906000526020600020905b81548152906001019060200180831161091157829003601f168201915b50505050509080600701805461094390613738565b80601f016020809104026020016040519081016040528092919081815260200182805461096f90613738565b80156109bc5780601f10610991576101008083540402835291602001916109bc565b820191906000526020600020905b81548152906001019060200180831161099f57829003601f168201915b5050505050908060080180546109d190613738565b80601f01602080910402602001604051908101604052809291908181526020018280546109fd90613738565b8015610a4a5780601f10610a1f57610100808354040283529160200191610a4a565b820191906000526020600020905b815481529060010190602001808311610a2d57829003601f168201915b5050505050905087565b60046020528260005260406000206020528160005260406000208181548110610a7c57600080fd5b906000526020600020906004020160009250925050508060000160009054906101000a900473ffffffffffffffffffffffffffffffffffffffff16908060010154908060020154908060030154905084565b60606005805480602002602001604051908101604052809291908181526020016000905b82821015611287578382906000526020600020906009020160405180610120016040529081600082018054610b2690613738565b80601f0160208091040260200160405190810160405280929190818152602001828054610b5290613738565b8015610b9f5780601f10610b7457610100808354040283529160200191610b9f565b820191906000526020600020905b815481529060010190602001808311610b8257829003601f168201915b5050505050815260200160018201548152602001600282018054610bc290613738565b80601f0160208091040260200160405190810160405280929190818152602001828054610bee90613738565b8015610c3b5780601f10610c1057610100808354040283529160200191610c3b565b820191906000526020600020905b815481529060010190602001808311610c1e57829003601f168201915b5050505050815260200160038201805480602002602001604051908101604052809291908181526020016000905b82821015610f4f57838290600052602060002090600d0201604051806101a00160405290816000820154815260200160018201548152602001600282018054610cb190613738565b80601f0160208091040260200160405190810160405280929190818152602001828054610cdd90613738565b8015610d2a5780601f10610cff57610100808354040283529160200191610d2a565b820191906000526020600020905b815481529060010190602001808311610d0d57829003601f168201915b50505050508152602001600382018054610d4390613738565b80601f0160208091040260200160405190810160405280929190818152602001828054610d6f90613738565b8015610dbc5780601f10610d9157610100808354040283529160200191610dbc565b820191906000526020600020905b815481529060010190602001808311610d9f57829003601f168201915b505050505081526020016004820154815260200160058201548152602001600682018054610de990613738565b80601f0160208091040260200160405190810160405280929190818152602001828054610e1590613738565b8015610e625780601f10610e3757610100808354040283529160200191610e62565b820191906000526020600020905b815481529060010190602001808311610e4557829003601f168201915b50505050508152602001600782018054610e7b90613738565b80601f0160208091040260200160405190810160405280929190818152602001828054610ea790613738565b8015610ef45780601f10610ec957610100808354040283529160200191610ef4565b820191906000526020600020905b815481529060010190602001808311610ed757829003601f168201915b505050505081526020016008820160009054906101000a900460ff1615151515815260200160098201548152602001600a8201548152602001600b8201548152602001600c8201548152505081526020019060010190610c69565b50505050815260200160048201805480602002602001604051908101604052809291908181526020016000905b82821015611028578382906000526020600020018054610f9b90613738565b80601f0160208091040260200160405190810160405280929190818152602001828054610fc790613738565b80156110145780601f10610fe957610100808354040283529160200191611014565b820191906000526020600020905b815481529060010190602001808311610ff757829003601f168201915b505050505081526020019060010190610f7c565b50505050815260200160058201805461104090613738565b80601f016020809104026020016040519081016040528092919081815260200182805461106c90613738565b80156110b95780601f1061108e576101008083540402835291602001916110b9565b820191906000526020600020905b81548152906001019060200180831161109c57829003601f168201915b505050505081526020016006820180546110d290613738565b80601f01602080910402602001604051908101604052809291908181526020018280546110fe90613738565b801561114b5780601f106111205761010080835404028352916020019161114b565b820191906000526020600020905b81548152906001019060200180831161112e57829003601f168201915b5050505050815260200160078201805461116490613738565b80601f016020809104026020016040519081016040528092919081815260200182805461119090613738565b80156111dd5780601f106111b2576101008083540402835291602001916111dd565b820191906000526020600020905b8154815290600101906020018083116111c057829003601f168201915b505050505081526020016008820180546111f690613738565b80601f016020809104026020016040519081016040528092919081815260200182805461122290613738565b801561126f5780601f106112445761010080835404028352916020019161126f565b820191906000526020600020905b81548152906001019060200180831161125257829003601f168201915b50505050508152505081526020019060010190610af2565b50505050905090565b600160009054906101000a900473ffffffffffffffffffffffffffffffffffffffff1673ffffffffffffffffffffffffffffffffffffffff163373ffffffffffffffffffffffffffffffffffffffff1614611320576040517f08c379a0000000000000000000000000000000000000000000000000000000008152600401611317906137b5565b60405180910390fd5b60006002600089815260200190815260200160002090506000604051806101a001604052808a81526020018981526020018881526020018781526020018681526020018581526020018481526020016040518060400160405280600781526020017f4f6e676f696e670000000000000000000000000000000000000000000000000081525081526020016000151581526020017ffffffffffffffffffffffffffffffffffffffffffffffffffffffffffffffffe8152602001600081526020016000815260200160008152509050816003018190806001815401808255809150506001900390600052602060002090600d0201600090919091909150600082015181600001556020820151816001015560408201518160020190816114459190613981565b50606082015181600301908161145b9190613981565b506080820151816004015560a0820151816005015560c08201518160060190816114859190613981565b5060e082015181600701908161149b9190613981565b506101008201518160080160006101000a81548160ff021916908315150217905550610120820151816009015561014082015181600a015561016082015181600b015561018082015181600c01555050505050505050505050565b600080600260008581526020019081526020016000209050600081600301905060008160008154811061152c5761152b613a53565b5b90600052602060002090600d0201905060005b82805490508110156115a7578583828154811061155f5761155e613a53565b5b90600052602060002090600d0201600101540361159a5782818154811061158957611588613a53565b5b90600052602060002090600d020191505b808060010191505061153f565b5080600c0154935050505092915050565b600160009054906101000a900473ffffffffffffffffffffffffffffffffffffffff1673ffffffffffffffffffffffffffffffffffffffff163373ffffffffffffffffffffffffffffffffffffffff160361167d577f8252da6cc8ba70656d63b4439295f2de59ffee7cf90c96f5aee10857159474e760405161163a90613b1a565b60405180910390a16040517f08c379a000000000000000000000000000000000000000000000000000000000815260040161167490613b4d565b60405180910390fd5b662386f26fc100003410156116fc577f8252da6cc8ba70656d63b4439295f2de59ffee7cf90c96f5aee10857159474e76040516116b990613bb9565b60405180910390a16040517f08c379a00000000000000000000000000000000000000000000000000000000081526004016116f390613bec565b60405180910390fd5b600360003373ffffffffffffffffffffffffffffffffffffffff1673ffffffffffffffffffffffffffffffffffffffff168152602001908152602001600020836064811061174d5761174c613a53565b5b60040201826064811061176357611762613a53565b5b602091828204019190069054906101000a900460ff16156117ee577f8252da6cc8ba70656d63b4439295f2de59ffee7cf90c96f5aee10857159474e76040516117ab90613c7e565b60405180910390a16040517f08c379a00000000000000000000000000000000000000000000000000000000081526004016117e590613cb1565b60405180910390fd5b6000600260008581526020019081526020016000209050600081600301905060008160008154811061182357611822613a53565b5b90600052602060002090600d0201905060005b828054905081101561189e578583828154811061185657611855613a53565b5b90600052602060002090600d02016001015403611891578281815481106118805761187f613a53565b5b90600052602060002090600d020191505b8080600101915050611836565b50806004015484036118e5573481600a0160008282546118be9190613d00565b925050819055503481600c0160008282546118d99190613d00565b92505081905550611928565b80600501548403611927573481600b0160008282546119049190613d00565b925050819055503481600c01600082825461191f9190613d00565b925050819055505b5b6001600360003373ffffffffffffffffffffffffffffffffffffffff1673ffffffffffffffffffffffffffffffffffffffff168152602001908152602001600020876064811061197b5761197a613a53565b5b60040201866064811061199157611990613a53565b5b602091828204019190066101000a81548160ff021916908315150217905550600060405180608001604052803373ffffffffffffffffffffffffffffffffffffffff1681526020013481526020018681526020016000815250905060046000888152602001908152602001600020600087815260200190815260200160002081908060018154018082558091505060019003906000526020600020906004020160009091909190915060008201518160000160006101000a81548173ffffffffffffffffffffffffffffffffffffffff021916908373ffffffffffffffffffffffffffffffffffffffff160217905550602082015181600101556040820151816002015560608201518160030155505050505050505050565b600160009054906101000a900473ffffffffffffffffffffffffffffffffffffffff1673ffffffffffffffffffffffffffffffffffffffff163373ffffffffffffffffffffffffffffffffffffffff1614611b3a576040517f08c379a0000000000000000000000000000000000000000000000000000000008152600401611b31906137b5565b60405180910390fd5b600080611b4785856114f6565b905060006002600087815260200190815260200160002090506000816003019050600081600081548110611b7e57611b7d613a53565b5b90600052602060002090600d0201905060005b8280549050811015611bf95787838281548110611bb157611bb0613a53565b5b90600052602060002090600d02016001015403611bec57828181548110611bdb57611bda613a53565b5b90600052602060002090600d020191505b8080600101915050611b91565b5060018160080160006101000a81548160ff021916908315150217905550858160090181905550600086826004015403611c395781600a01549050611c4d565b86826005015403611c4c5781600b015490505b5b6000600460008b815260200190815260200160002060008a8152602001908152602001600020905060005b8180549050811015611e1f576000828281548110611c9957611c98613a53565b5b9060005260206000209060040201905089816002015403611e11576000670de0b6b3a76400008260010154611cce9190613d34565b90506000670de0b6b3a76400008a611ce69190613d34565b90506000670de0b6b3a764000087611cfe9190613d34565b90506000818385611d0f9190613d34565b611d199190613da5565b9050670de0b6b3a764000081611d2f9190613da5565b9c5060008560000160009054906101000a900473ffffffffffffffffffffffffffffffffffffffff16905060008173ffffffffffffffffffffffffffffffffffffffff168f604051611d8090613e07565b60006040518083038185875af1925050503d8060008114611dbd576040519150601f19603f3d011682016040523d82523d6000602084013e611dc2565b606091505b5050905080611e01577f8252da6cc8ba70656d63b4439295f2de59ffee7cf90c96f5aee10857159474e7604051611df890613e68565b60405180910390a15b8e87600301819055505050505050505b508080600101915050611c78565b507f8252da6cc8ba70656d63b4439295f2de59ffee7cf90c96f5aee10857159474e7604051611e4d90613f33565b60405180910390a150505050505050505050565b600160009054906101000a900473ffffffffffffffffffffffffffffffffffffffff1673ffffffffffffffffffffffffffffffffffffffff163373ffffffffffffffffffffffffffffffffffffffff1614611ef1576040517f08c379a0000000000000000000000000000000000000000000000000000000008152600401611ee8906137b5565b60405180910390fd5b6000806000815480929190611f0590613f66565b919050559050600060026000838152602001908152602001600020905088816000019081611f339190613981565b5081816001018190555087816002019081611f4e9190613981565b5086816004019080519060200190611f6792919061251e565b5085816005019081611f799190613981565b5084816006019081611f8b9190613981565b5083816007019081611f9d9190613981565b5082816008019081611faf9190613981565b50600581908060018154018082558091505060019003906000526020600020906009020160009091909190915060008201816000019081611ff09190613fc4565b50600182015481600101556002820181600201908161200f9190613fc4565b506003820181600301908054612026929190612577565b50600482018160040190805461203d9291906126a0565b50600582018160050190816120529190613fc4565b50600682018160060190816120679190613fc4565b506007820181600701908161207c9190613fc4565b50600882018160080190816120919190613fc4565b505050505050505050505050565b600360205282600052604060002082606481106120bb57600080fd5b6004020181606481106120cd57600080fd5b6020918282040191900692509250509054906101000a900460ff1681565b60005481565b60606000600260008481526020019081526020016000209050600081600301905080805480602002602001604051908101604052809291908181526020016000905b8282101561241957838290600052602060002090600d0201604051806101a0016040529081600082015481526020016001820154815260200160028201805461217b90613738565b80601f01602080910402602001604051908101604052809291908181526020018280546121a790613738565b80156121f45780601f106121c9576101008083540402835291602001916121f4565b820191906000526020600020905b8154815290600101906020018083116121d757829003601f168201915b5050505050815260200160038201805461220d90613738565b80601f016020809104026020016040519081016040528092919081815260200182805461223990613738565b80156122865780601f1061225b57610100808354040283529160200191612286565b820191906000526020600020905b81548152906001019060200180831161226957829003601f168201915b5050505050815260200160048201548152602001600582015481526020016006820180546122b390613738565b80601f01602080910402602001604051908101604052809291908181526020018280546122df90613738565b801561232c5780601f106123015761010080835404028352916020019161232c565b820191906000526020600020905b81548152906001019060200180831161230f57829003601f168201915b5050505050815260200160078201805461234590613738565b80601f016020809104026020016040519081016040528092919081815260200182805461237190613738565b80156123be5780601f10612393576101008083540402835291602001916123be565b820191906000526020600020905b8154815290600101906020018083116123a157829003601f168201915b505050505081526020016008820160009054906101000a900460ff1615151515815260200160098201548152602001600a8201548152602001600b8201548152602001600c8201548152505081526020019060010190612133565b5050505092505050919050565b6060600460008481526020019081526020016000206000838152602001908152602001600020805480602002602001604051908101604052809291908181526020016000905b8282101561251257838290600052602060002090600402016040518060800160405290816000820160009054906101000a900473ffffffffffffffffffffffffffffffffffffffff1673ffffffffffffffffffffffffffffffffffffffff1673ffffffffffffffffffffffffffffffffffffffff16815260200160018201548152602001600282015481526020016003820154815250508152602001906001019061246c565b50505050905092915050565b828054828255906000526020600020908101928215612566579160200282015b828111156125655782518290816125559190613981565b509160200191906001019061253e565b5b50905061257391906126fd565b5090565b82805482825590600052602060002090600d02810192821561268f57600052602060002091600d0282015b8281111561268e5782826000820154816000015560018201548160010155600282018160020190816125d49190613fc4565b50600382018160030190816125e99190613fc4565b506004820154816004015560058201548160050155600682018160060190816126129190613fc4565b50600782018160070190816126279190613fc4565b506008820160009054906101000a900460ff168160080160006101000a81548160ff02191690831515021790555060098201548160090155600a82015481600a0155600b82015481600b0155600c82015481600c0155505091600d019190600d01906125a2565b5b50905061269c9190612721565b5090565b8280548282559060005260206000209081019282156126ec5760005260206000209182015b828111156126eb57828290816126db9190613fc4565b50916001019190600101906126c5565b5b5090506126f991906126fd565b5090565b5b8082111561271d576000818161271491906127cc565b506001016126fe565b5090565b5b808211156127c857600080820160009055600182016000905560028201600061274b91906127cc565b60038201600061275b91906127cc565b6004820160009055600582016000905560068201600061277b91906127cc565b60078201600061278b91906127cc565b6008820160006101000a81549060ff02191690556009820160009055600a820160009055600b820160009055600c82016000905550600d01612722565b5090565b5080546127d890613738565b6000825580601f106127ea5750612809565b601f016020900490600052602060002090810190612808919061280c565b5b50565b5b8082111561282557600081600090555060010161280d565b5090565b6000604051905090565b600080fd5b600080fd5b6000819050919050565b6128508161283d565b811461285b57600080fd5b50565b60008135905061286d81612847565b92915050565b60006020828403121561288957612888612833565b5b60006128978482850161285e565b91505092915050565b600081519050919050565b600082825260208201905092915050565b60005b838110156128da5780820151818401526020810190506128bf565b60008484015250505050565b6000601f19601f8301169050919050565b6000612902826128a0565b61290c81856128ab565b935061291c8185602086016128bc565b612925816128e6565b840191505092915050565b6129398161283d565b82525050565b600060e0820190508181036000830152612959818a6128f7565b90506129686020830189612930565b818103604083015261297a81886128f7565b9050818103606083015261298e81876128f7565b905081810360808301526129a281866128f7565b905081810360a08301526129b681856128f7565b905081810360c08301526129ca81846128f7565b905098975050505050505050565b6000806000606084860312156129f1576129f0612833565b5b60006129ff8682870161285e565b9350506020612a108682870161285e565b9250506040612a218682870161285e565b9150509250925092565b600073ffffffffffffffffffffffffffffffffffffffff82169050919050565b6000612a5682612a2b565b9050919050565b612a6681612a4b565b82525050565b6000608082019050612a816000830187612a5d565b612a8e6020830186612930565b612a9b6040830185612930565b612aa86060830184612930565b95945050505050565b600081519050919050565b600082825260208201905092915050565b6000819050602082019050919050565b600082825260208201905092915050565b6000612af9826128a0565b612b038185612add565b9350612b138185602086016128bc565b612b1c816128e6565b840191505092915050565b612b308161283d565b82525050565b600081519050919050565b600082825260208201905092915050565b6000819050602082019050919050565b60008115159050919050565b612b7781612b62565b82525050565b60006101a083016000830151612b966000860182612b27565b506020830151612ba96020860182612b27565b5060408301518482036040860152612bc18282612aee565b91505060608301518482036060860152612bdb8282612aee565b9150506080830151612bf06080860182612b27565b5060a0830151612c0360a0860182612b27565b5060c083015184820360c0860152612c1b8282612aee565b91505060e083015184820360e0860152612c358282612aee565b915050610100830151612c4c610100860182612b6e565b50610120830151612c61610120860182612b27565b50610140830151612c76610140860182612b27565b50610160830151612c8b610160860182612b27565b50610180830151612ca0610180860182612b27565b508091505092915050565b6000612cb78383612b7d565b905092915050565b6000602082019050919050565b6000612cd782612b36565b612ce18185612b41565b935083602082028501612cf385612b52565b8060005b85811015612d2f5784840389528151612d108582612cab565b9450612d1b83612cbf565b925060208a01995050600181019050612cf7565b50829750879550505050505092915050565b600081519050919050565b600082825260208201905092915050565b6000819050602082019050919050565b6000612d798383612aee565b905092915050565b6000602082019050919050565b6000612d9982612d41565b612da38185612d4c565b935083602082028501612db585612d5d565b8060005b85811015612df15784840389528151612dd28582612d6d565b9450612ddd83612d81565b925060208a01995050600181019050612db9565b50829750879550505050505092915050565b6000610120830160008301518482036000860152612e218282612aee565b9150506020830151612e366020860182612b27565b5060408301518482036040860152612e4e8282612aee565b91505060608301518482036060860152612e688282612ccc565b91505060808301518482036080860152612e828282612d8e565b91505060a083015184820360a0860152612e9c8282612aee565b91505060c083015184820360c0860152612eb68282612aee565b91505060e083015184820360e0860152612ed08282612aee565b915050610100830151848203610100860152612eec8282612aee565b9150508091505092915050565b6000612f058383612e03565b905092915050565b6000602082019050919050565b6000612f2582612ab1565b612f2f8185612abc565b935083602082028501612f4185612acd565b8060005b85811015612f7d5784840389528151612f5e8582612ef9565b9450612f6983612f0d565b925060208a01995050600181019050612f45565b50829750879550505050505092915050565b60006020820190508181036000830152612fa98184612f1a565b905092915050565b600080fd5b600080fd5b7f4e487b7100000000000000000000000000000000000000000000000000000000600052604160045260246000fd5b612ff3826128e6565b810181811067ffffffffffffffff8211171561301257613011612fbb565b5b80604052505050565b6000613025612829565b90506130318282612fea565b919050565b600067ffffffffffffffff82111561305157613050612fbb565b5b61305a826128e6565b9050602081019050919050565b82818337600083830152505050565b600061308961308484613036565b61301b565b9050828152602081018484840111156130a5576130a4612fb6565b5b6130b0848285613067565b509392505050565b600082601f8301126130cd576130cc612fb1565b5b81356130dd848260208601613076565b91505092915050565b600080600080600080600060e0888a03121561310557613104612833565b5b60006131138a828b0161285e565b97505060206131248a828b0161285e565b965050604088013567ffffffffffffffff81111561314557613144612838565b5b6131518a828b016130b8565b955050606088013567ffffffffffffffff81111561317257613171612838565b5b61317e8a828b016130b8565b945050608061318f8a828b0161285e565b93505060a06131a08a828b0161285e565b92505060c088013567ffffffffffffffff8111156131c1576131c0612838565b5b6131cd8a828b016130b8565b91505092959891949750929550565b600080604083850312156131f3576131f2612833565b5b60006132018582860161285e565b92505060206132128582860161285e565b9150509250929050565b60006020820190506132316000830184612930565b92915050565b600067ffffffffffffffff82111561325257613251612fbb565b5b602082029050602081019050919050565b600080fd5b600061327b61327684613237565b61301b565b9050808382526020820190506020840283018581111561329e5761329d613263565b5b835b818110156132e557803567ffffffffffffffff8111156132c3576132c2612fb1565b5b8086016132d089826130b8565b855260208501945050506020810190506132a0565b5050509392505050565b600082601f83011261330457613303612fb1565b5b8135613314848260208601613268565b91505092915050565b600080600080600080600060e0888a03121561333c5761333b612833565b5b600088013567ffffffffffffffff81111561335a57613359612838565b5b6133668a828b016130b8565b975050602088013567ffffffffffffffff81111561338757613386612838565b5b6133938a828b016130b8565b965050604088013567ffffffffffffffff8111156133b4576133b3612838565b5b6133c08a828b016132ef565b955050606088013567ffffffffffffffff8111156133e1576133e0612838565b5b6133ed8a828b016130b8565b945050608088013567ffffffffffffffff81111561340e5761340d612838565b5b61341a8a828b016130b8565b93505060a088013567ffffffffffffffff81111561343b5761343a612838565b5b6134478a828b016130b8565b92505060c088013567ffffffffffffffff81111561346857613467612838565b5b6134748a828b016130b8565b91505092959891949750929550565b61348c81612a4b565b811461349757600080fd5b50565b6000813590506134a981613483565b92915050565b6000806000606084860312156134c8576134c7612833565b5b60006134d68682870161349a565b93505060206134e78682870161285e565b92505060406134f88682870161285e565b9150509250925092565b61350b81612b62565b82525050565b60006020820190506135266000830184613502565b92915050565b600082825260208201905092915050565b600061354882612b36565b613552818561352c565b93508360208202850161356485612b52565b8060005b858110156135a057848403895281516135818582612cab565b945061358c83612cbf565b925060208a01995050600181019050613568565b50829750879550505050505092915050565b600060208201905081810360008301526135cc818461353d565b905092915050565b600081519050919050565b600082825260208201905092915050565b6000819050602082019050919050565b61360981612a4b565b82525050565b6080820160008201516136256000850182613600565b5060208201516136386020850182612b27565b50604082015161364b6040850182612b27565b50606082015161365e6060850182612b27565b50505050565b6000613670838361360f565b60808301905092915050565b6000602082019050919050565b6000613694826135d4565b61369e81856135df565b93506136a9836135f0565b8060005b838110156136da5781516136c18882613664565b97506136cc8361367c565b9250506001810190506136ad565b5085935050505092915050565b600060208201905081810360008301526137018184613689565b905092915050565b7f4e487b7100000000000000000000000000000000000000000000000000000000600052602260045260246000fd5b6000600282049050600182168061375057607f821691505b60208210810361376357613762613709565b5b50919050565b7f4d757374206265206f776e657221200000000000000000000000000000000000600082015250565b600061379f600f836128ab565b91506137aa82613769565b602082019050919050565b600060208201905081810360008301526137ce81613792565b9050919050565b60008190508160005260206000209050919050565b60006020601f8301049050919050565b600082821b905092915050565b6000600883026138377fffffffffffffffffffffffffffffffffffffffffffffffffffffffffffffffff826137fa565b61384186836137fa565b95508019841693508086168417925050509392505050565b6000819050919050565b600061387e6138796138748461283d565b613859565b61283d565b9050919050565b6000819050919050565b61389883613863565b6138ac6138a482613885565b848454613807565b825550505050565b600090565b6138c16138b4565b6138cc81848461388f565b505050565b5b818110156138f0576138e56000826138b9565b6001810190506138d2565b5050565b601f82111561393557613906816137d5565b61390f846137ea565b8101602085101561391e578190505b61393261392a856137ea565b8301826138d1565b50505b505050565b600082821c905092915050565b60006139586000198460080261393a565b1980831691505092915050565b60006139718383613947565b9150826002028217905092915050565b61398a826128a0565b67ffffffffffffffff8111156139a3576139a2612fbb565b5b6139ad8254613738565b6139b88282856138f4565b600060209050601f8311600181146139eb57600084156139d9578287015190505b6139e38582613965565b865550613a4b565b601f1984166139f9866137d5565b60005b82811015613a21578489015182556001820191506020850194506020810190506139fc565b86831015613a3e5784890151613a3a601f891682613947565b8355505b6001600288020188555050505b505050505050565b7f4e487b7100000000000000000000000000000000000000000000000000000000600052603260045260246000fd5b7f4572726f72000000000000000000000000000000000000000000000000000000600082015250565b6000613ab86005836128ab565b9150613ac382613a82565b602082019050919050565b7f4f776e65722063616e6e6f7420706c6163652062657473000000000000000000600082015250565b6000613b046017836128ab565b9150613b0f82613ace565b602082019050919050565b60006040820190508181036000830152613b3381613aab565b90508181036020830152613b4681613af7565b9050919050565b60006020820190508181036000830152613b6681613af7565b9050919050565b7f496e73756666696369656e7420616d6f756e7400000000000000000000000000600082015250565b6000613ba36013836128ab565b9150613bae82613b6d565b602082019050919050565b60006040820190508181036000830152613bd281613aab565b90508181036020830152613be581613b96565b9050919050565b60006020820190508181036000830152613c0581613b96565b9050919050565b7f596f75206861766520616c726561647920706c6163656420796f75722062657460008201527f20696e2074686973206d61746368000000000000000000000000000000000000602082015250565b6000613c68602e836128ab565b9150613c7382613c0c565b604082019050919050565b60006040820190508181036000830152613c9781613aab565b90508181036020830152613caa81613c5b565b9050919050565b60006020820190508181036000830152613cca81613c5b565b9050919050565b7f4e487b7100000000000000000000000000000000000000000000000000000000600052601160045260246000fd5b6000613d0b8261283d565b9150613d168361283d565b9250828201905080821115613d2e57613d2d613cd1565b5b92915050565b6000613d3f8261283d565b9150613d4a8361283d565b9250828202613d588161283d565b91508282048414831517613d6f57613d6e613cd1565b5b5092915050565b7f4e487b7100000000000000000000000000000000000000000000000000000000600052601260045260246000fd5b6000613db08261283d565b9150613dbb8361283d565b925082613dcb57613dca613d76565b5b828204905092915050565b600081905092915050565b50565b6000613df1600083613dd6565b9150613dfc82613de1565b600082019050919050565b6000613e1282613de4565b9150819050919050565b7f4661696c656420746f2073656e64206574686572000000000000000000000000600082015250565b6000613e526014836128ab565b9150613e5d82613e1c565b602082019050919050565b60006040820190508181036000830152613e8181613aab565b90508181036020830152613e9481613e45565b9050919050565b7f7375636365737300000000000000000000000000000000000000000000000000600082015250565b6000613ed16007836128ab565b9150613edc82613e9b565b602082019050919050565b7f7061796d656e7420646f6e6520746f2077696e6e657273000000000000000000600082015250565b6000613f1d6017836128ab565b9150613f2882613ee7565b602082019050919050565b60006040820190508181036000830152613f4c81613ec4565b90508181036020830152613f5f81613f10565b9050919050565b6000613f718261283d565b91507fffffffffffffffffffffffffffffffffffffffffffffffffffffffffffffffff8203613fa357613fa2613cd1565b5b600182019050919050565b600081549050613fbd81613738565b9050919050565b818103613fd25750506140aa565b613fdb82613fae565b67ffffffffffffffff811115613ff457613ff3612fbb565b5b613ffe8254613738565b6140098282856138f4565b6000601f8311600181146140385760008415614026578287015490505b6140308582613965565b8655506140a3565b601f198416614046876137d5565b9650614051866137d5565b60005b8281101561407957848901548255600182019150600185019450602081019050614054565b868310156140965784890154614092601f891682613947565b8355505b6001600288020188555050505b5050505050505b56fea2646970667358221220c37a3ee3348bcc3a25bebca021288f7603f84a94d5ff18efc069c574cb21c4f364736f6c63430008180033",
  "linkReferences": {},
  "deployedLinkReferences": {}
}