{"abi":[{"type":"constructor","inputs":[],"stateMutability":"payable"},{"type":"function","name":"bettors","inputs":[{"name":"","type":"uint256","internalType":"uint256"},{"name":"","type":"uint256","internalType":"uint256"},{"name":"","type":"uint256","internalType":"uint256"}],"outputs":[{"name":"add","type":"address","internalType":"address"},{"name":"amount","type":"uint256","internalType":"uint256"},{"name":"teamID","type":"uint256","internalType":"uint256"}],"stateMutability":"view"},{"type":"function","name":"createBet","inputs":[{"name":"_eventID","type":"uint256","internalType":"uint256"},{"name":"_matchID","type":"uint256","internalType":"uint256"},{"name":"_teamID","type":"uint256","internalType":"uint256"}],"outputs":[],"stateMutability":"payable"},{"type":"function","name":"createEvent","inputs":[{"name":"_eventName","type":"string","internalType":"string"},{"name":"_eventID","type":"uint256","internalType":"uint256"},{"name":"_tags","type":"string[]","internalType":"string[]"},{"name":"_description","type":"string","internalType":"string"},{"name":"_status","type":"string","internalType":"string"},{"name":"_endDate","type":"string","internalType":"string"}],"outputs":[],"stateMutability":"nonpayable"},{"type":"function","name":"createMatch","inputs":[{"name":"_eventID","type":"uint256","internalType":"uint256"},{"name":"_matchID","type":"uint256","internalType":"uint256"},{"name":"_side1","type":"string","internalType":"string"},{"name":"_side2","type":"string","internalType":"string"},{"name":"_ID1","type":"uint256","internalType":"uint256"},{"name":"_ID2","type":"uint256","internalType":"uint256"},{"name":"_duration","type":"uint256","internalType":"uint256"}],"outputs":[],"stateMutability":"nonpayable"},{"type":"function","name":"declareWinnerAndDistribute","inputs":[{"name":"_eventID","type":"uint256","internalType":"uint256"},{"name":"_matchID","type":"uint256","internalType":"uint256"},{"name":"_teamID","type":"uint256","internalType":"uint256"}],"outputs":[],"stateMutability":"payable"},{"type":"function","name":"eventIDToEvent","inputs":[{"name":"","type":"uint256","internalType":"uint256"}],"outputs":[{"name":"name","type":"string","internalType":"string"},{"name":"eventID","type":"uint256","internalType":"uint256"},{"name":"description","type":"string","internalType":"string"},{"name":"status","type":"string","internalType":"string"},{"name":"endDate","type":"string","internalType":"string"}],"stateMutability":"view"},{"type":"function","name":"events","inputs":[{"name":"","type":"uint256","internalType":"uint256"}],"outputs":[{"name":"name","type":"string","internalType":"string"},{"name":"eventID","type":"uint256","internalType":"uint256"},{"name":"description","type":"string","internalType":"string"},{"name":"status","type":"string","internalType":"string"},{"name":"endDate","type":"string","internalType":"string"}],"stateMutability":"view"},{"type":"function","name":"getEvents","inputs":[],"outputs":[{"name":"","type":"tuple[]","internalType":"struct NewBettingDapp.Event[]","components":[{"name":"name","type":"string","internalType":"string"},{"name":"eventID","type":"uint256","internalType":"uint256"},{"name":"matches","type":"tuple[]","internalType":"struct NewBettingDapp.Match[]","components":[{"name":"eventID","type":"uint256","internalType":"uint256"},{"name":"matchID","type":"uint256","internalType":"uint256"},{"name":"side1","type":"string","internalType":"string"},{"name":"side2","type":"string","internalType":"string"},{"name":"ID1","type":"uint256","internalType":"uint256"},{"name":"ID2","type":"uint256","internalType":"uint256"},{"name":"duration","type":"uint256","internalType":"uint256"},{"name":"status","type":"string","internalType":"string"},{"name":"resultAnnounced","type":"bool","internalType":"bool"},{"name":"winnerID","type":"uint256","internalType":"uint256"},{"name":"funds1","type":"uint256","internalType":"uint256"},{"name":"funds2","type":"uint256","internalType":"uint256"},{"name":"totalFunds","type":"uint256","internalType":"uint256"}]},{"name":"tags","type":"string[]","internalType":"string[]"},{"name":"description","type":"string","internalType":"string"},{"name":"status","type":"string","internalType":"string"},{"name":"endDate","type":"string","internalType":"string"}]}],"stateMutability":"view"},{"type":"function","name":"getMatches","inputs":[{"name":"_eventID","type":"uint256","internalType":"uint256"}],"outputs":[{"name":"","type":"tuple[]","internalType":"struct NewBettingDapp.Match[]","components":[{"name":"eventID","type":"uint256","internalType":"uint256"},{"name":"matchID","type":"uint256","internalType":"uint256"},{"name":"side1","type":"string","internalType":"string"},{"name":"side2","type":"string","internalType":"string"},{"name":"ID1","type":"uint256","internalType":"uint256"},{"name":"ID2","type":"uint256","internalType":"uint256"},{"name":"duration","type":"uint256","internalType":"uint256"},{"name":"status","type":"string","internalType":"string"},{"name":"resultAnnounced","type":"bool","internalType":"bool"},{"name":"winnerID","type":"uint256","internalType":"uint256"},{"name":"funds1","type":"uint256","internalType":"uint256"},{"name":"funds2","type":"uint256","internalType":"uint256"},{"name":"totalFunds","type":"uint256","internalType":"uint256"}]}],"stateMutability":"view"},{"type":"function","name":"getTotalBetAmount","inputs":[{"name":"_eventID","type":"uint256","internalType":"uint256"},{"name":"_matchID","type":"uint256","internalType":"uint256"}],"outputs":[{"name":"","type":"uint256","internalType":"uint256"}],"stateMutability":"view"},{"type":"function","name":"hasBetted","inputs":[{"name":"","type":"address","internalType":"address"},{"name":"","type":"uint256","internalType":"uint256"},{"name":"","type":"uint256","internalType":"uint256"}],"outputs":[{"name":"","type":"bool","internalType":"bool"}],"stateMutability":"view"}],"bytecode":{"object":"0x6080604052600080546001600160a01b031916331790556124ab806100256000396000f3fe60806040526004361061009b5760003560e01c80637538e2a3116100645780637538e2a3146101835780639062ce7d146101b15780639f299a52146101c4578063b9087779146101d7578063c4a4cd03146101f7578063e60d585a1461022757600080fd5b8062cee13d146100a05780630b791430146100da57806312ea5dcd146100fa578063404aa8f91461013f5780634ce2d3fb14610161575b600080fd5b3480156100ac57600080fd5b506100c06100bb366004611a41565b610254565b6040516100d1959493929190611aa0565b60405180910390f35b3480156100e657600080fd5b506100c06100f5366004611a41565b6104a2565b34801561010657600080fd5b5061011a610115366004611aff565b6104d5565b604080516001600160a01b0390941684526020840192909252908201526060016100d1565b34801561014b57600080fd5b5061015461052f565b6040516100d19190611c89565b34801561016d57600080fd5b5061018161017c366004611ed2565b610b3e565b005b34801561018f57600080fd5b506101a361019e366004611fac565b610c92565b6040519081526020016100d1565b6101816101bf366004611aff565b610d39565b6101816101d2366004611aff565b61108a565b3480156101e357600080fd5b506101816101f2366004611fce565b61133c565b34801561020357600080fd5b50610217610212366004612060565b6114cd565b60405190151581526020016100d1565b34801561023357600080fd5b50610247610242366004611a41565b611519565b6040516100d191906120a1565b60016020526000908152604090208054819061026f906121ae565b80601f016020809104026020016040519081016040528092919081815260200182805461029b906121ae565b80156102e85780601f106102bd576101008083540402835291602001916102e8565b820191906000526020600020905b8154815290600101906020018083116102cb57829003601f168201915b505050505090806001015490806004018054610303906121ae565b80601f016020809104026020016040519081016040528092919081815260200182805461032f906121ae565b801561037c5780601f106103515761010080835404028352916020019161037c565b820191906000526020600020905b81548152906001019060200180831161035f57829003601f168201915b505050505090806005018054610391906121ae565b80601f01602080910402602001604051908101604052809291908181526020018280546103bd906121ae565b801561040a5780601f106103df5761010080835404028352916020019161040a565b820191906000526020600020905b8154815290600101906020018083116103ed57829003601f168201915b50505050509080600601805461041f906121ae565b80601f016020809104026020016040519081016040528092919081815260200182805461044b906121ae565b80156104985780601f1061046d57610100808354040283529160200191610498565b820191906000526020600020905b81548152906001019060200180831161047b57829003601f168201915b5050505050905085565b600481815481106104b257600080fd5b906000526020600020906007020160009150905080600001805461026f906121ae565b600360205282600052604060002060205281600052604060002081815481106104fd57600080fd5b60009182526020909120600390910201805460018201546002909201546001600160a01b039091169450909250905083565b60606004805480602002602001604051908101604052809291908181526020016000905b82821015610b3557838290600052602060002090600702016040518060e0016040529081600082018054610586906121ae565b80601f01602080910402602001604051908101604052809291908181526020018280546105b2906121ae565b80156105ff5780601f106105d4576101008083540402835291602001916105ff565b820191906000526020600020905b8154815290600101906020018083116105e257829003601f168201915b505050505081526020016001820154815260200160028201805480602002602001604051908101604052809291908181526020016000905b8282101561088f57838290600052602060002090600d0201604051806101a0016040529081600082015481526020016001820154815260200160028201805461067f906121ae565b80601f01602080910402602001604051908101604052809291908181526020018280546106ab906121ae565b80156106f85780601f106106cd576101008083540402835291602001916106f8565b820191906000526020600020905b8154815290600101906020018083116106db57829003601f168201915b50505050508152602001600382018054610711906121ae565b80601f016020809104026020016040519081016040528092919081815260200182805461073d906121ae565b801561078a5780601f1061075f5761010080835404028352916020019161078a565b820191906000526020600020905b81548152906001019060200180831161076d57829003601f168201915b505050505081526020016004820154815260200160058201548152602001600682015481526020016007820180546107c1906121ae565b80601f01602080910402602001604051908101604052809291908181526020018280546107ed906121ae565b801561083a5780601f1061080f5761010080835404028352916020019161083a565b820191906000526020600020905b81548152906001019060200180831161081d57829003601f168201915b5050509183525050600882015460ff16151560208083019190915260098301546040830152600a8301546060830152600b8301546080830152600c9092015460a0909101529082526001929092019101610637565b50505050815260200160038201805480602002602001604051908101604052809291908181526020016000905b828210156109685783829060005260206000200180546108db906121ae565b80601f0160208091040260200160405190810160405280929190818152602001828054610907906121ae565b80156109545780601f1061092957610100808354040283529160200191610954565b820191906000526020600020905b81548152906001019060200180831161093757829003601f168201915b5050505050815260200190600101906108bc565b505050508152602001600482018054610980906121ae565b80601f01602080910402602001604051908101604052809291908181526020018280546109ac906121ae565b80156109f95780601f106109ce576101008083540402835291602001916109f9565b820191906000526020600020905b8154815290600101906020018083116109dc57829003601f168201915b50505050508152602001600582018054610a12906121ae565b80601f0160208091040260200160405190810160405280929190818152602001828054610a3e906121ae565b8015610a8b5780601f10610a6057610100808354040283529160200191610a8b565b820191906000526020600020905b815481529060010190602001808311610a6e57829003601f168201915b50505050508152602001600682018054610aa4906121ae565b80601f0160208091040260200160405190810160405280929190818152602001828054610ad0906121ae565b8015610b1d5780601f10610af257610100808354040283529160200191610b1d565b820191906000526020600020905b815481529060010190602001808311610b0057829003601f168201915b50505050508152505081526020019060010190610553565b50505050905090565b6000546001600160a01b03163314610b715760405162461bcd60e51b8152600401610b68906121e8565b60405180910390fd5b600085815260016020526040902080610b8a8882612262565b50600181018690558451610ba790600383019060208801906117b1565b5060048101610bb68582612262565b5060058101610bc58482612262565b5060068101610bd48382612262565b506004805460018101825560009190915281906007027f8a35acfbc15ff81a39ae7d344fd709f28e8600b4aa8c65c6b64bfe7fe36bd19b0180610c178382612322565b50600182015481600101556002820181600201908054610c38929190611807565b5060038281018054610c4d9284019190611902565b50600481810190610c6090840182612322565b50600581810190610c7390840182612322565b50600681810190610c8690840182612322565b50505050505050505050565b6000828152600160205260408120600281018054839082908290610cb857610cb86123fd565b90600052602060002090600d0201905060005b8254811015610d295785838281548110610ce757610ce76123fd565b90600052602060002090600d02016001015403610d2157828181548110610d1057610d106123fd565b90600052602060002090600d020191505b600101610ccb565b50600c0154925050505b92915050565b6000546001600160a01b03163303610d935760405162461bcd60e51b815260206004820152601760248201527f4f776e65722063616e6e6f7420706c61636520626574730000000000000000006044820152606401610b68565b662386f26fc10000341015610de05760405162461bcd60e51b8152602060048201526013602482015272125b9cdd59999a58da595b9d08185b5bdd5b9d606a1b6044820152606401610b68565b3360009081526002602052604090208360648110610e0057610e006123fd565b600402018260648110610e1557610e156123fd565b602081049091015460ff601f9092166101000a90041615610e8f5760405162461bcd60e51b815260206004820152602e60248201527f596f75206861766520616c726561647920706c6163656420796f75722062657460448201526d040d2dc40e8d0d2e640dac2e8c6d60931b6064820152608401610b68565b60008381526001602052604081206002810180549192909182908290610eb757610eb76123fd565b90600052602060002090600d0201905060005b8254811015610f285785838281548110610ee657610ee66123fd565b90600052602060002090600d02016001015403610f2057828181548110610f0f57610f0f6123fd565b90600052602060002090600d020191505b600101610eca565b5080600401548403610f6e573481600a016000828254610f489190612429565b925050819055503481600c016000828254610f639190612429565b90915550610fae9050565b80600501548403610fae573481600b016000828254610f8d9190612429565b925050819055503481600c016000828254610fa89190612429565b90915550505b3360009081526002602052604090206001908760648110610fd157610fd16123fd565b600402018660648110610fe657610fe66123fd565b60208082049092018054931515601f9092166101000a91820260ff909202199093161790915560408051606081018252338152348184019081528183019788526000998a526003808552838b20998b52988452918920805460018181018355918b529390992090519290970290960180546001600160a01b03929092166001600160a01b031990921691909117815594519585019590955550505160029091015550565b6000546001600160a01b031633146110b45760405162461bcd60e51b8152600401610b68906121e8565b6000806110c18585610c92565b60008681526001602052604081206002810180549394509092909190829082906110ed576110ed6123fd565b90600052602060002090600d0201905060005b825481101561115e578783828154811061111c5761111c6123fd565b90600052602060002090600d0201600101540361115657828181548110611145576111456123fd565b90600052602060002090600d020191505b600101611100565b5060088101805460ff1916600117905560098101869055600481015460009087900361118f5750600a8101546111a1565b868260050154036111a15750600b8101545b60008981526003602090815260408083208b84529091528120905b815481101561132f5760008282815481106111d9576111d96123fd565b9060005260206000209060030201905089816002015403611326576000670de0b6b3a7640000826001015461120e919061243c565b90506000611224670de0b6b3a76400008b61243c565b9050600061123a670de0b6b3a76400008861243c565b9050600081611249848661243c565b6112539190612453565b9050611267670de0b6b3a764000082612453565b9c5060008560000160009054906101000a90046001600160a01b031690506000816001600160a01b03168f60405160006040518083038185875af1925050503d80600081146112d2576040519150601f19603f3d011682016040523d82523d6000602084013e6112d7565b606091505b505090508061131f5760405162461bcd60e51b81526020600482015260146024820152732330b4b632b2103a379039b2b7321032ba3432b960611b6044820152606401610b68565b5050505050505b506001016111bc565b5050505050505050505050565b6000546001600160a01b031633146113665760405162461bcd60e51b8152600401610b68906121e8565b600087815260016020818152604080842081516101a0810183528c81528084018c81528184018c8152606083018c9052608083018b905260a083018a905260c08301899052845180860190955260078552664f6e676f696e6760c81b8587015260e08301949094526101008201879052600119610120830152610140820187905261016082018790526101808201879052600280840180548089018255908952959097208251600d90960201948555519484019490945590519093839291908201906114329082612262565b50606082015160038201906114479082612262565b506080820151600482015560a0820151600582015560c0820151600682015560e0820151600782019061147a9082612262565b5061010082015160088201805460ff19169115159190911790556101208201516009820155610140820151600a820155610160820151600b82015561018090910151600c90910155505050505050505050565b600260205282600052604060002082606481106114e957600080fd5b6004020181606481106114fb57600080fd5b602081049091015460ff601f9092166101000a900416925083915050565b60008181526001602090815260408083206002810180548351818602810186019094528084526060959294919392849284015b828210156117a457838290600052602060002090600d0201604051806101a00160405290816000820154815260200160018201548152602001600282018054611594906121ae565b80601f01602080910402602001604051908101604052809291908181526020018280546115c0906121ae565b801561160d5780601f106115e25761010080835404028352916020019161160d565b820191906000526020600020905b8154815290600101906020018083116115f057829003601f168201915b50505050508152602001600382018054611626906121ae565b80601f0160208091040260200160405190810160405280929190818152602001828054611652906121ae565b801561169f5780601f106116745761010080835404028352916020019161169f565b820191906000526020600020905b81548152906001019060200180831161168257829003601f168201915b505050505081526020016004820154815260200160058201548152602001600682015481526020016007820180546116d6906121ae565b80601f0160208091040260200160405190810160405280929190818152602001828054611702906121ae565b801561174f5780601f106117245761010080835404028352916020019161174f565b820191906000526020600020905b81548152906001019060200180831161173257829003601f168201915b5050509183525050600882015460ff16151560208083019190915260098301546040830152600a8301546060830152600b8301546080830152600c9092015460a090910152908252600192909201910161154c565b5050505092505050919050565b8280548282559060005260206000209081019282156117f7579160200282015b828111156117f757825182906117e79082612262565b50916020019190600101906117d1565b5061180392915061194a565b5090565b82805482825590600052602060002090600d0281019282156118f657600052602060002091600d0282015b828111156118f6578254825560018084015490830155828260028082019061185c90840182612322565b5060038181019061186f90840182612322565b50600482015481600401556005820154816005015560068201548160060155600782018160070190816118a29190612322565b50600882810154908201805460ff191660ff909216151591909117905560098083015490820155600a8083015490820155600b8083015490820155600c91820154910155600d928301929190910190611832565b50611803929150611967565b8280548282559060005260206000209081019282156117f75760005260206000209182015b828111156117f7578161193a8482612322565b5091600101919060010190611927565b8082111561180357600061195e82826119ef565b5060010161194a565b808211156118035760008082556001820181905561198860028301826119ef565b6119966003830160006119ef565b6004820160009055600582016000905560068201600090556007820160006119be91906119ef565b5060088101805460ff19169055600060098201819055600a8201819055600b8201819055600c820155600d01611967565b5080546119fb906121ae565b6000825580601f10611a0b575050565b601f016020900490600052602060002090810190611a299190611a2c565b50565b5b808211156118035760008155600101611a2d565b600060208284031215611a5357600080fd5b5035919050565b6000815180845260005b81811015611a8057602081850181015186830182015201611a64565b506000602082860101526020601f19601f83011685010191505092915050565b60a081526000611ab360a0830188611a5a565b8660208401528281036040840152611acb8187611a5a565b90508281036060840152611adf8186611a5a565b90508281036080840152611af38185611a5a565b98975050505050505050565b600080600060608486031215611b1457600080fd5b505081359360208301359350604090920135919050565b600082825180855260208086019550808260051b84010181860160005b84811015611c2f57601f1986840301895281516101a08151855285820151868601526040808301518282880152611b8183880182611a5a565b9250505060608083015186830382880152611b9c8382611a5a565b92505050608080830151818701525060a080830151818701525060c080830151818701525060e08083015186830382880152611bd88382611a5a565b9250505061010080830151611bf08288018215159052565b50506101208281015190860152610140808301519086015261016080830151908601526101809182015191909401529783019790830190600101611b48565b5090979650505050505050565b60008282518085526020808601955060208260051b8401016020860160005b84811015611c2f57601f19868403018952611c77838351611a5a565b98840198925090830190600101611c5b565b600060208083018184528085518083526040925060408601915060408160051b87010184880160005b83811015611d7a57603f19898403018552815160e08151818652611cd882870182611a5a565b91505088820151898601528782015185820389870152611cf88282611b2b565b91505060608083015186830382880152611d128382611c3c565b9250505060808083015186830382880152611d2d8382611a5a565b9250505060a08083015186830382880152611d488382611a5a565b9250505060c08083015192508582038187015250611d668183611a5a565b968901969450505090860190600101611cb2565b509098975050505050505050565b634e487b7160e01b600052604160045260246000fd5b604051601f8201601f1916810167ffffffffffffffff81118282101715611dc757611dc7611d88565b604052919050565b600082601f830112611de057600080fd5b813567ffffffffffffffff811115611dfa57611dfa611d88565b611e0d601f8201601f1916602001611d9e565b818152846020838601011115611e2257600080fd5b816020850160208301376000918101602001919091529392505050565b600082601f830112611e5057600080fd5b8135602067ffffffffffffffff80831115611e6d57611e6d611d88565b8260051b611e7c838201611d9e565b9384528581018301938381019088861115611e9657600080fd5b84880192505b85831015611af357823584811115611eb45760008081fd5b611ec28a87838c0101611dcf565b8352509184019190840190611e9c565b60008060008060008060c08789031215611eeb57600080fd5b863567ffffffffffffffff80821115611f0357600080fd5b611f0f8a838b01611dcf565b9750602089013596506040890135915080821115611f2c57600080fd5b611f388a838b01611e3f565b95506060890135915080821115611f4e57600080fd5b611f5a8a838b01611dcf565b94506080890135915080821115611f7057600080fd5b611f7c8a838b01611dcf565b935060a0890135915080821115611f9257600080fd5b50611f9f89828a01611dcf565b9150509295509295509295565b60008060408385031215611fbf57600080fd5b50508035926020909101359150565b600080600080600080600060e0888a031215611fe957600080fd5b8735965060208801359550604088013567ffffffffffffffff8082111561200f57600080fd5b61201b8b838c01611dcf565b965060608a013591508082111561203157600080fd5b5061203e8a828b01611dcf565b979a969950949760808101359660a0820135965060c090910135945092505050565b60008060006060848603121561207557600080fd5b83356001600160a01b038116811461208c57600080fd5b95602085013595506040909401359392505050565b600060208083018184528085518083526040925060408601915060408160051b87010184880160005b83811015611d7a57603f1989840301855281516101a081518552888201518986015287820151818987015261210182870182611a5a565b9150506060808301518683038288015261211b8382611a5a565b92505050608080830151818701525060a080830151818701525060c080830151818701525060e080830151868303828801526121578382611a5a565b925050506101008083015161216f8288018215159052565b505061012082810151908601526101408083015190860152610160808301519086015261018091820151919094015293860193908601906001016120ca565b600181811c908216806121c257607f821691505b6020821081036121e257634e487b7160e01b600052602260045260246000fd5b50919050565b6020808252600f908201526e026bab9ba1031329037bbb732b9109608d1b604082015260600190565b601f82111561225d576000816000526020600020601f850160051c8101602086101561223a5750805b601f850160051c820191505b8181101561225957828155600101612246565b5050505b505050565b815167ffffffffffffffff81111561227c5761227c611d88565b6122908161228a84546121ae565b84612211565b602080601f8311600181146122c557600084156122ad5750858301515b600019600386901b1c1916600185901b178555612259565b600085815260208120601f198616915b828110156122f4578886015182559484019460019091019084016122d5565b50858210156123125787850151600019600388901b60f8161c191681555b5050505050600190811b01905550565b81810361232d575050565b61233782546121ae565b67ffffffffffffffff81111561234f5761234f611d88565b61235d8161228a84546121ae565b6000601f82116001811461239157600083156123795750848201545b600019600385901b1c1916600184901b1784556123f6565b600085815260209020601f19841690600086815260209020845b838110156123cb57828601548255600195860195909101906020016123ab565b50858310156123e95781850154600019600388901b60f8161c191681555b50505060018360011b0184555b5050505050565b634e487b7160e01b600052603260045260246000fd5b634e487b7160e01b600052601160045260246000fd5b80820180821115610d3357610d33612413565b8082028115828204841417610d3357610d33612413565b60008261247057634e487b7160e01b600052601260045260246000fd5b50049056fea2646970667358221220b222bc075316f12d73d8dbc0bdc893727f8c2d3593812ccbf1173ad86650037d64736f6c63430008190033","linkReferences":{}},"methodIdentifiers":{"bettors(uint256,uint256,uint256)":"12ea5dcd","createBet(uint256,uint256,uint256)":"9062ce7d","createEvent(string,uint256,string[],string,string,string)":"4ce2d3fb","createMatch(uint256,uint256,string,string,uint256,uint256,uint256)":"b9087779","declareWinnerAndDistribute(uint256,uint256,uint256)":"9f299a52","eventIDToEvent(uint256)":"00cee13d","events(uint256)":"0b791430","getEvents()":"404aa8f9","getMatches(uint256)":"e60d585a","getTotalBetAmount(uint256,uint256)":"7538e2a3","hasBetted(address,uint256,uint256)":"c4a4cd03"},"id":3}