{
	"data": {
		"bytecode": {
			"linkReferences": {},
			"object": "6080604052604051612c38380380612c3883398181016040528101906100259190610108565b335f806101000a81548173ffffffffffffffffffffffffffffffffffffffff021916908373ffffffffffffffffffffffffffffffffffffffff1602179055508060015f6101000a81548173ffffffffffffffffffffffffffffffffffffffff021916908373ffffffffffffffffffffffffffffffffffffffff16021790555050610133565b5f80fd5b5f73ffffffffffffffffffffffffffffffffffffffff82169050919050565b5f6100d7826100ae565b9050919050565b6100e7816100cd565b81146100f1575f80fd5b50565b5f81519050610102816100de565b92915050565b5f6020828403121561011d5761011c6100aa565b5b5f61012a848285016100f4565b91505092915050565b612af8806101405f395ff3fe6080604052600436106100c0575f3560e01c80639062ce7d1161007e578063a87430ba11610058578063a87430ba14610258578063b908777914610295578063c4a4cd03146102bd578063e60d585a146102f9576100c0565b80639062ce7d146101f85780639a4d4385146102145780639f299a521461023c576100c0565b8062cee13d146100c45780630b7914301461010157806312ea5dcd1461013e578063223668441461017c578063404aa8f9146101a6578063704f1b94146101d0575b5f80fd5b3480156100cf575f80fd5b506100ea60048036038101906100e591906119db565b610335565b6040516100f8929190611a85565b60405180910390f35b34801561010c575f80fd5b50610127600480360381019061012291906119db565b6103db565b604051610135929190611a85565b60405180910390f35b348015610149575f80fd5b50610164600480360381019061015f9190611ab3565b610490565b60405161017393929190611b42565b60405180910390f35b348015610187575f80fd5b506101906104fa565b60405161019d9190611b91565b60405180910390f35b3480156101b1575f80fd5b506101ba61058f565b6040516101c79190611ec5565b60405180910390f35b3480156101db575f80fd5b506101f660048036038101906101f19190612011565b6108e0565b005b610212600480360381019061020d9190611ab3565b610a75565b005b34801561021f575f80fd5b5061023a60048036038101906102359190612058565b610e85565b005b61025660048036038101906102519190611ab3565b610fa4565b005b348015610263575f80fd5b5061027e600480360381019061027991906120dc565b61126c565b60405161028c929190612107565b60405180910390f35b3480156102a0575f80fd5b506102bb60048036038101906102b69190612135565b611331565b005b3480156102c8575f80fd5b506102e360048036038101906102de919061220a565b611521565b6040516102f09190611b91565b60405180910390f35b348015610304575f80fd5b5061031f600480360381019061031a91906119db565b611569565b60405161032c91906122dd565b60405180910390f35b6003602052805f5260405f205f91509050805f0180546103549061232a565b80601f01602080910402602001604051908101604052809291908181526020018280546103809061232a565b80156103cb5780601f106103a2576101008083540402835291602001916103cb565b820191905f5260205f20905b8154815290600101906020018083116103ae57829003601f168201915b5050505050908060010154905082565b600681815481106103ea575f80fd5b905f5260205f2090600302015f91509050805f0180546104099061232a565b80601f01602080910402602001604051908101604052809291908181526020018280546104359061232a565b80156104805780601f1061045757610100808354040283529160200191610480565b820191905f5260205f20905b81548152906001019060200180831161046357829003601f168201915b5050505050908060010154905082565b6005602052825f5260405f20602052815f5260405f2081815481106104b3575f80fd5b905f5260205f2090600302015f925092505050805f015f9054906101000a900473ffffffffffffffffffffffffffffffffffffffff16908060010154908060020154905083565b5f8073ffffffffffffffffffffffffffffffffffffffff1660025f3373ffffffffffffffffffffffffffffffffffffffff1673ffffffffffffffffffffffffffffffffffffffff1681526020019081526020015f206001015f9054906101000a900473ffffffffffffffffffffffffffffffffffffffff1673ffffffffffffffffffffffffffffffffffffffff161415905090565b60606006805480602002602001604051908101604052809291908181526020015f905b828210156108d7578382905f5260205f2090600302016040518060600160405290815f820180546105e29061232a565b80601f016020809104026020016040519081016040528092919081815260200182805461060e9061232a565b80156106595780601f1061063057610100808354040283529160200191610659565b820191905f5260205f20905b81548152906001019060200180831161063c57829003601f168201915b505050505081526020016001820154815260200160028201805480602002602001604051908101604052809291908181526020015f905b828210156108c0578382905f5260205f2090600b0201604051806101600160405290815f8201548152602001600182015481526020016002820180546106d59061232a565b80601f01602080910402602001604051908101604052809291908181526020018280546107019061232a565b801561074c5780601f106107235761010080835404028352916020019161074c565b820191905f5260205f20905b81548152906001019060200180831161072f57829003601f168201915b505050505081526020016003820180546107659061232a565b80601f01602080910402602001604051908101604052809291908181526020018280546107919061232a565b80156107dc5780601f106107b3576101008083540402835291602001916107dc565b820191905f5260205f20905b8154815290600101906020018083116107bf57829003601f168201915b505050505081526020016004820154815260200160058201548152602001600682015481526020016007820180546108139061232a565b80601f016020809104026020016040519081016040528092919081815260200182805461083f9061232a565b801561088a5780601f106108615761010080835404028352916020019161088a565b820191905f5260205f20905b81548152906001019060200180831161086d57829003601f168201915b505050505081526020016008820154815260200160098201548152602001600a8201548152505081526020019060010190610690565b5050505081525050815260200190600101906105b2565b50505050905090565b5f73ffffffffffffffffffffffffffffffffffffffff1660025f3373ffffffffffffffffffffffffffffffffffffffff1673ffffffffffffffffffffffffffffffffffffffff1681526020019081526020015f206001015f9054906101000a900473ffffffffffffffffffffffffffffffffffffffff1673ffffffffffffffffffffffffffffffffffffffff16146109ad576040517f08c379a00000000000000000000000000000000000000000000000000000000081526004016109a4906123a4565b60405180910390fd5b60405180604001604052808281526020013373ffffffffffffffffffffffffffffffffffffffff1681525060025f3373ffffffffffffffffffffffffffffffffffffffff1673ffffffffffffffffffffffffffffffffffffffff1681526020019081526020015f205f820151815f019081610a28919061255f565b506020820151816001015f6101000a81548173ffffffffffffffffffffffffffffffffffffffff021916908373ffffffffffffffffffffffffffffffffffffffff16021790555090505050565b5f8054906101000a900473ffffffffffffffffffffffffffffffffffffffff1673ffffffffffffffffffffffffffffffffffffffff163373ffffffffffffffffffffffffffffffffffffffff1603610b02576040517f08c379a0000000000000000000000000000000000000000000000000000000008152600401610af990612678565b60405180910390fd5b662386f26fc10000341015610b4c576040517f08c379a0000000000000000000000000000000000000000000000000000000008152600401610b43906126e0565b60405180910390fd5b5f151560045f3373ffffffffffffffffffffffffffffffffffffffff1673ffffffffffffffffffffffffffffffffffffffff1681526020019081526020015f208460648110610b9e57610b9d6126fe565b5b600402018360648110610bb457610bb36126fe565b5b602091828204019190069054906101000a900460ff16151514610c0c576040517f08c379a0000000000000000000000000000000000000000000000000000000008152600401610c039061279b565b60405180910390fd5b5f60035f8581526020019081526020015f2090505f8160020190505f815f81548110610c3b57610c3a6126fe565b5b905f5260205f2090600b020190505f5b8280549050811015610caf5785838281548110610c6b57610c6a6126fe565b5b905f5260205f2090600b02016001015403610ca257828181548110610c9357610c926126fe565b5b905f5260205f2090600b020191505b8080600101915050610c4b565b5080600401548403610cf45734816008015f828254610cce91906127e6565b925050819055503481600a015f828254610ce891906127e6565b92505081905550610d35565b80600501548403610d345734816009015f828254610d1291906127e6565b925050819055503481600a015f828254610d2c91906127e6565b925050819055505b5b6001151560045f3373ffffffffffffffffffffffffffffffffffffffff1673ffffffffffffffffffffffffffffffffffffffff1681526020019081526020015f208760648110610d8857610d876126fe565b5b600402018660648110610d9e57610d9d6126fe565b5b602091828204019190069054906101000a905050505f60015f9054906101000a900473ffffffffffffffffffffffffffffffffffffffff1673ffffffffffffffffffffffffffffffffffffffff1634604051610df990612846565b5f6040518083038185875af1925050503d805f8114610e33576040519150601f19603f3d011682016040523d82523d5f602084013e610e38565b606091505b5050905080610e7c576040517f08c379a0000000000000000000000000000000000000000000000000000000008152600401610e73906128a4565b60405180910390fd5b50505050505050565b5f8054906101000a900473ffffffffffffffffffffffffffffffffffffffff1673ffffffffffffffffffffffffffffffffffffffff163373ffffffffffffffffffffffffffffffffffffffff1614610f12576040517f08c379a0000000000000000000000000000000000000000000000000000000008152600401610f099061290c565b60405180910390fd5b5f60035f8381526020019081526020015f20905082815f019081610f36919061255f565b50818160010181905550600681908060018154018082558091505060019003905f5260205f2090600302015f909190919091505f8201815f019081610f7b919061293f565b50600182015481600101556002820181600201908054610f9c9291906117e3565b505050505050565b5f8054906101000a900473ffffffffffffffffffffffffffffffffffffffff1673ffffffffffffffffffffffffffffffffffffffff163373ffffffffffffffffffffffffffffffffffffffff1614611031576040517f08c379a00000000000000000000000000000000000000000000000000000000081526004016110289061290c565b60405180910390fd5b5f8060035f8681526020019081526020015f2090505f8160020190505f815f81548110611061576110606126fe565b5b905f5260205f2090600b020190505f5b82805490508110156110d55786838281548110611091576110906126fe565b5b905f5260205f2090600b020160010154036110c8578281815481106110b9576110b86126fe565b5b905f5260205f2090600b020191505b8080600101915050611071565b505f858260040154036110ee5781600801549050611102565b8582600501540361110157816009015490505b5b5f60055f8a81526020019081526020015f205f8981526020019081526020015f2090505f5b8180549050811015611260575f828281548110611147576111466126fe565b5b905f5260205f209060030201905088816002015403611252578385600a015482600101546111759190612a24565b61117f9190612a92565b97505f815f015f9054906101000a900473ffffffffffffffffffffffffffffffffffffffff1690505f8173ffffffffffffffffffffffffffffffffffffffff168a6040516111cc90612846565b5f6040518083038185875af1925050503d805f8114611206576040519150601f19603f3d011682016040523d82523d5f602084013e61120b565b606091505b505090508061124f576040517f08c379a0000000000000000000000000000000000000000000000000000000008152600401611246906128a4565b60405180910390fd5b50505b508080600101915050611127565b50505050505050505050565b6002602052805f5260405f205f91509050805f01805461128b9061232a565b80601f01602080910402602001604051908101604052809291908181526020018280546112b79061232a565b80156113025780601f106112d957610100808354040283529160200191611302565b820191905f5260205f20905b8154815290600101906020018083116112e557829003601f168201915b505050505090806001015f9054906101000a900473ffffffffffffffffffffffffffffffffffffffff16905082565b5f8054906101000a900473ffffffffffffffffffffffffffffffffffffffff1673ffffffffffffffffffffffffffffffffffffffff163373ffffffffffffffffffffffffffffffffffffffff16146113be576040517f08c379a00000000000000000000000000000000000000000000000000000000081526004016113b59061290c565b60405180910390fd5b5f60035f8981526020019081526020015f2090505f6040518061016001604052808a81526020018981526020018881526020018781526020018681526020018581526020018481526020016040518060400160405280600781526020017f4f6e676f696e670000000000000000000000000000000000000000000000000081525081526020015f81526020015f81526020015f81525090508160020181908060018154018082558091505060019003905f5260205f2090600b02015f909190919091505f820151815f01556020820151816001015560408201518160020190816114a8919061255f565b5060608201518160030190816114be919061255f565b506080820151816004015560a0820151816005015560c0820151816006015560e08201518160070190816114f2919061255f565b506101008201518160080155610120820151816009015561014082015181600a01555050505050505050505050565b6004602052825f5260405f20826064811061153a575f80fd5b60040201816064811061154b575f80fd5b6020918282040191900692509250509054906101000a900460ff1681565b60605f60035f8481526020019081526020015f2090505f81600201905080805480602002602001604051908101604052809291908181526020015f905b828210156117d6578382905f5260205f2090600b0201604051806101600160405290815f8201548152602001600182015481526020016002820180546115eb9061232a565b80601f01602080910402602001604051908101604052809291908181526020018280546116179061232a565b80156116625780601f1061163957610100808354040283529160200191611662565b820191905f5260205f20905b81548152906001019060200180831161164557829003601f168201915b5050505050815260200160038201805461167b9061232a565b80601f01602080910402602001604051908101604052809291908181526020018280546116a79061232a565b80156116f25780601f106116c9576101008083540402835291602001916116f2565b820191905f5260205f20905b8154815290600101906020018083116116d557829003601f168201915b505050505081526020016004820154815260200160058201548152602001600682015481526020016007820180546117299061232a565b80601f01602080910402602001604051908101604052809291908181526020018280546117559061232a565b80156117a05780601f10611777576101008083540402835291602001916117a0565b820191905f5260205f20905b81548152906001019060200180831161178357829003601f168201915b505050505081526020016008820154815260200160098201548152602001600a82015481525050815260200190600101906115a6565b5050505092505050919050565b828054828255905f5260205f2090600b0281019282156118b3575f5260205f2091600b0282015b828111156118b25782825f820154815f0155600182015481600101556002820181600201908161183a919061293f565b506003820181600301908161184f919061293f565b5060048201548160040155600582015481600501556006820154816006015560078201816007019081611882919061293f565b506008820154816008015560098201548160090155600a82015481600a0155505091600b019190600b019061180a565b5b5090506118c091906118c4565b5090565b5b8082111561193b575f8082015f9055600182015f9055600282015f6118ea919061193f565b600382015f6118f9919061193f565b600482015f9055600582015f9055600682015f9055600782015f61191d919061193f565b600882015f9055600982015f9055600a82015f905550600b016118c5565b5090565b50805461194b9061232a565b5f825580601f1061195c5750611979565b601f0160209004905f5260205f2090810190611978919061197c565b5b50565b5b80821115611993575f815f90555060010161197d565b5090565b5f604051905090565b5f80fd5b5f80fd5b5f819050919050565b6119ba816119a8565b81146119c4575f80fd5b50565b5f813590506119d5816119b1565b92915050565b5f602082840312156119f0576119ef6119a0565b5b5f6119fd848285016119c7565b91505092915050565b5f81519050919050565b5f82825260208201905092915050565b8281835e5f83830152505050565b5f601f19601f8301169050919050565b5f611a4882611a06565b611a528185611a10565b9350611a62818560208601611a20565b611a6b81611a2e565b840191505092915050565b611a7f816119a8565b82525050565b5f6040820190508181035f830152611a9d8185611a3e565b9050611aac6020830184611a76565b9392505050565b5f805f60608486031215611aca57611ac96119a0565b5b5f611ad7868287016119c7565b9350506020611ae8868287016119c7565b9250506040611af9868287016119c7565b9150509250925092565b5f73ffffffffffffffffffffffffffffffffffffffff82169050919050565b5f611b2c82611b03565b9050919050565b611b3c81611b22565b82525050565b5f606082019050611b555f830186611b33565b611b626020830185611a76565b611b6f6040830184611a76565b949350505050565b5f8115159050919050565b611b8b81611b77565b82525050565b5f602082019050611ba45f830184611b82565b92915050565b5f81519050919050565b5f82825260208201905092915050565b5f819050602082019050919050565b5f82825260208201905092915050565b5f611bed82611a06565b611bf78185611bd3565b9350611c07818560208601611a20565b611c1081611a2e565b840191505092915050565b611c24816119a8565b82525050565b5f81519050919050565b5f82825260208201905092915050565b5f819050602082019050919050565b5f61016083015f830151611c695f860182611c1b565b506020830151611c7c6020860182611c1b565b5060408301518482036040860152611c948282611be3565b91505060608301518482036060860152611cae8282611be3565b9150506080830151611cc36080860182611c1b565b5060a0830151611cd660a0860182611c1b565b5060c0830151611ce960c0860182611c1b565b5060e083015184820360e0860152611d018282611be3565b915050610100830151611d18610100860182611c1b565b50610120830151611d2d610120860182611c1b565b50610140830151611d42610140860182611c1b565b508091505092915050565b5f611d588383611c53565b905092915050565b5f602082019050919050565b5f611d7682611c2a565b611d808185611c34565b935083602082028501611d9285611c44565b805f5b85811015611dcd5784840389528151611dae8582611d4d565b9450611db983611d60565b925060208a01995050600181019050611d95565b50829750879550505050505092915050565b5f606083015f8301518482035f860152611df98282611be3565b9150506020830151611e0e6020860182611c1b565b5060408301518482036040860152611e268282611d6c565b9150508091505092915050565b5f611e3e8383611ddf565b905092915050565b5f602082019050919050565b5f611e5c82611baa565b611e668185611bb4565b935083602082028501611e7885611bc4565b805f5b85811015611eb35784840389528151611e948582611e33565b9450611e9f83611e46565b925060208a01995050600181019050611e7b565b50829750879550505050505092915050565b5f6020820190508181035f830152611edd8184611e52565b905092915050565b5f80fd5b5f80fd5b7f4e487b71000000000000000000000000000000000000000000000000000000005f52604160045260245ffd5b611f2382611a2e565b810181811067ffffffffffffffff82111715611f4257611f41611eed565b5b80604052505050565b5f611f54611997565b9050611f608282611f1a565b919050565b5f67ffffffffffffffff821115611f7f57611f7e611eed565b5b611f8882611a2e565b9050602081019050919050565b828183375f83830152505050565b5f611fb5611fb084611f65565b611f4b565b905082815260208101848484011115611fd157611fd0611ee9565b5b611fdc848285611f95565b509392505050565b5f82601f830112611ff857611ff7611ee5565b5b8135612008848260208601611fa3565b91505092915050565b5f60208284031215612026576120256119a0565b5b5f82013567ffffffffffffffff811115612043576120426119a4565b5b61204f84828501611fe4565b91505092915050565b5f806040838503121561206e5761206d6119a0565b5b5f83013567ffffffffffffffff81111561208b5761208a6119a4565b5b61209785828601611fe4565b92505060206120a8858286016119c7565b9150509250929050565b6120bb81611b22565b81146120c5575f80fd5b50565b5f813590506120d6816120b2565b92915050565b5f602082840312156120f1576120f06119a0565b5b5f6120fe848285016120c8565b91505092915050565b5f6040820190508181035f83015261211f8185611a3e565b905061212e6020830184611b33565b9392505050565b5f805f805f805f60e0888a0312156121505761214f6119a0565b5b5f61215d8a828b016119c7565b975050602061216e8a828b016119c7565b965050604088013567ffffffffffffffff81111561218f5761218e6119a4565b5b61219b8a828b01611fe4565b955050606088013567ffffffffffffffff8111156121bc576121bb6119a4565b5b6121c88a828b01611fe4565b94505060806121d98a828b016119c7565b93505060a06121ea8a828b016119c7565b92505060c06121fb8a828b016119c7565b91505092959891949750929550565b5f805f60608486031215612221576122206119a0565b5b5f61222e868287016120c8565b935050602061223f868287016119c7565b9250506040612250868287016119c7565b9150509250925092565b5f82825260208201905092915050565b5f61227482611c2a565b61227e818561225a565b93508360208202850161229085611c44565b805f5b858110156122cb57848403895281516122ac8582611d4d565b94506122b783611d60565b925060208a01995050600181019050612293565b50829750879550505050505092915050565b5f6020820190508181035f8301526122f5818461226a565b905092915050565b7f4e487b71000000000000000000000000000000000000000000000000000000005f52602260045260245ffd5b5f600282049050600182168061234157607f821691505b602082108103612354576123536122fd565b5b50919050565b7f5573657220616c726561647920726567697374657265640000000000000000005f82015250565b5f61238e601783611a10565b91506123998261235a565b602082019050919050565b5f6020820190508181035f8301526123bb81612382565b9050919050565b5f819050815f5260205f209050919050565b5f6020601f8301049050919050565b5f82821b905092915050565b5f6008830261241e7fffffffffffffffffffffffffffffffffffffffffffffffffffffffffffffffff826123e3565b61242886836123e3565b95508019841693508086168417925050509392505050565b5f819050919050565b5f61246361245e612459846119a8565b612440565b6119a8565b9050919050565b5f819050919050565b61247c83612449565b6124906124888261246a565b8484546123ef565b825550505050565b5f90565b6124a4612498565b6124af818484612473565b505050565b5b818110156124d2576124c75f8261249c565b6001810190506124b5565b5050565b601f821115612517576124e8816123c2565b6124f1846123d4565b81016020851015612500578190505b61251461250c856123d4565b8301826124b4565b50505b505050565b5f82821c905092915050565b5f6125375f198460080261251c565b1980831691505092915050565b5f61254f8383612528565b9150826002028217905092915050565b61256882611a06565b67ffffffffffffffff81111561258157612580611eed565b5b61258b825461232a565b6125968282856124d6565b5f60209050601f8311600181146125c7575f84156125b5578287015190505b6125bf8582612544565b865550612626565b601f1984166125d5866123c2565b5f5b828110156125fc578489015182556001820191506020850194506020810190506125d7565b868310156126195784890151612615601f891682612528565b8355505b6001600288020188555050505b505050505050565b7f4f776e65722063616e6e6f7420706c61636520626574730000000000000000005f82015250565b5f612662601783611a10565b915061266d8261262e565b602082019050919050565b5f6020820190508181035f83015261268f81612656565b9050919050565b7f496e73756666696369656e7420616d6f756e74000000000000000000000000005f82015250565b5f6126ca601383611a10565b91506126d582612696565b602082019050919050565b5f6020820190508181035f8301526126f7816126be565b9050919050565b7f4e487b71000000000000000000000000000000000000000000000000000000005f52603260045260245ffd5b7f596f75206861766520616c726561647920706c6163656420796f7572206265745f8201527f20696e2074686973206d61746368000000000000000000000000000000000000602082015250565b5f612785602e83611a10565b91506127908261272b565b604082019050919050565b5f6020820190508181035f8301526127b281612779565b9050919050565b7f4e487b71000000000000000000000000000000000000000000000000000000005f52601160045260245ffd5b5f6127f0826119a8565b91506127fb836119a8565b9250828201905080821115612813576128126127b9565b5b92915050565b5f81905092915050565b50565b5f6128315f83612819565b915061283c82612823565b5f82019050919050565b5f61285082612826565b9150819050919050565b7f4661696c656420746f2073656e642065746865720000000000000000000000005f82015250565b5f61288e601483611a10565b91506128998261285a565b602082019050919050565b5f6020820190508181035f8301526128bb81612882565b9050919050565b7f4d757374206265206f776e6572212000000000000000000000000000000000005f82015250565b5f6128f6600f83611a10565b9150612901826128c2565b602082019050919050565b5f6020820190508181035f830152612923816128ea565b9050919050565b5f815490506129388161232a565b9050919050565b81810361294d575050612a22565b6129568261292a565b67ffffffffffffffff81111561296f5761296e611eed565b5b612979825461232a565b6129848282856124d6565b5f601f8311600181146129b1575f841561299f578287015490505b6129a98582612544565b865550612a1b565b601f1984166129bf876123c2565b96506129ca866123c2565b5f5b828110156129f1578489015482556001820191506001850194506020810190506129cc565b86831015612a0e5784890154612a0a601f891682612528565b8355505b6001600288020188555050505b5050505050505b565b5f612a2e826119a8565b9150612a39836119a8565b9250828202612a47816119a8565b91508282048414831517612a5e57612a5d6127b9565b5b5092915050565b7f4e487b71000000000000000000000000000000000000000000000000000000005f52601260045260245ffd5b5f612a9c826119a8565b9150612aa7836119a8565b925082612ab757612ab6612a65565b5b82820490509291505056fea26469706673582212208f645dd32bb06d21a08dec290279e70f5f494aca409e85d59713caf5f88f7f3164736f6c63430008190033",
			"opcodes": "PUSH1 0x80 PUSH1 0x40 MSTORE PUSH1 0x40 MLOAD PUSH2 0x2C38 CODESIZE SUB DUP1 PUSH2 0x2C38 DUP4 CODECOPY DUP2 DUP2 ADD PUSH1 0x40 MSTORE DUP2 ADD SWAP1 PUSH2 0x25 SWAP2 SWAP1 PUSH2 0x108 JUMP JUMPDEST CALLER PUSH0 DUP1 PUSH2 0x100 EXP DUP2 SLOAD DUP2 PUSH20 0xFFFFFFFFFFFFFFFFFFFFFFFFFFFFFFFFFFFFFFFF MUL NOT AND SWAP1 DUP4 PUSH20 0xFFFFFFFFFFFFFFFFFFFFFFFFFFFFFFFFFFFFFFFF AND MUL OR SWAP1 SSTORE POP DUP1 PUSH1 0x1 PUSH0 PUSH2 0x100 EXP DUP2 SLOAD DUP2 PUSH20 0xFFFFFFFFFFFFFFFFFFFFFFFFFFFFFFFFFFFFFFFF MUL NOT AND SWAP1 DUP4 PUSH20 0xFFFFFFFFFFFFFFFFFFFFFFFFFFFFFFFFFFFFFFFF AND MUL OR SWAP1 SSTORE POP POP PUSH2 0x133 JUMP JUMPDEST PUSH0 DUP1 REVERT JUMPDEST PUSH0 PUSH20 0xFFFFFFFFFFFFFFFFFFFFFFFFFFFFFFFFFFFFFFFF DUP3 AND SWAP1 POP SWAP2 SWAP1 POP JUMP JUMPDEST PUSH0 PUSH2 0xD7 DUP3 PUSH2 0xAE JUMP JUMPDEST SWAP1 POP SWAP2 SWAP1 POP JUMP JUMPDEST PUSH2 0xE7 DUP2 PUSH2 0xCD JUMP JUMPDEST DUP2 EQ PUSH2 0xF1 JUMPI PUSH0 DUP1 REVERT JUMPDEST POP JUMP JUMPDEST PUSH0 DUP2 MLOAD SWAP1 POP PUSH2 0x102 DUP2 PUSH2 0xDE JUMP JUMPDEST SWAP3 SWAP2 POP POP JUMP JUMPDEST PUSH0 PUSH1 0x20 DUP3 DUP5 SUB SLT ISZERO PUSH2 0x11D JUMPI PUSH2 0x11C PUSH2 0xAA JUMP JUMPDEST JUMPDEST PUSH0 PUSH2 0x12A DUP5 DUP3 DUP6 ADD PUSH2 0xF4 JUMP JUMPDEST SWAP2 POP POP SWAP3 SWAP2 POP POP JUMP JUMPDEST PUSH2 0x2AF8 DUP1 PUSH2 0x140 PUSH0 CODECOPY PUSH0 RETURN INVALID PUSH1 0x80 PUSH1 0x40 MSTORE PUSH1 0x4 CALLDATASIZE LT PUSH2 0xC0 JUMPI PUSH0 CALLDATALOAD PUSH1 0xE0 SHR DUP1 PUSH4 0x9062CE7D GT PUSH2 0x7E JUMPI DUP1 PUSH4 0xA87430BA GT PUSH2 0x58 JUMPI DUP1 PUSH4 0xA87430BA EQ PUSH2 0x258 JUMPI DUP1 PUSH4 0xB9087779 EQ PUSH2 0x295 JUMPI DUP1 PUSH4 0xC4A4CD03 EQ PUSH2 0x2BD JUMPI DUP1 PUSH4 0xE60D585A EQ PUSH2 0x2F9 JUMPI PUSH2 0xC0 JUMP JUMPDEST DUP1 PUSH4 0x9062CE7D EQ PUSH2 0x1F8 JUMPI DUP1 PUSH4 0x9A4D4385 EQ PUSH2 0x214 JUMPI DUP1 PUSH4 0x9F299A52 EQ PUSH2 0x23C JUMPI PUSH2 0xC0 JUMP JUMPDEST DUP1 PUSH3 0xCEE13D EQ PUSH2 0xC4 JUMPI DUP1 PUSH4 0xB791430 EQ PUSH2 0x101 JUMPI DUP1 PUSH4 0x12EA5DCD EQ PUSH2 0x13E JUMPI DUP1 PUSH4 0x22366844 EQ PUSH2 0x17C JUMPI DUP1 PUSH4 0x404AA8F9 EQ PUSH2 0x1A6 JUMPI DUP1 PUSH4 0x704F1B94 EQ PUSH2 0x1D0 JUMPI JUMPDEST PUSH0 DUP1 REVERT JUMPDEST CALLVALUE DUP1 ISZERO PUSH2 0xCF JUMPI PUSH0 DUP1 REVERT JUMPDEST POP PUSH2 0xEA PUSH1 0x4 DUP1 CALLDATASIZE SUB DUP2 ADD SWAP1 PUSH2 0xE5 SWAP2 SWAP1 PUSH2 0x19DB JUMP JUMPDEST PUSH2 0x335 JUMP JUMPDEST PUSH1 0x40 MLOAD PUSH2 0xF8 SWAP3 SWAP2 SWAP1 PUSH2 0x1A85 JUMP JUMPDEST PUSH1 0x40 MLOAD DUP1 SWAP2 SUB SWAP1 RETURN JUMPDEST CALLVALUE DUP1 ISZERO PUSH2 0x10C JUMPI PUSH0 DUP1 REVERT JUMPDEST POP PUSH2 0x127 PUSH1 0x4 DUP1 CALLDATASIZE SUB DUP2 ADD SWAP1 PUSH2 0x122 SWAP2 SWAP1 PUSH2 0x19DB JUMP JUMPDEST PUSH2 0x3DB JUMP JUMPDEST PUSH1 0x40 MLOAD PUSH2 0x135 SWAP3 SWAP2 SWAP1 PUSH2 0x1A85 JUMP JUMPDEST PUSH1 0x40 MLOAD DUP1 SWAP2 SUB SWAP1 RETURN JUMPDEST CALLVALUE DUP1 ISZERO PUSH2 0x149 JUMPI PUSH0 DUP1 REVERT JUMPDEST POP PUSH2 0x164 PUSH1 0x4 DUP1 CALLDATASIZE SUB DUP2 ADD SWAP1 PUSH2 0x15F SWAP2 SWAP1 PUSH2 0x1AB3 JUMP JUMPDEST PUSH2 0x490 JUMP JUMPDEST PUSH1 0x40 MLOAD PUSH2 0x173 SWAP4 SWAP3 SWAP2 SWAP1 PUSH2 0x1B42 JUMP JUMPDEST PUSH1 0x40 MLOAD DUP1 SWAP2 SUB SWAP1 RETURN JUMPDEST CALLVALUE DUP1 ISZERO PUSH2 0x187 JUMPI PUSH0 DUP1 REVERT JUMPDEST POP PUSH2 0x190 PUSH2 0x4FA JUMP JUMPDEST PUSH1 0x40 MLOAD PUSH2 0x19D SWAP2 SWAP1 PUSH2 0x1B91 JUMP JUMPDEST PUSH1 0x40 MLOAD DUP1 SWAP2 SUB SWAP1 RETURN JUMPDEST CALLVALUE DUP1 ISZERO PUSH2 0x1B1 JUMPI PUSH0 DUP1 REVERT JUMPDEST POP PUSH2 0x1BA PUSH2 0x58F JUMP JUMPDEST PUSH1 0x40 MLOAD PUSH2 0x1C7 SWAP2 SWAP1 PUSH2 0x1EC5 JUMP JUMPDEST PUSH1 0x40 MLOAD DUP1 SWAP2 SUB SWAP1 RETURN JUMPDEST CALLVALUE DUP1 ISZERO PUSH2 0x1DB JUMPI PUSH0 DUP1 REVERT JUMPDEST POP PUSH2 0x1F6 PUSH1 0x4 DUP1 CALLDATASIZE SUB DUP2 ADD SWAP1 PUSH2 0x1F1 SWAP2 SWAP1 PUSH2 0x2011 JUMP JUMPDEST PUSH2 0x8E0 JUMP JUMPDEST STOP JUMPDEST PUSH2 0x212 PUSH1 0x4 DUP1 CALLDATASIZE SUB DUP2 ADD SWAP1 PUSH2 0x20D SWAP2 SWAP1 PUSH2 0x1AB3 JUMP JUMPDEST PUSH2 0xA75 JUMP JUMPDEST STOP JUMPDEST CALLVALUE DUP1 ISZERO PUSH2 0x21F JUMPI PUSH0 DUP1 REVERT JUMPDEST POP PUSH2 0x23A PUSH1 0x4 DUP1 CALLDATASIZE SUB DUP2 ADD SWAP1 PUSH2 0x235 SWAP2 SWAP1 PUSH2 0x2058 JUMP JUMPDEST PUSH2 0xE85 JUMP JUMPDEST STOP JUMPDEST PUSH2 0x256 PUSH1 0x4 DUP1 CALLDATASIZE SUB DUP2 ADD SWAP1 PUSH2 0x251 SWAP2 SWAP1 PUSH2 0x1AB3 JUMP JUMPDEST PUSH2 0xFA4 JUMP JUMPDEST STOP JUMPDEST CALLVALUE DUP1 ISZERO PUSH2 0x263 JUMPI PUSH0 DUP1 REVERT JUMPDEST POP PUSH2 0x27E PUSH1 0x4 DUP1 CALLDATASIZE SUB DUP2 ADD SWAP1 PUSH2 0x279 SWAP2 SWAP1 PUSH2 0x20DC JUMP JUMPDEST PUSH2 0x126C JUMP JUMPDEST PUSH1 0x40 MLOAD PUSH2 0x28C SWAP3 SWAP2 SWAP1 PUSH2 0x2107 JUMP JUMPDEST PUSH1 0x40 MLOAD DUP1 SWAP2 SUB SWAP1 RETURN JUMPDEST CALLVALUE DUP1 ISZERO PUSH2 0x2A0 JUMPI PUSH0 DUP1 REVERT JUMPDEST POP PUSH2 0x2BB PUSH1 0x4 DUP1 CALLDATASIZE SUB DUP2 ADD SWAP1 PUSH2 0x2B6 SWAP2 SWAP1 PUSH2 0x2135 JUMP JUMPDEST PUSH2 0x1331 JUMP JUMPDEST STOP JUMPDEST CALLVALUE DUP1 ISZERO PUSH2 0x2C8 JUMPI PUSH0 DUP1 REVERT JUMPDEST POP PUSH2 0x2E3 PUSH1 0x4 DUP1 CALLDATASIZE SUB DUP2 ADD SWAP1 PUSH2 0x2DE SWAP2 SWAP1 PUSH2 0x220A JUMP JUMPDEST PUSH2 0x1521 JUMP JUMPDEST PUSH1 0x40 MLOAD PUSH2 0x2F0 SWAP2 SWAP1 PUSH2 0x1B91 JUMP JUMPDEST PUSH1 0x40 MLOAD DUP1 SWAP2 SUB SWAP1 RETURN JUMPDEST CALLVALUE DUP1 ISZERO PUSH2 0x304 JUMPI PUSH0 DUP1 REVERT JUMPDEST POP PUSH2 0x31F PUSH1 0x4 DUP1 CALLDATASIZE SUB DUP2 ADD SWAP1 PUSH2 0x31A SWAP2 SWAP1 PUSH2 0x19DB JUMP JUMPDEST PUSH2 0x1569 JUMP JUMPDEST PUSH1 0x40 MLOAD PUSH2 0x32C SWAP2 SWAP1 PUSH2 0x22DD JUMP JUMPDEST PUSH1 0x40 MLOAD DUP1 SWAP2 SUB SWAP1 RETURN JUMPDEST PUSH1 0x3 PUSH1 0x20 MSTORE DUP1 PUSH0 MSTORE PUSH1 0x40 PUSH0 KECCAK256 PUSH0 SWAP2 POP SWAP1 POP DUP1 PUSH0 ADD DUP1 SLOAD PUSH2 0x354 SWAP1 PUSH2 0x232A JUMP JUMPDEST DUP1 PUSH1 0x1F ADD PUSH1 0x20 DUP1 SWAP2 DIV MUL PUSH1 0x20 ADD PUSH1 0x40 MLOAD SWAP1 DUP2 ADD PUSH1 0x40 MSTORE DUP1 SWAP3 SWAP2 SWAP1 DUP2 DUP2 MSTORE PUSH1 0x20 ADD DUP3 DUP1 SLOAD PUSH2 0x380 SWAP1 PUSH2 0x232A JUMP JUMPDEST DUP1 ISZERO PUSH2 0x3CB JUMPI DUP1 PUSH1 0x1F LT PUSH2 0x3A2 JUMPI PUSH2 0x100 DUP1 DUP4 SLOAD DIV MUL DUP4 MSTORE SWAP2 PUSH1 0x20 ADD SWAP2 PUSH2 0x3CB JUMP JUMPDEST DUP3 ADD SWAP2 SWAP1 PUSH0 MSTORE PUSH1 0x20 PUSH0 KECCAK256 SWAP1 JUMPDEST DUP2 SLOAD DUP2 MSTORE SWAP1 PUSH1 0x1 ADD SWAP1 PUSH1 0x20 ADD DUP1 DUP4 GT PUSH2 0x3AE JUMPI DUP3 SWAP1 SUB PUSH1 0x1F AND DUP3 ADD SWAP2 JUMPDEST POP POP POP POP POP SWAP1 DUP1 PUSH1 0x1 ADD SLOAD SWAP1 POP DUP3 JUMP JUMPDEST PUSH1 0x6 DUP2 DUP2 SLOAD DUP2 LT PUSH2 0x3EA JUMPI PUSH0 DUP1 REVERT JUMPDEST SWAP1 PUSH0 MSTORE PUSH1 0x20 PUSH0 KECCAK256 SWAP1 PUSH1 0x3 MUL ADD PUSH0 SWAP2 POP SWAP1 POP DUP1 PUSH0 ADD DUP1 SLOAD PUSH2 0x409 SWAP1 PUSH2 0x232A JUMP JUMPDEST DUP1 PUSH1 0x1F ADD PUSH1 0x20 DUP1 SWAP2 DIV MUL PUSH1 0x20 ADD PUSH1 0x40 MLOAD SWAP1 DUP2 ADD PUSH1 0x40 MSTORE DUP1 SWAP3 SWAP2 SWAP1 DUP2 DUP2 MSTORE PUSH1 0x20 ADD DUP3 DUP1 SLOAD PUSH2 0x435 SWAP1 PUSH2 0x232A JUMP JUMPDEST DUP1 ISZERO PUSH2 0x480 JUMPI DUP1 PUSH1 0x1F LT PUSH2 0x457 JUMPI PUSH2 0x100 DUP1 DUP4 SLOAD DIV MUL DUP4 MSTORE SWAP2 PUSH1 0x20 ADD SWAP2 PUSH2 0x480 JUMP JUMPDEST DUP3 ADD SWAP2 SWAP1 PUSH0 MSTORE PUSH1 0x20 PUSH0 KECCAK256 SWAP1 JUMPDEST DUP2 SLOAD DUP2 MSTORE SWAP1 PUSH1 0x1 ADD SWAP1 PUSH1 0x20 ADD DUP1 DUP4 GT PUSH2 0x463 JUMPI DUP3 SWAP1 SUB PUSH1 0x1F AND DUP3 ADD SWAP2 JUMPDEST POP POP POP POP POP SWAP1 DUP1 PUSH1 0x1 ADD SLOAD SWAP1 POP DUP3 JUMP JUMPDEST PUSH1 0x5 PUSH1 0x20 MSTORE DUP3 PUSH0 MSTORE PUSH1 0x40 PUSH0 KECCAK256 PUSH1 0x20 MSTORE DUP2 PUSH0 MSTORE PUSH1 0x40 PUSH0 KECCAK256 DUP2 DUP2 SLOAD DUP2 LT PUSH2 0x4B3 JUMPI PUSH0 DUP1 REVERT JUMPDEST SWAP1 PUSH0 MSTORE PUSH1 0x20 PUSH0 KECCAK256 SWAP1 PUSH1 0x3 MUL ADD PUSH0 SWAP3 POP SWAP3 POP POP POP DUP1 PUSH0 ADD PUSH0 SWAP1 SLOAD SWAP1 PUSH2 0x100 EXP SWAP1 DIV PUSH20 0xFFFFFFFFFFFFFFFFFFFFFFFFFFFFFFFFFFFFFFFF AND SWAP1 DUP1 PUSH1 0x1 ADD SLOAD SWAP1 DUP1 PUSH1 0x2 ADD SLOAD SWAP1 POP DUP4 JUMP JUMPDEST PUSH0 DUP1 PUSH20 0xFFFFFFFFFFFFFFFFFFFFFFFFFFFFFFFFFFFFFFFF AND PUSH1 0x2 PUSH0 CALLER PUSH20 0xFFFFFFFFFFFFFFFFFFFFFFFFFFFFFFFFFFFFFFFF AND PUSH20 0xFFFFFFFFFFFFFFFFFFFFFFFFFFFFFFFFFFFFFFFF AND DUP2 MSTORE PUSH1 0x20 ADD SWAP1 DUP2 MSTORE PUSH1 0x20 ADD PUSH0 KECCAK256 PUSH1 0x1 ADD PUSH0 SWAP1 SLOAD SWAP1 PUSH2 0x100 EXP SWAP1 DIV PUSH20 0xFFFFFFFFFFFFFFFFFFFFFFFFFFFFFFFFFFFFFFFF AND PUSH20 0xFFFFFFFFFFFFFFFFFFFFFFFFFFFFFFFFFFFFFFFF AND EQ ISZERO SWAP1 POP SWAP1 JUMP JUMPDEST PUSH1 0x60 PUSH1 0x6 DUP1 SLOAD DUP1 PUSH1 0x20 MUL PUSH1 0x20 ADD PUSH1 0x40 MLOAD SWAP1 DUP2 ADD PUSH1 0x40 MSTORE DUP1 SWAP3 SWAP2 SWAP1 DUP2 DUP2 MSTORE PUSH1 0x20 ADD PUSH0 SWAP1 JUMPDEST DUP3 DUP3 LT ISZERO PUSH2 0x8D7 JUMPI DUP4 DUP3 SWAP1 PUSH0 MSTORE PUSH1 0x20 PUSH0 KECCAK256 SWAP1 PUSH1 0x3 MUL ADD PUSH1 0x40 MLOAD DUP1 PUSH1 0x60 ADD PUSH1 0x40 MSTORE SWAP1 DUP2 PUSH0 DUP3 ADD DUP1 SLOAD PUSH2 0x5E2 SWAP1 PUSH2 0x232A JUMP JUMPDEST DUP1 PUSH1 0x1F ADD PUSH1 0x20 DUP1 SWAP2 DIV MUL PUSH1 0x20 ADD PUSH1 0x40 MLOAD SWAP1 DUP2 ADD PUSH1 0x40 MSTORE DUP1 SWAP3 SWAP2 SWAP1 DUP2 DUP2 MSTORE PUSH1 0x20 ADD DUP3 DUP1 SLOAD PUSH2 0x60E SWAP1 PUSH2 0x232A JUMP JUMPDEST DUP1 ISZERO PUSH2 0x659 JUMPI DUP1 PUSH1 0x1F LT PUSH2 0x630 JUMPI PUSH2 0x100 DUP1 DUP4 SLOAD DIV MUL DUP4 MSTORE SWAP2 PUSH1 0x20 ADD SWAP2 PUSH2 0x659 JUMP JUMPDEST DUP3 ADD SWAP2 SWAP1 PUSH0 MSTORE PUSH1 0x20 PUSH0 KECCAK256 SWAP1 JUMPDEST DUP2 SLOAD DUP2 MSTORE SWAP1 PUSH1 0x1 ADD SWAP1 PUSH1 0x20 ADD DUP1 DUP4 GT PUSH2 0x63C JUMPI DUP3 SWAP1 SUB PUSH1 0x1F AND DUP3 ADD SWAP2 JUMPDEST POP POP POP POP POP DUP2 MSTORE PUSH1 0x20 ADD PUSH1 0x1 DUP3 ADD SLOAD DUP2 MSTORE PUSH1 0x20 ADD PUSH1 0x2 DUP3 ADD DUP1 SLOAD DUP1 PUSH1 0x20 MUL PUSH1 0x20 ADD PUSH1 0x40 MLOAD SWAP1 DUP2 ADD PUSH1 0x40 MSTORE DUP1 SWAP3 SWAP2 SWAP1 DUP2 DUP2 MSTORE PUSH1 0x20 ADD PUSH0 SWAP1 JUMPDEST DUP3 DUP3 LT ISZERO PUSH2 0x8C0 JUMPI DUP4 DUP3 SWAP1 PUSH0 MSTORE PUSH1 0x20 PUSH0 KECCAK256 SWAP1 PUSH1 0xB MUL ADD PUSH1 0x40 MLOAD DUP1 PUSH2 0x160 ADD PUSH1 0x40 MSTORE SWAP1 DUP2 PUSH0 DUP3 ADD SLOAD DUP2 MSTORE PUSH1 0x20 ADD PUSH1 0x1 DUP3 ADD SLOAD DUP2 MSTORE PUSH1 0x20 ADD PUSH1 0x2 DUP3 ADD DUP1 SLOAD PUSH2 0x6D5 SWAP1 PUSH2 0x232A JUMP JUMPDEST DUP1 PUSH1 0x1F ADD PUSH1 0x20 DUP1 SWAP2 DIV MUL PUSH1 0x20 ADD PUSH1 0x40 MLOAD SWAP1 DUP2 ADD PUSH1 0x40 MSTORE DUP1 SWAP3 SWAP2 SWAP1 DUP2 DUP2 MSTORE PUSH1 0x20 ADD DUP3 DUP1 SLOAD PUSH2 0x701 SWAP1 PUSH2 0x232A JUMP JUMPDEST DUP1 ISZERO PUSH2 0x74C JUMPI DUP1 PUSH1 0x1F LT PUSH2 0x723 JUMPI PUSH2 0x100 DUP1 DUP4 SLOAD DIV MUL DUP4 MSTORE SWAP2 PUSH1 0x20 ADD SWAP2 PUSH2 0x74C JUMP JUMPDEST DUP3 ADD SWAP2 SWAP1 PUSH0 MSTORE PUSH1 0x20 PUSH0 KECCAK256 SWAP1 JUMPDEST DUP2 SLOAD DUP2 MSTORE SWAP1 PUSH1 0x1 ADD SWAP1 PUSH1 0x20 ADD DUP1 DUP4 GT PUSH2 0x72F JUMPI DUP3 SWAP1 SUB PUSH1 0x1F AND DUP3 ADD SWAP2 JUMPDEST POP POP POP POP POP DUP2 MSTORE PUSH1 0x20 ADD PUSH1 0x3 DUP3 ADD DUP1 SLOAD PUSH2 0x765 SWAP1 PUSH2 0x232A JUMP JUMPDEST DUP1 PUSH1 0x1F ADD PUSH1 0x20 DUP1 SWAP2 DIV MUL PUSH1 0x20 ADD PUSH1 0x40 MLOAD SWAP1 DUP2 ADD PUSH1 0x40 MSTORE DUP1 SWAP3 SWAP2 SWAP1 DUP2 DUP2 MSTORE PUSH1 0x20 ADD DUP3 DUP1 SLOAD PUSH2 0x791 SWAP1 PUSH2 0x232A JUMP JUMPDEST DUP1 ISZERO PUSH2 0x7DC JUMPI DUP1 PUSH1 0x1F LT PUSH2 0x7B3 JUMPI PUSH2 0x100 DUP1 DUP4 SLOAD DIV MUL DUP4 MSTORE SWAP2 PUSH1 0x20 ADD SWAP2 PUSH2 0x7DC JUMP JUMPDEST DUP3 ADD SWAP2 SWAP1 PUSH0 MSTORE PUSH1 0x20 PUSH0 KECCAK256 SWAP1 JUMPDEST DUP2 SLOAD DUP2 MSTORE SWAP1 PUSH1 0x1 ADD SWAP1 PUSH1 0x20 ADD DUP1 DUP4 GT PUSH2 0x7BF JUMPI DUP3 SWAP1 SUB PUSH1 0x1F AND DUP3 ADD SWAP2 JUMPDEST POP POP POP POP POP DUP2 MSTORE PUSH1 0x20 ADD PUSH1 0x4 DUP3 ADD SLOAD DUP2 MSTORE PUSH1 0x20 ADD PUSH1 0x5 DUP3 ADD SLOAD DUP2 MSTORE PUSH1 0x20 ADD PUSH1 0x6 DUP3 ADD SLOAD DUP2 MSTORE PUSH1 0x20 ADD PUSH1 0x7 DUP3 ADD DUP1 SLOAD PUSH2 0x813 SWAP1 PUSH2 0x232A JUMP JUMPDEST DUP1 PUSH1 0x1F ADD PUSH1 0x20 DUP1 SWAP2 DIV MUL PUSH1 0x20 ADD PUSH1 0x40 MLOAD SWAP1 DUP2 ADD PUSH1 0x40 MSTORE DUP1 SWAP3 SWAP2 SWAP1 DUP2 DUP2 MSTORE PUSH1 0x20 ADD DUP3 DUP1 SLOAD PUSH2 0x83F SWAP1 PUSH2 0x232A JUMP JUMPDEST DUP1 ISZERO PUSH2 0x88A JUMPI DUP1 PUSH1 0x1F LT PUSH2 0x861 JUMPI PUSH2 0x100 DUP1 DUP4 SLOAD DIV MUL DUP4 MSTORE SWAP2 PUSH1 0x20 ADD SWAP2 PUSH2 0x88A JUMP JUMPDEST DUP3 ADD SWAP2 SWAP1 PUSH0 MSTORE PUSH1 0x20 PUSH0 KECCAK256 SWAP1 JUMPDEST DUP2 SLOAD DUP2 MSTORE SWAP1 PUSH1 0x1 ADD SWAP1 PUSH1 0x20 ADD DUP1 DUP4 GT PUSH2 0x86D JUMPI DUP3 SWAP1 SUB PUSH1 0x1F AND DUP3 ADD SWAP2 JUMPDEST POP POP POP POP POP DUP2 MSTORE PUSH1 0x20 ADD PUSH1 0x8 DUP3 ADD SLOAD DUP2 MSTORE PUSH1 0x20 ADD PUSH1 0x9 DUP3 ADD SLOAD DUP2 MSTORE PUSH1 0x20 ADD PUSH1 0xA DUP3 ADD SLOAD DUP2 MSTORE POP POP DUP2 MSTORE PUSH1 0x20 ADD SWAP1 PUSH1 0x1 ADD SWAP1 PUSH2 0x690 JUMP JUMPDEST POP POP POP POP DUP2 MSTORE POP POP DUP2 MSTORE PUSH1 0x20 ADD SWAP1 PUSH1 0x1 ADD SWAP1 PUSH2 0x5B2 JUMP JUMPDEST POP POP POP POP SWAP1 POP SWAP1 JUMP JUMPDEST PUSH0 PUSH20 0xFFFFFFFFFFFFFFFFFFFFFFFFFFFFFFFFFFFFFFFF AND PUSH1 0x2 PUSH0 CALLER PUSH20 0xFFFFFFFFFFFFFFFFFFFFFFFFFFFFFFFFFFFFFFFF AND PUSH20 0xFFFFFFFFFFFFFFFFFFFFFFFFFFFFFFFFFFFFFFFF AND DUP2 MSTORE PUSH1 0x20 ADD SWAP1 DUP2 MSTORE PUSH1 0x20 ADD PUSH0 KECCAK256 PUSH1 0x1 ADD PUSH0 SWAP1 SLOAD SWAP1 PUSH2 0x100 EXP SWAP1 DIV PUSH20 0xFFFFFFFFFFFFFFFFFFFFFFFFFFFFFFFFFFFFFFFF AND PUSH20 0xFFFFFFFFFFFFFFFFFFFFFFFFFFFFFFFFFFFFFFFF AND EQ PUSH2 0x9AD JUMPI PUSH1 0x40 MLOAD PUSH32 0x8C379A000000000000000000000000000000000000000000000000000000000 DUP2 MSTORE PUSH1 0x4 ADD PUSH2 0x9A4 SWAP1 PUSH2 0x23A4 JUMP JUMPDEST PUSH1 0x40 MLOAD DUP1 SWAP2 SUB SWAP1 REVERT JUMPDEST PUSH1 0x40 MLOAD DUP1 PUSH1 0x40 ADD PUSH1 0x40 MSTORE DUP1 DUP3 DUP2 MSTORE PUSH1 0x20 ADD CALLER PUSH20 0xFFFFFFFFFFFFFFFFFFFFFFFFFFFFFFFFFFFFFFFF AND DUP2 MSTORE POP PUSH1 0x2 PUSH0 CALLER PUSH20 0xFFFFFFFFFFFFFFFFFFFFFFFFFFFFFFFFFFFFFFFF AND PUSH20 0xFFFFFFFFFFFFFFFFFFFFFFFFFFFFFFFFFFFFFFFF AND DUP2 MSTORE PUSH1 0x20 ADD SWAP1 DUP2 MSTORE PUSH1 0x20 ADD PUSH0 KECCAK256 PUSH0 DUP3 ADD MLOAD DUP2 PUSH0 ADD SWAP1 DUP2 PUSH2 0xA28 SWAP2 SWAP1 PUSH2 0x255F JUMP JUMPDEST POP PUSH1 0x20 DUP3 ADD MLOAD DUP2 PUSH1 0x1 ADD PUSH0 PUSH2 0x100 EXP DUP2 SLOAD DUP2 PUSH20 0xFFFFFFFFFFFFFFFFFFFFFFFFFFFFFFFFFFFFFFFF MUL NOT AND SWAP1 DUP4 PUSH20 0xFFFFFFFFFFFFFFFFFFFFFFFFFFFFFFFFFFFFFFFF AND MUL OR SWAP1 SSTORE POP SWAP1 POP POP POP JUMP JUMPDEST PUSH0 DUP1 SLOAD SWAP1 PUSH2 0x100 EXP SWAP1 DIV PUSH20 0xFFFFFFFFFFFFFFFFFFFFFFFFFFFFFFFFFFFFFFFF AND PUSH20 0xFFFFFFFFFFFFFFFFFFFFFFFFFFFFFFFFFFFFFFFF AND CALLER PUSH20 0xFFFFFFFFFFFFFFFFFFFFFFFFFFFFFFFFFFFFFFFF AND SUB PUSH2 0xB02 JUMPI PUSH1 0x40 MLOAD PUSH32 0x8C379A000000000000000000000000000000000000000000000000000000000 DUP2 MSTORE PUSH1 0x4 ADD PUSH2 0xAF9 SWAP1 PUSH2 0x2678 JUMP JUMPDEST PUSH1 0x40 MLOAD DUP1 SWAP2 SUB SWAP1 REVERT JUMPDEST PUSH7 0x2386F26FC10000 CALLVALUE LT ISZERO PUSH2 0xB4C JUMPI PUSH1 0x40 MLOAD PUSH32 0x8C379A000000000000000000000000000000000000000000000000000000000 DUP2 MSTORE PUSH1 0x4 ADD PUSH2 0xB43 SWAP1 PUSH2 0x26E0 JUMP JUMPDEST PUSH1 0x40 MLOAD DUP1 SWAP2 SUB SWAP1 REVERT JUMPDEST PUSH0 ISZERO ISZERO PUSH1 0x4 PUSH0 CALLER PUSH20 0xFFFFFFFFFFFFFFFFFFFFFFFFFFFFFFFFFFFFFFFF AND PUSH20 0xFFFFFFFFFFFFFFFFFFFFFFFFFFFFFFFFFFFFFFFF AND DUP2 MSTORE PUSH1 0x20 ADD SWAP1 DUP2 MSTORE PUSH1 0x20 ADD PUSH0 KECCAK256 DUP5 PUSH1 0x64 DUP2 LT PUSH2 0xB9E JUMPI PUSH2 0xB9D PUSH2 0x26FE JUMP JUMPDEST JUMPDEST PUSH1 0x4 MUL ADD DUP4 PUSH1 0x64 DUP2 LT PUSH2 0xBB4 JUMPI PUSH2 0xBB3 PUSH2 0x26FE JUMP JUMPDEST JUMPDEST PUSH1 0x20 SWAP2 DUP3 DUP3 DIV ADD SWAP2 SWAP1 MOD SWAP1 SLOAD SWAP1 PUSH2 0x100 EXP SWAP1 DIV PUSH1 0xFF AND ISZERO ISZERO EQ PUSH2 0xC0C JUMPI PUSH1 0x40 MLOAD PUSH32 0x8C379A000000000000000000000000000000000000000000000000000000000 DUP2 MSTORE PUSH1 0x4 ADD PUSH2 0xC03 SWAP1 PUSH2 0x279B JUMP JUMPDEST PUSH1 0x40 MLOAD DUP1 SWAP2 SUB SWAP1 REVERT JUMPDEST PUSH0 PUSH1 0x3 PUSH0 DUP6 DUP2 MSTORE PUSH1 0x20 ADD SWAP1 DUP2 MSTORE PUSH1 0x20 ADD PUSH0 KECCAK256 SWAP1 POP PUSH0 DUP2 PUSH1 0x2 ADD SWAP1 POP PUSH0 DUP2 PUSH0 DUP2 SLOAD DUP2 LT PUSH2 0xC3B JUMPI PUSH2 0xC3A PUSH2 0x26FE JUMP JUMPDEST JUMPDEST SWAP1 PUSH0 MSTORE PUSH1 0x20 PUSH0 KECCAK256 SWAP1 PUSH1 0xB MUL ADD SWAP1 POP PUSH0 JUMPDEST DUP3 DUP1 SLOAD SWAP1 POP DUP2 LT ISZERO PUSH2 0xCAF JUMPI DUP6 DUP4 DUP3 DUP2 SLOAD DUP2 LT PUSH2 0xC6B JUMPI PUSH2 0xC6A PUSH2 0x26FE JUMP JUMPDEST JUMPDEST SWAP1 PUSH0 MSTORE PUSH1 0x20 PUSH0 KECCAK256 SWAP1 PUSH1 0xB MUL ADD PUSH1 0x1 ADD SLOAD SUB PUSH2 0xCA2 JUMPI DUP3 DUP2 DUP2 SLOAD DUP2 LT PUSH2 0xC93 JUMPI PUSH2 0xC92 PUSH2 0x26FE JUMP JUMPDEST JUMPDEST SWAP1 PUSH0 MSTORE PUSH1 0x20 PUSH0 KECCAK256 SWAP1 PUSH1 0xB MUL ADD SWAP2 POP JUMPDEST DUP1 DUP1 PUSH1 0x1 ADD SWAP2 POP POP PUSH2 0xC4B JUMP JUMPDEST POP DUP1 PUSH1 0x4 ADD SLOAD DUP5 SUB PUSH2 0xCF4 JUMPI CALLVALUE DUP2 PUSH1 0x8 ADD PUSH0 DUP3 DUP3 SLOAD PUSH2 0xCCE SWAP2 SWAP1 PUSH2 0x27E6 JUMP JUMPDEST SWAP3 POP POP DUP2 SWAP1 SSTORE POP CALLVALUE DUP2 PUSH1 0xA ADD PUSH0 DUP3 DUP3 SLOAD PUSH2 0xCE8 SWAP2 SWAP1 PUSH2 0x27E6 JUMP JUMPDEST SWAP3 POP POP DUP2 SWAP1 SSTORE POP PUSH2 0xD35 JUMP JUMPDEST DUP1 PUSH1 0x5 ADD SLOAD DUP5 SUB PUSH2 0xD34 JUMPI CALLVALUE DUP2 PUSH1 0x9 ADD PUSH0 DUP3 DUP3 SLOAD PUSH2 0xD12 SWAP2 SWAP1 PUSH2 0x27E6 JUMP JUMPDEST SWAP3 POP POP DUP2 SWAP1 SSTORE POP CALLVALUE DUP2 PUSH1 0xA ADD PUSH0 DUP3 DUP3 SLOAD PUSH2 0xD2C SWAP2 SWAP1 PUSH2 0x27E6 JUMP JUMPDEST SWAP3 POP POP DUP2 SWAP1 SSTORE POP JUMPDEST JUMPDEST PUSH1 0x1 ISZERO ISZERO PUSH1 0x4 PUSH0 CALLER PUSH20 0xFFFFFFFFFFFFFFFFFFFFFFFFFFFFFFFFFFFFFFFF AND PUSH20 0xFFFFFFFFFFFFFFFFFFFFFFFFFFFFFFFFFFFFFFFF AND DUP2 MSTORE PUSH1 0x20 ADD SWAP1 DUP2 MSTORE PUSH1 0x20 ADD PUSH0 KECCAK256 DUP8 PUSH1 0x64 DUP2 LT PUSH2 0xD88 JUMPI PUSH2 0xD87 PUSH2 0x26FE JUMP JUMPDEST JUMPDEST PUSH1 0x4 MUL ADD DUP7 PUSH1 0x64 DUP2 LT PUSH2 0xD9E JUMPI PUSH2 0xD9D PUSH2 0x26FE JUMP JUMPDEST JUMPDEST PUSH1 0x20 SWAP2 DUP3 DUP3 DIV ADD SWAP2 SWAP1 MOD SWAP1 SLOAD SWAP1 PUSH2 0x100 EXP SWAP1 POP POP POP PUSH0 PUSH1 0x1 PUSH0 SWAP1 SLOAD SWAP1 PUSH2 0x100 EXP SWAP1 DIV PUSH20 0xFFFFFFFFFFFFFFFFFFFFFFFFFFFFFFFFFFFFFFFF AND PUSH20 0xFFFFFFFFFFFFFFFFFFFFFFFFFFFFFFFFFFFFFFFF AND CALLVALUE PUSH1 0x40 MLOAD PUSH2 0xDF9 SWAP1 PUSH2 0x2846 JUMP JUMPDEST PUSH0 PUSH1 0x40 MLOAD DUP1 DUP4 SUB DUP2 DUP6 DUP8 GAS CALL SWAP3 POP POP POP RETURNDATASIZE DUP1 PUSH0 DUP2 EQ PUSH2 0xE33 JUMPI PUSH1 0x40 MLOAD SWAP2 POP PUSH1 0x1F NOT PUSH1 0x3F RETURNDATASIZE ADD AND DUP3 ADD PUSH1 0x40 MSTORE RETURNDATASIZE DUP3 MSTORE RETURNDATASIZE PUSH0 PUSH1 0x20 DUP5 ADD RETURNDATACOPY PUSH2 0xE38 JUMP JUMPDEST PUSH1 0x60 SWAP2 POP JUMPDEST POP POP SWAP1 POP DUP1 PUSH2 0xE7C JUMPI PUSH1 0x40 MLOAD PUSH32 0x8C379A000000000000000000000000000000000000000000000000000000000 DUP2 MSTORE PUSH1 0x4 ADD PUSH2 0xE73 SWAP1 PUSH2 0x28A4 JUMP JUMPDEST PUSH1 0x40 MLOAD DUP1 SWAP2 SUB SWAP1 REVERT JUMPDEST POP POP POP POP POP POP POP JUMP JUMPDEST PUSH0 DUP1 SLOAD SWAP1 PUSH2 0x100 EXP SWAP1 DIV PUSH20 0xFFFFFFFFFFFFFFFFFFFFFFFFFFFFFFFFFFFFFFFF AND PUSH20 0xFFFFFFFFFFFFFFFFFFFFFFFFFFFFFFFFFFFFFFFF AND CALLER PUSH20 0xFFFFFFFFFFFFFFFFFFFFFFFFFFFFFFFFFFFFFFFF AND EQ PUSH2 0xF12 JUMPI PUSH1 0x40 MLOAD PUSH32 0x8C379A000000000000000000000000000000000000000000000000000000000 DUP2 MSTORE PUSH1 0x4 ADD PUSH2 0xF09 SWAP1 PUSH2 0x290C JUMP JUMPDEST PUSH1 0x40 MLOAD DUP1 SWAP2 SUB SWAP1 REVERT JUMPDEST PUSH0 PUSH1 0x3 PUSH0 DUP4 DUP2 MSTORE PUSH1 0x20 ADD SWAP1 DUP2 MSTORE PUSH1 0x20 ADD PUSH0 KECCAK256 SWAP1 POP DUP3 DUP2 PUSH0 ADD SWAP1 DUP2 PUSH2 0xF36 SWAP2 SWAP1 PUSH2 0x255F JUMP JUMPDEST POP DUP2 DUP2 PUSH1 0x1 ADD DUP2 SWAP1 SSTORE POP PUSH1 0x6 DUP2 SWAP1 DUP1 PUSH1 0x1 DUP2 SLOAD ADD DUP1 DUP3 SSTORE DUP1 SWAP2 POP POP PUSH1 0x1 SWAP1 SUB SWAP1 PUSH0 MSTORE PUSH1 0x20 PUSH0 KECCAK256 SWAP1 PUSH1 0x3 MUL ADD PUSH0 SWAP1 SWAP2 SWAP1 SWAP2 SWAP1 SWAP2 POP PUSH0 DUP3 ADD DUP2 PUSH0 ADD SWAP1 DUP2 PUSH2 0xF7B SWAP2 SWAP1 PUSH2 0x293F JUMP JUMPDEST POP PUSH1 0x1 DUP3 ADD SLOAD DUP2 PUSH1 0x1 ADD SSTORE PUSH1 0x2 DUP3 ADD DUP2 PUSH1 0x2 ADD SWAP1 DUP1 SLOAD PUSH2 0xF9C SWAP3 SWAP2 SWAP1 PUSH2 0x17E3 JUMP JUMPDEST POP POP POP POP POP POP JUMP JUMPDEST PUSH0 DUP1 SLOAD SWAP1 PUSH2 0x100 EXP SWAP1 DIV PUSH20 0xFFFFFFFFFFFFFFFFFFFFFFFFFFFFFFFFFFFFFFFF AND PUSH20 0xFFFFFFFFFFFFFFFFFFFFFFFFFFFFFFFFFFFFFFFF AND CALLER PUSH20 0xFFFFFFFFFFFFFFFFFFFFFFFFFFFFFFFFFFFFFFFF AND EQ PUSH2 0x1031 JUMPI PUSH1 0x40 MLOAD PUSH32 0x8C379A000000000000000000000000000000000000000000000000000000000 DUP2 MSTORE PUSH1 0x4 ADD PUSH2 0x1028 SWAP1 PUSH2 0x290C JUMP JUMPDEST PUSH1 0x40 MLOAD DUP1 SWAP2 SUB SWAP1 REVERT JUMPDEST PUSH0 DUP1 PUSH1 0x3 PUSH0 DUP7 DUP2 MSTORE PUSH1 0x20 ADD SWAP1 DUP2 MSTORE PUSH1 0x20 ADD PUSH0 KECCAK256 SWAP1 POP PUSH0 DUP2 PUSH1 0x2 ADD SWAP1 POP PUSH0 DUP2 PUSH0 DUP2 SLOAD DUP2 LT PUSH2 0x1061 JUMPI PUSH2 0x1060 PUSH2 0x26FE JUMP JUMPDEST JUMPDEST SWAP1 PUSH0 MSTORE PUSH1 0x20 PUSH0 KECCAK256 SWAP1 PUSH1 0xB MUL ADD SWAP1 POP PUSH0 JUMPDEST DUP3 DUP1 SLOAD SWAP1 POP DUP2 LT ISZERO PUSH2 0x10D5 JUMPI DUP7 DUP4 DUP3 DUP2 SLOAD DUP2 LT PUSH2 0x1091 JUMPI PUSH2 0x1090 PUSH2 0x26FE JUMP JUMPDEST JUMPDEST SWAP1 PUSH0 MSTORE PUSH1 0x20 PUSH0 KECCAK256 SWAP1 PUSH1 0xB MUL ADD PUSH1 0x1 ADD SLOAD SUB PUSH2 0x10C8 JUMPI DUP3 DUP2 DUP2 SLOAD DUP2 LT PUSH2 0x10B9 JUMPI PUSH2 0x10B8 PUSH2 0x26FE JUMP JUMPDEST JUMPDEST SWAP1 PUSH0 MSTORE PUSH1 0x20 PUSH0 KECCAK256 SWAP1 PUSH1 0xB MUL ADD SWAP2 POP JUMPDEST DUP1 DUP1 PUSH1 0x1 ADD SWAP2 POP POP PUSH2 0x1071 JUMP JUMPDEST POP PUSH0 DUP6 DUP3 PUSH1 0x4 ADD SLOAD SUB PUSH2 0x10EE JUMPI DUP2 PUSH1 0x8 ADD SLOAD SWAP1 POP PUSH2 0x1102 JUMP JUMPDEST DUP6 DUP3 PUSH1 0x5 ADD SLOAD SUB PUSH2 0x1101 JUMPI DUP2 PUSH1 0x9 ADD SLOAD SWAP1 POP JUMPDEST JUMPDEST PUSH0 PUSH1 0x5 PUSH0 DUP11 DUP2 MSTORE PUSH1 0x20 ADD SWAP1 DUP2 MSTORE PUSH1 0x20 ADD PUSH0 KECCAK256 PUSH0 DUP10 DUP2 MSTORE PUSH1 0x20 ADD SWAP1 DUP2 MSTORE PUSH1 0x20 ADD PUSH0 KECCAK256 SWAP1 POP PUSH0 JUMPDEST DUP2 DUP1 SLOAD SWAP1 POP DUP2 LT ISZERO PUSH2 0x1260 JUMPI PUSH0 DUP3 DUP3 DUP2 SLOAD DUP2 LT PUSH2 0x1147 JUMPI PUSH2 0x1146 PUSH2 0x26FE JUMP JUMPDEST JUMPDEST SWAP1 PUSH0 MSTORE PUSH1 0x20 PUSH0 KECCAK256 SWAP1 PUSH1 0x3 MUL ADD SWAP1 POP DUP9 DUP2 PUSH1 0x2 ADD SLOAD SUB PUSH2 0x1252 JUMPI DUP4 DUP6 PUSH1 0xA ADD SLOAD DUP3 PUSH1 0x1 ADD SLOAD PUSH2 0x1175 SWAP2 SWAP1 PUSH2 0x2A24 JUMP JUMPDEST PUSH2 0x117F SWAP2 SWAP1 PUSH2 0x2A92 JUMP JUMPDEST SWAP8 POP PUSH0 DUP2 PUSH0 ADD PUSH0 SWAP1 SLOAD SWAP1 PUSH2 0x100 EXP SWAP1 DIV PUSH20 0xFFFFFFFFFFFFFFFFFFFFFFFFFFFFFFFFFFFFFFFF AND SWAP1 POP PUSH0 DUP2 PUSH20 0xFFFFFFFFFFFFFFFFFFFFFFFFFFFFFFFFFFFFFFFF AND DUP11 PUSH1 0x40 MLOAD PUSH2 0x11CC SWAP1 PUSH2 0x2846 JUMP JUMPDEST PUSH0 PUSH1 0x40 MLOAD DUP1 DUP4 SUB DUP2 DUP6 DUP8 GAS CALL SWAP3 POP POP POP RETURNDATASIZE DUP1 PUSH0 DUP2 EQ PUSH2 0x1206 JUMPI PUSH1 0x40 MLOAD SWAP2 POP PUSH1 0x1F NOT PUSH1 0x3F RETURNDATASIZE ADD AND DUP3 ADD PUSH1 0x40 MSTORE RETURNDATASIZE DUP3 MSTORE RETURNDATASIZE PUSH0 PUSH1 0x20 DUP5 ADD RETURNDATACOPY PUSH2 0x120B JUMP JUMPDEST PUSH1 0x60 SWAP2 POP JUMPDEST POP POP SWAP1 POP DUP1 PUSH2 0x124F JUMPI PUSH1 0x40 MLOAD PUSH32 0x8C379A000000000000000000000000000000000000000000000000000000000 DUP2 MSTORE PUSH1 0x4 ADD PUSH2 0x1246 SWAP1 PUSH2 0x28A4 JUMP JUMPDEST PUSH1 0x40 MLOAD DUP1 SWAP2 SUB SWAP1 REVERT JUMPDEST POP POP JUMPDEST POP DUP1 DUP1 PUSH1 0x1 ADD SWAP2 POP POP PUSH2 0x1127 JUMP JUMPDEST POP POP POP POP POP POP POP POP POP POP JUMP JUMPDEST PUSH1 0x2 PUSH1 0x20 MSTORE DUP1 PUSH0 MSTORE PUSH1 0x40 PUSH0 KECCAK256 PUSH0 SWAP2 POP SWAP1 POP DUP1 PUSH0 ADD DUP1 SLOAD PUSH2 0x128B SWAP1 PUSH2 0x232A JUMP JUMPDEST DUP1 PUSH1 0x1F ADD PUSH1 0x20 DUP1 SWAP2 DIV MUL PUSH1 0x20 ADD PUSH1 0x40 MLOAD SWAP1 DUP2 ADD PUSH1 0x40 MSTORE DUP1 SWAP3 SWAP2 SWAP1 DUP2 DUP2 MSTORE PUSH1 0x20 ADD DUP3 DUP1 SLOAD PUSH2 0x12B7 SWAP1 PUSH2 0x232A JUMP JUMPDEST DUP1 ISZERO PUSH2 0x1302 JUMPI DUP1 PUSH1 0x1F LT PUSH2 0x12D9 JUMPI PUSH2 0x100 DUP1 DUP4 SLOAD DIV MUL DUP4 MSTORE SWAP2 PUSH1 0x20 ADD SWAP2 PUSH2 0x1302 JUMP JUMPDEST DUP3 ADD SWAP2 SWAP1 PUSH0 MSTORE PUSH1 0x20 PUSH0 KECCAK256 SWAP1 JUMPDEST DUP2 SLOAD DUP2 MSTORE SWAP1 PUSH1 0x1 ADD SWAP1 PUSH1 0x20 ADD DUP1 DUP4 GT PUSH2 0x12E5 JUMPI DUP3 SWAP1 SUB PUSH1 0x1F AND DUP3 ADD SWAP2 JUMPDEST POP POP POP POP POP SWAP1 DUP1 PUSH1 0x1 ADD PUSH0 SWAP1 SLOAD SWAP1 PUSH2 0x100 EXP SWAP1 DIV PUSH20 0xFFFFFFFFFFFFFFFFFFFFFFFFFFFFFFFFFFFFFFFF AND SWAP1 POP DUP3 JUMP JUMPDEST PUSH0 DUP1 SLOAD SWAP1 PUSH2 0x100 EXP SWAP1 DIV PUSH20 0xFFFFFFFFFFFFFFFFFFFFFFFFFFFFFFFFFFFFFFFF AND PUSH20 0xFFFFFFFFFFFFFFFFFFFFFFFFFFFFFFFFFFFFFFFF AND CALLER PUSH20 0xFFFFFFFFFFFFFFFFFFFFFFFFFFFFFFFFFFFFFFFF AND EQ PUSH2 0x13BE JUMPI PUSH1 0x40 MLOAD PUSH32 0x8C379A000000000000000000000000000000000000000000000000000000000 DUP2 MSTORE PUSH1 0x4 ADD PUSH2 0x13B5 SWAP1 PUSH2 0x290C JUMP JUMPDEST PUSH1 0x40 MLOAD DUP1 SWAP2 SUB SWAP1 REVERT JUMPDEST PUSH0 PUSH1 0x3 PUSH0 DUP10 DUP2 MSTORE PUSH1 0x20 ADD SWAP1 DUP2 MSTORE PUSH1 0x20 ADD PUSH0 KECCAK256 SWAP1 POP PUSH0 PUSH1 0x40 MLOAD DUP1 PUSH2 0x160 ADD PUSH1 0x40 MSTORE DUP1 DUP11 DUP2 MSTORE PUSH1 0x20 ADD DUP10 DUP2 MSTORE PUSH1 0x20 ADD DUP9 DUP2 MSTORE PUSH1 0x20 ADD DUP8 DUP2 MSTORE PUSH1 0x20 ADD DUP7 DUP2 MSTORE PUSH1 0x20 ADD DUP6 DUP2 MSTORE PUSH1 0x20 ADD DUP5 DUP2 MSTORE PUSH1 0x20 ADD PUSH1 0x40 MLOAD DUP1 PUSH1 0x40 ADD PUSH1 0x40 MSTORE DUP1 PUSH1 0x7 DUP2 MSTORE PUSH1 0x20 ADD PUSH32 0x4F6E676F696E6700000000000000000000000000000000000000000000000000 DUP2 MSTORE POP DUP2 MSTORE PUSH1 0x20 ADD PUSH0 DUP2 MSTORE PUSH1 0x20 ADD PUSH0 DUP2 MSTORE PUSH1 0x20 ADD PUSH0 DUP2 MSTORE POP SWAP1 POP DUP2 PUSH1 0x2 ADD DUP2 SWAP1 DUP1 PUSH1 0x1 DUP2 SLOAD ADD DUP1 DUP3 SSTORE DUP1 SWAP2 POP POP PUSH1 0x1 SWAP1 SUB SWAP1 PUSH0 MSTORE PUSH1 0x20 PUSH0 KECCAK256 SWAP1 PUSH1 0xB MUL ADD PUSH0 SWAP1 SWAP2 SWAP1 SWAP2 SWAP1 SWAP2 POP PUSH0 DUP3 ADD MLOAD DUP2 PUSH0 ADD SSTORE PUSH1 0x20 DUP3 ADD MLOAD DUP2 PUSH1 0x1 ADD SSTORE PUSH1 0x40 DUP3 ADD MLOAD DUP2 PUSH1 0x2 ADD SWAP1 DUP2 PUSH2 0x14A8 SWAP2 SWAP1 PUSH2 0x255F JUMP JUMPDEST POP PUSH1 0x60 DUP3 ADD MLOAD DUP2 PUSH1 0x3 ADD SWAP1 DUP2 PUSH2 0x14BE SWAP2 SWAP1 PUSH2 0x255F JUMP JUMPDEST POP PUSH1 0x80 DUP3 ADD MLOAD DUP2 PUSH1 0x4 ADD SSTORE PUSH1 0xA0 DUP3 ADD MLOAD DUP2 PUSH1 0x5 ADD SSTORE PUSH1 0xC0 DUP3 ADD MLOAD DUP2 PUSH1 0x6 ADD SSTORE PUSH1 0xE0 DUP3 ADD MLOAD DUP2 PUSH1 0x7 ADD SWAP1 DUP2 PUSH2 0x14F2 SWAP2 SWAP1 PUSH2 0x255F JUMP JUMPDEST POP PUSH2 0x100 DUP3 ADD MLOAD DUP2 PUSH1 0x8 ADD SSTORE PUSH2 0x120 DUP3 ADD MLOAD DUP2 PUSH1 0x9 ADD SSTORE PUSH2 0x140 DUP3 ADD MLOAD DUP2 PUSH1 0xA ADD SSTORE POP POP POP POP POP POP POP POP POP POP POP JUMP JUMPDEST PUSH1 0x4 PUSH1 0x20 MSTORE DUP3 PUSH0 MSTORE PUSH1 0x40 PUSH0 KECCAK256 DUP3 PUSH1 0x64 DUP2 LT PUSH2 0x153A JUMPI PUSH0 DUP1 REVERT JUMPDEST PUSH1 0x4 MUL ADD DUP2 PUSH1 0x64 DUP2 LT PUSH2 0x154B JUMPI PUSH0 DUP1 REVERT JUMPDEST PUSH1 0x20 SWAP2 DUP3 DUP3 DIV ADD SWAP2 SWAP1 MOD SWAP3 POP SWAP3 POP POP SWAP1 SLOAD SWAP1 PUSH2 0x100 EXP SWAP1 DIV PUSH1 0xFF AND DUP2 JUMP JUMPDEST PUSH1 0x60 PUSH0 PUSH1 0x3 PUSH0 DUP5 DUP2 MSTORE PUSH1 0x20 ADD SWAP1 DUP2 MSTORE PUSH1 0x20 ADD PUSH0 KECCAK256 SWAP1 POP PUSH0 DUP2 PUSH1 0x2 ADD SWAP1 POP DUP1 DUP1 SLOAD DUP1 PUSH1 0x20 MUL PUSH1 0x20 ADD PUSH1 0x40 MLOAD SWAP1 DUP2 ADD PUSH1 0x40 MSTORE DUP1 SWAP3 SWAP2 SWAP1 DUP2 DUP2 MSTORE PUSH1 0x20 ADD PUSH0 SWAP1 JUMPDEST DUP3 DUP3 LT ISZERO PUSH2 0x17D6 JUMPI DUP4 DUP3 SWAP1 PUSH0 MSTORE PUSH1 0x20 PUSH0 KECCAK256 SWAP1 PUSH1 0xB MUL ADD PUSH1 0x40 MLOAD DUP1 PUSH2 0x160 ADD PUSH1 0x40 MSTORE SWAP1 DUP2 PUSH0 DUP3 ADD SLOAD DUP2 MSTORE PUSH1 0x20 ADD PUSH1 0x1 DUP3 ADD SLOAD DUP2 MSTORE PUSH1 0x20 ADD PUSH1 0x2 DUP3 ADD DUP1 SLOAD PUSH2 0x15EB SWAP1 PUSH2 0x232A JUMP JUMPDEST DUP1 PUSH1 0x1F ADD PUSH1 0x20 DUP1 SWAP2 DIV MUL PUSH1 0x20 ADD PUSH1 0x40 MLOAD SWAP1 DUP2 ADD PUSH1 0x40 MSTORE DUP1 SWAP3 SWAP2 SWAP1 DUP2 DUP2 MSTORE PUSH1 0x20 ADD DUP3 DUP1 SLOAD PUSH2 0x1617 SWAP1 PUSH2 0x232A JUMP JUMPDEST DUP1 ISZERO PUSH2 0x1662 JUMPI DUP1 PUSH1 0x1F LT PUSH2 0x1639 JUMPI PUSH2 0x100 DUP1 DUP4 SLOAD DIV MUL DUP4 MSTORE SWAP2 PUSH1 0x20 ADD SWAP2 PUSH2 0x1662 JUMP JUMPDEST DUP3 ADD SWAP2 SWAP1 PUSH0 MSTORE PUSH1 0x20 PUSH0 KECCAK256 SWAP1 JUMPDEST DUP2 SLOAD DUP2 MSTORE SWAP1 PUSH1 0x1 ADD SWAP1 PUSH1 0x20 ADD DUP1 DUP4 GT PUSH2 0x1645 JUMPI DUP3 SWAP1 SUB PUSH1 0x1F AND DUP3 ADD SWAP2 JUMPDEST POP POP POP POP POP DUP2 MSTORE PUSH1 0x20 ADD PUSH1 0x3 DUP3 ADD DUP1 SLOAD PUSH2 0x167B SWAP1 PUSH2 0x232A JUMP JUMPDEST DUP1 PUSH1 0x1F ADD PUSH1 0x20 DUP1 SWAP2 DIV MUL PUSH1 0x20 ADD PUSH1 0x40 MLOAD SWAP1 DUP2 ADD PUSH1 0x40 MSTORE DUP1 SWAP3 SWAP2 SWAP1 DUP2 DUP2 MSTORE PUSH1 0x20 ADD DUP3 DUP1 SLOAD PUSH2 0x16A7 SWAP1 PUSH2 0x232A JUMP JUMPDEST DUP1 ISZERO PUSH2 0x16F2 JUMPI DUP1 PUSH1 0x1F LT PUSH2 0x16C9 JUMPI PUSH2 0x100 DUP1 DUP4 SLOAD DIV MUL DUP4 MSTORE SWAP2 PUSH1 0x20 ADD SWAP2 PUSH2 0x16F2 JUMP JUMPDEST DUP3 ADD SWAP2 SWAP1 PUSH0 MSTORE PUSH1 0x20 PUSH0 KECCAK256 SWAP1 JUMPDEST DUP2 SLOAD DUP2 MSTORE SWAP1 PUSH1 0x1 ADD SWAP1 PUSH1 0x20 ADD DUP1 DUP4 GT PUSH2 0x16D5 JUMPI DUP3 SWAP1 SUB PUSH1 0x1F AND DUP3 ADD SWAP2 JUMPDEST POP POP POP POP POP DUP2 MSTORE PUSH1 0x20 ADD PUSH1 0x4 DUP3 ADD SLOAD DUP2 MSTORE PUSH1 0x20 ADD PUSH1 0x5 DUP3 ADD SLOAD DUP2 MSTORE PUSH1 0x20 ADD PUSH1 0x6 DUP3 ADD SLOAD DUP2 MSTORE PUSH1 0x20 ADD PUSH1 0x7 DUP3 ADD DUP1 SLOAD PUSH2 0x1729 SWAP1 PUSH2 0x232A JUMP JUMPDEST DUP1 PUSH1 0x1F ADD PUSH1 0x20 DUP1 SWAP2 DIV MUL PUSH1 0x20 ADD PUSH1 0x40 MLOAD SWAP1 DUP2 ADD PUSH1 0x40 MSTORE DUP1 SWAP3 SWAP2 SWAP1 DUP2 DUP2 MSTORE PUSH1 0x20 ADD DUP3 DUP1 SLOAD PUSH2 0x1755 SWAP1 PUSH2 0x232A JUMP JUMPDEST DUP1 ISZERO PUSH2 0x17A0 JUMPI DUP1 PUSH1 0x1F LT PUSH2 0x1777 JUMPI PUSH2 0x100 DUP1 DUP4 SLOAD DIV MUL DUP4 MSTORE SWAP2 PUSH1 0x20 ADD SWAP2 PUSH2 0x17A0 JUMP JUMPDEST DUP3 ADD SWAP2 SWAP1 PUSH0 MSTORE PUSH1 0x20 PUSH0 KECCAK256 SWAP1 JUMPDEST DUP2 SLOAD DUP2 MSTORE SWAP1 PUSH1 0x1 ADD SWAP1 PUSH1 0x20 ADD DUP1 DUP4 GT PUSH2 0x1783 JUMPI DUP3 SWAP1 SUB PUSH1 0x1F AND DUP3 ADD SWAP2 JUMPDEST POP POP POP POP POP DUP2 MSTORE PUSH1 0x20 ADD PUSH1 0x8 DUP3 ADD SLOAD DUP2 MSTORE PUSH1 0x20 ADD PUSH1 0x9 DUP3 ADD SLOAD DUP2 MSTORE PUSH1 0x20 ADD PUSH1 0xA DUP3 ADD SLOAD DUP2 MSTORE POP POP DUP2 MSTORE PUSH1 0x20 ADD SWAP1 PUSH1 0x1 ADD SWAP1 PUSH2 0x15A6 JUMP JUMPDEST POP POP POP POP SWAP3 POP POP POP SWAP2 SWAP1 POP JUMP JUMPDEST DUP3 DUP1 SLOAD DUP3 DUP3 SSTORE SWAP1 PUSH0 MSTORE PUSH1 0x20 PUSH0 KECCAK256 SWAP1 PUSH1 0xB MUL DUP2 ADD SWAP3 DUP3 ISZERO PUSH2 0x18B3 JUMPI PUSH0 MSTORE PUSH1 0x20 PUSH0 KECCAK256 SWAP2 PUSH1 0xB MUL DUP3 ADD JUMPDEST DUP3 DUP2 GT ISZERO PUSH2 0x18B2 JUMPI DUP3 DUP3 PUSH0 DUP3 ADD SLOAD DUP2 PUSH0 ADD SSTORE PUSH1 0x1 DUP3 ADD SLOAD DUP2 PUSH1 0x1 ADD SSTORE PUSH1 0x2 DUP3 ADD DUP2 PUSH1 0x2 ADD SWAP1 DUP2 PUSH2 0x183A SWAP2 SWAP1 PUSH2 0x293F JUMP JUMPDEST POP PUSH1 0x3 DUP3 ADD DUP2 PUSH1 0x3 ADD SWAP1 DUP2 PUSH2 0x184F SWAP2 SWAP1 PUSH2 0x293F JUMP JUMPDEST POP PUSH1 0x4 DUP3 ADD SLOAD DUP2 PUSH1 0x4 ADD SSTORE PUSH1 0x5 DUP3 ADD SLOAD DUP2 PUSH1 0x5 ADD SSTORE PUSH1 0x6 DUP3 ADD SLOAD DUP2 PUSH1 0x6 ADD SSTORE PUSH1 0x7 DUP3 ADD DUP2 PUSH1 0x7 ADD SWAP1 DUP2 PUSH2 0x1882 SWAP2 SWAP1 PUSH2 0x293F JUMP JUMPDEST POP PUSH1 0x8 DUP3 ADD SLOAD DUP2 PUSH1 0x8 ADD SSTORE PUSH1 0x9 DUP3 ADD SLOAD DUP2 PUSH1 0x9 ADD SSTORE PUSH1 0xA DUP3 ADD SLOAD DUP2 PUSH1 0xA ADD SSTORE POP POP SWAP2 PUSH1 0xB ADD SWAP2 SWAP1 PUSH1 0xB ADD SWAP1 PUSH2 0x180A JUMP JUMPDEST JUMPDEST POP SWAP1 POP PUSH2 0x18C0 SWAP2 SWAP1 PUSH2 0x18C4 JUMP JUMPDEST POP SWAP1 JUMP JUMPDEST JUMPDEST DUP1 DUP3 GT ISZERO PUSH2 0x193B JUMPI PUSH0 DUP1 DUP3 ADD PUSH0 SWAP1 SSTORE PUSH1 0x1 DUP3 ADD PUSH0 SWAP1 SSTORE PUSH1 0x2 DUP3 ADD PUSH0 PUSH2 0x18EA SWAP2 SWAP1 PUSH2 0x193F JUMP JUMPDEST PUSH1 0x3 DUP3 ADD PUSH0 PUSH2 0x18F9 SWAP2 SWAP1 PUSH2 0x193F JUMP JUMPDEST PUSH1 0x4 DUP3 ADD PUSH0 SWAP1 SSTORE PUSH1 0x5 DUP3 ADD PUSH0 SWAP1 SSTORE PUSH1 0x6 DUP3 ADD PUSH0 SWAP1 SSTORE PUSH1 0x7 DUP3 ADD PUSH0 PUSH2 0x191D SWAP2 SWAP1 PUSH2 0x193F JUMP JUMPDEST PUSH1 0x8 DUP3 ADD PUSH0 SWAP1 SSTORE PUSH1 0x9 DUP3 ADD PUSH0 SWAP1 SSTORE PUSH1 0xA DUP3 ADD PUSH0 SWAP1 SSTORE POP PUSH1 0xB ADD PUSH2 0x18C5 JUMP JUMPDEST POP SWAP1 JUMP JUMPDEST POP DUP1 SLOAD PUSH2 0x194B SWAP1 PUSH2 0x232A JUMP JUMPDEST PUSH0 DUP3 SSTORE DUP1 PUSH1 0x1F LT PUSH2 0x195C JUMPI POP PUSH2 0x1979 JUMP JUMPDEST PUSH1 0x1F ADD PUSH1 0x20 SWAP1 DIV SWAP1 PUSH0 MSTORE PUSH1 0x20 PUSH0 KECCAK256 SWAP1 DUP2 ADD SWAP1 PUSH2 0x1978 SWAP2 SWAP1 PUSH2 0x197C JUMP JUMPDEST JUMPDEST POP JUMP JUMPDEST JUMPDEST DUP1 DUP3 GT ISZERO PUSH2 0x1993 JUMPI PUSH0 DUP2 PUSH0 SWAP1 SSTORE POP PUSH1 0x1 ADD PUSH2 0x197D JUMP JUMPDEST POP SWAP1 JUMP JUMPDEST PUSH0 PUSH1 0x40 MLOAD SWAP1 POP SWAP1 JUMP JUMPDEST PUSH0 DUP1 REVERT JUMPDEST PUSH0 DUP1 REVERT JUMPDEST PUSH0 DUP2 SWAP1 POP SWAP2 SWAP1 POP JUMP JUMPDEST PUSH2 0x19BA DUP2 PUSH2 0x19A8 JUMP JUMPDEST DUP2 EQ PUSH2 0x19C4 JUMPI PUSH0 DUP1 REVERT JUMPDEST POP JUMP JUMPDEST PUSH0 DUP2 CALLDATALOAD SWAP1 POP PUSH2 0x19D5 DUP2 PUSH2 0x19B1 JUMP JUMPDEST SWAP3 SWAP2 POP POP JUMP JUMPDEST PUSH0 PUSH1 0x20 DUP3 DUP5 SUB SLT ISZERO PUSH2 0x19F0 JUMPI PUSH2 0x19EF PUSH2 0x19A0 JUMP JUMPDEST JUMPDEST PUSH0 PUSH2 0x19FD DUP5 DUP3 DUP6 ADD PUSH2 0x19C7 JUMP JUMPDEST SWAP2 POP POP SWAP3 SWAP2 POP POP JUMP JUMPDEST PUSH0 DUP2 MLOAD SWAP1 POP SWAP2 SWAP1 POP JUMP JUMPDEST PUSH0 DUP3 DUP3 MSTORE PUSH1 0x20 DUP3 ADD SWAP1 POP SWAP3 SWAP2 POP POP JUMP JUMPDEST DUP3 DUP2 DUP4 MCOPY PUSH0 DUP4 DUP4 ADD MSTORE POP POP POP JUMP JUMPDEST PUSH0 PUSH1 0x1F NOT PUSH1 0x1F DUP4 ADD AND SWAP1 POP SWAP2 SWAP1 POP JUMP JUMPDEST PUSH0 PUSH2 0x1A48 DUP3 PUSH2 0x1A06 JUMP JUMPDEST PUSH2 0x1A52 DUP2 DUP6 PUSH2 0x1A10 JUMP JUMPDEST SWAP4 POP PUSH2 0x1A62 DUP2 DUP6 PUSH1 0x20 DUP7 ADD PUSH2 0x1A20 JUMP JUMPDEST PUSH2 0x1A6B DUP2 PUSH2 0x1A2E JUMP JUMPDEST DUP5 ADD SWAP2 POP POP SWAP3 SWAP2 POP POP JUMP JUMPDEST PUSH2 0x1A7F DUP2 PUSH2 0x19A8 JUMP JUMPDEST DUP3 MSTORE POP POP JUMP JUMPDEST PUSH0 PUSH1 0x40 DUP3 ADD SWAP1 POP DUP2 DUP2 SUB PUSH0 DUP4 ADD MSTORE PUSH2 0x1A9D DUP2 DUP6 PUSH2 0x1A3E JUMP JUMPDEST SWAP1 POP PUSH2 0x1AAC PUSH1 0x20 DUP4 ADD DUP5 PUSH2 0x1A76 JUMP JUMPDEST SWAP4 SWAP3 POP POP POP JUMP JUMPDEST PUSH0 DUP1 PUSH0 PUSH1 0x60 DUP5 DUP7 SUB SLT ISZERO PUSH2 0x1ACA JUMPI PUSH2 0x1AC9 PUSH2 0x19A0 JUMP JUMPDEST JUMPDEST PUSH0 PUSH2 0x1AD7 DUP7 DUP3 DUP8 ADD PUSH2 0x19C7 JUMP JUMPDEST SWAP4 POP POP PUSH1 0x20 PUSH2 0x1AE8 DUP7 DUP3 DUP8 ADD PUSH2 0x19C7 JUMP JUMPDEST SWAP3 POP POP PUSH1 0x40 PUSH2 0x1AF9 DUP7 DUP3 DUP8 ADD PUSH2 0x19C7 JUMP JUMPDEST SWAP2 POP POP SWAP3 POP SWAP3 POP SWAP3 JUMP JUMPDEST PUSH0 PUSH20 0xFFFFFFFFFFFFFFFFFFFFFFFFFFFFFFFFFFFFFFFF DUP3 AND SWAP1 POP SWAP2 SWAP1 POP JUMP JUMPDEST PUSH0 PUSH2 0x1B2C DUP3 PUSH2 0x1B03 JUMP JUMPDEST SWAP1 POP SWAP2 SWAP1 POP JUMP JUMPDEST PUSH2 0x1B3C DUP2 PUSH2 0x1B22 JUMP JUMPDEST DUP3 MSTORE POP POP JUMP JUMPDEST PUSH0 PUSH1 0x60 DUP3 ADD SWAP1 POP PUSH2 0x1B55 PUSH0 DUP4 ADD DUP7 PUSH2 0x1B33 JUMP JUMPDEST PUSH2 0x1B62 PUSH1 0x20 DUP4 ADD DUP6 PUSH2 0x1A76 JUMP JUMPDEST PUSH2 0x1B6F PUSH1 0x40 DUP4 ADD DUP5 PUSH2 0x1A76 JUMP JUMPDEST SWAP5 SWAP4 POP POP POP POP JUMP JUMPDEST PUSH0 DUP2 ISZERO ISZERO SWAP1 POP SWAP2 SWAP1 POP JUMP JUMPDEST PUSH2 0x1B8B DUP2 PUSH2 0x1B77 JUMP JUMPDEST DUP3 MSTORE POP POP JUMP JUMPDEST PUSH0 PUSH1 0x20 DUP3 ADD SWAP1 POP PUSH2 0x1BA4 PUSH0 DUP4 ADD DUP5 PUSH2 0x1B82 JUMP JUMPDEST SWAP3 SWAP2 POP POP JUMP JUMPDEST PUSH0 DUP2 MLOAD SWAP1 POP SWAP2 SWAP1 POP JUMP JUMPDEST PUSH0 DUP3 DUP3 MSTORE PUSH1 0x20 DUP3 ADD SWAP1 POP SWAP3 SWAP2 POP POP JUMP JUMPDEST PUSH0 DUP2 SWAP1 POP PUSH1 0x20 DUP3 ADD SWAP1 POP SWAP2 SWAP1 POP JUMP JUMPDEST PUSH0 DUP3 DUP3 MSTORE PUSH1 0x20 DUP3 ADD SWAP1 POP SWAP3 SWAP2 POP POP JUMP JUMPDEST PUSH0 PUSH2 0x1BED DUP3 PUSH2 0x1A06 JUMP JUMPDEST PUSH2 0x1BF7 DUP2 DUP6 PUSH2 0x1BD3 JUMP JUMPDEST SWAP4 POP PUSH2 0x1C07 DUP2 DUP6 PUSH1 0x20 DUP7 ADD PUSH2 0x1A20 JUMP JUMPDEST PUSH2 0x1C10 DUP2 PUSH2 0x1A2E JUMP JUMPDEST DUP5 ADD SWAP2 POP POP SWAP3 SWAP2 POP POP JUMP JUMPDEST PUSH2 0x1C24 DUP2 PUSH2 0x19A8 JUMP JUMPDEST DUP3 MSTORE POP POP JUMP JUMPDEST PUSH0 DUP2 MLOAD SWAP1 POP SWAP2 SWAP1 POP JUMP JUMPDEST PUSH0 DUP3 DUP3 MSTORE PUSH1 0x20 DUP3 ADD SWAP1 POP SWAP3 SWAP2 POP POP JUMP JUMPDEST PUSH0 DUP2 SWAP1 POP PUSH1 0x20 DUP3 ADD SWAP1 POP SWAP2 SWAP1 POP JUMP JUMPDEST PUSH0 PUSH2 0x160 DUP4 ADD PUSH0 DUP4 ADD MLOAD PUSH2 0x1C69 PUSH0 DUP7 ADD DUP3 PUSH2 0x1C1B JUMP JUMPDEST POP PUSH1 0x20 DUP4 ADD MLOAD PUSH2 0x1C7C PUSH1 0x20 DUP7 ADD DUP3 PUSH2 0x1C1B JUMP JUMPDEST POP PUSH1 0x40 DUP4 ADD MLOAD DUP5 DUP3 SUB PUSH1 0x40 DUP7 ADD MSTORE PUSH2 0x1C94 DUP3 DUP3 PUSH2 0x1BE3 JUMP JUMPDEST SWAP2 POP POP PUSH1 0x60 DUP4 ADD MLOAD DUP5 DUP3 SUB PUSH1 0x60 DUP7 ADD MSTORE PUSH2 0x1CAE DUP3 DUP3 PUSH2 0x1BE3 JUMP JUMPDEST SWAP2 POP POP PUSH1 0x80 DUP4 ADD MLOAD PUSH2 0x1CC3 PUSH1 0x80 DUP7 ADD DUP3 PUSH2 0x1C1B JUMP JUMPDEST POP PUSH1 0xA0 DUP4 ADD MLOAD PUSH2 0x1CD6 PUSH1 0xA0 DUP7 ADD DUP3 PUSH2 0x1C1B JUMP JUMPDEST POP PUSH1 0xC0 DUP4 ADD MLOAD PUSH2 0x1CE9 PUSH1 0xC0 DUP7 ADD DUP3 PUSH2 0x1C1B JUMP JUMPDEST POP PUSH1 0xE0 DUP4 ADD MLOAD DUP5 DUP3 SUB PUSH1 0xE0 DUP7 ADD MSTORE PUSH2 0x1D01 DUP3 DUP3 PUSH2 0x1BE3 JUMP JUMPDEST SWAP2 POP POP PUSH2 0x100 DUP4 ADD MLOAD PUSH2 0x1D18 PUSH2 0x100 DUP7 ADD DUP3 PUSH2 0x1C1B JUMP JUMPDEST POP PUSH2 0x120 DUP4 ADD MLOAD PUSH2 0x1D2D PUSH2 0x120 DUP7 ADD DUP3 PUSH2 0x1C1B JUMP JUMPDEST POP PUSH2 0x140 DUP4 ADD MLOAD PUSH2 0x1D42 PUSH2 0x140 DUP7 ADD DUP3 PUSH2 0x1C1B JUMP JUMPDEST POP DUP1 SWAP2 POP POP SWAP3 SWAP2 POP POP JUMP JUMPDEST PUSH0 PUSH2 0x1D58 DUP4 DUP4 PUSH2 0x1C53 JUMP JUMPDEST SWAP1 POP SWAP3 SWAP2 POP POP JUMP JUMPDEST PUSH0 PUSH1 0x20 DUP3 ADD SWAP1 POP SWAP2 SWAP1 POP JUMP JUMPDEST PUSH0 PUSH2 0x1D76 DUP3 PUSH2 0x1C2A JUMP JUMPDEST PUSH2 0x1D80 DUP2 DUP6 PUSH2 0x1C34 JUMP JUMPDEST SWAP4 POP DUP4 PUSH1 0x20 DUP3 MUL DUP6 ADD PUSH2 0x1D92 DUP6 PUSH2 0x1C44 JUMP JUMPDEST DUP1 PUSH0 JUMPDEST DUP6 DUP2 LT ISZERO PUSH2 0x1DCD JUMPI DUP5 DUP5 SUB DUP10 MSTORE DUP2 MLOAD PUSH2 0x1DAE DUP6 DUP3 PUSH2 0x1D4D JUMP JUMPDEST SWAP5 POP PUSH2 0x1DB9 DUP4 PUSH2 0x1D60 JUMP JUMPDEST SWAP3 POP PUSH1 0x20 DUP11 ADD SWAP10 POP POP PUSH1 0x1 DUP2 ADD SWAP1 POP PUSH2 0x1D95 JUMP JUMPDEST POP DUP3 SWAP8 POP DUP8 SWAP6 POP POP POP POP POP POP SWAP3 SWAP2 POP POP JUMP JUMPDEST PUSH0 PUSH1 0x60 DUP4 ADD PUSH0 DUP4 ADD MLOAD DUP5 DUP3 SUB PUSH0 DUP7 ADD MSTORE PUSH2 0x1DF9 DUP3 DUP3 PUSH2 0x1BE3 JUMP JUMPDEST SWAP2 POP POP PUSH1 0x20 DUP4 ADD MLOAD PUSH2 0x1E0E PUSH1 0x20 DUP7 ADD DUP3 PUSH2 0x1C1B JUMP JUMPDEST POP PUSH1 0x40 DUP4 ADD MLOAD DUP5 DUP3 SUB PUSH1 0x40 DUP7 ADD MSTORE PUSH2 0x1E26 DUP3 DUP3 PUSH2 0x1D6C JUMP JUMPDEST SWAP2 POP POP DUP1 SWAP2 POP POP SWAP3 SWAP2 POP POP JUMP JUMPDEST PUSH0 PUSH2 0x1E3E DUP4 DUP4 PUSH2 0x1DDF JUMP JUMPDEST SWAP1 POP SWAP3 SWAP2 POP POP JUMP JUMPDEST PUSH0 PUSH1 0x20 DUP3 ADD SWAP1 POP SWAP2 SWAP1 POP JUMP JUMPDEST PUSH0 PUSH2 0x1E5C DUP3 PUSH2 0x1BAA JUMP JUMPDEST PUSH2 0x1E66 DUP2 DUP6 PUSH2 0x1BB4 JUMP JUMPDEST SWAP4 POP DUP4 PUSH1 0x20 DUP3 MUL DUP6 ADD PUSH2 0x1E78 DUP6 PUSH2 0x1BC4 JUMP JUMPDEST DUP1 PUSH0 JUMPDEST DUP6 DUP2 LT ISZERO PUSH2 0x1EB3 JUMPI DUP5 DUP5 SUB DUP10 MSTORE DUP2 MLOAD PUSH2 0x1E94 DUP6 DUP3 PUSH2 0x1E33 JUMP JUMPDEST SWAP5 POP PUSH2 0x1E9F DUP4 PUSH2 0x1E46 JUMP JUMPDEST SWAP3 POP PUSH1 0x20 DUP11 ADD SWAP10 POP POP PUSH1 0x1 DUP2 ADD SWAP1 POP PUSH2 0x1E7B JUMP JUMPDEST POP DUP3 SWAP8 POP DUP8 SWAP6 POP POP POP POP POP POP SWAP3 SWAP2 POP POP JUMP JUMPDEST PUSH0 PUSH1 0x20 DUP3 ADD SWAP1 POP DUP2 DUP2 SUB PUSH0 DUP4 ADD MSTORE PUSH2 0x1EDD DUP2 DUP5 PUSH2 0x1E52 JUMP JUMPDEST SWAP1 POP SWAP3 SWAP2 POP POP JUMP JUMPDEST PUSH0 DUP1 REVERT JUMPDEST PUSH0 DUP1 REVERT JUMPDEST PUSH32 0x4E487B7100000000000000000000000000000000000000000000000000000000 PUSH0 MSTORE PUSH1 0x41 PUSH1 0x4 MSTORE PUSH1 0x24 PUSH0 REVERT JUMPDEST PUSH2 0x1F23 DUP3 PUSH2 0x1A2E JUMP JUMPDEST DUP2 ADD DUP2 DUP2 LT PUSH8 0xFFFFFFFFFFFFFFFF DUP3 GT OR ISZERO PUSH2 0x1F42 JUMPI PUSH2 0x1F41 PUSH2 0x1EED JUMP JUMPDEST JUMPDEST DUP1 PUSH1 0x40 MSTORE POP POP POP JUMP JUMPDEST PUSH0 PUSH2 0x1F54 PUSH2 0x1997 JUMP JUMPDEST SWAP1 POP PUSH2 0x1F60 DUP3 DUP3 PUSH2 0x1F1A JUMP JUMPDEST SWAP2 SWAP1 POP JUMP JUMPDEST PUSH0 PUSH8 0xFFFFFFFFFFFFFFFF DUP3 GT ISZERO PUSH2 0x1F7F JUMPI PUSH2 0x1F7E PUSH2 0x1EED JUMP JUMPDEST JUMPDEST PUSH2 0x1F88 DUP3 PUSH2 0x1A2E JUMP JUMPDEST SWAP1 POP PUSH1 0x20 DUP2 ADD SWAP1 POP SWAP2 SWAP1 POP JUMP JUMPDEST DUP3 DUP2 DUP4 CALLDATACOPY PUSH0 DUP4 DUP4 ADD MSTORE POP POP POP JUMP JUMPDEST PUSH0 PUSH2 0x1FB5 PUSH2 0x1FB0 DUP5 PUSH2 0x1F65 JUMP JUMPDEST PUSH2 0x1F4B JUMP JUMPDEST SWAP1 POP DUP3 DUP2 MSTORE PUSH1 0x20 DUP2 ADD DUP5 DUP5 DUP5 ADD GT ISZERO PUSH2 0x1FD1 JUMPI PUSH2 0x1FD0 PUSH2 0x1EE9 JUMP JUMPDEST JUMPDEST PUSH2 0x1FDC DUP5 DUP3 DUP6 PUSH2 0x1F95 JUMP JUMPDEST POP SWAP4 SWAP3 POP POP POP JUMP JUMPDEST PUSH0 DUP3 PUSH1 0x1F DUP4 ADD SLT PUSH2 0x1FF8 JUMPI PUSH2 0x1FF7 PUSH2 0x1EE5 JUMP JUMPDEST JUMPDEST DUP2 CALLDATALOAD PUSH2 0x2008 DUP5 DUP3 PUSH1 0x20 DUP7 ADD PUSH2 0x1FA3 JUMP JUMPDEST SWAP2 POP POP SWAP3 SWAP2 POP POP JUMP JUMPDEST PUSH0 PUSH1 0x20 DUP3 DUP5 SUB SLT ISZERO PUSH2 0x2026 JUMPI PUSH2 0x2025 PUSH2 0x19A0 JUMP JUMPDEST JUMPDEST PUSH0 DUP3 ADD CALLDATALOAD PUSH8 0xFFFFFFFFFFFFFFFF DUP2 GT ISZERO PUSH2 0x2043 JUMPI PUSH2 0x2042 PUSH2 0x19A4 JUMP JUMPDEST JUMPDEST PUSH2 0x204F DUP5 DUP3 DUP6 ADD PUSH2 0x1FE4 JUMP JUMPDEST SWAP2 POP POP SWAP3 SWAP2 POP POP JUMP JUMPDEST PUSH0 DUP1 PUSH1 0x40 DUP4 DUP6 SUB SLT ISZERO PUSH2 0x206E JUMPI PUSH2 0x206D PUSH2 0x19A0 JUMP JUMPDEST JUMPDEST PUSH0 DUP4 ADD CALLDATALOAD PUSH8 0xFFFFFFFFFFFFFFFF DUP2 GT ISZERO PUSH2 0x208B JUMPI PUSH2 0x208A PUSH2 0x19A4 JUMP JUMPDEST JUMPDEST PUSH2 0x2097 DUP6 DUP3 DUP7 ADD PUSH2 0x1FE4 JUMP JUMPDEST SWAP3 POP POP PUSH1 0x20 PUSH2 0x20A8 DUP6 DUP3 DUP7 ADD PUSH2 0x19C7 JUMP JUMPDEST SWAP2 POP POP SWAP3 POP SWAP3 SWAP1 POP JUMP JUMPDEST PUSH2 0x20BB DUP2 PUSH2 0x1B22 JUMP JUMPDEST DUP2 EQ PUSH2 0x20C5 JUMPI PUSH0 DUP1 REVERT JUMPDEST POP JUMP JUMPDEST PUSH0 DUP2 CALLDATALOAD SWAP1 POP PUSH2 0x20D6 DUP2 PUSH2 0x20B2 JUMP JUMPDEST SWAP3 SWAP2 POP POP JUMP JUMPDEST PUSH0 PUSH1 0x20 DUP3 DUP5 SUB SLT ISZERO PUSH2 0x20F1 JUMPI PUSH2 0x20F0 PUSH2 0x19A0 JUMP JUMPDEST JUMPDEST PUSH0 PUSH2 0x20FE DUP5 DUP3 DUP6 ADD PUSH2 0x20C8 JUMP JUMPDEST SWAP2 POP POP SWAP3 SWAP2 POP POP JUMP JUMPDEST PUSH0 PUSH1 0x40 DUP3 ADD SWAP1 POP DUP2 DUP2 SUB PUSH0 DUP4 ADD MSTORE PUSH2 0x211F DUP2 DUP6 PUSH2 0x1A3E JUMP JUMPDEST SWAP1 POP PUSH2 0x212E PUSH1 0x20 DUP4 ADD DUP5 PUSH2 0x1B33 JUMP JUMPDEST SWAP4 SWAP3 POP POP POP JUMP JUMPDEST PUSH0 DUP1 PUSH0 DUP1 PUSH0 DUP1 PUSH0 PUSH1 0xE0 DUP9 DUP11 SUB SLT ISZERO PUSH2 0x2150 JUMPI PUSH2 0x214F PUSH2 0x19A0 JUMP JUMPDEST JUMPDEST PUSH0 PUSH2 0x215D DUP11 DUP3 DUP12 ADD PUSH2 0x19C7 JUMP JUMPDEST SWAP8 POP POP PUSH1 0x20 PUSH2 0x216E DUP11 DUP3 DUP12 ADD PUSH2 0x19C7 JUMP JUMPDEST SWAP7 POP POP PUSH1 0x40 DUP9 ADD CALLDATALOAD PUSH8 0xFFFFFFFFFFFFFFFF DUP2 GT ISZERO PUSH2 0x218F JUMPI PUSH2 0x218E PUSH2 0x19A4 JUMP JUMPDEST JUMPDEST PUSH2 0x219B DUP11 DUP3 DUP12 ADD PUSH2 0x1FE4 JUMP JUMPDEST SWAP6 POP POP PUSH1 0x60 DUP9 ADD CALLDATALOAD PUSH8 0xFFFFFFFFFFFFFFFF DUP2 GT ISZERO PUSH2 0x21BC JUMPI PUSH2 0x21BB PUSH2 0x19A4 JUMP JUMPDEST JUMPDEST PUSH2 0x21C8 DUP11 DUP3 DUP12 ADD PUSH2 0x1FE4 JUMP JUMPDEST SWAP5 POP POP PUSH1 0x80 PUSH2 0x21D9 DUP11 DUP3 DUP12 ADD PUSH2 0x19C7 JUMP JUMPDEST SWAP4 POP POP PUSH1 0xA0 PUSH2 0x21EA DUP11 DUP3 DUP12 ADD PUSH2 0x19C7 JUMP JUMPDEST SWAP3 POP POP PUSH1 0xC0 PUSH2 0x21FB DUP11 DUP3 DUP12 ADD PUSH2 0x19C7 JUMP JUMPDEST SWAP2 POP POP SWAP3 SWAP6 SWAP9 SWAP2 SWAP5 SWAP8 POP SWAP3 SWAP6 POP JUMP JUMPDEST PUSH0 DUP1 PUSH0 PUSH1 0x60 DUP5 DUP7 SUB SLT ISZERO PUSH2 0x2221 JUMPI PUSH2 0x2220 PUSH2 0x19A0 JUMP JUMPDEST JUMPDEST PUSH0 PUSH2 0x222E DUP7 DUP3 DUP8 ADD PUSH2 0x20C8 JUMP JUMPDEST SWAP4 POP POP PUSH1 0x20 PUSH2 0x223F DUP7 DUP3 DUP8 ADD PUSH2 0x19C7 JUMP JUMPDEST SWAP3 POP POP PUSH1 0x40 PUSH2 0x2250 DUP7 DUP3 DUP8 ADD PUSH2 0x19C7 JUMP JUMPDEST SWAP2 POP POP SWAP3 POP SWAP3 POP SWAP3 JUMP JUMPDEST PUSH0 DUP3 DUP3 MSTORE PUSH1 0x20 DUP3 ADD SWAP1 POP SWAP3 SWAP2 POP POP JUMP JUMPDEST PUSH0 PUSH2 0x2274 DUP3 PUSH2 0x1C2A JUMP JUMPDEST PUSH2 0x227E DUP2 DUP6 PUSH2 0x225A JUMP JUMPDEST SWAP4 POP DUP4 PUSH1 0x20 DUP3 MUL DUP6 ADD PUSH2 0x2290 DUP6 PUSH2 0x1C44 JUMP JUMPDEST DUP1 PUSH0 JUMPDEST DUP6 DUP2 LT ISZERO PUSH2 0x22CB JUMPI DUP5 DUP5 SUB DUP10 MSTORE DUP2 MLOAD PUSH2 0x22AC DUP6 DUP3 PUSH2 0x1D4D JUMP JUMPDEST SWAP5 POP PUSH2 0x22B7 DUP4 PUSH2 0x1D60 JUMP JUMPDEST SWAP3 POP PUSH1 0x20 DUP11 ADD SWAP10 POP POP PUSH1 0x1 DUP2 ADD SWAP1 POP PUSH2 0x2293 JUMP JUMPDEST POP DUP3 SWAP8 POP DUP8 SWAP6 POP POP POP POP POP POP SWAP3 SWAP2 POP POP JUMP JUMPDEST PUSH0 PUSH1 0x20 DUP3 ADD SWAP1 POP DUP2 DUP2 SUB PUSH0 DUP4 ADD MSTORE PUSH2 0x22F5 DUP2 DUP5 PUSH2 0x226A JUMP JUMPDEST SWAP1 POP SWAP3 SWAP2 POP POP JUMP JUMPDEST PUSH32 0x4E487B7100000000000000000000000000000000000000000000000000000000 PUSH0 MSTORE PUSH1 0x22 PUSH1 0x4 MSTORE PUSH1 0x24 PUSH0 REVERT JUMPDEST PUSH0 PUSH1 0x2 DUP3 DIV SWAP1 POP PUSH1 0x1 DUP3 AND DUP1 PUSH2 0x2341 JUMPI PUSH1 0x7F DUP3 AND SWAP2 POP JUMPDEST PUSH1 0x20 DUP3 LT DUP2 SUB PUSH2 0x2354 JUMPI PUSH2 0x2353 PUSH2 0x22FD JUMP JUMPDEST JUMPDEST POP SWAP2 SWAP1 POP JUMP JUMPDEST PUSH32 0x5573657220616C72656164792072656769737465726564000000000000000000 PUSH0 DUP3 ADD MSTORE POP JUMP JUMPDEST PUSH0 PUSH2 0x238E PUSH1 0x17 DUP4 PUSH2 0x1A10 JUMP JUMPDEST SWAP2 POP PUSH2 0x2399 DUP3 PUSH2 0x235A JUMP JUMPDEST PUSH1 0x20 DUP3 ADD SWAP1 POP SWAP2 SWAP1 POP JUMP JUMPDEST PUSH0 PUSH1 0x20 DUP3 ADD SWAP1 POP DUP2 DUP2 SUB PUSH0 DUP4 ADD MSTORE PUSH2 0x23BB DUP2 PUSH2 0x2382 JUMP JUMPDEST SWAP1 POP SWAP2 SWAP1 POP JUMP JUMPDEST PUSH0 DUP2 SWAP1 POP DUP2 PUSH0 MSTORE PUSH1 0x20 PUSH0 KECCAK256 SWAP1 POP SWAP2 SWAP1 POP JUMP JUMPDEST PUSH0 PUSH1 0x20 PUSH1 0x1F DUP4 ADD DIV SWAP1 POP SWAP2 SWAP1 POP JUMP JUMPDEST PUSH0 DUP3 DUP3 SHL SWAP1 POP SWAP3 SWAP2 POP POP JUMP JUMPDEST PUSH0 PUSH1 0x8 DUP4 MUL PUSH2 0x241E PUSH32 0xFFFFFFFFFFFFFFFFFFFFFFFFFFFFFFFFFFFFFFFFFFFFFFFFFFFFFFFFFFFFFFFF DUP3 PUSH2 0x23E3 JUMP JUMPDEST PUSH2 0x2428 DUP7 DUP4 PUSH2 0x23E3 JUMP JUMPDEST SWAP6 POP DUP1 NOT DUP5 AND SWAP4 POP DUP1 DUP7 AND DUP5 OR SWAP3 POP POP POP SWAP4 SWAP3 POP POP POP JUMP JUMPDEST PUSH0 DUP2 SWAP1 POP SWAP2 SWAP1 POP JUMP JUMPDEST PUSH0 PUSH2 0x2463 PUSH2 0x245E PUSH2 0x2459 DUP5 PUSH2 0x19A8 JUMP JUMPDEST PUSH2 0x2440 JUMP JUMPDEST PUSH2 0x19A8 JUMP JUMPDEST SWAP1 POP SWAP2 SWAP1 POP JUMP JUMPDEST PUSH0 DUP2 SWAP1 POP SWAP2 SWAP1 POP JUMP JUMPDEST PUSH2 0x247C DUP4 PUSH2 0x2449 JUMP JUMPDEST PUSH2 0x2490 PUSH2 0x2488 DUP3 PUSH2 0x246A JUMP JUMPDEST DUP5 DUP5 SLOAD PUSH2 0x23EF JUMP JUMPDEST DUP3 SSTORE POP POP POP POP JUMP JUMPDEST PUSH0 SWAP1 JUMP JUMPDEST PUSH2 0x24A4 PUSH2 0x2498 JUMP JUMPDEST PUSH2 0x24AF DUP2 DUP5 DUP5 PUSH2 0x2473 JUMP JUMPDEST POP POP POP JUMP JUMPDEST JUMPDEST DUP2 DUP2 LT ISZERO PUSH2 0x24D2 JUMPI PUSH2 0x24C7 PUSH0 DUP3 PUSH2 0x249C JUMP JUMPDEST PUSH1 0x1 DUP2 ADD SWAP1 POP PUSH2 0x24B5 JUMP JUMPDEST POP POP JUMP JUMPDEST PUSH1 0x1F DUP3 GT ISZERO PUSH2 0x2517 JUMPI PUSH2 0x24E8 DUP2 PUSH2 0x23C2 JUMP JUMPDEST PUSH2 0x24F1 DUP5 PUSH2 0x23D4 JUMP JUMPDEST DUP2 ADD PUSH1 0x20 DUP6 LT ISZERO PUSH2 0x2500 JUMPI DUP2 SWAP1 POP JUMPDEST PUSH2 0x2514 PUSH2 0x250C DUP6 PUSH2 0x23D4 JUMP JUMPDEST DUP4 ADD DUP3 PUSH2 0x24B4 JUMP JUMPDEST POP POP JUMPDEST POP POP POP JUMP JUMPDEST PUSH0 DUP3 DUP3 SHR SWAP1 POP SWAP3 SWAP2 POP POP JUMP JUMPDEST PUSH0 PUSH2 0x2537 PUSH0 NOT DUP5 PUSH1 0x8 MUL PUSH2 0x251C JUMP JUMPDEST NOT DUP1 DUP4 AND SWAP2 POP POP SWAP3 SWAP2 POP POP JUMP JUMPDEST PUSH0 PUSH2 0x254F DUP4 DUP4 PUSH2 0x2528 JUMP JUMPDEST SWAP2 POP DUP3 PUSH1 0x2 MUL DUP3 OR SWAP1 POP SWAP3 SWAP2 POP POP JUMP JUMPDEST PUSH2 0x2568 DUP3 PUSH2 0x1A06 JUMP JUMPDEST PUSH8 0xFFFFFFFFFFFFFFFF DUP2 GT ISZERO PUSH2 0x2581 JUMPI PUSH2 0x2580 PUSH2 0x1EED JUMP JUMPDEST JUMPDEST PUSH2 0x258B DUP3 SLOAD PUSH2 0x232A JUMP JUMPDEST PUSH2 0x2596 DUP3 DUP3 DUP6 PUSH2 0x24D6 JUMP JUMPDEST PUSH0 PUSH1 0x20 SWAP1 POP PUSH1 0x1F DUP4 GT PUSH1 0x1 DUP2 EQ PUSH2 0x25C7 JUMPI PUSH0 DUP5 ISZERO PUSH2 0x25B5 JUMPI DUP3 DUP8 ADD MLOAD SWAP1 POP JUMPDEST PUSH2 0x25BF DUP6 DUP3 PUSH2 0x2544 JUMP JUMPDEST DUP7 SSTORE POP PUSH2 0x2626 JUMP JUMPDEST PUSH1 0x1F NOT DUP5 AND PUSH2 0x25D5 DUP7 PUSH2 0x23C2 JUMP JUMPDEST PUSH0 JUMPDEST DUP3 DUP2 LT ISZERO PUSH2 0x25FC JUMPI DUP5 DUP10 ADD MLOAD DUP3 SSTORE PUSH1 0x1 DUP3 ADD SWAP2 POP PUSH1 0x20 DUP6 ADD SWAP5 POP PUSH1 0x20 DUP2 ADD SWAP1 POP PUSH2 0x25D7 JUMP JUMPDEST DUP7 DUP4 LT ISZERO PUSH2 0x2619 JUMPI DUP5 DUP10 ADD MLOAD PUSH2 0x2615 PUSH1 0x1F DUP10 AND DUP3 PUSH2 0x2528 JUMP JUMPDEST DUP4 SSTORE POP JUMPDEST PUSH1 0x1 PUSH1 0x2 DUP9 MUL ADD DUP9 SSTORE POP POP POP JUMPDEST POP POP POP POP POP POP JUMP JUMPDEST PUSH32 0x4F776E65722063616E6E6F7420706C6163652062657473000000000000000000 PUSH0 DUP3 ADD MSTORE POP JUMP JUMPDEST PUSH0 PUSH2 0x2662 PUSH1 0x17 DUP4 PUSH2 0x1A10 JUMP JUMPDEST SWAP2 POP PUSH2 0x266D DUP3 PUSH2 0x262E JUMP JUMPDEST PUSH1 0x20 DUP3 ADD SWAP1 POP SWAP2 SWAP1 POP JUMP JUMPDEST PUSH0 PUSH1 0x20 DUP3 ADD SWAP1 POP DUP2 DUP2 SUB PUSH0 DUP4 ADD MSTORE PUSH2 0x268F DUP2 PUSH2 0x2656 JUMP JUMPDEST SWAP1 POP SWAP2 SWAP1 POP JUMP JUMPDEST PUSH32 0x496E73756666696369656E7420616D6F756E7400000000000000000000000000 PUSH0 DUP3 ADD MSTORE POP JUMP JUMPDEST PUSH0 PUSH2 0x26CA PUSH1 0x13 DUP4 PUSH2 0x1A10 JUMP JUMPDEST SWAP2 POP PUSH2 0x26D5 DUP3 PUSH2 0x2696 JUMP JUMPDEST PUSH1 0x20 DUP3 ADD SWAP1 POP SWAP2 SWAP1 POP JUMP JUMPDEST PUSH0 PUSH1 0x20 DUP3 ADD SWAP1 POP DUP2 DUP2 SUB PUSH0 DUP4 ADD MSTORE PUSH2 0x26F7 DUP2 PUSH2 0x26BE JUMP JUMPDEST SWAP1 POP SWAP2 SWAP1 POP JUMP JUMPDEST PUSH32 0x4E487B7100000000000000000000000000000000000000000000000000000000 PUSH0 MSTORE PUSH1 0x32 PUSH1 0x4 MSTORE PUSH1 0x24 PUSH0 REVERT JUMPDEST PUSH32 0x596F75206861766520616C726561647920706C6163656420796F757220626574 PUSH0 DUP3 ADD MSTORE PUSH32 0x20696E2074686973206D61746368000000000000000000000000000000000000 PUSH1 0x20 DUP3 ADD MSTORE POP JUMP JUMPDEST PUSH0 PUSH2 0x2785 PUSH1 0x2E DUP4 PUSH2 0x1A10 JUMP JUMPDEST SWAP2 POP PUSH2 0x2790 DUP3 PUSH2 0x272B JUMP JUMPDEST PUSH1 0x40 DUP3 ADD SWAP1 POP SWAP2 SWAP1 POP JUMP JUMPDEST PUSH0 PUSH1 0x20 DUP3 ADD SWAP1 POP DUP2 DUP2 SUB PUSH0 DUP4 ADD MSTORE PUSH2 0x27B2 DUP2 PUSH2 0x2779 JUMP JUMPDEST SWAP1 POP SWAP2 SWAP1 POP JUMP JUMPDEST PUSH32 0x4E487B7100000000000000000000000000000000000000000000000000000000 PUSH0 MSTORE PUSH1 0x11 PUSH1 0x4 MSTORE PUSH1 0x24 PUSH0 REVERT JUMPDEST PUSH0 PUSH2 0x27F0 DUP3 PUSH2 0x19A8 JUMP JUMPDEST SWAP2 POP PUSH2 0x27FB DUP4 PUSH2 0x19A8 JUMP JUMPDEST SWAP3 POP DUP3 DUP3 ADD SWAP1 POP DUP1 DUP3 GT ISZERO PUSH2 0x2813 JUMPI PUSH2 0x2812 PUSH2 0x27B9 JUMP JUMPDEST JUMPDEST SWAP3 SWAP2 POP POP JUMP JUMPDEST PUSH0 DUP2 SWAP1 POP SWAP3 SWAP2 POP POP JUMP JUMPDEST POP JUMP JUMPDEST PUSH0 PUSH2 0x2831 PUSH0 DUP4 PUSH2 0x2819 JUMP JUMPDEST SWAP2 POP PUSH2 0x283C DUP3 PUSH2 0x2823 JUMP JUMPDEST PUSH0 DUP3 ADD SWAP1 POP SWAP2 SWAP1 POP JUMP JUMPDEST PUSH0 PUSH2 0x2850 DUP3 PUSH2 0x2826 JUMP JUMPDEST SWAP2 POP DUP2 SWAP1 POP SWAP2 SWAP1 POP JUMP JUMPDEST PUSH32 0x4661696C656420746F2073656E64206574686572000000000000000000000000 PUSH0 DUP3 ADD MSTORE POP JUMP JUMPDEST PUSH0 PUSH2 0x288E PUSH1 0x14 DUP4 PUSH2 0x1A10 JUMP JUMPDEST SWAP2 POP PUSH2 0x2899 DUP3 PUSH2 0x285A JUMP JUMPDEST PUSH1 0x20 DUP3 ADD SWAP1 POP SWAP2 SWAP1 POP JUMP JUMPDEST PUSH0 PUSH1 0x20 DUP3 ADD SWAP1 POP DUP2 DUP2 SUB PUSH0 DUP4 ADD MSTORE PUSH2 0x28BB DUP2 PUSH2 0x2882 JUMP JUMPDEST SWAP1 POP SWAP2 SWAP1 POP JUMP JUMPDEST PUSH32 0x4D757374206265206F776E657221200000000000000000000000000000000000 PUSH0 DUP3 ADD MSTORE POP JUMP JUMPDEST PUSH0 PUSH2 0x28F6 PUSH1 0xF DUP4 PUSH2 0x1A10 JUMP JUMPDEST SWAP2 POP PUSH2 0x2901 DUP3 PUSH2 0x28C2 JUMP JUMPDEST PUSH1 0x20 DUP3 ADD SWAP1 POP SWAP2 SWAP1 POP JUMP JUMPDEST PUSH0 PUSH1 0x20 DUP3 ADD SWAP1 POP DUP2 DUP2 SUB PUSH0 DUP4 ADD MSTORE PUSH2 0x2923 DUP2 PUSH2 0x28EA JUMP JUMPDEST SWAP1 POP SWAP2 SWAP1 POP JUMP JUMPDEST PUSH0 DUP2 SLOAD SWAP1 POP PUSH2 0x2938 DUP2 PUSH2 0x232A JUMP JUMPDEST SWAP1 POP SWAP2 SWAP1 POP JUMP JUMPDEST DUP2 DUP2 SUB PUSH2 0x294D JUMPI POP POP PUSH2 0x2A22 JUMP JUMPDEST PUSH2 0x2956 DUP3 PUSH2 0x292A JUMP JUMPDEST PUSH8 0xFFFFFFFFFFFFFFFF DUP2 GT ISZERO PUSH2 0x296F JUMPI PUSH2 0x296E PUSH2 0x1EED JUMP JUMPDEST JUMPDEST PUSH2 0x2979 DUP3 SLOAD PUSH2 0x232A JUMP JUMPDEST PUSH2 0x2984 DUP3 DUP3 DUP6 PUSH2 0x24D6 JUMP JUMPDEST PUSH0 PUSH1 0x1F DUP4 GT PUSH1 0x1 DUP2 EQ PUSH2 0x29B1 JUMPI PUSH0 DUP5 ISZERO PUSH2 0x299F JUMPI DUP3 DUP8 ADD SLOAD SWAP1 POP JUMPDEST PUSH2 0x29A9 DUP6 DUP3 PUSH2 0x2544 JUMP JUMPDEST DUP7 SSTORE POP PUSH2 0x2A1B JUMP JUMPDEST PUSH1 0x1F NOT DUP5 AND PUSH2 0x29BF DUP8 PUSH2 0x23C2 JUMP JUMPDEST SWAP7 POP PUSH2 0x29CA DUP7 PUSH2 0x23C2 JUMP JUMPDEST PUSH0 JUMPDEST DUP3 DUP2 LT ISZERO PUSH2 0x29F1 JUMPI DUP5 DUP10 ADD SLOAD DUP3 SSTORE PUSH1 0x1 DUP3 ADD SWAP2 POP PUSH1 0x1 DUP6 ADD SWAP5 POP PUSH1 0x20 DUP2 ADD SWAP1 POP PUSH2 0x29CC JUMP JUMPDEST DUP7 DUP4 LT ISZERO PUSH2 0x2A0E JUMPI DUP5 DUP10 ADD SLOAD PUSH2 0x2A0A PUSH1 0x1F DUP10 AND DUP3 PUSH2 0x2528 JUMP JUMPDEST DUP4 SSTORE POP JUMPDEST PUSH1 0x1 PUSH1 0x2 DUP9 MUL ADD DUP9 SSTORE POP POP POP JUMPDEST POP POP POP POP POP POP JUMPDEST JUMP JUMPDEST PUSH0 PUSH2 0x2A2E DUP3 PUSH2 0x19A8 JUMP JUMPDEST SWAP2 POP PUSH2 0x2A39 DUP4 PUSH2 0x19A8 JUMP JUMPDEST SWAP3 POP DUP3 DUP3 MUL PUSH2 0x2A47 DUP2 PUSH2 0x19A8 JUMP JUMPDEST SWAP2 POP DUP3 DUP3 DIV DUP5 EQ DUP4 ISZERO OR PUSH2 0x2A5E JUMPI PUSH2 0x2A5D PUSH2 0x27B9 JUMP JUMPDEST JUMPDEST POP SWAP3 SWAP2 POP POP JUMP JUMPDEST PUSH32 0x4E487B7100000000000000000000000000000000000000000000000000000000 PUSH0 MSTORE PUSH1 0x12 PUSH1 0x4 MSTORE PUSH1 0x24 PUSH0 REVERT JUMPDEST PUSH0 PUSH2 0x2A9C DUP3 PUSH2 0x19A8 JUMP JUMPDEST SWAP2 POP PUSH2 0x2AA7 DUP4 PUSH2 0x19A8 JUMP JUMPDEST SWAP3 POP DUP3 PUSH2 0x2AB7 JUMPI PUSH2 0x2AB6 PUSH2 0x2A65 JUMP JUMPDEST JUMPDEST DUP3 DUP3 DIV SWAP1 POP SWAP3 SWAP2 POP POP JUMP INVALID LOG2 PUSH5 0x6970667358 0x22 SLT KECCAK256 DUP16 PUSH5 0x5DD32BB06D 0x21 LOG0 DUP14 0xEC 0x29 MUL PUSH26 0xE70F5F494ACA409E85D59713CAF5F88F7F3164736F6C63430008 NOT STOP CALLER "
		},
		"gasEstimates": {
			"creation": {
				"codeDepositCost": "2200000",
				"executionCost": "infinite",
				"totalCost": "infinite"
			},
			"external": {
				"bettors(uint256,uint256,uint256)": "infinite",
				"createBet(uint256,uint256,uint256)": "infinite",
				"createEvent(string,uint256)": "infinite",
				"createMatch(uint256,uint256,string,string,uint256,uint256,uint256)": "infinite",
				"declareWinnerAndDistribute(uint256,uint256,uint256)": "infinite",
				"eventIDToEvent(uint256)": "infinite",
				"events(uint256)": "infinite",
				"getEvents()": "infinite",
				"getMatches(uint256)": "infinite",
				"hasBetted(address,uint256,uint256)": "infinite",
				"isRegistered()": "2654",
				"registerUser(string)": "infinite",
				"users(address)": "infinite"
			}
		},
		"methodIdentifiers": {
			"bettors(uint256,uint256,uint256)": "12ea5dcd",
			"createBet(uint256,uint256,uint256)": "9062ce7d",
			"createEvent(string,uint256)": "9a4d4385",
			"createMatch(uint256,uint256,string,string,uint256,uint256,uint256)": "b9087779",
			"declareWinnerAndDistribute(uint256,uint256,uint256)": "9f299a52",
			"eventIDToEvent(uint256)": "00cee13d",
			"events(uint256)": "0b791430",
			"getEvents()": "404aa8f9",
			"getMatches(uint256)": "e60d585a",
			"hasBetted(address,uint256,uint256)": "c4a4cd03",
			"isRegistered()": "22366844",
			"registerUser(string)": "704f1b94",
			"users(address)": "a87430ba"
		}
	},
	"abi": [
		{
			"inputs": [
				{
					"internalType": "address",
					"name": "_add",
					"type": "address"
				}
			],
			"stateMutability": "payable",
			"type": "constructor"
		},
		{
			"inputs": [
				{
					"internalType": "uint256",
					"name": "eventID",
					"type": "uint256"
				},
				{
					"internalType": "uint256",
					"name": "matchID",
					"type": "uint256"
				},
				{
					"internalType": "uint256",
					"name": "",
					"type": "uint256"
				}
			],
			"name": "bettors",
			"outputs": [
				{
					"internalType": "address",
					"name": "add",
					"type": "address"
				},
				{
					"internalType": "uint256",
					"name": "amount",
					"type": "uint256"
				},
				{
					"internalType": "uint256",
					"name": "teamID",
					"type": "uint256"
				}
			],
			"stateMutability": "view",
			"type": "function"
		},
		{
			"inputs": [
				{
					"internalType": "uint256",
					"name": "_eventID",
					"type": "uint256"
				},
				{
					"internalType": "uint256",
					"name": "_matchID",
					"type": "uint256"
				},
				{
					"internalType": "uint256",
					"name": "_teamID",
					"type": "uint256"
				}
			],
			"name": "createBet",
			"outputs": [],
			"stateMutability": "payable",
			"type": "function"
		},
		{
			"inputs": [
				{
					"internalType": "string",
					"name": "_eventName",
					"type": "string"
				},
				{
					"internalType": "uint256",
					"name": "_eventID",
					"type": "uint256"
				}
			],
			"name": "createEvent",
			"outputs": [],
			"stateMutability": "nonpayable",
			"type": "function"
		},
		{
			"inputs": [
				{
					"internalType": "uint256",
					"name": "_eventID",
					"type": "uint256"
				},
				{
					"internalType": "uint256",
					"name": "_matchID",
					"type": "uint256"
				},
				{
					"internalType": "string",
					"name": "_side1",
					"type": "string"
				},
				{
					"internalType": "string",
					"name": "_side2",
					"type": "string"
				},
				{
					"internalType": "uint256",
					"name": "_ID1",
					"type": "uint256"
				},
				{
					"internalType": "uint256",
					"name": "_ID2",
					"type": "uint256"
				},
				{
					"internalType": "uint256",
					"name": "_duration",
					"type": "uint256"
				}
			],
			"name": "createMatch",
			"outputs": [],
			"stateMutability": "nonpayable",
			"type": "function"
		},
		{
			"inputs": [
				{
					"internalType": "uint256",
					"name": "_eventID",
					"type": "uint256"
				},
				{
					"internalType": "uint256",
					"name": "_matchID",
					"type": "uint256"
				},
				{
					"internalType": "uint256",
					"name": "_teamID",
					"type": "uint256"
				}
			],
			"name": "declareWinnerAndDistribute",
			"outputs": [],
			"stateMutability": "payable",
			"type": "function"
		},
		{
			"inputs": [
				{
					"internalType": "uint256",
					"name": "eventID",
					"type": "uint256"
				}
			],
			"name": "eventIDToEvent",
			"outputs": [
				{
					"internalType": "string",
					"name": "name",
					"type": "string"
				},
				{
					"internalType": "uint256",
					"name": "eventID",
					"type": "uint256"
				}
			],
			"stateMutability": "view",
			"type": "function"
		},
		{
			"inputs": [
				{
					"internalType": "uint256",
					"name": "",
					"type": "uint256"
				}
			],
			"name": "events",
			"outputs": [
				{
					"internalType": "string",
					"name": "name",
					"type": "string"
				},
				{
					"internalType": "uint256",
					"name": "eventID",
					"type": "uint256"
				}
			],
			"stateMutability": "view",
			"type": "function"
		},
		{
			"inputs": [],
			"name": "getEvents",
			"outputs": [
				{
					"components": [
						{
							"internalType": "string",
							"name": "name",
							"type": "string"
						},
						{
							"internalType": "uint256",
							"name": "eventID",
							"type": "uint256"
						},
						{
							"components": [
								{
									"internalType": "uint256",
									"name": "eventID",
									"type": "uint256"
								},
								{
									"internalType": "uint256",
									"name": "matchID",
									"type": "uint256"
								},
								{
									"internalType": "string",
									"name": "side1",
									"type": "string"
								},
								{
									"internalType": "string",
									"name": "side2",
									"type": "string"
								},
								{
									"internalType": "uint256",
									"name": "ID1",
									"type": "uint256"
								},
								{
									"internalType": "uint256",
									"name": "ID2",
									"type": "uint256"
								},
								{
									"internalType": "uint256",
									"name": "duration",
									"type": "uint256"
								},
								{
									"internalType": "string",
									"name": "status",
									"type": "string"
								},
								{
									"internalType": "uint256",
									"name": "funds1",
									"type": "uint256"
								},
								{
									"internalType": "uint256",
									"name": "funds2",
									"type": "uint256"
								},
								{
									"internalType": "uint256",
									"name": "totalFunds",
									"type": "uint256"
								}
							],
							"internalType": "struct BettingDapp.Match[]",
							"name": "matches",
							"type": "tuple[]"
						}
					],
					"internalType": "struct BettingDapp.Event[]",
					"name": "",
					"type": "tuple[]"
				}
			],
			"stateMutability": "view",
			"type": "function"
		},
		{
			"inputs": [
				{
					"internalType": "uint256",
					"name": "_eventID",
					"type": "uint256"
				}
			],
			"name": "getMatches",
			"outputs": [
				{
					"components": [
						{
							"internalType": "uint256",
							"name": "eventID",
							"type": "uint256"
						},
						{
							"internalType": "uint256",
							"name": "matchID",
							"type": "uint256"
						},
						{
							"internalType": "string",
							"name": "side1",
							"type": "string"
						},
						{
							"internalType": "string",
							"name": "side2",
							"type": "string"
						},
						{
							"internalType": "uint256",
							"name": "ID1",
							"type": "uint256"
						},
						{
							"internalType": "uint256",
							"name": "ID2",
							"type": "uint256"
						},
						{
							"internalType": "uint256",
							"name": "duration",
							"type": "uint256"
						},
						{
							"internalType": "string",
							"name": "status",
							"type": "string"
						},
						{
							"internalType": "uint256",
							"name": "funds1",
							"type": "uint256"
						},
						{
							"internalType": "uint256",
							"name": "funds2",
							"type": "uint256"
						},
						{
							"internalType": "uint256",
							"name": "totalFunds",
							"type": "uint256"
						}
					],
					"internalType": "struct BettingDapp.Match[]",
					"name": "",
					"type": "tuple[]"
				}
			],
			"stateMutability": "view",
			"type": "function"
		},
		{
			"inputs": [
				{
					"internalType": "address",
					"name": "",
					"type": "address"
				},
				{
					"internalType": "uint256",
					"name": "",
					"type": "uint256"
				},
				{
					"internalType": "uint256",
					"name": "",
					"type": "uint256"
				}
			],
			"name": "hasBetted",
			"outputs": [
				{
					"internalType": "bool",
					"name": "",
					"type": "bool"
				}
			],
			"stateMutability": "view",
			"type": "function"
		},
		{
			"inputs": [],
			"name": "isRegistered",
			"outputs": [
				{
					"internalType": "bool",
					"name": "",
					"type": "bool"
				}
			],
			"stateMutability": "view",
			"type": "function"
		},
		{
			"inputs": [
				{
					"internalType": "string",
					"name": "_name",
					"type": "string"
				}
			],
			"name": "registerUser",
			"outputs": [],
			"stateMutability": "nonpayable",
			"type": "function"
		},
		{
			"inputs": [
				{
					"internalType": "address",
					"name": "",
					"type": "address"
				}
			],
			"name": "users",
			"outputs": [
				{
					"internalType": "string",
					"name": "name",
					"type": "string"
				},
				{
					"internalType": "address",
					"name": "add",
					"type": "address"
				}
			],
			"stateMutability": "view",
			"type": "function"
		}
	]
}