{"abi":[{"type":"constructor","inputs":[],"stateMutability":"payable"},{"type":"function","name":"bettors","inputs":[{"name":"eventID","type":"uint256","internalType":"uint256"},{"name":"matchID","type":"uint256","internalType":"uint256"},{"name":"","type":"uint256","internalType":"uint256"}],"outputs":[{"name":"add","type":"address","internalType":"address"},{"name":"amount","type":"uint256","internalType":"uint256"},{"name":"teamID","type":"uint256","internalType":"uint256"}],"stateMutability":"view"},{"type":"function","name":"createBet","inputs":[{"name":"_eventID","type":"uint256","internalType":"uint256"},{"name":"_matchID","type":"uint256","internalType":"uint256"},{"name":"_teamID","type":"uint256","internalType":"uint256"}],"outputs":[],"stateMutability":"payable"},{"type":"function","name":"createEvent","inputs":[{"name":"_eventName","type":"string","internalType":"string"},{"name":"_eventID","type":"uint256","internalType":"uint256"},{"name":"_tags","type":"string[]","internalType":"string[]"},{"name":"_description","type":"string","internalType":"string"}],"outputs":[],"stateMutability":"nonpayable"},{"type":"function","name":"createMatch","inputs":[{"name":"_eventID","type":"uint256","internalType":"uint256"},{"name":"_matchID","type":"uint256","internalType":"uint256"},{"name":"_side1","type":"string","internalType":"string"},{"name":"_side2","type":"string","internalType":"string"},{"name":"_ID1","type":"uint256","internalType":"uint256"},{"name":"_ID2","type":"uint256","internalType":"uint256"},{"name":"_duration","type":"uint256","internalType":"uint256"}],"outputs":[],"stateMutability":"nonpayable"},{"type":"function","name":"declareWinnerAndDistribute","inputs":[{"name":"_eventID","type":"uint256","internalType":"uint256"},{"name":"_matchID","type":"uint256","internalType":"uint256"},{"name":"_teamID","type":"uint256","internalType":"uint256"}],"outputs":[],"stateMutability":"payable"},{"type":"function","name":"eventIDToEvent","inputs":[{"name":"eventID","type":"uint256","internalType":"uint256"}],"outputs":[{"name":"name","type":"string","internalType":"string"},{"name":"eventID","type":"uint256","internalType":"uint256"},{"name":"description","type":"string","internalType":"string"},{"name":"status","type":"string","internalType":"string"},{"name":"endDate","type":"string","internalType":"string"}],"stateMutability":"view"},{"type":"function","name":"events","inputs":[{"name":"","type":"uint256","internalType":"uint256"}],"outputs":[{"name":"name","type":"string","internalType":"string"},{"name":"eventID","type":"uint256","internalType":"uint256"},{"name":"description","type":"string","internalType":"string"},{"name":"status","type":"string","internalType":"string"},{"name":"endDate","type":"string","internalType":"string"}],"stateMutability":"view"},{"type":"function","name":"getConversionRate","inputs":[{"name":"ethAmount","type":"uint256","internalType":"uint256"}],"outputs":[{"name":"","type":"uint256","internalType":"uint256"}],"stateMutability":"view"},{"type":"function","name":"getEvents","inputs":[],"outputs":[{"name":"","type":"tuple[]","internalType":"struct NewBettingDapp.Event[]","components":[{"name":"name","type":"string","internalType":"string"},{"name":"eventID","type":"uint256","internalType":"uint256"},{"name":"matches","type":"tuple[]","internalType":"struct NewBettingDapp.Match[]","components":[{"name":"eventID","type":"uint256","internalType":"uint256"},{"name":"matchID","type":"uint256","internalType":"uint256"},{"name":"side1","type":"string","internalType":"string"},{"name":"side2","type":"string","internalType":"string"},{"name":"ID1","type":"uint256","internalType":"uint256"},{"name":"ID2","type":"uint256","internalType":"uint256"},{"name":"duration","type":"uint256","internalType":"uint256"},{"name":"status","type":"string","internalType":"string"},{"name":"resultAnnounced","type":"bool","internalType":"bool"},{"name":"winnerID","type":"uint256","internalType":"uint256"},{"name":"funds1","type":"uint256","internalType":"uint256"},{"name":"funds2","type":"uint256","internalType":"uint256"},{"name":"totalFunds","type":"uint256","internalType":"uint256"}]},{"name":"tags","type":"string[]","internalType":"string[]"},{"name":"description","type":"string","internalType":"string"},{"name":"status","type":"string","internalType":"string"},{"name":"endDate","type":"string","internalType":"string"}]}],"stateMutability":"view"},{"type":"function","name":"getMatches","inputs":[{"name":"_eventID","type":"uint256","internalType":"uint256"}],"outputs":[{"name":"","type":"tuple[]","internalType":"struct NewBettingDapp.Match[]","components":[{"name":"eventID","type":"uint256","internalType":"uint256"},{"name":"matchID","type":"uint256","internalType":"uint256"},{"name":"side1","type":"string","internalType":"string"},{"name":"side2","type":"string","internalType":"string"},{"name":"ID1","type":"uint256","internalType":"uint256"},{"name":"ID2","type":"uint256","internalType":"uint256"},{"name":"duration","type":"uint256","internalType":"uint256"},{"name":"status","type":"string","internalType":"string"},{"name":"resultAnnounced","type":"bool","internalType":"bool"},{"name":"winnerID","type":"uint256","internalType":"uint256"},{"name":"funds1","type":"uint256","internalType":"uint256"},{"name":"funds2","type":"uint256","internalType":"uint256"},{"name":"totalFunds","type":"uint256","internalType":"uint256"}]}],"stateMutability":"view"},{"type":"function","name":"getPrice","inputs":[],"outputs":[{"name":"","type":"uint256","internalType":"uint256"}],"stateMutability":"view"},{"type":"function","name":"getTotalBetAmount","inputs":[{"name":"_eventID","type":"uint256","internalType":"uint256"},{"name":"_matchID","type":"uint256","internalType":"uint256"}],"outputs":[{"name":"","type":"uint256","internalType":"uint256"}],"stateMutability":"view"},{"type":"function","name":"hasBetted","inputs":[{"name":"","type":"address","internalType":"address"},{"name":"","type":"uint256","internalType":"uint256"},{"name":"","type":"uint256","internalType":"uint256"}],"outputs":[{"name":"","type":"bool","internalType":"bool"}],"stateMutability":"view"}],"bytecode":{"object":"0x6080604052600080546001600160a01b031916331790556125f7806100256000396000f3fe6080604052600436106100c15760003560e01c80639062ce7d1161007f578063b908777911610059578063b908777914610212578063c4a4cd0314610232578063e1169b0514610262578063e60d585a1461028257600080fd5b80639062ce7d146101d557806398d5fdca146101ea5780639f299a52146101ff57600080fd5b8062cee13d146100c65780630b7914301461010057806312ea5dcd14610120578063404aa8f9146101655780636e5b6b28146101875780637538e2a3146101b5575b600080fd5b3480156100d257600080fd5b506100e66100e1366004611b48565b6102af565b6040516100f7959493929190611ba7565b60405180910390f35b34801561010c57600080fd5b506100e661011b366004611b48565b6104fd565b34801561012c57600080fd5b5061014061013b366004611c06565b610530565b604080516001600160a01b0390941684526020840192909252908201526060016100f7565b34801561017157600080fd5b5061017a61058a565b6040516100f79190611d90565b34801561019357600080fd5b506101a76101a2366004611b48565b610b99565b6040519081526020016100f7565b3480156101c157600080fd5b506101a76101d0366004611e8f565b610bcd565b6101e86101e3366004611c06565b610c74565b005b3480156101f657600080fd5b506101a7610fca565b6101e861020d366004611c06565b611066565b34801561021e57600080fd5b506101e861022d366004611f68565b611318565b34801561023e57600080fd5b5061025261024d366004611ffa565b6114a9565b60405190151581526020016100f7565b34801561026e57600080fd5b506101e861027d36600461203b565b6114f5565b34801561028e57600080fd5b506102a261029d366004611b48565b611620565b6040516100f7919061214e565b6001602052600090815260409020805481906102ca9061225b565b80601f01602080910402602001604051908101604052809291908181526020018280546102f69061225b565b80156103435780601f1061031857610100808354040283529160200191610343565b820191906000526020600020905b81548152906001019060200180831161032657829003601f168201915b50505050509080600101549080600401805461035e9061225b565b80601f016020809104026020016040519081016040528092919081815260200182805461038a9061225b565b80156103d75780601f106103ac576101008083540402835291602001916103d7565b820191906000526020600020905b8154815290600101906020018083116103ba57829003601f168201915b5050505050908060050180546103ec9061225b565b80601f01602080910402602001604051908101604052809291908181526020018280546104189061225b565b80156104655780601f1061043a57610100808354040283529160200191610465565b820191906000526020600020905b81548152906001019060200180831161044857829003601f168201915b50505050509080600601805461047a9061225b565b80601f01602080910402602001604051908101604052809291908181526020018280546104a69061225b565b80156104f35780601f106104c8576101008083540402835291602001916104f3565b820191906000526020600020905b8154815290600101906020018083116104d657829003601f168201915b5050505050905085565b6004818154811061050d57600080fd5b90600052602060002090600702016000915090508060000180546102ca9061225b565b6003602052826000526040600020602052816000526040600020818154811061055857600080fd5b60009182526020909120600390910201805460018201546002909201546001600160a01b039091169450909250905083565b60606004805480602002602001604051908101604052809291908181526020016000905b82821015610b9057838290600052602060002090600702016040518060e00160405290816000820180546105e19061225b565b80601f016020809104026020016040519081016040528092919081815260200182805461060d9061225b565b801561065a5780601f1061062f5761010080835404028352916020019161065a565b820191906000526020600020905b81548152906001019060200180831161063d57829003601f168201915b505050505081526020016001820154815260200160028201805480602002602001604051908101604052809291908181526020016000905b828210156108ea57838290600052602060002090600d0201604051806101a001604052908160008201548152602001600182015481526020016002820180546106da9061225b565b80601f01602080910402602001604051908101604052809291908181526020018280546107069061225b565b80156107535780601f1061072857610100808354040283529160200191610753565b820191906000526020600020905b81548152906001019060200180831161073657829003601f168201915b5050505050815260200160038201805461076c9061225b565b80601f01602080910402602001604051908101604052809291908181526020018280546107989061225b565b80156107e55780601f106107ba576101008083540402835291602001916107e5565b820191906000526020600020905b8154815290600101906020018083116107c857829003601f168201915b5050505050815260200160048201548152602001600582015481526020016006820154815260200160078201805461081c9061225b565b80601f01602080910402602001604051908101604052809291908181526020018280546108489061225b565b80156108955780601f1061086a57610100808354040283529160200191610895565b820191906000526020600020905b81548152906001019060200180831161087857829003601f168201915b5050509183525050600882015460ff16151560208083019190915260098301546040830152600a8301546060830152600b8301546080830152600c9092015460a0909101529082526001929092019101610692565b50505050815260200160038201805480602002602001604051908101604052809291908181526020016000905b828210156109c35783829060005260206000200180546109369061225b565b80601f01602080910402602001604051908101604052809291908181526020018280546109629061225b565b80156109af5780601f10610984576101008083540402835291602001916109af565b820191906000526020600020905b81548152906001019060200180831161099257829003601f168201915b505050505081526020019060010190610917565b5050505081526020016004820180546109db9061225b565b80601f0160208091040260200160405190810160405280929190818152602001828054610a079061225b565b8015610a545780601f10610a2957610100808354040283529160200191610a54565b820191906000526020600020905b815481529060010190602001808311610a3757829003601f168201915b50505050508152602001600582018054610a6d9061225b565b80601f0160208091040260200160405190810160405280929190818152602001828054610a999061225b565b8015610ae65780601f10610abb57610100808354040283529160200191610ae6565b820191906000526020600020905b815481529060010190602001808311610ac957829003601f168201915b50505050508152602001600682018054610aff9061225b565b80601f0160208091040260200160405190810160405280929190818152602001828054610b2b9061225b565b8015610b785780601f10610b4d57610100808354040283529160200191610b78565b820191906000526020600020905b815481529060010190602001808311610b5b57829003601f168201915b505050505081525050815260200190600101906105ae565b50505050905090565b600080610ba4610fca565b90506000670de0b6b3a7640000610bbb85846122ab565b610bc591906122c2565b949350505050565b6000828152600160205260408120600281018054839082908290610bf357610bf36122e4565b90600052602060002090600d0201905060005b8254811015610c645785838281548110610c2257610c226122e4565b90600052602060002090600d02016001015403610c5c57828181548110610c4b57610c4b6122e4565b90600052602060002090600d020191505b600101610c06565b50600c0154925050505b92915050565b6000546001600160a01b03163303610cd35760405162461bcd60e51b815260206004820152601760248201527f4f776e65722063616e6e6f7420706c616365206265747300000000000000000060448201526064015b60405180910390fd5b662386f26fc10000341015610d205760405162461bcd60e51b8152602060048201526013602482015272125b9cdd59999a58da595b9d08185b5bdd5b9d606a1b6044820152606401610cca565b3360009081526002602052604090208360648110610d4057610d406122e4565b600402018260648110610d5557610d556122e4565b602081049091015460ff601f9092166101000a90041615610dcf5760405162461bcd60e51b815260206004820152602e60248201527f596f75206861766520616c726561647920706c6163656420796f75722062657460448201526d040d2dc40e8d0d2e640dac2e8c6d60931b6064820152608401610cca565b60008381526001602052604081206002810180549192909182908290610df757610df76122e4565b90600052602060002090600d0201905060005b8254811015610e685785838281548110610e2657610e266122e4565b90600052602060002090600d02016001015403610e6057828181548110610e4f57610e4f6122e4565b90600052602060002090600d020191505b600101610e0a565b5080600401548403610eae573481600a016000828254610e8891906122fa565b925050819055503481600c016000828254610ea391906122fa565b90915550610eee9050565b80600501548403610eee573481600b016000828254610ecd91906122fa565b925050819055503481600c016000828254610ee891906122fa565b90915550505b3360009081526002602052604090206001908760648110610f1157610f116122e4565b600402018660648110610f2657610f266122e4565b60208082049092018054931515601f9092166101000a91820260ff909202199093161790915560408051606081018252338152348184019081528183019788526000998a526003808552838b20998b52988452918920805460018181018355918b529390992090519290970290960180546001600160a01b03929092166001600160a01b031990921691909117815594519585019590955550505160029091015550565b60008073694aa1769357215de4fac081bf1f309adc32530690506000816001600160a01b031663feaf968c6040518163ffffffff1660e01b815260040160a060405180830381865afa158015611024573d6000803e3d6000fd5b505050506040513d601f19601f82011682018060405250810190611048919061232c565b505050915050806402540be40061105f919061237c565b9250505090565b6000546001600160a01b031633146110905760405162461bcd60e51b8152600401610cca906123ac565b60008061109d8585610bcd565b60008681526001602052604081206002810180549394509092909190829082906110c9576110c96122e4565b90600052602060002090600d0201905060005b825481101561113a57878382815481106110f8576110f86122e4565b90600052602060002090600d0201600101540361113257828181548110611121576111216122e4565b90600052602060002090600d020191505b6001016110dc565b5060088101805460ff1916600117905560098101869055600481015460009087900361116b5750600a81015461117d565b8682600501540361117d5750600b8101545b60008981526003602090815260408083208b84529091528120905b815481101561130b5760008282815481106111b5576111b56122e4565b9060005260206000209060030201905089816002015403611302576000670de0b6b3a764000082600101546111ea91906122ab565b90506000611200670de0b6b3a76400008b6122ab565b90506000611216670de0b6b3a7640000886122ab565b905060008161122584866122ab565b61122f91906122c2565b9050611243670de0b6b3a7640000826122c2565b9c5060008560000160009054906101000a90046001600160a01b031690506000816001600160a01b03168f60405160006040518083038185875af1925050503d80600081146112ae576040519150601f19603f3d011682016040523d82523d6000602084013e6112b3565b606091505b50509050806112fb5760405162461bcd60e51b81526020600482015260146024820152732330b4b632b2103a379039b2b7321032ba3432b960611b6044820152606401610cca565b5050505050505b50600101611198565b5050505050505050505050565b6000546001600160a01b031633146113425760405162461bcd60e51b8152600401610cca906123ac565b600087815260016020818152604080842081516101a0810183528c81528084018c81528184018c8152606083018c9052608083018b905260a083018a905260c08301899052845180860190955260078552664f6e676f696e6760c81b8587015260e08301949094526101008201879052600119610120830152610140820187905261016082018790526101808201879052600280840180548089018255908952959097208251600d909602019485555194840194909455905190938392919082019061140e9082612426565b50606082015160038201906114239082612426565b506080820151600482015560a0820151600582015560c0820151600682015560e082015160078201906114569082612426565b5061010082015160088201805460ff19169115159190911790556101208201516009820155610140820151600a820155610160820151600b82015561018090910151600c90910155505050505050505050565b600260205282600052604060002082606481106114c557600080fd5b6004020181606481106114d757600080fd5b602081049091015460ff601f9092166101000a900416925083915050565b6000546001600160a01b0316331461151f5760405162461bcd60e51b8152600401610cca906123ac565b6000838152600160205260409020806115388682612426565b5060018101849055825161155590600383019060208601906118b8565b50600481016115648382612426565b506004805460018101825560009190915281906007027f8a35acfbc15ff81a39ae7d344fd709f28e8600b4aa8c65c6b64bfe7fe36bd19b01806115a783826124e6565b506001820154816001015560028201816002019080546115c892919061190e565b50600382810180546115dd9284019190611a09565b506004818101906115f0908401826124e6565b50600581810190611603908401826124e6565b50600681810190611616908401826124e6565b5050505050505050565b60008181526001602090815260408083206002810180548351818602810186019094528084526060959294919392849284015b828210156118ab57838290600052602060002090600d0201604051806101a0016040529081600082015481526020016001820154815260200160028201805461169b9061225b565b80601f01602080910402602001604051908101604052809291908181526020018280546116c79061225b565b80156117145780601f106116e957610100808354040283529160200191611714565b820191906000526020600020905b8154815290600101906020018083116116f757829003601f168201915b5050505050815260200160038201805461172d9061225b565b80601f01602080910402602001604051908101604052809291908181526020018280546117599061225b565b80156117a65780601f1061177b576101008083540402835291602001916117a6565b820191906000526020600020905b81548152906001019060200180831161178957829003601f168201915b505050505081526020016004820154815260200160058201548152602001600682015481526020016007820180546117dd9061225b565b80601f01602080910402602001604051908101604052809291908181526020018280546118099061225b565b80156118565780601f1061182b57610100808354040283529160200191611856565b820191906000526020600020905b81548152906001019060200180831161183957829003601f168201915b5050509183525050600882015460ff16151560208083019190915260098301546040830152600a8301546060830152600b8301546080830152600c9092015460a0909101529082526001929092019101611653565b5050505092505050919050565b8280548282559060005260206000209081019282156118fe579160200282015b828111156118fe57825182906118ee9082612426565b50916020019190600101906118d8565b5061190a929150611a51565b5090565b82805482825590600052602060002090600d0281019282156119fd57600052602060002091600d0282015b828111156119fd5782548255600180840154908301558282600280820190611963908401826124e6565b50600381810190611976908401826124e6565b50600482015481600401556005820154816005015560068201548160060155600782018160070190816119a991906124e6565b50600882810154908201805460ff191660ff909216151591909117905560098083015490820155600a8083015490820155600b8083015490820155600c91820154910155600d928301929190910190611939565b5061190a929150611a6e565b8280548282559060005260206000209081019282156118fe5760005260206000209182015b828111156118fe5781611a4184826124e6565b5091600101919060010190611a2e565b8082111561190a576000611a658282611af6565b50600101611a51565b8082111561190a57600080825560018201819055611a8f6002830182611af6565b611a9d600383016000611af6565b600482016000905560058201600090556006820160009055600782016000611ac59190611af6565b5060088101805460ff19169055600060098201819055600a8201819055600b8201819055600c820155600d01611a6e565b508054611b029061225b565b6000825580601f10611b12575050565b601f016020900490600052602060002090810190611b309190611b33565b50565b5b8082111561190a5760008155600101611b34565b600060208284031215611b5a57600080fd5b5035919050565b6000815180845260005b81811015611b8757602081850181015186830182015201611b6b565b506000602082860101526020601f19601f83011685010191505092915050565b60a081526000611bba60a0830188611b61565b8660208401528281036040840152611bd28187611b61565b90508281036060840152611be68186611b61565b90508281036080840152611bfa8185611b61565b98975050505050505050565b600080600060608486031215611c1b57600080fd5b505081359360208301359350604090920135919050565b600082825180855260208086019550808260051b84010181860160005b84811015611d3657601f1986840301895281516101a08151855285820151868601526040808301518282880152611c8883880182611b61565b9250505060608083015186830382880152611ca38382611b61565b92505050608080830151818701525060a080830151818701525060c080830151818701525060e08083015186830382880152611cdf8382611b61565b9250505061010080830151611cf78288018215159052565b50506101208281015190860152610140808301519086015261016080830151908601526101809182015191909401529783019790830190600101611c4f565b5090979650505050505050565b60008282518085526020808601955060208260051b8401016020860160005b84811015611d3657601f19868403018952611d7e838351611b61565b98840198925090830190600101611d62565b600060208083018184528085518083526040925060408601915060408160051b87010184880160005b83811015611e8157603f19898403018552815160e08151818652611ddf82870182611b61565b91505088820151898601528782015185820389870152611dff8282611c32565b91505060608083015186830382880152611e198382611d43565b9250505060808083015186830382880152611e348382611b61565b9250505060a08083015186830382880152611e4f8382611b61565b9250505060c08083015192508582038187015250611e6d8183611b61565b968901969450505090860190600101611db9565b509098975050505050505050565b60008060408385031215611ea257600080fd5b50508035926020909101359150565b634e487b7160e01b600052604160045260246000fd5b604051601f8201601f1916810167ffffffffffffffff81118282101715611ef057611ef0611eb1565b604052919050565b600082601f830112611f0957600080fd5b813567ffffffffffffffff811115611f2357611f23611eb1565b611f36601f8201601f1916602001611ec7565b818152846020838601011115611f4b57600080fd5b816020850160208301376000918101602001919091529392505050565b600080600080600080600060e0888a031215611f8357600080fd5b8735965060208801359550604088013567ffffffffffffffff80821115611fa957600080fd5b611fb58b838c01611ef8565b965060608a0135915080821115611fcb57600080fd5b50611fd88a828b01611ef8565b979a969950949760808101359660a0820135965060c090910135945092505050565b60008060006060848603121561200f57600080fd5b83356001600160a01b038116811461202657600080fd5b95602085013595506040909401359392505050565b6000806000806080858703121561205157600080fd5b843567ffffffffffffffff8082111561206957600080fd5b61207588838901611ef8565b95506020915081870135945060408701358181111561209357600080fd5b8701601f810189136120a457600080fd5b8035828111156120b6576120b6611eb1565b8060051b6120c5858201611ec7565b918252828101850191858101908c8411156120df57600080fd5b86850192505b8383101561211b578235868111156120fd5760008081fd5b61210b8e8983890101611ef8565b83525091860191908601906120e5565b975050505060608801359250508082111561213557600080fd5b5061214287828801611ef8565b91505092959194509250565b600060208083018184528085518083526040925060408601915060408160051b87010184880160005b83811015611e8157603f1989840301855281516101a08151855288820151898601528782015181898701526121ae82870182611b61565b915050606080830151868303828801526121c88382611b61565b92505050608080830151818701525060a080830151818701525060c080830151818701525060e080830151868303828801526122048382611b61565b925050506101008083015161221c8288018215159052565b50506101208281015190860152610140808301519086015261016080830151908601526101809182015191909401529386019390860190600101612177565b600181811c9082168061226f57607f821691505b60208210810361228f57634e487b7160e01b600052602260045260246000fd5b50919050565b634e487b7160e01b600052601160045260246000fd5b8082028115828204841417610c6e57610c6e612295565b6000826122df57634e487b7160e01b600052601260045260246000fd5b500490565b634e487b7160e01b600052603260045260246000fd5b80820180821115610c6e57610c6e612295565b805169ffffffffffffffffffff8116811461232757600080fd5b919050565b600080600080600060a0868803121561234457600080fd5b61234d8661230d565b94506020860151935060408601519250606086015191506123706080870161230d565b90509295509295909350565b80820260008212600160ff1b8414161561239857612398612295565b8181058314821517610c6e57610c6e612295565b6020808252600f908201526e026bab9ba1031329037bbb732b9109608d1b604082015260600190565b601f821115612421576000816000526020600020601f850160051c810160208610156123fe5750805b601f850160051c820191505b8181101561241d5782815560010161240a565b5050505b505050565b815167ffffffffffffffff81111561244057612440611eb1565b6124548161244e845461225b565b846123d5565b602080601f83116001811461248957600084156124715750858301515b600019600386901b1c1916600185901b17855561241d565b600085815260208120601f198616915b828110156124b857888601518255948401946001909101908401612499565b50858210156124d65787850151600019600388901b60f8161c191681555b5050505050600190811b01905550565b8181036124f1575050565b6124fb825461225b565b67ffffffffffffffff81111561251357612513611eb1565b6125218161244e845461225b565b6000601f821160018114612555576000831561253d5750848201545b600019600385901b1c1916600184901b1784556125ba565b600085815260209020601f19841690600086815260209020845b8381101561258f578286015482556001958601959091019060200161256f565b50858310156125ad5781850154600019600388901b60f8161c191681555b50505060018360011b0184555b505050505056fea2646970667358221220c63b2b99b522a07a50560f13783e5e0c55885f9956dd99dba2a6ecd9bd374cea64736f6c63430008190033","linkReferences":{}},"methodIdentifiers":{"bettors(uint256,uint256,uint256)":"12ea5dcd","createBet(uint256,uint256,uint256)":"9062ce7d","createEvent(string,uint256,string[],string)":"e1169b05","createMatch(uint256,uint256,string,string,uint256,uint256,uint256)":"b9087779","declareWinnerAndDistribute(uint256,uint256,uint256)":"9f299a52","eventIDToEvent(uint256)":"00cee13d","events(uint256)":"0b791430","getConversionRate(uint256)":"6e5b6b28","getEvents()":"404aa8f9","getMatches(uint256)":"e60d585a","getPrice()":"98d5fdca","getTotalBetAmount(uint256,uint256)":"7538e2a3","hasBetted(address,uint256,uint256)":"c4a4cd03"},"id":2}