{
  "contracts/Lock.sol": {
    "BettingDapp": {
      "abi": [
        {
          "inputs": [],
          "stateMutability": "payable",
          "type": "constructor"
        },
        {
          "inputs": [
            {
              "internalType": "uint256",
              "name": "",
              "type": "uint256"
            },
            {
              "internalType": "uint256",
              "name": "",
              "type": "uint256"
            },
            {
              "internalType": "uint256",
              "name": "",
              "type": "uint256"
            }
          ],
          "name": "bettors",
          "outputs": [
            {
              "internalType": "address",
              "name": "add",
              "type": "address"
            },
            {
              "internalType": "uint256",
              "name": "amount",
              "type": "uint256"
            },
            {
              "internalType": "uint256",
              "name": "teamID",
              "type": "uint256"
            }
          ],
          "stateMutability": "view",
          "type": "function"
        },
        {
          "inputs": [
            {
              "internalType": "uint256",
              "name": "_eventID",
              "type": "uint256"
            },
            {
              "internalType": "uint256",
              "name": "_matchID",
              "type": "uint256"
            },
            {
              "internalType": "uint256",
              "name": "_teamID",
              "type": "uint256"
            }
          ],
          "name": "createBet",
          "outputs": [],
          "stateMutability": "payable",
          "type": "function"
        },
        {
          "inputs": [
            {
              "internalType": "string",
              "name": "_eventName",
              "type": "string"
            },
            {
              "internalType": "string",
              "name": "_uid",
              "type": "string"
            },
            {
              "internalType": "string[]",
              "name": "_tags",
              "type": "string[]"
            },
            {
              "internalType": "string",
              "name": "_hostedBy",
              "type": "string"
            },
            {
              "internalType": "string",
              "name": "_description",
              "type": "string"
            },
            {
              "internalType": "string",
              "name": "_status",
              "type": "string"
            },
            {
              "internalType": "string",
              "name": "_endDate",
              "type": "string"
            }
          ],
          "name": "createEvent",
          "outputs": [],
          "stateMutability": "nonpayable",
          "type": "function"
        },
        {
          "inputs": [
            {
              "internalType": "uint256",
              "name": "_eventID",
              "type": "uint256"
            },
            {
              "internalType": "uint256",
              "name": "_matchID",
              "type": "uint256"
            },
            {
              "internalType": "string",
              "name": "_side1",
              "type": "string"
            },
            {
              "internalType": "string",
              "name": "_side2",
              "type": "string"
            },
            {
              "internalType": "uint256",
              "name": "_ID1",
              "type": "uint256"
            },
            {
              "internalType": "uint256",
              "name": "_ID2",
              "type": "uint256"
            },
            {
              "internalType": "string",
              "name": "_duration",
              "type": "string"
            }
          ],
          "name": "createMatch",
          "outputs": [],
          "stateMutability": "nonpayable",
          "type": "function"
        },
        {
          "inputs": [
            {
              "internalType": "uint256",
              "name": "_eventID",
              "type": "uint256"
            },
            {
              "internalType": "uint256",
              "name": "_matchID",
              "type": "uint256"
            },
            {
              "internalType": "uint256",
              "name": "_teamID",
              "type": "uint256"
            }
          ],
          "name": "declareWinnerAndDistribute",
          "outputs": [],
          "stateMutability": "payable",
          "type": "function"
        },
        {
          "inputs": [
            {
              "internalType": "uint256",
              "name": "",
              "type": "uint256"
            }
          ],
          "name": "eventIDToEvent",
          "outputs": [
            {
              "internalType": "string",
              "name": "name",
              "type": "string"
            },
            {
              "internalType": "uint256",
              "name": "eventID",
              "type": "uint256"
            },
            {
              "internalType": "string",
              "name": "uid",
              "type": "string"
            },
            {
              "internalType": "string",
              "name": "hostedBy",
              "type": "string"
            },
            {
              "internalType": "string",
              "name": "description",
              "type": "string"
            },
            {
              "internalType": "string",
              "name": "status",
              "type": "string"
            },
            {
              "internalType": "string",
              "name": "endDate",
              "type": "string"
            }
          ],
          "stateMutability": "view",
          "type": "function"
        },
        {
          "inputs": [
            {
              "internalType": "uint256",
              "name": "",
              "type": "uint256"
            }
          ],
          "name": "events",
          "outputs": [
            {
              "internalType": "string",
              "name": "name",
              "type": "string"
            },
            {
              "internalType": "uint256",
              "name": "eventID",
              "type": "uint256"
            },
            {
              "internalType": "string",
              "name": "uid",
              "type": "string"
            },
            {
              "internalType": "string",
              "name": "hostedBy",
              "type": "string"
            },
            {
              "internalType": "string",
              "name": "description",
              "type": "string"
            },
            {
              "internalType": "string",
              "name": "status",
              "type": "string"
            },
            {
              "internalType": "string",
              "name": "endDate",
              "type": "string"
            }
          ],
          "stateMutability": "view",
          "type": "function"
        },
        {
          "inputs": [],
          "name": "getEvents",
          "outputs": [
            {
              "components": [
                {
                  "internalType": "string",
                  "name": "name",
                  "type": "string"
                },
                {
                  "internalType": "uint256",
                  "name": "eventID",
                  "type": "uint256"
                },
                {
                  "internalType": "string",
                  "name": "uid",
                  "type": "string"
                },
                {
                  "components": [
                    {
                      "internalType": "uint256",
                      "name": "eventID",
                      "type": "uint256"
                    },
                    {
                      "internalType": "uint256",
                      "name": "matchID",
                      "type": "uint256"
                    },
                    {
                      "internalType": "string",
                      "name": "side1",
                      "type": "string"
                    },
                    {
                      "internalType": "string",
                      "name": "side2",
                      "type": "string"
                    },
                    {
                      "internalType": "uint256",
                      "name": "ID1",
                      "type": "uint256"
                    },
                    {
                      "internalType": "uint256",
                      "name": "ID2",
                      "type": "uint256"
                    },
                    {
                      "internalType": "string",
                      "name": "duration",
                      "type": "string"
                    },
                    {
                      "internalType": "string",
                      "name": "status",
                      "type": "string"
                    },
                    {
                      "internalType": "bool",
                      "name": "resultAnnounced",
                      "type": "bool"
                    },
                    {
                      "internalType": "uint256",
                      "name": "winnerID",
                      "type": "uint256"
                    },
                    {
                      "internalType": "uint256",
                      "name": "funds1",
                      "type": "uint256"
                    },
                    {
                      "internalType": "uint256",
                      "name": "funds2",
                      "type": "uint256"
                    },
                    {
                      "internalType": "uint256",
                      "name": "totalFunds",
                      "type": "uint256"
                    }
                  ],
                  "internalType": "struct BettingDapp.Match[]",
                  "name": "matches",
                  "type": "tuple[]"
                },
                {
                  "internalType": "string[]",
                  "name": "tags",
                  "type": "string[]"
                },
                {
                  "internalType": "string",
                  "name": "hostedBy",
                  "type": "string"
                },
                {
                  "internalType": "string",
                  "name": "description",
                  "type": "string"
                },
                {
                  "internalType": "string",
                  "name": "status",
                  "type": "string"
                },
                {
                  "internalType": "string",
                  "name": "endDate",
                  "type": "string"
                }
              ],
              "internalType": "struct BettingDapp.Event[]",
              "name": "",
              "type": "tuple[]"
            }
          ],
          "stateMutability": "view",
          "type": "function"
        },
        {
          "inputs": [
            {
              "internalType": "uint256",
              "name": "_eventID",
              "type": "uint256"
            }
          ],
          "name": "getMatches",
          "outputs": [
            {
              "components": [
                {
                  "internalType": "uint256",
                  "name": "eventID",
                  "type": "uint256"
                },
                {
                  "internalType": "uint256",
                  "name": "matchID",
                  "type": "uint256"
                },
                {
                  "internalType": "string",
                  "name": "side1",
                  "type": "string"
                },
                {
                  "internalType": "string",
                  "name": "side2",
                  "type": "string"
                },
                {
                  "internalType": "uint256",
                  "name": "ID1",
                  "type": "uint256"
                },
                {
                  "internalType": "uint256",
                  "name": "ID2",
                  "type": "uint256"
                },
                {
                  "internalType": "string",
                  "name": "duration",
                  "type": "string"
                },
                {
                  "internalType": "string",
                  "name": "status",
                  "type": "string"
                },
                {
                  "internalType": "bool",
                  "name": "resultAnnounced",
                  "type": "bool"
                },
                {
                  "internalType": "uint256",
                  "name": "winnerID",
                  "type": "uint256"
                },
                {
                  "internalType": "uint256",
                  "name": "funds1",
                  "type": "uint256"
                },
                {
                  "internalType": "uint256",
                  "name": "funds2",
                  "type": "uint256"
                },
                {
                  "internalType": "uint256",
                  "name": "totalFunds",
                  "type": "uint256"
                }
              ],
              "internalType": "struct BettingDapp.Match[]",
              "name": "",
              "type": "tuple[]"
            }
          ],
          "stateMutability": "view",
          "type": "function"
        },
        {
          "inputs": [
            {
              "internalType": "uint256",
              "name": "_eventID",
              "type": "uint256"
            },
            {
              "internalType": "uint256",
              "name": "_matchID",
              "type": "uint256"
            }
          ],
          "name": "getTotalBetAmount",
          "outputs": [
            {
              "internalType": "uint256",
              "name": "",
              "type": "uint256"
            }
          ],
          "stateMutability": "view",
          "type": "function"
        },
        {
          "inputs": [
            {
              "internalType": "address",
              "name": "",
              "type": "address"
            },
            {
              "internalType": "uint256",
              "name": "",
              "type": "uint256"
            },
            {
              "internalType": "uint256",
              "name": "",
              "type": "uint256"
            }
          ],
          "name": "hasBetted",
          "outputs": [
            {
              "internalType": "bool",
              "name": "",
              "type": "bool"
            }
          ],
          "stateMutability": "view",
          "type": "function"
        },
        {
          "inputs": [],
          "name": "newEventID",
          "outputs": [
            {
              "internalType": "uint256",
              "name": "",
              "type": "uint256"
            }
          ],
          "stateMutability": "view",
          "type": "function"
        }
      ],
      "evm": {
        "bytecode": {
          "linkReferences": {},
          "object": "6080604052600160005533600160006101000a81548173ffffffffffffffffffffffffffffffffffffffff021916908373ffffffffffffffffffffffffffffffffffffffff160217905550613ba2806100596000396000f3fe6080604052600436106100a65760003560e01c80639062ce7d116100645780639062ce7d146102015780639f299a521461021d578063b494ec6a14610239578063c4a4cd0314610262578063cd3fcd431461029f578063e60d585a146102ca576100a6565b8062cee13d146100ab5780630b791430146100ee57806312ea5dcd14610131578063404aa8f9146101705780635605422b1461019b5780637538e2a3146101c4575b600080fd5b3480156100b757600080fd5b506100d260048036038101906100cd9190612639565b610307565b6040516100e59796959493929190612705565b60405180910390f35b3480156100fa57600080fd5b5061011560048036038101906101109190612639565b610679565b6040516101289796959493929190612705565b60405180910390f35b34801561013d57600080fd5b506101586004803603810190610153919061279e565b6109fb565b60405161016793929190612832565b60405180910390f35b34801561017c57600080fd5b50610185610a6f565b6040516101929190612d47565b60405180910390f35b3480156101a757600080fd5b506101c260048036038101906101bd9190612e9e565b611231565b005b3480156101d057600080fd5b506101eb60048036038101906101e69190612f94565b611497565b6040516101f89190612fd4565b60405180910390f35b61021b6004803603810190610216919061279e565b611559565b005b6102376004803603810190610232919061279e565b6119a1565b005b34801561024557600080fd5b50610260600480360381019061025b91906130d5565b611d1f565b005b34801561026e57600080fd5b5061028960048036038101906102849190613267565b611f5d565b60405161029691906132c9565b60405180910390f35b3480156102ab57600080fd5b506102b4611fa9565b6040516102c19190612fd4565b60405180910390f35b3480156102d657600080fd5b506102f160048036038101906102ec9190612639565b611faf565b6040516102fe919061336a565b60405180910390f35b600260205280600052604060002060009150905080600001805461032a906133bb565b80601f0160208091040260200160405190810160405280929190818152602001828054610356906133bb565b80156103a35780601f10610378576101008083540402835291602001916103a3565b820191906000526020600020905b81548152906001019060200180831161038657829003601f168201915b5050505050908060010154908060020180546103be906133bb565b80601f01602080910402602001604051908101604052809291908181526020018280546103ea906133bb565b80156104375780601f1061040c57610100808354040283529160200191610437565b820191906000526020600020905b81548152906001019060200180831161041a57829003601f168201915b50505050509080600501805461044c906133bb565b80601f0160208091040260200160405190810160405280929190818152602001828054610478906133bb565b80156104c55780601f1061049a576101008083540402835291602001916104c5565b820191906000526020600020905b8154815290600101906020018083116104a857829003601f168201915b5050505050908060060180546104da906133bb565b80601f0160208091040260200160405190810160405280929190818152602001828054610506906133bb565b80156105535780601f1061052857610100808354040283529160200191610553565b820191906000526020600020905b81548152906001019060200180831161053657829003601f168201915b505050505090806007018054610568906133bb565b80601f0160208091040260200160405190810160405280929190818152602001828054610594906133bb565b80156105e15780601f106105b6576101008083540402835291602001916105e1565b820191906000526020600020905b8154815290600101906020018083116105c457829003601f168201915b5050505050908060080180546105f6906133bb565b80601f0160208091040260200160405190810160405280929190818152602001828054610622906133bb565b801561066f5780601f106106445761010080835404028352916020019161066f565b820191906000526020600020905b81548152906001019060200180831161065257829003601f168201915b5050505050905087565b6005818154811061068957600080fd5b90600052602060002090600902016000915090508060000180546106ac906133bb565b80601f01602080910402602001604051908101604052809291908181526020018280546106d8906133bb565b80156107255780601f106106fa57610100808354040283529160200191610725565b820191906000526020600020905b81548152906001019060200180831161070857829003601f168201915b505050505090806001015490806002018054610740906133bb565b80601f016020809104026020016040519081016040528092919081815260200182805461076c906133bb565b80156107b95780601f1061078e576101008083540402835291602001916107b9565b820191906000526020600020905b81548152906001019060200180831161079c57829003601f168201915b5050505050908060050180546107ce906133bb565b80601f01602080910402602001604051908101604052809291908181526020018280546107fa906133bb565b80156108475780601f1061081c57610100808354040283529160200191610847565b820191906000526020600020905b81548152906001019060200180831161082a57829003601f168201915b50505050509080600601805461085c906133bb565b80601f0160208091040260200160405190810160405280929190818152602001828054610888906133bb565b80156108d55780601f106108aa576101008083540402835291602001916108d5565b820191906000526020600020905b8154815290600101906020018083116108b857829003601f168201915b5050505050908060070180546108ea906133bb565b80601f0160208091040260200160405190810160405280929190818152602001828054610916906133bb565b80156109635780601f1061093857610100808354040283529160200191610963565b820191906000526020600020905b81548152906001019060200180831161094657829003601f168201915b505050505090806008018054610978906133bb565b80601f01602080910402602001604051908101604052809291908181526020018280546109a4906133bb565b80156109f15780601f106109c6576101008083540402835291602001916109f1565b820191906000526020600020905b8154815290600101906020018083116109d457829003601f168201915b5050505050905087565b60046020528260005260406000206020528160005260406000208181548110610a2357600080fd5b906000526020600020906003020160009250925050508060000160009054906101000a900473ffffffffffffffffffffffffffffffffffffffff16908060010154908060020154905083565b60606005805480602002602001604051908101604052809291908181526020016000905b82821015611228578382906000526020600020906009020160405180610120016040529081600082018054610ac7906133bb565b80601f0160208091040260200160405190810160405280929190818152602001828054610af3906133bb565b8015610b405780601f10610b1557610100808354040283529160200191610b40565b820191906000526020600020905b815481529060010190602001808311610b2357829003601f168201915b5050505050815260200160018201548152602001600282018054610b63906133bb565b80601f0160208091040260200160405190810160405280929190818152602001828054610b8f906133bb565b8015610bdc5780601f10610bb157610100808354040283529160200191610bdc565b820191906000526020600020905b815481529060010190602001808311610bbf57829003601f168201915b5050505050815260200160038201805480602002602001604051908101604052809291908181526020016000905b82821015610ef057838290600052602060002090600d0201604051806101a00160405290816000820154815260200160018201548152602001600282018054610c52906133bb565b80601f0160208091040260200160405190810160405280929190818152602001828054610c7e906133bb565b8015610ccb5780601f10610ca057610100808354040283529160200191610ccb565b820191906000526020600020905b815481529060010190602001808311610cae57829003601f168201915b50505050508152602001600382018054610ce4906133bb565b80601f0160208091040260200160405190810160405280929190818152602001828054610d10906133bb565b8015610d5d5780601f10610d3257610100808354040283529160200191610d5d565b820191906000526020600020905b815481529060010190602001808311610d4057829003601f168201915b505050505081526020016004820154815260200160058201548152602001600682018054610d8a906133bb565b80601f0160208091040260200160405190810160405280929190818152602001828054610db6906133bb565b8015610e035780601f10610dd857610100808354040283529160200191610e03565b820191906000526020600020905b815481529060010190602001808311610de657829003601f168201915b50505050508152602001600782018054610e1c906133bb565b80601f0160208091040260200160405190810160405280929190818152602001828054610e48906133bb565b8015610e955780601f10610e6a57610100808354040283529160200191610e95565b820191906000526020600020905b815481529060010190602001808311610e7857829003601f168201915b505050505081526020016008820160009054906101000a900460ff1615151515815260200160098201548152602001600a8201548152602001600b8201548152602001600c8201548152505081526020019060010190610c0a565b50505050815260200160048201805480602002602001604051908101604052809291908181526020016000905b82821015610fc9578382906000526020600020018054610f3c906133bb565b80601f0160208091040260200160405190810160405280929190818152602001828054610f68906133bb565b8015610fb55780601f10610f8a57610100808354040283529160200191610fb5565b820191906000526020600020905b815481529060010190602001808311610f9857829003601f168201915b505050505081526020019060010190610f1d565b505050508152602001600582018054610fe1906133bb565b80601f016020809104026020016040519081016040528092919081815260200182805461100d906133bb565b801561105a5780601f1061102f5761010080835404028352916020019161105a565b820191906000526020600020905b81548152906001019060200180831161103d57829003601f168201915b50505050508152602001600682018054611073906133bb565b80601f016020809104026020016040519081016040528092919081815260200182805461109f906133bb565b80156110ec5780601f106110c1576101008083540402835291602001916110ec565b820191906000526020600020905b8154815290600101906020018083116110cf57829003601f168201915b50505050508152602001600782018054611105906133bb565b80601f0160208091040260200160405190810160405280929190818152602001828054611131906133bb565b801561117e5780601f106111535761010080835404028352916020019161117e565b820191906000526020600020905b81548152906001019060200180831161116157829003601f168201915b50505050508152602001600882018054611197906133bb565b80601f01602080910402602001604051908101604052809291908181526020018280546111c3906133bb565b80156112105780601f106111e557610100808354040283529160200191611210565b820191906000526020600020905b8154815290600101906020018083116111f357829003601f168201915b50505050508152505081526020019060010190610a93565b50505050905090565b600160009054906101000a900473ffffffffffffffffffffffffffffffffffffffff1673ffffffffffffffffffffffffffffffffffffffff163373ffffffffffffffffffffffffffffffffffffffff16146112c1576040517f08c379a00000000000000000000000000000000000000000000000000000000081526004016112b890613438565b60405180910390fd5b60006002600089815260200190815260200160002090506000604051806101a001604052808a81526020018981526020018881526020018781526020018681526020018581526020018481526020016040518060400160405280600781526020017f4f6e676f696e670000000000000000000000000000000000000000000000000081525081526020016000151581526020017ffffffffffffffffffffffffffffffffffffffffffffffffffffffffffffffffe8152602001600081526020016000815260200160008152509050816003018190806001815401808255809150506001900390600052602060002090600d0201600090919091909150600082015181600001556020820151816001015560408201518160020190816113e69190613604565b5060608201518160030190816113fc9190613604565b506080820151816004015560a0820151816005015560c08201518160060190816114269190613604565b5060e082015181600701908161143c9190613604565b506101008201518160080160006101000a81548160ff021916908315150217905550610120820151816009015561014082015181600a015561016082015181600b015561018082015181600c01555050505050505050505050565b60008060026000858152602001908152602001600020905060008160030190506000816000815481106114cd576114cc6136d6565b5b90600052602060002090600d0201905060005b82805490508110156115485785838281548110611500576114ff6136d6565b5b90600052602060002090600d0201600101540361153b5782818154811061152a576115296136d6565b5b90600052602060002090600d020191505b80806001019150506114e0565b5080600c0154935050505092915050565b600160009054906101000a900473ffffffffffffffffffffffffffffffffffffffff1673ffffffffffffffffffffffffffffffffffffffff163373ffffffffffffffffffffffffffffffffffffffff16036115e9576040517f08c379a00000000000000000000000000000000000000000000000000000000081526004016115e090613751565b60405180910390fd5b662386f26fc10000341015611633576040517f08c379a000000000000000000000000000000000000000000000000000000000815260040161162a906137bd565b60405180910390fd5b60001515600360003373ffffffffffffffffffffffffffffffffffffffff1673ffffffffffffffffffffffffffffffffffffffff1681526020019081526020016000208460648110611688576116876136d6565b5b60040201836064811061169e5761169d6136d6565b5b602091828204019190069054906101000a900460ff161515146116f6576040517f08c379a00000000000000000000000000000000000000000000000000000000081526004016116ed9061384f565b60405180910390fd5b6000600260008581526020019081526020016000209050600081600301905060008160008154811061172b5761172a6136d6565b5b90600052602060002090600d0201905060005b82805490508110156117a6578583828154811061175e5761175d6136d6565b5b90600052602060002090600d0201600101540361179957828181548110611788576117876136d6565b5b90600052602060002090600d020191505b808060010191505061173e565b50806004015484036117ed573481600a0160008282546117c6919061389e565b925050819055503481600c0160008282546117e1919061389e565b92505081905550611830565b8060050154840361182f573481600b01600082825461180c919061389e565b925050819055503481600c016000828254611827919061389e565b925050819055505b5b6001600360003373ffffffffffffffffffffffffffffffffffffffff1673ffffffffffffffffffffffffffffffffffffffff1681526020019081526020016000208760648110611883576118826136d6565b5b600402018660648110611899576118986136d6565b5b602091828204019190066101000a81548160ff021916908315150217905550600060405180606001604052803373ffffffffffffffffffffffffffffffffffffffff16815260200134815260200186815250905060046000888152602001908152602001600020600087815260200190815260200160002081908060018154018082558091505060019003906000526020600020906003020160009091909190915060008201518160000160006101000a81548173ffffffffffffffffffffffffffffffffffffffff021916908373ffffffffffffffffffffffffffffffffffffffff1602179055506020820151816001015560408201518160020155505050505050505050565b600160009054906101000a900473ffffffffffffffffffffffffffffffffffffffff1673ffffffffffffffffffffffffffffffffffffffff163373ffffffffffffffffffffffffffffffffffffffff1614611a31576040517f08c379a0000000000000000000000000000000000000000000000000000000008152600401611a2890613438565b60405180910390fd5b600080611a3e8585611497565b905060006002600087815260200190815260200160002090506000816003019050600081600081548110611a7557611a746136d6565b5b90600052602060002090600d0201905060005b8280549050811015611af05787838281548110611aa857611aa76136d6565b5b90600052602060002090600d02016001015403611ae357828181548110611ad257611ad16136d6565b5b90600052602060002090600d020191505b8080600101915050611a88565b5060018160080160006101000a81548160ff021916908315150217905550858160090181905550600086826004015403611b305781600a01549050611b44565b86826005015403611b435781600b015490505b5b6000600460008b815260200190815260200160002060008a8152602001908152602001600020905060005b8180549050811015611d12576000828281548110611b9057611b8f6136d6565b5b9060005260206000209060030201905089816002015403611d04576000670de0b6b3a76400008260010154611bc591906138d2565b90506000670de0b6b3a76400008a611bdd91906138d2565b90506000670de0b6b3a764000087611bf591906138d2565b90506000818385611c0691906138d2565b611c109190613943565b9050670de0b6b3a764000081611c269190613943565b9c5060008560000160009054906101000a900473ffffffffffffffffffffffffffffffffffffffff16905060008173ffffffffffffffffffffffffffffffffffffffff168f604051611c77906139a5565b60006040518083038185875af1925050503d8060008114611cb4576040519150601f19603f3d011682016040523d82523d6000602084013e611cb9565b606091505b5050905080611cfd576040517f08c379a0000000000000000000000000000000000000000000000000000000008152600401611cf490613a06565b60405180910390fd5b5050505050505b508080600101915050611b6f565b5050505050505050505050565b600160009054906101000a900473ffffffffffffffffffffffffffffffffffffffff1673ffffffffffffffffffffffffffffffffffffffff163373ffffffffffffffffffffffffffffffffffffffff1614611daf576040517f08c379a0000000000000000000000000000000000000000000000000000000008152600401611da690613438565b60405180910390fd5b6000806000815480929190611dc390613a26565b919050559050600060026000838152602001908152602001600020905088816000019081611df19190613604565b5081816001018190555087816002019081611e0c9190613604565b5086816004019080519060200190611e259291906122e4565b5085816005019081611e379190613604565b5084816006019081611e499190613604565b5083816007019081611e5b9190613604565b5082816008019081611e6d9190613604565b50600581908060018154018082558091505060019003906000526020600020906009020160009091909190915060008201816000019081611eae9190613a84565b506001820154816001015560028201816002019081611ecd9190613a84565b506003820181600301908054611ee492919061233d565b506004820181600401908054611efb929190612466565b5060058201816005019081611f109190613a84565b5060068201816006019081611f259190613a84565b5060078201816007019081611f3a9190613a84565b5060088201816008019081611f4f9190613a84565b505050505050505050505050565b60036020528260005260406000208260648110611f7957600080fd5b600402018160648110611f8b57600080fd5b6020918282040191900692509250509054906101000a900460ff1681565b60005481565b60606000600260008481526020019081526020016000209050600081600301905080805480602002602001604051908101604052809291908181526020016000905b828210156122d757838290600052602060002090600d0201604051806101a00160405290816000820154815260200160018201548152602001600282018054612039906133bb565b80601f0160208091040260200160405190810160405280929190818152602001828054612065906133bb565b80156120b25780601f10612087576101008083540402835291602001916120b2565b820191906000526020600020905b81548152906001019060200180831161209557829003601f168201915b505050505081526020016003820180546120cb906133bb565b80601f01602080910402602001604051908101604052809291908181526020018280546120f7906133bb565b80156121445780601f1061211957610100808354040283529160200191612144565b820191906000526020600020905b81548152906001019060200180831161212757829003601f168201915b505050505081526020016004820154815260200160058201548152602001600682018054612171906133bb565b80601f016020809104026020016040519081016040528092919081815260200182805461219d906133bb565b80156121ea5780601f106121bf576101008083540402835291602001916121ea565b820191906000526020600020905b8154815290600101906020018083116121cd57829003601f168201915b50505050508152602001600782018054612203906133bb565b80601f016020809104026020016040519081016040528092919081815260200182805461222f906133bb565b801561227c5780601f106122515761010080835404028352916020019161227c565b820191906000526020600020905b81548152906001019060200180831161225f57829003601f168201915b505050505081526020016008820160009054906101000a900460ff1615151515815260200160098201548152602001600a8201548152602001600b8201548152602001600c8201548152505081526020019060010190611ff1565b5050505092505050919050565b82805482825590600052602060002090810192821561232c579160200282015b8281111561232b57825182908161231b9190613604565b5091602001919060010190612304565b5b50905061233991906124c3565b5090565b82805482825590600052602060002090600d02810192821561245557600052602060002091600d0282015b8281111561245457828260008201548160000155600182015481600101556002820181600201908161239a9190613a84565b50600382018160030190816123af9190613a84565b506004820154816004015560058201548160050155600682018160060190816123d89190613a84565b50600782018160070190816123ed9190613a84565b506008820160009054906101000a900460ff168160080160006101000a81548160ff02191690831515021790555060098201548160090155600a82015481600a0155600b82015481600b0155600c82015481600c0155505091600d019190600d0190612368565b5b50905061246291906124e7565b5090565b8280548282559060005260206000209081019282156124b25760005260206000209182015b828111156124b157828290816124a19190613a84565b509160010191906001019061248b565b5b5090506124bf91906124c3565b5090565b5b808211156124e357600081816124da9190612592565b506001016124c4565b5090565b5b8082111561258e5760008082016000905560018201600090556002820160006125119190612592565b6003820160006125219190612592565b600482016000905560058201600090556006820160006125419190612592565b6007820160006125519190612592565b6008820160006101000a81549060ff02191690556009820160009055600a820160009055600b820160009055600c82016000905550600d016124e8565b5090565b50805461259e906133bb565b6000825580601f106125b057506125cf565b601f0160209004906000526020600020908101906125ce91906125d2565b5b50565b5b808211156125eb5760008160009055506001016125d3565b5090565b6000604051905090565b600080fd5b600080fd5b6000819050919050565b61261681612603565b811461262157600080fd5b50565b6000813590506126338161260d565b92915050565b60006020828403121561264f5761264e6125f9565b5b600061265d84828501612624565b91505092915050565b600081519050919050565b600082825260208201905092915050565b60005b838110156126a0578082015181840152602081019050612685565b60008484015250505050565b6000601f19601f8301169050919050565b60006126c882612666565b6126d28185612671565b93506126e2818560208601612682565b6126eb816126ac565b840191505092915050565b6126ff81612603565b82525050565b600060e082019050818103600083015261271f818a6126bd565b905061272e60208301896126f6565b818103604083015261274081886126bd565b9050818103606083015261275481876126bd565b9050818103608083015261276881866126bd565b905081810360a083015261277c81856126bd565b905081810360c083015261279081846126bd565b905098975050505050505050565b6000806000606084860312156127b7576127b66125f9565b5b60006127c586828701612624565b93505060206127d686828701612624565b92505060406127e786828701612624565b9150509250925092565b600073ffffffffffffffffffffffffffffffffffffffff82169050919050565b600061281c826127f1565b9050919050565b61282c81612811565b82525050565b60006060820190506128476000830186612823565b61285460208301856126f6565b61286160408301846126f6565b949350505050565b600081519050919050565b600082825260208201905092915050565b6000819050602082019050919050565b600082825260208201905092915050565b60006128b182612666565b6128bb8185612895565b93506128cb818560208601612682565b6128d4816126ac565b840191505092915050565b6128e881612603565b82525050565b600081519050919050565b600082825260208201905092915050565b6000819050602082019050919050565b60008115159050919050565b61292f8161291a565b82525050565b60006101a08301600083015161294e60008601826128df565b50602083015161296160208601826128df565b506040830151848203604086015261297982826128a6565b9150506060830151848203606086015261299382826128a6565b91505060808301516129a860808601826128df565b5060a08301516129bb60a08601826128df565b5060c083015184820360c08601526129d382826128a6565b91505060e083015184820360e08601526129ed82826128a6565b915050610100830151612a04610100860182612926565b50610120830151612a196101208601826128df565b50610140830151612a2e6101408601826128df565b50610160830151612a436101608601826128df565b50610180830151612a586101808601826128df565b508091505092915050565b6000612a6f8383612935565b905092915050565b6000602082019050919050565b6000612a8f826128ee565b612a9981856128f9565b935083602082028501612aab8561290a565b8060005b85811015612ae75784840389528151612ac88582612a63565b9450612ad383612a77565b925060208a01995050600181019050612aaf565b50829750879550505050505092915050565b600081519050919050565b600082825260208201905092915050565b6000819050602082019050919050565b6000612b3183836128a6565b905092915050565b6000602082019050919050565b6000612b5182612af9565b612b5b8185612b04565b935083602082028501612b6d85612b15565b8060005b85811015612ba95784840389528151612b8a8582612b25565b9450612b9583612b39565b925060208a01995050600181019050612b71565b50829750879550505050505092915050565b6000610120830160008301518482036000860152612bd982826128a6565b9150506020830151612bee60208601826128df565b5060408301518482036040860152612c0682826128a6565b91505060608301518482036060860152612c208282612a84565b91505060808301518482036080860152612c3a8282612b46565b91505060a083015184820360a0860152612c5482826128a6565b91505060c083015184820360c0860152612c6e82826128a6565b91505060e083015184820360e0860152612c8882826128a6565b915050610100830151848203610100860152612ca482826128a6565b9150508091505092915050565b6000612cbd8383612bbb565b905092915050565b6000602082019050919050565b6000612cdd82612869565b612ce78185612874565b935083602082028501612cf985612885565b8060005b85811015612d355784840389528151612d168582612cb1565b9450612d2183612cc5565b925060208a01995050600181019050612cfd565b50829750879550505050505092915050565b60006020820190508181036000830152612d618184612cd2565b905092915050565b600080fd5b600080fd5b7f4e487b7100000000000000000000000000000000000000000000000000000000600052604160045260246000fd5b612dab826126ac565b810181811067ffffffffffffffff82111715612dca57612dc9612d73565b5b80604052505050565b6000612ddd6125ef565b9050612de98282612da2565b919050565b600067ffffffffffffffff821115612e0957612e08612d73565b5b612e12826126ac565b9050602081019050919050565b82818337600083830152505050565b6000612e41612e3c84612dee565b612dd3565b905082815260208101848484011115612e5d57612e5c612d6e565b5b612e68848285612e1f565b509392505050565b600082601f830112612e8557612e84612d69565b5b8135612e95848260208601612e2e565b91505092915050565b600080600080600080600060e0888a031215612ebd57612ebc6125f9565b5b6000612ecb8a828b01612624565b9750506020612edc8a828b01612624565b965050604088013567ffffffffffffffff811115612efd57612efc6125fe565b5b612f098a828b01612e70565b955050606088013567ffffffffffffffff811115612f2a57612f296125fe565b5b612f368a828b01612e70565b9450506080612f478a828b01612624565b93505060a0612f588a828b01612624565b92505060c088013567ffffffffffffffff811115612f7957612f786125fe565b5b612f858a828b01612e70565b91505092959891949750929550565b60008060408385031215612fab57612faa6125f9565b5b6000612fb985828601612624565b9250506020612fca85828601612624565b9150509250929050565b6000602082019050612fe960008301846126f6565b92915050565b600067ffffffffffffffff82111561300a57613009612d73565b5b602082029050602081019050919050565b600080fd5b600061303361302e84612fef565b612dd3565b905080838252602082019050602084028301858111156130565761305561301b565b5b835b8181101561309d57803567ffffffffffffffff81111561307b5761307a612d69565b5b8086016130888982612e70565b85526020850194505050602081019050613058565b5050509392505050565b600082601f8301126130bc576130bb612d69565b5b81356130cc848260208601613020565b91505092915050565b600080600080600080600060e0888a0312156130f4576130f36125f9565b5b600088013567ffffffffffffffff811115613112576131116125fe565b5b61311e8a828b01612e70565b975050602088013567ffffffffffffffff81111561313f5761313e6125fe565b5b61314b8a828b01612e70565b965050604088013567ffffffffffffffff81111561316c5761316b6125fe565b5b6131788a828b016130a7565b955050606088013567ffffffffffffffff811115613199576131986125fe565b5b6131a58a828b01612e70565b945050608088013567ffffffffffffffff8111156131c6576131c56125fe565b5b6131d28a828b01612e70565b93505060a088013567ffffffffffffffff8111156131f3576131f26125fe565b5b6131ff8a828b01612e70565b92505060c088013567ffffffffffffffff8111156132205761321f6125fe565b5b61322c8a828b01612e70565b91505092959891949750929550565b61324481612811565b811461324f57600080fd5b50565b6000813590506132618161323b565b92915050565b6000806000606084860312156132805761327f6125f9565b5b600061328e86828701613252565b935050602061329f86828701612624565b92505060406132b086828701612624565b9150509250925092565b6132c38161291a565b82525050565b60006020820190506132de60008301846132ba565b92915050565b600082825260208201905092915050565b6000613300826128ee565b61330a81856132e4565b93508360208202850161331c8561290a565b8060005b8581101561335857848403895281516133398582612a63565b945061334483612a77565b925060208a01995050600181019050613320565b50829750879550505050505092915050565b6000602082019050818103600083015261338481846132f5565b905092915050565b7f4e487b7100000000000000000000000000000000000000000000000000000000600052602260045260246000fd5b600060028204905060018216806133d357607f821691505b6020821081036133e6576133e561338c565b5b50919050565b7f4d757374206265206f776e657221200000000000000000000000000000000000600082015250565b6000613422600f83612671565b915061342d826133ec565b602082019050919050565b6000602082019050818103600083015261345181613415565b9050919050565b60008190508160005260206000209050919050565b60006020601f8301049050919050565b600082821b905092915050565b6000600883026134ba7fffffffffffffffffffffffffffffffffffffffffffffffffffffffffffffffff8261347d565b6134c4868361347d565b95508019841693508086168417925050509392505050565b6000819050919050565b60006135016134fc6134f784612603565b6134dc565b612603565b9050919050565b6000819050919050565b61351b836134e6565b61352f61352782613508565b84845461348a565b825550505050565b600090565b613544613537565b61354f818484613512565b505050565b5b818110156135735761356860008261353c565b600181019050613555565b5050565b601f8211156135b85761358981613458565b6135928461346d565b810160208510156135a1578190505b6135b56135ad8561346d565b830182613554565b50505b505050565b600082821c905092915050565b60006135db600019846008026135bd565b1980831691505092915050565b60006135f483836135ca565b9150826002028217905092915050565b61360d82612666565b67ffffffffffffffff81111561362657613625612d73565b5b61363082546133bb565b61363b828285613577565b600060209050601f83116001811461366e576000841561365c578287015190505b61366685826135e8565b8655506136ce565b601f19841661367c86613458565b60005b828110156136a45784890151825560018201915060208501945060208101905061367f565b868310156136c157848901516136bd601f8916826135ca565b8355505b6001600288020188555050505b505050505050565b7f4e487b7100000000000000000000000000000000000000000000000000000000600052603260045260246000fd5b7f4f776e65722063616e6e6f7420706c6163652062657473000000000000000000600082015250565b600061373b601783612671565b915061374682613705565b602082019050919050565b6000602082019050818103600083015261376a8161372e565b9050919050565b7f496e73756666696369656e7420616d6f756e7400000000000000000000000000600082015250565b60006137a7601383612671565b91506137b282613771565b602082019050919050565b600060208201905081810360008301526137d68161379a565b9050919050565b7f596f75206861766520616c726561647920706c6163656420796f75722062657460008201527f20696e2074686973206d61746368000000000000000000000000000000000000602082015250565b6000613839602e83612671565b9150613844826137dd565b604082019050919050565b600060208201905081810360008301526138688161382c565b9050919050565b7f4e487b7100000000000000000000000000000000000000000000000000000000600052601160045260246000fd5b60006138a982612603565b91506138b483612603565b92508282019050808211156138cc576138cb61386f565b5b92915050565b60006138dd82612603565b91506138e883612603565b92508282026138f681612603565b9150828204841483151761390d5761390c61386f565b5b5092915050565b7f4e487b7100000000000000000000000000000000000000000000000000000000600052601260045260246000fd5b600061394e82612603565b915061395983612603565b92508261396957613968613914565b5b828204905092915050565b600081905092915050565b50565b600061398f600083613974565b915061399a8261397f565b600082019050919050565b60006139b082613982565b9150819050919050565b7f4661696c656420746f2073656e64206574686572000000000000000000000000600082015250565b60006139f0601483612671565b91506139fb826139ba565b602082019050919050565b60006020820190508181036000830152613a1f816139e3565b9050919050565b6000613a3182612603565b91507fffffffffffffffffffffffffffffffffffffffffffffffffffffffffffffffff8203613a6357613a6261386f565b5b600182019050919050565b600081549050613a7d816133bb565b9050919050565b818103613a92575050613b6a565b613a9b82613a6e565b67ffffffffffffffff811115613ab457613ab3612d73565b5b613abe82546133bb565b613ac9828285613577565b6000601f831160018114613af85760008415613ae6578287015490505b613af085826135e8565b865550613b63565b601f198416613b0687613458565b9650613b1186613458565b60005b82811015613b3957848901548255600182019150600185019450602081019050613b14565b86831015613b565784890154613b52601f8916826135ca565b8355505b6001600288020188555050505b5050505050505b56fea2646970667358221220e763447d756d8fc6f40bf287be0f8b381e997331fad7121ed61c3d64e5c626c164736f6c63430008180033",
          "opcodes": "PUSH1 0x80 PUSH1 0x40 MSTORE PUSH1 0x1 PUSH1 0x0 SSTORE CALLER PUSH1 0x1 PUSH1 0x0 PUSH2 0x100 EXP DUP2 SLOAD DUP2 PUSH20 0xFFFFFFFFFFFFFFFFFFFFFFFFFFFFFFFFFFFFFFFF MUL NOT AND SWAP1 DUP4 PUSH20 0xFFFFFFFFFFFFFFFFFFFFFFFFFFFFFFFFFFFFFFFF AND MUL OR SWAP1 SSTORE POP PUSH2 0x3BA2 DUP1 PUSH2 0x59 PUSH1 0x0 CODECOPY PUSH1 0x0 RETURN INVALID PUSH1 0x80 PUSH1 0x40 MSTORE PUSH1 0x4 CALLDATASIZE LT PUSH2 0xA6 JUMPI PUSH1 0x0 CALLDATALOAD PUSH1 0xE0 SHR DUP1 PUSH4 0x9062CE7D GT PUSH2 0x64 JUMPI DUP1 PUSH4 0x9062CE7D EQ PUSH2 0x201 JUMPI DUP1 PUSH4 0x9F299A52 EQ PUSH2 0x21D JUMPI DUP1 PUSH4 0xB494EC6A EQ PUSH2 0x239 JUMPI DUP1 PUSH4 0xC4A4CD03 EQ PUSH2 0x262 JUMPI DUP1 PUSH4 0xCD3FCD43 EQ PUSH2 0x29F JUMPI DUP1 PUSH4 0xE60D585A EQ PUSH2 0x2CA JUMPI PUSH2 0xA6 JUMP JUMPDEST DUP1 PUSH3 0xCEE13D EQ PUSH2 0xAB JUMPI DUP1 PUSH4 0xB791430 EQ PUSH2 0xEE JUMPI DUP1 PUSH4 0x12EA5DCD EQ PUSH2 0x131 JUMPI DUP1 PUSH4 0x404AA8F9 EQ PUSH2 0x170 JUMPI DUP1 PUSH4 0x5605422B EQ PUSH2 0x19B JUMPI DUP1 PUSH4 0x7538E2A3 EQ PUSH2 0x1C4 JUMPI JUMPDEST PUSH1 0x0 DUP1 REVERT JUMPDEST CALLVALUE DUP1 ISZERO PUSH2 0xB7 JUMPI PUSH1 0x0 DUP1 REVERT JUMPDEST POP PUSH2 0xD2 PUSH1 0x4 DUP1 CALLDATASIZE SUB DUP2 ADD SWAP1 PUSH2 0xCD SWAP2 SWAP1 PUSH2 0x2639 JUMP JUMPDEST PUSH2 0x307 JUMP JUMPDEST PUSH1 0x40 MLOAD PUSH2 0xE5 SWAP8 SWAP7 SWAP6 SWAP5 SWAP4 SWAP3 SWAP2 SWAP1 PUSH2 0x2705 JUMP JUMPDEST PUSH1 0x40 MLOAD DUP1 SWAP2 SUB SWAP1 RETURN JUMPDEST CALLVALUE DUP1 ISZERO PUSH2 0xFA JUMPI PUSH1 0x0 DUP1 REVERT JUMPDEST POP PUSH2 0x115 PUSH1 0x4 DUP1 CALLDATASIZE SUB DUP2 ADD SWAP1 PUSH2 0x110 SWAP2 SWAP1 PUSH2 0x2639 JUMP JUMPDEST PUSH2 0x679 JUMP JUMPDEST PUSH1 0x40 MLOAD PUSH2 0x128 SWAP8 SWAP7 SWAP6 SWAP5 SWAP4 SWAP3 SWAP2 SWAP1 PUSH2 0x2705 JUMP JUMPDEST PUSH1 0x40 MLOAD DUP1 SWAP2 SUB SWAP1 RETURN JUMPDEST CALLVALUE DUP1 ISZERO PUSH2 0x13D JUMPI PUSH1 0x0 DUP1 REVERT JUMPDEST POP PUSH2 0x158 PUSH1 0x4 DUP1 CALLDATASIZE SUB DUP2 ADD SWAP1 PUSH2 0x153 SWAP2 SWAP1 PUSH2 0x279E JUMP JUMPDEST PUSH2 0x9FB JUMP JUMPDEST PUSH1 0x40 MLOAD PUSH2 0x167 SWAP4 SWAP3 SWAP2 SWAP1 PUSH2 0x2832 JUMP JUMPDEST PUSH1 0x40 MLOAD DUP1 SWAP2 SUB SWAP1 RETURN JUMPDEST CALLVALUE DUP1 ISZERO PUSH2 0x17C JUMPI PUSH1 0x0 DUP1 REVERT JUMPDEST POP PUSH2 0x185 PUSH2 0xA6F JUMP JUMPDEST PUSH1 0x40 MLOAD PUSH2 0x192 SWAP2 SWAP1 PUSH2 0x2D47 JUMP JUMPDEST PUSH1 0x40 MLOAD DUP1 SWAP2 SUB SWAP1 RETURN JUMPDEST CALLVALUE DUP1 ISZERO PUSH2 0x1A7 JUMPI PUSH1 0x0 DUP1 REVERT JUMPDEST POP PUSH2 0x1C2 PUSH1 0x4 DUP1 CALLDATASIZE SUB DUP2 ADD SWAP1 PUSH2 0x1BD SWAP2 SWAP1 PUSH2 0x2E9E JUMP JUMPDEST PUSH2 0x1231 JUMP JUMPDEST STOP JUMPDEST CALLVALUE DUP1 ISZERO PUSH2 0x1D0 JUMPI PUSH1 0x0 DUP1 REVERT JUMPDEST POP PUSH2 0x1EB PUSH1 0x4 DUP1 CALLDATASIZE SUB DUP2 ADD SWAP1 PUSH2 0x1E6 SWAP2 SWAP1 PUSH2 0x2F94 JUMP JUMPDEST PUSH2 0x1497 JUMP JUMPDEST PUSH1 0x40 MLOAD PUSH2 0x1F8 SWAP2 SWAP1 PUSH2 0x2FD4 JUMP JUMPDEST PUSH1 0x40 MLOAD DUP1 SWAP2 SUB SWAP1 RETURN JUMPDEST PUSH2 0x21B PUSH1 0x4 DUP1 CALLDATASIZE SUB DUP2 ADD SWAP1 PUSH2 0x216 SWAP2 SWAP1 PUSH2 0x279E JUMP JUMPDEST PUSH2 0x1559 JUMP JUMPDEST STOP JUMPDEST PUSH2 0x237 PUSH1 0x4 DUP1 CALLDATASIZE SUB DUP2 ADD SWAP1 PUSH2 0x232 SWAP2 SWAP1 PUSH2 0x279E JUMP JUMPDEST PUSH2 0x19A1 JUMP JUMPDEST STOP JUMPDEST CALLVALUE DUP1 ISZERO PUSH2 0x245 JUMPI PUSH1 0x0 DUP1 REVERT JUMPDEST POP PUSH2 0x260 PUSH1 0x4 DUP1 CALLDATASIZE SUB DUP2 ADD SWAP1 PUSH2 0x25B SWAP2 SWAP1 PUSH2 0x30D5 JUMP JUMPDEST PUSH2 0x1D1F JUMP JUMPDEST STOP JUMPDEST CALLVALUE DUP1 ISZERO PUSH2 0x26E JUMPI PUSH1 0x0 DUP1 REVERT JUMPDEST POP PUSH2 0x289 PUSH1 0x4 DUP1 CALLDATASIZE SUB DUP2 ADD SWAP1 PUSH2 0x284 SWAP2 SWAP1 PUSH2 0x3267 JUMP JUMPDEST PUSH2 0x1F5D JUMP JUMPDEST PUSH1 0x40 MLOAD PUSH2 0x296 SWAP2 SWAP1 PUSH2 0x32C9 JUMP JUMPDEST PUSH1 0x40 MLOAD DUP1 SWAP2 SUB SWAP1 RETURN JUMPDEST CALLVALUE DUP1 ISZERO PUSH2 0x2AB JUMPI PUSH1 0x0 DUP1 REVERT JUMPDEST POP PUSH2 0x2B4 PUSH2 0x1FA9 JUMP JUMPDEST PUSH1 0x40 MLOAD PUSH2 0x2C1 SWAP2 SWAP1 PUSH2 0x2FD4 JUMP JUMPDEST PUSH1 0x40 MLOAD DUP1 SWAP2 SUB SWAP1 RETURN JUMPDEST CALLVALUE DUP1 ISZERO PUSH2 0x2D6 JUMPI PUSH1 0x0 DUP1 REVERT JUMPDEST POP PUSH2 0x2F1 PUSH1 0x4 DUP1 CALLDATASIZE SUB DUP2 ADD SWAP1 PUSH2 0x2EC SWAP2 SWAP1 PUSH2 0x2639 JUMP JUMPDEST PUSH2 0x1FAF JUMP JUMPDEST PUSH1 0x40 MLOAD PUSH2 0x2FE SWAP2 SWAP1 PUSH2 0x336A JUMP JUMPDEST PUSH1 0x40 MLOAD DUP1 SWAP2 SUB SWAP1 RETURN JUMPDEST PUSH1 0x2 PUSH1 0x20 MSTORE DUP1 PUSH1 0x0 MSTORE PUSH1 0x40 PUSH1 0x0 KECCAK256 PUSH1 0x0 SWAP2 POP SWAP1 POP DUP1 PUSH1 0x0 ADD DUP1 SLOAD PUSH2 0x32A SWAP1 PUSH2 0x33BB JUMP JUMPDEST DUP1 PUSH1 0x1F ADD PUSH1 0x20 DUP1 SWAP2 DIV MUL PUSH1 0x20 ADD PUSH1 0x40 MLOAD SWAP1 DUP2 ADD PUSH1 0x40 MSTORE DUP1 SWAP3 SWAP2 SWAP1 DUP2 DUP2 MSTORE PUSH1 0x20 ADD DUP3 DUP1 SLOAD PUSH2 0x356 SWAP1 PUSH2 0x33BB JUMP JUMPDEST DUP1 ISZERO PUSH2 0x3A3 JUMPI DUP1 PUSH1 0x1F LT PUSH2 0x378 JUMPI PUSH2 0x100 DUP1 DUP4 SLOAD DIV MUL DUP4 MSTORE SWAP2 PUSH1 0x20 ADD SWAP2 PUSH2 0x3A3 JUMP JUMPDEST DUP3 ADD SWAP2 SWAP1 PUSH1 0x0 MSTORE PUSH1 0x20 PUSH1 0x0 KECCAK256 SWAP1 JUMPDEST DUP2 SLOAD DUP2 MSTORE SWAP1 PUSH1 0x1 ADD SWAP1 PUSH1 0x20 ADD DUP1 DUP4 GT PUSH2 0x386 JUMPI DUP3 SWAP1 SUB PUSH1 0x1F AND DUP3 ADD SWAP2 JUMPDEST POP POP POP POP POP SWAP1 DUP1 PUSH1 0x1 ADD SLOAD SWAP1 DUP1 PUSH1 0x2 ADD DUP1 SLOAD PUSH2 0x3BE SWAP1 PUSH2 0x33BB JUMP JUMPDEST DUP1 PUSH1 0x1F ADD PUSH1 0x20 DUP1 SWAP2 DIV MUL PUSH1 0x20 ADD PUSH1 0x40 MLOAD SWAP1 DUP2 ADD PUSH1 0x40 MSTORE DUP1 SWAP3 SWAP2 SWAP1 DUP2 DUP2 MSTORE PUSH1 0x20 ADD DUP3 DUP1 SLOAD PUSH2 0x3EA SWAP1 PUSH2 0x33BB JUMP JUMPDEST DUP1 ISZERO PUSH2 0x437 JUMPI DUP1 PUSH1 0x1F LT PUSH2 0x40C JUMPI PUSH2 0x100 DUP1 DUP4 SLOAD DIV MUL DUP4 MSTORE SWAP2 PUSH1 0x20 ADD SWAP2 PUSH2 0x437 JUMP JUMPDEST DUP3 ADD SWAP2 SWAP1 PUSH1 0x0 MSTORE PUSH1 0x20 PUSH1 0x0 KECCAK256 SWAP1 JUMPDEST DUP2 SLOAD DUP2 MSTORE SWAP1 PUSH1 0x1 ADD SWAP1 PUSH1 0x20 ADD DUP1 DUP4 GT PUSH2 0x41A JUMPI DUP3 SWAP1 SUB PUSH1 0x1F AND DUP3 ADD SWAP2 JUMPDEST POP POP POP POP POP SWAP1 DUP1 PUSH1 0x5 ADD DUP1 SLOAD PUSH2 0x44C SWAP1 PUSH2 0x33BB JUMP JUMPDEST DUP1 PUSH1 0x1F ADD PUSH1 0x20 DUP1 SWAP2 DIV MUL PUSH1 0x20 ADD PUSH1 0x40 MLOAD SWAP1 DUP2 ADD PUSH1 0x40 MSTORE DUP1 SWAP3 SWAP2 SWAP1 DUP2 DUP2 MSTORE PUSH1 0x20 ADD DUP3 DUP1 SLOAD PUSH2 0x478 SWAP1 PUSH2 0x33BB JUMP JUMPDEST DUP1 ISZERO PUSH2 0x4C5 JUMPI DUP1 PUSH1 0x1F LT PUSH2 0x49A JUMPI PUSH2 0x100 DUP1 DUP4 SLOAD DIV MUL DUP4 MSTORE SWAP2 PUSH1 0x20 ADD SWAP2 PUSH2 0x4C5 JUMP JUMPDEST DUP3 ADD SWAP2 SWAP1 PUSH1 0x0 MSTORE PUSH1 0x20 PUSH1 0x0 KECCAK256 SWAP1 JUMPDEST DUP2 SLOAD DUP2 MSTORE SWAP1 PUSH1 0x1 ADD SWAP1 PUSH1 0x20 ADD DUP1 DUP4 GT PUSH2 0x4A8 JUMPI DUP3 SWAP1 SUB PUSH1 0x1F AND DUP3 ADD SWAP2 JUMPDEST POP POP POP POP POP SWAP1 DUP1 PUSH1 0x6 ADD DUP1 SLOAD PUSH2 0x4DA SWAP1 PUSH2 0x33BB JUMP JUMPDEST DUP1 PUSH1 0x1F ADD PUSH1 0x20 DUP1 SWAP2 DIV MUL PUSH1 0x20 ADD PUSH1 0x40 MLOAD SWAP1 DUP2 ADD PUSH1 0x40 MSTORE DUP1 SWAP3 SWAP2 SWAP1 DUP2 DUP2 MSTORE PUSH1 0x20 ADD DUP3 DUP1 SLOAD PUSH2 0x506 SWAP1 PUSH2 0x33BB JUMP JUMPDEST DUP1 ISZERO PUSH2 0x553 JUMPI DUP1 PUSH1 0x1F LT PUSH2 0x528 JUMPI PUSH2 0x100 DUP1 DUP4 SLOAD DIV MUL DUP4 MSTORE SWAP2 PUSH1 0x20 ADD SWAP2 PUSH2 0x553 JUMP JUMPDEST DUP3 ADD SWAP2 SWAP1 PUSH1 0x0 MSTORE PUSH1 0x20 PUSH1 0x0 KECCAK256 SWAP1 JUMPDEST DUP2 SLOAD DUP2 MSTORE SWAP1 PUSH1 0x1 ADD SWAP1 PUSH1 0x20 ADD DUP1 DUP4 GT PUSH2 0x536 JUMPI DUP3 SWAP1 SUB PUSH1 0x1F AND DUP3 ADD SWAP2 JUMPDEST POP POP POP POP POP SWAP1 DUP1 PUSH1 0x7 ADD DUP1 SLOAD PUSH2 0x568 SWAP1 PUSH2 0x33BB JUMP JUMPDEST DUP1 PUSH1 0x1F ADD PUSH1 0x20 DUP1 SWAP2 DIV MUL PUSH1 0x20 ADD PUSH1 0x40 MLOAD SWAP1 DUP2 ADD PUSH1 0x40 MSTORE DUP1 SWAP3 SWAP2 SWAP1 DUP2 DUP2 MSTORE PUSH1 0x20 ADD DUP3 DUP1 SLOAD PUSH2 0x594 SWAP1 PUSH2 0x33BB JUMP JUMPDEST DUP1 ISZERO PUSH2 0x5E1 JUMPI DUP1 PUSH1 0x1F LT PUSH2 0x5B6 JUMPI PUSH2 0x100 DUP1 DUP4 SLOAD DIV MUL DUP4 MSTORE SWAP2 PUSH1 0x20 ADD SWAP2 PUSH2 0x5E1 JUMP JUMPDEST DUP3 ADD SWAP2 SWAP1 PUSH1 0x0 MSTORE PUSH1 0x20 PUSH1 0x0 KECCAK256 SWAP1 JUMPDEST DUP2 SLOAD DUP2 MSTORE SWAP1 PUSH1 0x1 ADD SWAP1 PUSH1 0x20 ADD DUP1 DUP4 GT PUSH2 0x5C4 JUMPI DUP3 SWAP1 SUB PUSH1 0x1F AND DUP3 ADD SWAP2 JUMPDEST POP POP POP POP POP SWAP1 DUP1 PUSH1 0x8 ADD DUP1 SLOAD PUSH2 0x5F6 SWAP1 PUSH2 0x33BB JUMP JUMPDEST DUP1 PUSH1 0x1F ADD PUSH1 0x20 DUP1 SWAP2 DIV MUL PUSH1 0x20 ADD PUSH1 0x40 MLOAD SWAP1 DUP2 ADD PUSH1 0x40 MSTORE DUP1 SWAP3 SWAP2 SWAP1 DUP2 DUP2 MSTORE PUSH1 0x20 ADD DUP3 DUP1 SLOAD PUSH2 0x622 SWAP1 PUSH2 0x33BB JUMP JUMPDEST DUP1 ISZERO PUSH2 0x66F JUMPI DUP1 PUSH1 0x1F LT PUSH2 0x644 JUMPI PUSH2 0x100 DUP1 DUP4 SLOAD DIV MUL DUP4 MSTORE SWAP2 PUSH1 0x20 ADD SWAP2 PUSH2 0x66F JUMP JUMPDEST DUP3 ADD SWAP2 SWAP1 PUSH1 0x0 MSTORE PUSH1 0x20 PUSH1 0x0 KECCAK256 SWAP1 JUMPDEST DUP2 SLOAD DUP2 MSTORE SWAP1 PUSH1 0x1 ADD SWAP1 PUSH1 0x20 ADD DUP1 DUP4 GT PUSH2 0x652 JUMPI DUP3 SWAP1 SUB PUSH1 0x1F AND DUP3 ADD SWAP2 JUMPDEST POP POP POP POP POP SWAP1 POP DUP8 JUMP JUMPDEST PUSH1 0x5 DUP2 DUP2 SLOAD DUP2 LT PUSH2 0x689 JUMPI PUSH1 0x0 DUP1 REVERT JUMPDEST SWAP1 PUSH1 0x0 MSTORE PUSH1 0x20 PUSH1 0x0 KECCAK256 SWAP1 PUSH1 0x9 MUL ADD PUSH1 0x0 SWAP2 POP SWAP1 POP DUP1 PUSH1 0x0 ADD DUP1 SLOAD PUSH2 0x6AC SWAP1 PUSH2 0x33BB JUMP JUMPDEST DUP1 PUSH1 0x1F ADD PUSH1 0x20 DUP1 SWAP2 DIV MUL PUSH1 0x20 ADD PUSH1 0x40 MLOAD SWAP1 DUP2 ADD PUSH1 0x40 MSTORE DUP1 SWAP3 SWAP2 SWAP1 DUP2 DUP2 MSTORE PUSH1 0x20 ADD DUP3 DUP1 SLOAD PUSH2 0x6D8 SWAP1 PUSH2 0x33BB JUMP JUMPDEST DUP1 ISZERO PUSH2 0x725 JUMPI DUP1 PUSH1 0x1F LT PUSH2 0x6FA JUMPI PUSH2 0x100 DUP1 DUP4 SLOAD DIV MUL DUP4 MSTORE SWAP2 PUSH1 0x20 ADD SWAP2 PUSH2 0x725 JUMP JUMPDEST DUP3 ADD SWAP2 SWAP1 PUSH1 0x0 MSTORE PUSH1 0x20 PUSH1 0x0 KECCAK256 SWAP1 JUMPDEST DUP2 SLOAD DUP2 MSTORE SWAP1 PUSH1 0x1 ADD SWAP1 PUSH1 0x20 ADD DUP1 DUP4 GT PUSH2 0x708 JUMPI DUP3 SWAP1 SUB PUSH1 0x1F AND DUP3 ADD SWAP2 JUMPDEST POP POP POP POP POP SWAP1 DUP1 PUSH1 0x1 ADD SLOAD SWAP1 DUP1 PUSH1 0x2 ADD DUP1 SLOAD PUSH2 0x740 SWAP1 PUSH2 0x33BB JUMP JUMPDEST DUP1 PUSH1 0x1F ADD PUSH1 0x20 DUP1 SWAP2 DIV MUL PUSH1 0x20 ADD PUSH1 0x40 MLOAD SWAP1 DUP2 ADD PUSH1 0x40 MSTORE DUP1 SWAP3 SWAP2 SWAP1 DUP2 DUP2 MSTORE PUSH1 0x20 ADD DUP3 DUP1 SLOAD PUSH2 0x76C SWAP1 PUSH2 0x33BB JUMP JUMPDEST DUP1 ISZERO PUSH2 0x7B9 JUMPI DUP1 PUSH1 0x1F LT PUSH2 0x78E JUMPI PUSH2 0x100 DUP1 DUP4 SLOAD DIV MUL DUP4 MSTORE SWAP2 PUSH1 0x20 ADD SWAP2 PUSH2 0x7B9 JUMP JUMPDEST DUP3 ADD SWAP2 SWAP1 PUSH1 0x0 MSTORE PUSH1 0x20 PUSH1 0x0 KECCAK256 SWAP1 JUMPDEST DUP2 SLOAD DUP2 MSTORE SWAP1 PUSH1 0x1 ADD SWAP1 PUSH1 0x20 ADD DUP1 DUP4 GT PUSH2 0x79C JUMPI DUP3 SWAP1 SUB PUSH1 0x1F AND DUP3 ADD SWAP2 JUMPDEST POP POP POP POP POP SWAP1 DUP1 PUSH1 0x5 ADD DUP1 SLOAD PUSH2 0x7CE SWAP1 PUSH2 0x33BB JUMP JUMPDEST DUP1 PUSH1 0x1F ADD PUSH1 0x20 DUP1 SWAP2 DIV MUL PUSH1 0x20 ADD PUSH1 0x40 MLOAD SWAP1 DUP2 ADD PUSH1 0x40 MSTORE DUP1 SWAP3 SWAP2 SWAP1 DUP2 DUP2 MSTORE PUSH1 0x20 ADD DUP3 DUP1 SLOAD PUSH2 0x7FA SWAP1 PUSH2 0x33BB JUMP JUMPDEST DUP1 ISZERO PUSH2 0x847 JUMPI DUP1 PUSH1 0x1F LT PUSH2 0x81C JUMPI PUSH2 0x100 DUP1 DUP4 SLOAD DIV MUL DUP4 MSTORE SWAP2 PUSH1 0x20 ADD SWAP2 PUSH2 0x847 JUMP JUMPDEST DUP3 ADD SWAP2 SWAP1 PUSH1 0x0 MSTORE PUSH1 0x20 PUSH1 0x0 KECCAK256 SWAP1 JUMPDEST DUP2 SLOAD DUP2 MSTORE SWAP1 PUSH1 0x1 ADD SWAP1 PUSH1 0x20 ADD DUP1 DUP4 GT PUSH2 0x82A JUMPI DUP3 SWAP1 SUB PUSH1 0x1F AND DUP3 ADD SWAP2 JUMPDEST POP POP POP POP POP SWAP1 DUP1 PUSH1 0x6 ADD DUP1 SLOAD PUSH2 0x85C SWAP1 PUSH2 0x33BB JUMP JUMPDEST DUP1 PUSH1 0x1F ADD PUSH1 0x20 DUP1 SWAP2 DIV MUL PUSH1 0x20 ADD PUSH1 0x40 MLOAD SWAP1 DUP2 ADD PUSH1 0x40 MSTORE DUP1 SWAP3 SWAP2 SWAP1 DUP2 DUP2 MSTORE PUSH1 0x20 ADD DUP3 DUP1 SLOAD PUSH2 0x888 SWAP1 PUSH2 0x33BB JUMP JUMPDEST DUP1 ISZERO PUSH2 0x8D5 JUMPI DUP1 PUSH1 0x1F LT PUSH2 0x8AA JUMPI PUSH2 0x100 DUP1 DUP4 SLOAD DIV MUL DUP4 MSTORE SWAP2 PUSH1 0x20 ADD SWAP2 PUSH2 0x8D5 JUMP JUMPDEST DUP3 ADD SWAP2 SWAP1 PUSH1 0x0 MSTORE PUSH1 0x20 PUSH1 0x0 KECCAK256 SWAP1 JUMPDEST DUP2 SLOAD DUP2 MSTORE SWAP1 PUSH1 0x1 ADD SWAP1 PUSH1 0x20 ADD DUP1 DUP4 GT PUSH2 0x8B8 JUMPI DUP3 SWAP1 SUB PUSH1 0x1F AND DUP3 ADD SWAP2 JUMPDEST POP POP POP POP POP SWAP1 DUP1 PUSH1 0x7 ADD DUP1 SLOAD PUSH2 0x8EA SWAP1 PUSH2 0x33BB JUMP JUMPDEST DUP1 PUSH1 0x1F ADD PUSH1 0x20 DUP1 SWAP2 DIV MUL PUSH1 0x20 ADD PUSH1 0x40 MLOAD SWAP1 DUP2 ADD PUSH1 0x40 MSTORE DUP1 SWAP3 SWAP2 SWAP1 DUP2 DUP2 MSTORE PUSH1 0x20 ADD DUP3 DUP1 SLOAD PUSH2 0x916 SWAP1 PUSH2 0x33BB JUMP JUMPDEST DUP1 ISZERO PUSH2 0x963 JUMPI DUP1 PUSH1 0x1F LT PUSH2 0x938 JUMPI PUSH2 0x100 DUP1 DUP4 SLOAD DIV MUL DUP4 MSTORE SWAP2 PUSH1 0x20 ADD SWAP2 PUSH2 0x963 JUMP JUMPDEST DUP3 ADD SWAP2 SWAP1 PUSH1 0x0 MSTORE PUSH1 0x20 PUSH1 0x0 KECCAK256 SWAP1 JUMPDEST DUP2 SLOAD DUP2 MSTORE SWAP1 PUSH1 0x1 ADD SWAP1 PUSH1 0x20 ADD DUP1 DUP4 GT PUSH2 0x946 JUMPI DUP3 SWAP1 SUB PUSH1 0x1F AND DUP3 ADD SWAP2 JUMPDEST POP POP POP POP POP SWAP1 DUP1 PUSH1 0x8 ADD DUP1 SLOAD PUSH2 0x978 SWAP1 PUSH2 0x33BB JUMP JUMPDEST DUP1 PUSH1 0x1F ADD PUSH1 0x20 DUP1 SWAP2 DIV MUL PUSH1 0x20 ADD PUSH1 0x40 MLOAD SWAP1 DUP2 ADD PUSH1 0x40 MSTORE DUP1 SWAP3 SWAP2 SWAP1 DUP2 DUP2 MSTORE PUSH1 0x20 ADD DUP3 DUP1 SLOAD PUSH2 0x9A4 SWAP1 PUSH2 0x33BB JUMP JUMPDEST DUP1 ISZERO PUSH2 0x9F1 JUMPI DUP1 PUSH1 0x1F LT PUSH2 0x9C6 JUMPI PUSH2 0x100 DUP1 DUP4 SLOAD DIV MUL DUP4 MSTORE SWAP2 PUSH1 0x20 ADD SWAP2 PUSH2 0x9F1 JUMP JUMPDEST DUP3 ADD SWAP2 SWAP1 PUSH1 0x0 MSTORE PUSH1 0x20 PUSH1 0x0 KECCAK256 SWAP1 JUMPDEST DUP2 SLOAD DUP2 MSTORE SWAP1 PUSH1 0x1 ADD SWAP1 PUSH1 0x20 ADD DUP1 DUP4 GT PUSH2 0x9D4 JUMPI DUP3 SWAP1 SUB PUSH1 0x1F AND DUP3 ADD SWAP2 JUMPDEST POP POP POP POP POP SWAP1 POP DUP8 JUMP JUMPDEST PUSH1 0x4 PUSH1 0x20 MSTORE DUP3 PUSH1 0x0 MSTORE PUSH1 0x40 PUSH1 0x0 KECCAK256 PUSH1 0x20 MSTORE DUP2 PUSH1 0x0 MSTORE PUSH1 0x40 PUSH1 0x0 KECCAK256 DUP2 DUP2 SLOAD DUP2 LT PUSH2 0xA23 JUMPI PUSH1 0x0 DUP1 REVERT JUMPDEST SWAP1 PUSH1 0x0 MSTORE PUSH1 0x20 PUSH1 0x0 KECCAK256 SWAP1 PUSH1 0x3 MUL ADD PUSH1 0x0 SWAP3 POP SWAP3 POP POP POP DUP1 PUSH1 0x0 ADD PUSH1 0x0 SWAP1 SLOAD SWAP1 PUSH2 0x100 EXP SWAP1 DIV PUSH20 0xFFFFFFFFFFFFFFFFFFFFFFFFFFFFFFFFFFFFFFFF AND SWAP1 DUP1 PUSH1 0x1 ADD SLOAD SWAP1 DUP1 PUSH1 0x2 ADD SLOAD SWAP1 POP DUP4 JUMP JUMPDEST PUSH1 0x60 PUSH1 0x5 DUP1 SLOAD DUP1 PUSH1 0x20 MUL PUSH1 0x20 ADD PUSH1 0x40 MLOAD SWAP1 DUP2 ADD PUSH1 0x40 MSTORE DUP1 SWAP3 SWAP2 SWAP1 DUP2 DUP2 MSTORE PUSH1 0x20 ADD PUSH1 0x0 SWAP1 JUMPDEST DUP3 DUP3 LT ISZERO PUSH2 0x1228 JUMPI DUP4 DUP3 SWAP1 PUSH1 0x0 MSTORE PUSH1 0x20 PUSH1 0x0 KECCAK256 SWAP1 PUSH1 0x9 MUL ADD PUSH1 0x40 MLOAD DUP1 PUSH2 0x120 ADD PUSH1 0x40 MSTORE SWAP1 DUP2 PUSH1 0x0 DUP3 ADD DUP1 SLOAD PUSH2 0xAC7 SWAP1 PUSH2 0x33BB JUMP JUMPDEST DUP1 PUSH1 0x1F ADD PUSH1 0x20 DUP1 SWAP2 DIV MUL PUSH1 0x20 ADD PUSH1 0x40 MLOAD SWAP1 DUP2 ADD PUSH1 0x40 MSTORE DUP1 SWAP3 SWAP2 SWAP1 DUP2 DUP2 MSTORE PUSH1 0x20 ADD DUP3 DUP1 SLOAD PUSH2 0xAF3 SWAP1 PUSH2 0x33BB JUMP JUMPDEST DUP1 ISZERO PUSH2 0xB40 JUMPI DUP1 PUSH1 0x1F LT PUSH2 0xB15 JUMPI PUSH2 0x100 DUP1 DUP4 SLOAD DIV MUL DUP4 MSTORE SWAP2 PUSH1 0x20 ADD SWAP2 PUSH2 0xB40 JUMP JUMPDEST DUP3 ADD SWAP2 SWAP1 PUSH1 0x0 MSTORE PUSH1 0x20 PUSH1 0x0 KECCAK256 SWAP1 JUMPDEST DUP2 SLOAD DUP2 MSTORE SWAP1 PUSH1 0x1 ADD SWAP1 PUSH1 0x20 ADD DUP1 DUP4 GT PUSH2 0xB23 JUMPI DUP3 SWAP1 SUB PUSH1 0x1F AND DUP3 ADD SWAP2 JUMPDEST POP POP POP POP POP DUP2 MSTORE PUSH1 0x20 ADD PUSH1 0x1 DUP3 ADD SLOAD DUP2 MSTORE PUSH1 0x20 ADD PUSH1 0x2 DUP3 ADD DUP1 SLOAD PUSH2 0xB63 SWAP1 PUSH2 0x33BB JUMP JUMPDEST DUP1 PUSH1 0x1F ADD PUSH1 0x20 DUP1 SWAP2 DIV MUL PUSH1 0x20 ADD PUSH1 0x40 MLOAD SWAP1 DUP2 ADD PUSH1 0x40 MSTORE DUP1 SWAP3 SWAP2 SWAP1 DUP2 DUP2 MSTORE PUSH1 0x20 ADD DUP3 DUP1 SLOAD PUSH2 0xB8F SWAP1 PUSH2 0x33BB JUMP JUMPDEST DUP1 ISZERO PUSH2 0xBDC JUMPI DUP1 PUSH1 0x1F LT PUSH2 0xBB1 JUMPI PUSH2 0x100 DUP1 DUP4 SLOAD DIV MUL DUP4 MSTORE SWAP2 PUSH1 0x20 ADD SWAP2 PUSH2 0xBDC JUMP JUMPDEST DUP3 ADD SWAP2 SWAP1 PUSH1 0x0 MSTORE PUSH1 0x20 PUSH1 0x0 KECCAK256 SWAP1 JUMPDEST DUP2 SLOAD DUP2 MSTORE SWAP1 PUSH1 0x1 ADD SWAP1 PUSH1 0x20 ADD DUP1 DUP4 GT PUSH2 0xBBF JUMPI DUP3 SWAP1 SUB PUSH1 0x1F AND DUP3 ADD SWAP2 JUMPDEST POP POP POP POP POP DUP2 MSTORE PUSH1 0x20 ADD PUSH1 0x3 DUP3 ADD DUP1 SLOAD DUP1 PUSH1 0x20 MUL PUSH1 0x20 ADD PUSH1 0x40 MLOAD SWAP1 DUP2 ADD PUSH1 0x40 MSTORE DUP1 SWAP3 SWAP2 SWAP1 DUP2 DUP2 MSTORE PUSH1 0x20 ADD PUSH1 0x0 SWAP1 JUMPDEST DUP3 DUP3 LT ISZERO PUSH2 0xEF0 JUMPI DUP4 DUP3 SWAP1 PUSH1 0x0 MSTORE PUSH1 0x20 PUSH1 0x0 KECCAK256 SWAP1 PUSH1 0xD MUL ADD PUSH1 0x40 MLOAD DUP1 PUSH2 0x1A0 ADD PUSH1 0x40 MSTORE SWAP1 DUP2 PUSH1 0x0 DUP3 ADD SLOAD DUP2 MSTORE PUSH1 0x20 ADD PUSH1 0x1 DUP3 ADD SLOAD DUP2 MSTORE PUSH1 0x20 ADD PUSH1 0x2 DUP3 ADD DUP1 SLOAD PUSH2 0xC52 SWAP1 PUSH2 0x33BB JUMP JUMPDEST DUP1 PUSH1 0x1F ADD PUSH1 0x20 DUP1 SWAP2 DIV MUL PUSH1 0x20 ADD PUSH1 0x40 MLOAD SWAP1 DUP2 ADD PUSH1 0x40 MSTORE DUP1 SWAP3 SWAP2 SWAP1 DUP2 DUP2 MSTORE PUSH1 0x20 ADD DUP3 DUP1 SLOAD PUSH2 0xC7E SWAP1 PUSH2 0x33BB JUMP JUMPDEST DUP1 ISZERO PUSH2 0xCCB JUMPI DUP1 PUSH1 0x1F LT PUSH2 0xCA0 JUMPI PUSH2 0x100 DUP1 DUP4 SLOAD DIV MUL DUP4 MSTORE SWAP2 PUSH1 0x20 ADD SWAP2 PUSH2 0xCCB JUMP JUMPDEST DUP3 ADD SWAP2 SWAP1 PUSH1 0x0 MSTORE PUSH1 0x20 PUSH1 0x0 KECCAK256 SWAP1 JUMPDEST DUP2 SLOAD DUP2 MSTORE SWAP1 PUSH1 0x1 ADD SWAP1 PUSH1 0x20 ADD DUP1 DUP4 GT PUSH2 0xCAE JUMPI DUP3 SWAP1 SUB PUSH1 0x1F AND DUP3 ADD SWAP2 JUMPDEST POP POP POP POP POP DUP2 MSTORE PUSH1 0x20 ADD PUSH1 0x3 DUP3 ADD DUP1 SLOAD PUSH2 0xCE4 SWAP1 PUSH2 0x33BB JUMP JUMPDEST DUP1 PUSH1 0x1F ADD PUSH1 0x20 DUP1 SWAP2 DIV MUL PUSH1 0x20 ADD PUSH1 0x40 MLOAD SWAP1 DUP2 ADD PUSH1 0x40 MSTORE DUP1 SWAP3 SWAP2 SWAP1 DUP2 DUP2 MSTORE PUSH1 0x20 ADD DUP3 DUP1 SLOAD PUSH2 0xD10 SWAP1 PUSH2 0x33BB JUMP JUMPDEST DUP1 ISZERO PUSH2 0xD5D JUMPI DUP1 PUSH1 0x1F LT PUSH2 0xD32 JUMPI PUSH2 0x100 DUP1 DUP4 SLOAD DIV MUL DUP4 MSTORE SWAP2 PUSH1 0x20 ADD SWAP2 PUSH2 0xD5D JUMP JUMPDEST DUP3 ADD SWAP2 SWAP1 PUSH1 0x0 MSTORE PUSH1 0x20 PUSH1 0x0 KECCAK256 SWAP1 JUMPDEST DUP2 SLOAD DUP2 MSTORE SWAP1 PUSH1 0x1 ADD SWAP1 PUSH1 0x20 ADD DUP1 DUP4 GT PUSH2 0xD40 JUMPI DUP3 SWAP1 SUB PUSH1 0x1F AND DUP3 ADD SWAP2 JUMPDEST POP POP POP POP POP DUP2 MSTORE PUSH1 0x20 ADD PUSH1 0x4 DUP3 ADD SLOAD DUP2 MSTORE PUSH1 0x20 ADD PUSH1 0x5 DUP3 ADD SLOAD DUP2 MSTORE PUSH1 0x20 ADD PUSH1 0x6 DUP3 ADD DUP1 SLOAD PUSH2 0xD8A SWAP1 PUSH2 0x33BB JUMP JUMPDEST DUP1 PUSH1 0x1F ADD PUSH1 0x20 DUP1 SWAP2 DIV MUL PUSH1 0x20 ADD PUSH1 0x40 MLOAD SWAP1 DUP2 ADD PUSH1 0x40 MSTORE DUP1 SWAP3 SWAP2 SWAP1 DUP2 DUP2 MSTORE PUSH1 0x20 ADD DUP3 DUP1 SLOAD PUSH2 0xDB6 SWAP1 PUSH2 0x33BB JUMP JUMPDEST DUP1 ISZERO PUSH2 0xE03 JUMPI DUP1 PUSH1 0x1F LT PUSH2 0xDD8 JUMPI PUSH2 0x100 DUP1 DUP4 SLOAD DIV MUL DUP4 MSTORE SWAP2 PUSH1 0x20 ADD SWAP2 PUSH2 0xE03 JUMP JUMPDEST DUP3 ADD SWAP2 SWAP1 PUSH1 0x0 MSTORE PUSH1 0x20 PUSH1 0x0 KECCAK256 SWAP1 JUMPDEST DUP2 SLOAD DUP2 MSTORE SWAP1 PUSH1 0x1 ADD SWAP1 PUSH1 0x20 ADD DUP1 DUP4 GT PUSH2 0xDE6 JUMPI DUP3 SWAP1 SUB PUSH1 0x1F AND DUP3 ADD SWAP2 JUMPDEST POP POP POP POP POP DUP2 MSTORE PUSH1 0x20 ADD PUSH1 0x7 DUP3 ADD DUP1 SLOAD PUSH2 0xE1C SWAP1 PUSH2 0x33BB JUMP JUMPDEST DUP1 PUSH1 0x1F ADD PUSH1 0x20 DUP1 SWAP2 DIV MUL PUSH1 0x20 ADD PUSH1 0x40 MLOAD SWAP1 DUP2 ADD PUSH1 0x40 MSTORE DUP1 SWAP3 SWAP2 SWAP1 DUP2 DUP2 MSTORE PUSH1 0x20 ADD DUP3 DUP1 SLOAD PUSH2 0xE48 SWAP1 PUSH2 0x33BB JUMP JUMPDEST DUP1 ISZERO PUSH2 0xE95 JUMPI DUP1 PUSH1 0x1F LT PUSH2 0xE6A JUMPI PUSH2 0x100 DUP1 DUP4 SLOAD DIV MUL DUP4 MSTORE SWAP2 PUSH1 0x20 ADD SWAP2 PUSH2 0xE95 JUMP JUMPDEST DUP3 ADD SWAP2 SWAP1 PUSH1 0x0 MSTORE PUSH1 0x20 PUSH1 0x0 KECCAK256 SWAP1 JUMPDEST DUP2 SLOAD DUP2 MSTORE SWAP1 PUSH1 0x1 ADD SWAP1 PUSH1 0x20 ADD DUP1 DUP4 GT PUSH2 0xE78 JUMPI DUP3 SWAP1 SUB PUSH1 0x1F AND DUP3 ADD SWAP2 JUMPDEST POP POP POP POP POP DUP2 MSTORE PUSH1 0x20 ADD PUSH1 0x8 DUP3 ADD PUSH1 0x0 SWAP1 SLOAD SWAP1 PUSH2 0x100 EXP SWAP1 DIV PUSH1 0xFF AND ISZERO ISZERO ISZERO ISZERO DUP2 MSTORE PUSH1 0x20 ADD PUSH1 0x9 DUP3 ADD SLOAD DUP2 MSTORE PUSH1 0x20 ADD PUSH1 0xA DUP3 ADD SLOAD DUP2 MSTORE PUSH1 0x20 ADD PUSH1 0xB DUP3 ADD SLOAD DUP2 MSTORE PUSH1 0x20 ADD PUSH1 0xC DUP3 ADD SLOAD DUP2 MSTORE POP POP DUP2 MSTORE PUSH1 0x20 ADD SWAP1 PUSH1 0x1 ADD SWAP1 PUSH2 0xC0A JUMP JUMPDEST POP POP POP POP DUP2 MSTORE PUSH1 0x20 ADD PUSH1 0x4 DUP3 ADD DUP1 SLOAD DUP1 PUSH1 0x20 MUL PUSH1 0x20 ADD PUSH1 0x40 MLOAD SWAP1 DUP2 ADD PUSH1 0x40 MSTORE DUP1 SWAP3 SWAP2 SWAP1 DUP2 DUP2 MSTORE PUSH1 0x20 ADD PUSH1 0x0 SWAP1 JUMPDEST DUP3 DUP3 LT ISZERO PUSH2 0xFC9 JUMPI DUP4 DUP3 SWAP1 PUSH1 0x0 MSTORE PUSH1 0x20 PUSH1 0x0 KECCAK256 ADD DUP1 SLOAD PUSH2 0xF3C SWAP1 PUSH2 0x33BB JUMP JUMPDEST DUP1 PUSH1 0x1F ADD PUSH1 0x20 DUP1 SWAP2 DIV MUL PUSH1 0x20 ADD PUSH1 0x40 MLOAD SWAP1 DUP2 ADD PUSH1 0x40 MSTORE DUP1 SWAP3 SWAP2 SWAP1 DUP2 DUP2 MSTORE PUSH1 0x20 ADD DUP3 DUP1 SLOAD PUSH2 0xF68 SWAP1 PUSH2 0x33BB JUMP JUMPDEST DUP1 ISZERO PUSH2 0xFB5 JUMPI DUP1 PUSH1 0x1F LT PUSH2 0xF8A JUMPI PUSH2 0x100 DUP1 DUP4 SLOAD DIV MUL DUP4 MSTORE SWAP2 PUSH1 0x20 ADD SWAP2 PUSH2 0xFB5 JUMP JUMPDEST DUP3 ADD SWAP2 SWAP1 PUSH1 0x0 MSTORE PUSH1 0x20 PUSH1 0x0 KECCAK256 SWAP1 JUMPDEST DUP2 SLOAD DUP2 MSTORE SWAP1 PUSH1 0x1 ADD SWAP1 PUSH1 0x20 ADD DUP1 DUP4 GT PUSH2 0xF98 JUMPI DUP3 SWAP1 SUB PUSH1 0x1F AND DUP3 ADD SWAP2 JUMPDEST POP POP POP POP POP DUP2 MSTORE PUSH1 0x20 ADD SWAP1 PUSH1 0x1 ADD SWAP1 PUSH2 0xF1D JUMP JUMPDEST POP POP POP POP DUP2 MSTORE PUSH1 0x20 ADD PUSH1 0x5 DUP3 ADD DUP1 SLOAD PUSH2 0xFE1 SWAP1 PUSH2 0x33BB JUMP JUMPDEST DUP1 PUSH1 0x1F ADD PUSH1 0x20 DUP1 SWAP2 DIV MUL PUSH1 0x20 ADD PUSH1 0x40 MLOAD SWAP1 DUP2 ADD PUSH1 0x40 MSTORE DUP1 SWAP3 SWAP2 SWAP1 DUP2 DUP2 MSTORE PUSH1 0x20 ADD DUP3 DUP1 SLOAD PUSH2 0x100D SWAP1 PUSH2 0x33BB JUMP JUMPDEST DUP1 ISZERO PUSH2 0x105A JUMPI DUP1 PUSH1 0x1F LT PUSH2 0x102F JUMPI PUSH2 0x100 DUP1 DUP4 SLOAD DIV MUL DUP4 MSTORE SWAP2 PUSH1 0x20 ADD SWAP2 PUSH2 0x105A JUMP JUMPDEST DUP3 ADD SWAP2 SWAP1 PUSH1 0x0 MSTORE PUSH1 0x20 PUSH1 0x0 KECCAK256 SWAP1 JUMPDEST DUP2 SLOAD DUP2 MSTORE SWAP1 PUSH1 0x1 ADD SWAP1 PUSH1 0x20 ADD DUP1 DUP4 GT PUSH2 0x103D JUMPI DUP3 SWAP1 SUB PUSH1 0x1F AND DUP3 ADD SWAP2 JUMPDEST POP POP POP POP POP DUP2 MSTORE PUSH1 0x20 ADD PUSH1 0x6 DUP3 ADD DUP1 SLOAD PUSH2 0x1073 SWAP1 PUSH2 0x33BB JUMP JUMPDEST DUP1 PUSH1 0x1F ADD PUSH1 0x20 DUP1 SWAP2 DIV MUL PUSH1 0x20 ADD PUSH1 0x40 MLOAD SWAP1 DUP2 ADD PUSH1 0x40 MSTORE DUP1 SWAP3 SWAP2 SWAP1 DUP2 DUP2 MSTORE PUSH1 0x20 ADD DUP3 DUP1 SLOAD PUSH2 0x109F SWAP1 PUSH2 0x33BB JUMP JUMPDEST DUP1 ISZERO PUSH2 0x10EC JUMPI DUP1 PUSH1 0x1F LT PUSH2 0x10C1 JUMPI PUSH2 0x100 DUP1 DUP4 SLOAD DIV MUL DUP4 MSTORE SWAP2 PUSH1 0x20 ADD SWAP2 PUSH2 0x10EC JUMP JUMPDEST DUP3 ADD SWAP2 SWAP1 PUSH1 0x0 MSTORE PUSH1 0x20 PUSH1 0x0 KECCAK256 SWAP1 JUMPDEST DUP2 SLOAD DUP2 MSTORE SWAP1 PUSH1 0x1 ADD SWAP1 PUSH1 0x20 ADD DUP1 DUP4 GT PUSH2 0x10CF JUMPI DUP3 SWAP1 SUB PUSH1 0x1F AND DUP3 ADD SWAP2 JUMPDEST POP POP POP POP POP DUP2 MSTORE PUSH1 0x20 ADD PUSH1 0x7 DUP3 ADD DUP1 SLOAD PUSH2 0x1105 SWAP1 PUSH2 0x33BB JUMP JUMPDEST DUP1 PUSH1 0x1F ADD PUSH1 0x20 DUP1 SWAP2 DIV MUL PUSH1 0x20 ADD PUSH1 0x40 MLOAD SWAP1 DUP2 ADD PUSH1 0x40 MSTORE DUP1 SWAP3 SWAP2 SWAP1 DUP2 DUP2 MSTORE PUSH1 0x20 ADD DUP3 DUP1 SLOAD PUSH2 0x1131 SWAP1 PUSH2 0x33BB JUMP JUMPDEST DUP1 ISZERO PUSH2 0x117E JUMPI DUP1 PUSH1 0x1F LT PUSH2 0x1153 JUMPI PUSH2 0x100 DUP1 DUP4 SLOAD DIV MUL DUP4 MSTORE SWAP2 PUSH1 0x20 ADD SWAP2 PUSH2 0x117E JUMP JUMPDEST DUP3 ADD SWAP2 SWAP1 PUSH1 0x0 MSTORE PUSH1 0x20 PUSH1 0x0 KECCAK256 SWAP1 JUMPDEST DUP2 SLOAD DUP2 MSTORE SWAP1 PUSH1 0x1 ADD SWAP1 PUSH1 0x20 ADD DUP1 DUP4 GT PUSH2 0x1161 JUMPI DUP3 SWAP1 SUB PUSH1 0x1F AND DUP3 ADD SWAP2 JUMPDEST POP POP POP POP POP DUP2 MSTORE PUSH1 0x20 ADD PUSH1 0x8 DUP3 ADD DUP1 SLOAD PUSH2 0x1197 SWAP1 PUSH2 0x33BB JUMP JUMPDEST DUP1 PUSH1 0x1F ADD PUSH1 0x20 DUP1 SWAP2 DIV MUL PUSH1 0x20 ADD PUSH1 0x40 MLOAD SWAP1 DUP2 ADD PUSH1 0x40 MSTORE DUP1 SWAP3 SWAP2 SWAP1 DUP2 DUP2 MSTORE PUSH1 0x20 ADD DUP3 DUP1 SLOAD PUSH2 0x11C3 SWAP1 PUSH2 0x33BB JUMP JUMPDEST DUP1 ISZERO PUSH2 0x1210 JUMPI DUP1 PUSH1 0x1F LT PUSH2 0x11E5 JUMPI PUSH2 0x100 DUP1 DUP4 SLOAD DIV MUL DUP4 MSTORE SWAP2 PUSH1 0x20 ADD SWAP2 PUSH2 0x1210 JUMP JUMPDEST DUP3 ADD SWAP2 SWAP1 PUSH1 0x0 MSTORE PUSH1 0x20 PUSH1 0x0 KECCAK256 SWAP1 JUMPDEST DUP2 SLOAD DUP2 MSTORE SWAP1 PUSH1 0x1 ADD SWAP1 PUSH1 0x20 ADD DUP1 DUP4 GT PUSH2 0x11F3 JUMPI DUP3 SWAP1 SUB PUSH1 0x1F AND DUP3 ADD SWAP2 JUMPDEST POP POP POP POP POP DUP2 MSTORE POP POP DUP2 MSTORE PUSH1 0x20 ADD SWAP1 PUSH1 0x1 ADD SWAP1 PUSH2 0xA93 JUMP JUMPDEST POP POP POP POP SWAP1 POP SWAP1 JUMP JUMPDEST PUSH1 0x1 PUSH1 0x0 SWAP1 SLOAD SWAP1 PUSH2 0x100 EXP SWAP1 DIV PUSH20 0xFFFFFFFFFFFFFFFFFFFFFFFFFFFFFFFFFFFFFFFF AND PUSH20 0xFFFFFFFFFFFFFFFFFFFFFFFFFFFFFFFFFFFFFFFF AND CALLER PUSH20 0xFFFFFFFFFFFFFFFFFFFFFFFFFFFFFFFFFFFFFFFF AND EQ PUSH2 0x12C1 JUMPI PUSH1 0x40 MLOAD PUSH32 0x8C379A000000000000000000000000000000000000000000000000000000000 DUP2 MSTORE PUSH1 0x4 ADD PUSH2 0x12B8 SWAP1 PUSH2 0x3438 JUMP JUMPDEST PUSH1 0x40 MLOAD DUP1 SWAP2 SUB SWAP1 REVERT JUMPDEST PUSH1 0x0 PUSH1 0x2 PUSH1 0x0 DUP10 DUP2 MSTORE PUSH1 0x20 ADD SWAP1 DUP2 MSTORE PUSH1 0x20 ADD PUSH1 0x0 KECCAK256 SWAP1 POP PUSH1 0x0 PUSH1 0x40 MLOAD DUP1 PUSH2 0x1A0 ADD PUSH1 0x40 MSTORE DUP1 DUP11 DUP2 MSTORE PUSH1 0x20 ADD DUP10 DUP2 MSTORE PUSH1 0x20 ADD DUP9 DUP2 MSTORE PUSH1 0x20 ADD DUP8 DUP2 MSTORE PUSH1 0x20 ADD DUP7 DUP2 MSTORE PUSH1 0x20 ADD DUP6 DUP2 MSTORE PUSH1 0x20 ADD DUP5 DUP2 MSTORE PUSH1 0x20 ADD PUSH1 0x40 MLOAD DUP1 PUSH1 0x40 ADD PUSH1 0x40 MSTORE DUP1 PUSH1 0x7 DUP2 MSTORE PUSH1 0x20 ADD PUSH32 0x4F6E676F696E6700000000000000000000000000000000000000000000000000 DUP2 MSTORE POP DUP2 MSTORE PUSH1 0x20 ADD PUSH1 0x0 ISZERO ISZERO DUP2 MSTORE PUSH1 0x20 ADD PUSH32 0xFFFFFFFFFFFFFFFFFFFFFFFFFFFFFFFFFFFFFFFFFFFFFFFFFFFFFFFFFFFFFFFE DUP2 MSTORE PUSH1 0x20 ADD PUSH1 0x0 DUP2 MSTORE PUSH1 0x20 ADD PUSH1 0x0 DUP2 MSTORE PUSH1 0x20 ADD PUSH1 0x0 DUP2 MSTORE POP SWAP1 POP DUP2 PUSH1 0x3 ADD DUP2 SWAP1 DUP1 PUSH1 0x1 DUP2 SLOAD ADD DUP1 DUP3 SSTORE DUP1 SWAP2 POP POP PUSH1 0x1 SWAP1 SUB SWAP1 PUSH1 0x0 MSTORE PUSH1 0x20 PUSH1 0x0 KECCAK256 SWAP1 PUSH1 0xD MUL ADD PUSH1 0x0 SWAP1 SWAP2 SWAP1 SWAP2 SWAP1 SWAP2 POP PUSH1 0x0 DUP3 ADD MLOAD DUP2 PUSH1 0x0 ADD SSTORE PUSH1 0x20 DUP3 ADD MLOAD DUP2 PUSH1 0x1 ADD SSTORE PUSH1 0x40 DUP3 ADD MLOAD DUP2 PUSH1 0x2 ADD SWAP1 DUP2 PUSH2 0x13E6 SWAP2 SWAP1 PUSH2 0x3604 JUMP JUMPDEST POP PUSH1 0x60 DUP3 ADD MLOAD DUP2 PUSH1 0x3 ADD SWAP1 DUP2 PUSH2 0x13FC SWAP2 SWAP1 PUSH2 0x3604 JUMP JUMPDEST POP PUSH1 0x80 DUP3 ADD MLOAD DUP2 PUSH1 0x4 ADD SSTORE PUSH1 0xA0 DUP3 ADD MLOAD DUP2 PUSH1 0x5 ADD SSTORE PUSH1 0xC0 DUP3 ADD MLOAD DUP2 PUSH1 0x6 ADD SWAP1 DUP2 PUSH2 0x1426 SWAP2 SWAP1 PUSH2 0x3604 JUMP JUMPDEST POP PUSH1 0xE0 DUP3 ADD MLOAD DUP2 PUSH1 0x7 ADD SWAP1 DUP2 PUSH2 0x143C SWAP2 SWAP1 PUSH2 0x3604 JUMP JUMPDEST POP PUSH2 0x100 DUP3 ADD MLOAD DUP2 PUSH1 0x8 ADD PUSH1 0x0 PUSH2 0x100 EXP DUP2 SLOAD DUP2 PUSH1 0xFF MUL NOT AND SWAP1 DUP4 ISZERO ISZERO MUL OR SWAP1 SSTORE POP PUSH2 0x120 DUP3 ADD MLOAD DUP2 PUSH1 0x9 ADD SSTORE PUSH2 0x140 DUP3 ADD MLOAD DUP2 PUSH1 0xA ADD SSTORE PUSH2 0x160 DUP3 ADD MLOAD DUP2 PUSH1 0xB ADD SSTORE PUSH2 0x180 DUP3 ADD MLOAD DUP2 PUSH1 0xC ADD SSTORE POP POP POP POP POP POP POP POP POP POP POP JUMP JUMPDEST PUSH1 0x0 DUP1 PUSH1 0x2 PUSH1 0x0 DUP6 DUP2 MSTORE PUSH1 0x20 ADD SWAP1 DUP2 MSTORE PUSH1 0x20 ADD PUSH1 0x0 KECCAK256 SWAP1 POP PUSH1 0x0 DUP2 PUSH1 0x3 ADD SWAP1 POP PUSH1 0x0 DUP2 PUSH1 0x0 DUP2 SLOAD DUP2 LT PUSH2 0x14CD JUMPI PUSH2 0x14CC PUSH2 0x36D6 JUMP JUMPDEST JUMPDEST SWAP1 PUSH1 0x0 MSTORE PUSH1 0x20 PUSH1 0x0 KECCAK256 SWAP1 PUSH1 0xD MUL ADD SWAP1 POP PUSH1 0x0 JUMPDEST DUP3 DUP1 SLOAD SWAP1 POP DUP2 LT ISZERO PUSH2 0x1548 JUMPI DUP6 DUP4 DUP3 DUP2 SLOAD DUP2 LT PUSH2 0x1500 JUMPI PUSH2 0x14FF PUSH2 0x36D6 JUMP JUMPDEST JUMPDEST SWAP1 PUSH1 0x0 MSTORE PUSH1 0x20 PUSH1 0x0 KECCAK256 SWAP1 PUSH1 0xD MUL ADD PUSH1 0x1 ADD SLOAD SUB PUSH2 0x153B JUMPI DUP3 DUP2 DUP2 SLOAD DUP2 LT PUSH2 0x152A JUMPI PUSH2 0x1529 PUSH2 0x36D6 JUMP JUMPDEST JUMPDEST SWAP1 PUSH1 0x0 MSTORE PUSH1 0x20 PUSH1 0x0 KECCAK256 SWAP1 PUSH1 0xD MUL ADD SWAP2 POP JUMPDEST DUP1 DUP1 PUSH1 0x1 ADD SWAP2 POP POP PUSH2 0x14E0 JUMP JUMPDEST POP DUP1 PUSH1 0xC ADD SLOAD SWAP4 POP POP POP POP SWAP3 SWAP2 POP POP JUMP JUMPDEST PUSH1 0x1 PUSH1 0x0 SWAP1 SLOAD SWAP1 PUSH2 0x100 EXP SWAP1 DIV PUSH20 0xFFFFFFFFFFFFFFFFFFFFFFFFFFFFFFFFFFFFFFFF AND PUSH20 0xFFFFFFFFFFFFFFFFFFFFFFFFFFFFFFFFFFFFFFFF AND CALLER PUSH20 0xFFFFFFFFFFFFFFFFFFFFFFFFFFFFFFFFFFFFFFFF AND SUB PUSH2 0x15E9 JUMPI PUSH1 0x40 MLOAD PUSH32 0x8C379A000000000000000000000000000000000000000000000000000000000 DUP2 MSTORE PUSH1 0x4 ADD PUSH2 0x15E0 SWAP1 PUSH2 0x3751 JUMP JUMPDEST PUSH1 0x40 MLOAD DUP1 SWAP2 SUB SWAP1 REVERT JUMPDEST PUSH7 0x2386F26FC10000 CALLVALUE LT ISZERO PUSH2 0x1633 JUMPI PUSH1 0x40 MLOAD PUSH32 0x8C379A000000000000000000000000000000000000000000000000000000000 DUP2 MSTORE PUSH1 0x4 ADD PUSH2 0x162A SWAP1 PUSH2 0x37BD JUMP JUMPDEST PUSH1 0x40 MLOAD DUP1 SWAP2 SUB SWAP1 REVERT JUMPDEST PUSH1 0x0 ISZERO ISZERO PUSH1 0x3 PUSH1 0x0 CALLER PUSH20 0xFFFFFFFFFFFFFFFFFFFFFFFFFFFFFFFFFFFFFFFF AND PUSH20 0xFFFFFFFFFFFFFFFFFFFFFFFFFFFFFFFFFFFFFFFF AND DUP2 MSTORE PUSH1 0x20 ADD SWAP1 DUP2 MSTORE PUSH1 0x20 ADD PUSH1 0x0 KECCAK256 DUP5 PUSH1 0x64 DUP2 LT PUSH2 0x1688 JUMPI PUSH2 0x1687 PUSH2 0x36D6 JUMP JUMPDEST JUMPDEST PUSH1 0x4 MUL ADD DUP4 PUSH1 0x64 DUP2 LT PUSH2 0x169E JUMPI PUSH2 0x169D PUSH2 0x36D6 JUMP JUMPDEST JUMPDEST PUSH1 0x20 SWAP2 DUP3 DUP3 DIV ADD SWAP2 SWAP1 MOD SWAP1 SLOAD SWAP1 PUSH2 0x100 EXP SWAP1 DIV PUSH1 0xFF AND ISZERO ISZERO EQ PUSH2 0x16F6 JUMPI PUSH1 0x40 MLOAD PUSH32 0x8C379A000000000000000000000000000000000000000000000000000000000 DUP2 MSTORE PUSH1 0x4 ADD PUSH2 0x16ED SWAP1 PUSH2 0x384F JUMP JUMPDEST PUSH1 0x40 MLOAD DUP1 SWAP2 SUB SWAP1 REVERT JUMPDEST PUSH1 0x0 PUSH1 0x2 PUSH1 0x0 DUP6 DUP2 MSTORE PUSH1 0x20 ADD SWAP1 DUP2 MSTORE PUSH1 0x20 ADD PUSH1 0x0 KECCAK256 SWAP1 POP PUSH1 0x0 DUP2 PUSH1 0x3 ADD SWAP1 POP PUSH1 0x0 DUP2 PUSH1 0x0 DUP2 SLOAD DUP2 LT PUSH2 0x172B JUMPI PUSH2 0x172A PUSH2 0x36D6 JUMP JUMPDEST JUMPDEST SWAP1 PUSH1 0x0 MSTORE PUSH1 0x20 PUSH1 0x0 KECCAK256 SWAP1 PUSH1 0xD MUL ADD SWAP1 POP PUSH1 0x0 JUMPDEST DUP3 DUP1 SLOAD SWAP1 POP DUP2 LT ISZERO PUSH2 0x17A6 JUMPI DUP6 DUP4 DUP3 DUP2 SLOAD DUP2 LT PUSH2 0x175E JUMPI PUSH2 0x175D PUSH2 0x36D6 JUMP JUMPDEST JUMPDEST SWAP1 PUSH1 0x0 MSTORE PUSH1 0x20 PUSH1 0x0 KECCAK256 SWAP1 PUSH1 0xD MUL ADD PUSH1 0x1 ADD SLOAD SUB PUSH2 0x1799 JUMPI DUP3 DUP2 DUP2 SLOAD DUP2 LT PUSH2 0x1788 JUMPI PUSH2 0x1787 PUSH2 0x36D6 JUMP JUMPDEST JUMPDEST SWAP1 PUSH1 0x0 MSTORE PUSH1 0x20 PUSH1 0x0 KECCAK256 SWAP1 PUSH1 0xD MUL ADD SWAP2 POP JUMPDEST DUP1 DUP1 PUSH1 0x1 ADD SWAP2 POP POP PUSH2 0x173E JUMP JUMPDEST POP DUP1 PUSH1 0x4 ADD SLOAD DUP5 SUB PUSH2 0x17ED JUMPI CALLVALUE DUP2 PUSH1 0xA ADD PUSH1 0x0 DUP3 DUP3 SLOAD PUSH2 0x17C6 SWAP2 SWAP1 PUSH2 0x389E JUMP JUMPDEST SWAP3 POP POP DUP2 SWAP1 SSTORE POP CALLVALUE DUP2 PUSH1 0xC ADD PUSH1 0x0 DUP3 DUP3 SLOAD PUSH2 0x17E1 SWAP2 SWAP1 PUSH2 0x389E JUMP JUMPDEST SWAP3 POP POP DUP2 SWAP1 SSTORE POP PUSH2 0x1830 JUMP JUMPDEST DUP1 PUSH1 0x5 ADD SLOAD DUP5 SUB PUSH2 0x182F JUMPI CALLVALUE DUP2 PUSH1 0xB ADD PUSH1 0x0 DUP3 DUP3 SLOAD PUSH2 0x180C SWAP2 SWAP1 PUSH2 0x389E JUMP JUMPDEST SWAP3 POP POP DUP2 SWAP1 SSTORE POP CALLVALUE DUP2 PUSH1 0xC ADD PUSH1 0x0 DUP3 DUP3 SLOAD PUSH2 0x1827 SWAP2 SWAP1 PUSH2 0x389E JUMP JUMPDEST SWAP3 POP POP DUP2 SWAP1 SSTORE POP JUMPDEST JUMPDEST PUSH1 0x1 PUSH1 0x3 PUSH1 0x0 CALLER PUSH20 0xFFFFFFFFFFFFFFFFFFFFFFFFFFFFFFFFFFFFFFFF AND PUSH20 0xFFFFFFFFFFFFFFFFFFFFFFFFFFFFFFFFFFFFFFFF AND DUP2 MSTORE PUSH1 0x20 ADD SWAP1 DUP2 MSTORE PUSH1 0x20 ADD PUSH1 0x0 KECCAK256 DUP8 PUSH1 0x64 DUP2 LT PUSH2 0x1883 JUMPI PUSH2 0x1882 PUSH2 0x36D6 JUMP JUMPDEST JUMPDEST PUSH1 0x4 MUL ADD DUP7 PUSH1 0x64 DUP2 LT PUSH2 0x1899 JUMPI PUSH2 0x1898 PUSH2 0x36D6 JUMP JUMPDEST JUMPDEST PUSH1 0x20 SWAP2 DUP3 DUP3 DIV ADD SWAP2 SWAP1 MOD PUSH2 0x100 EXP DUP2 SLOAD DUP2 PUSH1 0xFF MUL NOT AND SWAP1 DUP4 ISZERO ISZERO MUL OR SWAP1 SSTORE POP PUSH1 0x0 PUSH1 0x40 MLOAD DUP1 PUSH1 0x60 ADD PUSH1 0x40 MSTORE DUP1 CALLER PUSH20 0xFFFFFFFFFFFFFFFFFFFFFFFFFFFFFFFFFFFFFFFF AND DUP2 MSTORE PUSH1 0x20 ADD CALLVALUE DUP2 MSTORE PUSH1 0x20 ADD DUP7 DUP2 MSTORE POP SWAP1 POP PUSH1 0x4 PUSH1 0x0 DUP9 DUP2 MSTORE PUSH1 0x20 ADD SWAP1 DUP2 MSTORE PUSH1 0x20 ADD PUSH1 0x0 KECCAK256 PUSH1 0x0 DUP8 DUP2 MSTORE PUSH1 0x20 ADD SWAP1 DUP2 MSTORE PUSH1 0x20 ADD PUSH1 0x0 KECCAK256 DUP2 SWAP1 DUP1 PUSH1 0x1 DUP2 SLOAD ADD DUP1 DUP3 SSTORE DUP1 SWAP2 POP POP PUSH1 0x1 SWAP1 SUB SWAP1 PUSH1 0x0 MSTORE PUSH1 0x20 PUSH1 0x0 KECCAK256 SWAP1 PUSH1 0x3 MUL ADD PUSH1 0x0 SWAP1 SWAP2 SWAP1 SWAP2 SWAP1 SWAP2 POP PUSH1 0x0 DUP3 ADD MLOAD DUP2 PUSH1 0x0 ADD PUSH1 0x0 PUSH2 0x100 EXP DUP2 SLOAD DUP2 PUSH20 0xFFFFFFFFFFFFFFFFFFFFFFFFFFFFFFFFFFFFFFFF MUL NOT AND SWAP1 DUP4 PUSH20 0xFFFFFFFFFFFFFFFFFFFFFFFFFFFFFFFFFFFFFFFF AND MUL OR SWAP1 SSTORE POP PUSH1 0x20 DUP3 ADD MLOAD DUP2 PUSH1 0x1 ADD SSTORE PUSH1 0x40 DUP3 ADD MLOAD DUP2 PUSH1 0x2 ADD SSTORE POP POP POP POP POP POP POP POP POP JUMP JUMPDEST PUSH1 0x1 PUSH1 0x0 SWAP1 SLOAD SWAP1 PUSH2 0x100 EXP SWAP1 DIV PUSH20 0xFFFFFFFFFFFFFFFFFFFFFFFFFFFFFFFFFFFFFFFF AND PUSH20 0xFFFFFFFFFFFFFFFFFFFFFFFFFFFFFFFFFFFFFFFF AND CALLER PUSH20 0xFFFFFFFFFFFFFFFFFFFFFFFFFFFFFFFFFFFFFFFF AND EQ PUSH2 0x1A31 JUMPI PUSH1 0x40 MLOAD PUSH32 0x8C379A000000000000000000000000000000000000000000000000000000000 DUP2 MSTORE PUSH1 0x4 ADD PUSH2 0x1A28 SWAP1 PUSH2 0x3438 JUMP JUMPDEST PUSH1 0x40 MLOAD DUP1 SWAP2 SUB SWAP1 REVERT JUMPDEST PUSH1 0x0 DUP1 PUSH2 0x1A3E DUP6 DUP6 PUSH2 0x1497 JUMP JUMPDEST SWAP1 POP PUSH1 0x0 PUSH1 0x2 PUSH1 0x0 DUP8 DUP2 MSTORE PUSH1 0x20 ADD SWAP1 DUP2 MSTORE PUSH1 0x20 ADD PUSH1 0x0 KECCAK256 SWAP1 POP PUSH1 0x0 DUP2 PUSH1 0x3 ADD SWAP1 POP PUSH1 0x0 DUP2 PUSH1 0x0 DUP2 SLOAD DUP2 LT PUSH2 0x1A75 JUMPI PUSH2 0x1A74 PUSH2 0x36D6 JUMP JUMPDEST JUMPDEST SWAP1 PUSH1 0x0 MSTORE PUSH1 0x20 PUSH1 0x0 KECCAK256 SWAP1 PUSH1 0xD MUL ADD SWAP1 POP PUSH1 0x0 JUMPDEST DUP3 DUP1 SLOAD SWAP1 POP DUP2 LT ISZERO PUSH2 0x1AF0 JUMPI DUP8 DUP4 DUP3 DUP2 SLOAD DUP2 LT PUSH2 0x1AA8 JUMPI PUSH2 0x1AA7 PUSH2 0x36D6 JUMP JUMPDEST JUMPDEST SWAP1 PUSH1 0x0 MSTORE PUSH1 0x20 PUSH1 0x0 KECCAK256 SWAP1 PUSH1 0xD MUL ADD PUSH1 0x1 ADD SLOAD SUB PUSH2 0x1AE3 JUMPI DUP3 DUP2 DUP2 SLOAD DUP2 LT PUSH2 0x1AD2 JUMPI PUSH2 0x1AD1 PUSH2 0x36D6 JUMP JUMPDEST JUMPDEST SWAP1 PUSH1 0x0 MSTORE PUSH1 0x20 PUSH1 0x0 KECCAK256 SWAP1 PUSH1 0xD MUL ADD SWAP2 POP JUMPDEST DUP1 DUP1 PUSH1 0x1 ADD SWAP2 POP POP PUSH2 0x1A88 JUMP JUMPDEST POP PUSH1 0x1 DUP2 PUSH1 0x8 ADD PUSH1 0x0 PUSH2 0x100 EXP DUP2 SLOAD DUP2 PUSH1 0xFF MUL NOT AND SWAP1 DUP4 ISZERO ISZERO MUL OR SWAP1 SSTORE POP DUP6 DUP2 PUSH1 0x9 ADD DUP2 SWAP1 SSTORE POP PUSH1 0x0 DUP7 DUP3 PUSH1 0x4 ADD SLOAD SUB PUSH2 0x1B30 JUMPI DUP2 PUSH1 0xA ADD SLOAD SWAP1 POP PUSH2 0x1B44 JUMP JUMPDEST DUP7 DUP3 PUSH1 0x5 ADD SLOAD SUB PUSH2 0x1B43 JUMPI DUP2 PUSH1 0xB ADD SLOAD SWAP1 POP JUMPDEST JUMPDEST PUSH1 0x0 PUSH1 0x4 PUSH1 0x0 DUP12 DUP2 MSTORE PUSH1 0x20 ADD SWAP1 DUP2 MSTORE PUSH1 0x20 ADD PUSH1 0x0 KECCAK256 PUSH1 0x0 DUP11 DUP2 MSTORE PUSH1 0x20 ADD SWAP1 DUP2 MSTORE PUSH1 0x20 ADD PUSH1 0x0 KECCAK256 SWAP1 POP PUSH1 0x0 JUMPDEST DUP2 DUP1 SLOAD SWAP1 POP DUP2 LT ISZERO PUSH2 0x1D12 JUMPI PUSH1 0x0 DUP3 DUP3 DUP2 SLOAD DUP2 LT PUSH2 0x1B90 JUMPI PUSH2 0x1B8F PUSH2 0x36D6 JUMP JUMPDEST JUMPDEST SWAP1 PUSH1 0x0 MSTORE PUSH1 0x20 PUSH1 0x0 KECCAK256 SWAP1 PUSH1 0x3 MUL ADD SWAP1 POP DUP10 DUP2 PUSH1 0x2 ADD SLOAD SUB PUSH2 0x1D04 JUMPI PUSH1 0x0 PUSH8 0xDE0B6B3A7640000 DUP3 PUSH1 0x1 ADD SLOAD PUSH2 0x1BC5 SWAP2 SWAP1 PUSH2 0x38D2 JUMP JUMPDEST SWAP1 POP PUSH1 0x0 PUSH8 0xDE0B6B3A7640000 DUP11 PUSH2 0x1BDD SWAP2 SWAP1 PUSH2 0x38D2 JUMP JUMPDEST SWAP1 POP PUSH1 0x0 PUSH8 0xDE0B6B3A7640000 DUP8 PUSH2 0x1BF5 SWAP2 SWAP1 PUSH2 0x38D2 JUMP JUMPDEST SWAP1 POP PUSH1 0x0 DUP2 DUP4 DUP6 PUSH2 0x1C06 SWAP2 SWAP1 PUSH2 0x38D2 JUMP JUMPDEST PUSH2 0x1C10 SWAP2 SWAP1 PUSH2 0x3943 JUMP JUMPDEST SWAP1 POP PUSH8 0xDE0B6B3A7640000 DUP2 PUSH2 0x1C26 SWAP2 SWAP1 PUSH2 0x3943 JUMP JUMPDEST SWAP13 POP PUSH1 0x0 DUP6 PUSH1 0x0 ADD PUSH1 0x0 SWAP1 SLOAD SWAP1 PUSH2 0x100 EXP SWAP1 DIV PUSH20 0xFFFFFFFFFFFFFFFFFFFFFFFFFFFFFFFFFFFFFFFF AND SWAP1 POP PUSH1 0x0 DUP2 PUSH20 0xFFFFFFFFFFFFFFFFFFFFFFFFFFFFFFFFFFFFFFFF AND DUP16 PUSH1 0x40 MLOAD PUSH2 0x1C77 SWAP1 PUSH2 0x39A5 JUMP JUMPDEST PUSH1 0x0 PUSH1 0x40 MLOAD DUP1 DUP4 SUB DUP2 DUP6 DUP8 GAS CALL SWAP3 POP POP POP RETURNDATASIZE DUP1 PUSH1 0x0 DUP2 EQ PUSH2 0x1CB4 JUMPI PUSH1 0x40 MLOAD SWAP2 POP PUSH1 0x1F NOT PUSH1 0x3F RETURNDATASIZE ADD AND DUP3 ADD PUSH1 0x40 MSTORE RETURNDATASIZE DUP3 MSTORE RETURNDATASIZE PUSH1 0x0 PUSH1 0x20 DUP5 ADD RETURNDATACOPY PUSH2 0x1CB9 JUMP JUMPDEST PUSH1 0x60 SWAP2 POP JUMPDEST POP POP SWAP1 POP DUP1 PUSH2 0x1CFD JUMPI PUSH1 0x40 MLOAD PUSH32 0x8C379A000000000000000000000000000000000000000000000000000000000 DUP2 MSTORE PUSH1 0x4 ADD PUSH2 0x1CF4 SWAP1 PUSH2 0x3A06 JUMP JUMPDEST PUSH1 0x40 MLOAD DUP1 SWAP2 SUB SWAP1 REVERT JUMPDEST POP POP POP POP POP POP JUMPDEST POP DUP1 DUP1 PUSH1 0x1 ADD SWAP2 POP POP PUSH2 0x1B6F JUMP JUMPDEST POP POP POP POP POP POP POP POP POP POP POP JUMP JUMPDEST PUSH1 0x1 PUSH1 0x0 SWAP1 SLOAD SWAP1 PUSH2 0x100 EXP SWAP1 DIV PUSH20 0xFFFFFFFFFFFFFFFFFFFFFFFFFFFFFFFFFFFFFFFF AND PUSH20 0xFFFFFFFFFFFFFFFFFFFFFFFFFFFFFFFFFFFFFFFF AND CALLER PUSH20 0xFFFFFFFFFFFFFFFFFFFFFFFFFFFFFFFFFFFFFFFF AND EQ PUSH2 0x1DAF JUMPI PUSH1 0x40 MLOAD PUSH32 0x8C379A000000000000000000000000000000000000000000000000000000000 DUP2 MSTORE PUSH1 0x4 ADD PUSH2 0x1DA6 SWAP1 PUSH2 0x3438 JUMP JUMPDEST PUSH1 0x40 MLOAD DUP1 SWAP2 SUB SWAP1 REVERT JUMPDEST PUSH1 0x0 DUP1 PUSH1 0x0 DUP2 SLOAD DUP1 SWAP3 SWAP2 SWAP1 PUSH2 0x1DC3 SWAP1 PUSH2 0x3A26 JUMP JUMPDEST SWAP2 SWAP1 POP SSTORE SWAP1 POP PUSH1 0x0 PUSH1 0x2 PUSH1 0x0 DUP4 DUP2 MSTORE PUSH1 0x20 ADD SWAP1 DUP2 MSTORE PUSH1 0x20 ADD PUSH1 0x0 KECCAK256 SWAP1 POP DUP9 DUP2 PUSH1 0x0 ADD SWAP1 DUP2 PUSH2 0x1DF1 SWAP2 SWAP1 PUSH2 0x3604 JUMP JUMPDEST POP DUP2 DUP2 PUSH1 0x1 ADD DUP2 SWAP1 SSTORE POP DUP8 DUP2 PUSH1 0x2 ADD SWAP1 DUP2 PUSH2 0x1E0C SWAP2 SWAP1 PUSH2 0x3604 JUMP JUMPDEST POP DUP7 DUP2 PUSH1 0x4 ADD SWAP1 DUP1 MLOAD SWAP1 PUSH1 0x20 ADD SWAP1 PUSH2 0x1E25 SWAP3 SWAP2 SWAP1 PUSH2 0x22E4 JUMP JUMPDEST POP DUP6 DUP2 PUSH1 0x5 ADD SWAP1 DUP2 PUSH2 0x1E37 SWAP2 SWAP1 PUSH2 0x3604 JUMP JUMPDEST POP DUP5 DUP2 PUSH1 0x6 ADD SWAP1 DUP2 PUSH2 0x1E49 SWAP2 SWAP1 PUSH2 0x3604 JUMP JUMPDEST POP DUP4 DUP2 PUSH1 0x7 ADD SWAP1 DUP2 PUSH2 0x1E5B SWAP2 SWAP1 PUSH2 0x3604 JUMP JUMPDEST POP DUP3 DUP2 PUSH1 0x8 ADD SWAP1 DUP2 PUSH2 0x1E6D SWAP2 SWAP1 PUSH2 0x3604 JUMP JUMPDEST POP PUSH1 0x5 DUP2 SWAP1 DUP1 PUSH1 0x1 DUP2 SLOAD ADD DUP1 DUP3 SSTORE DUP1 SWAP2 POP POP PUSH1 0x1 SWAP1 SUB SWAP1 PUSH1 0x0 MSTORE PUSH1 0x20 PUSH1 0x0 KECCAK256 SWAP1 PUSH1 0x9 MUL ADD PUSH1 0x0 SWAP1 SWAP2 SWAP1 SWAP2 SWAP1 SWAP2 POP PUSH1 0x0 DUP3 ADD DUP2 PUSH1 0x0 ADD SWAP1 DUP2 PUSH2 0x1EAE SWAP2 SWAP1 PUSH2 0x3A84 JUMP JUMPDEST POP PUSH1 0x1 DUP3 ADD SLOAD DUP2 PUSH1 0x1 ADD SSTORE PUSH1 0x2 DUP3 ADD DUP2 PUSH1 0x2 ADD SWAP1 DUP2 PUSH2 0x1ECD SWAP2 SWAP1 PUSH2 0x3A84 JUMP JUMPDEST POP PUSH1 0x3 DUP3 ADD DUP2 PUSH1 0x3 ADD SWAP1 DUP1 SLOAD PUSH2 0x1EE4 SWAP3 SWAP2 SWAP1 PUSH2 0x233D JUMP JUMPDEST POP PUSH1 0x4 DUP3 ADD DUP2 PUSH1 0x4 ADD SWAP1 DUP1 SLOAD PUSH2 0x1EFB SWAP3 SWAP2 SWAP1 PUSH2 0x2466 JUMP JUMPDEST POP PUSH1 0x5 DUP3 ADD DUP2 PUSH1 0x5 ADD SWAP1 DUP2 PUSH2 0x1F10 SWAP2 SWAP1 PUSH2 0x3A84 JUMP JUMPDEST POP PUSH1 0x6 DUP3 ADD DUP2 PUSH1 0x6 ADD SWAP1 DUP2 PUSH2 0x1F25 SWAP2 SWAP1 PUSH2 0x3A84 JUMP JUMPDEST POP PUSH1 0x7 DUP3 ADD DUP2 PUSH1 0x7 ADD SWAP1 DUP2 PUSH2 0x1F3A SWAP2 SWAP1 PUSH2 0x3A84 JUMP JUMPDEST POP PUSH1 0x8 DUP3 ADD DUP2 PUSH1 0x8 ADD SWAP1 DUP2 PUSH2 0x1F4F SWAP2 SWAP1 PUSH2 0x3A84 JUMP JUMPDEST POP POP POP POP POP POP POP POP POP POP POP POP JUMP JUMPDEST PUSH1 0x3 PUSH1 0x20 MSTORE DUP3 PUSH1 0x0 MSTORE PUSH1 0x40 PUSH1 0x0 KECCAK256 DUP3 PUSH1 0x64 DUP2 LT PUSH2 0x1F79 JUMPI PUSH1 0x0 DUP1 REVERT JUMPDEST PUSH1 0x4 MUL ADD DUP2 PUSH1 0x64 DUP2 LT PUSH2 0x1F8B JUMPI PUSH1 0x0 DUP1 REVERT JUMPDEST PUSH1 0x20 SWAP2 DUP3 DUP3 DIV ADD SWAP2 SWAP1 MOD SWAP3 POP SWAP3 POP POP SWAP1 SLOAD SWAP1 PUSH2 0x100 EXP SWAP1 DIV PUSH1 0xFF AND DUP2 JUMP JUMPDEST PUSH1 0x0 SLOAD DUP2 JUMP JUMPDEST PUSH1 0x60 PUSH1 0x0 PUSH1 0x2 PUSH1 0x0 DUP5 DUP2 MSTORE PUSH1 0x20 ADD SWAP1 DUP2 MSTORE PUSH1 0x20 ADD PUSH1 0x0 KECCAK256 SWAP1 POP PUSH1 0x0 DUP2 PUSH1 0x3 ADD SWAP1 POP DUP1 DUP1 SLOAD DUP1 PUSH1 0x20 MUL PUSH1 0x20 ADD PUSH1 0x40 MLOAD SWAP1 DUP2 ADD PUSH1 0x40 MSTORE DUP1 SWAP3 SWAP2 SWAP1 DUP2 DUP2 MSTORE PUSH1 0x20 ADD PUSH1 0x0 SWAP1 JUMPDEST DUP3 DUP3 LT ISZERO PUSH2 0x22D7 JUMPI DUP4 DUP3 SWAP1 PUSH1 0x0 MSTORE PUSH1 0x20 PUSH1 0x0 KECCAK256 SWAP1 PUSH1 0xD MUL ADD PUSH1 0x40 MLOAD DUP1 PUSH2 0x1A0 ADD PUSH1 0x40 MSTORE SWAP1 DUP2 PUSH1 0x0 DUP3 ADD SLOAD DUP2 MSTORE PUSH1 0x20 ADD PUSH1 0x1 DUP3 ADD SLOAD DUP2 MSTORE PUSH1 0x20 ADD PUSH1 0x2 DUP3 ADD DUP1 SLOAD PUSH2 0x2039 SWAP1 PUSH2 0x33BB JUMP JUMPDEST DUP1 PUSH1 0x1F ADD PUSH1 0x20 DUP1 SWAP2 DIV MUL PUSH1 0x20 ADD PUSH1 0x40 MLOAD SWAP1 DUP2 ADD PUSH1 0x40 MSTORE DUP1 SWAP3 SWAP2 SWAP1 DUP2 DUP2 MSTORE PUSH1 0x20 ADD DUP3 DUP1 SLOAD PUSH2 0x2065 SWAP1 PUSH2 0x33BB JUMP JUMPDEST DUP1 ISZERO PUSH2 0x20B2 JUMPI DUP1 PUSH1 0x1F LT PUSH2 0x2087 JUMPI PUSH2 0x100 DUP1 DUP4 SLOAD DIV MUL DUP4 MSTORE SWAP2 PUSH1 0x20 ADD SWAP2 PUSH2 0x20B2 JUMP JUMPDEST DUP3 ADD SWAP2 SWAP1 PUSH1 0x0 MSTORE PUSH1 0x20 PUSH1 0x0 KECCAK256 SWAP1 JUMPDEST DUP2 SLOAD DUP2 MSTORE SWAP1 PUSH1 0x1 ADD SWAP1 PUSH1 0x20 ADD DUP1 DUP4 GT PUSH2 0x2095 JUMPI DUP3 SWAP1 SUB PUSH1 0x1F AND DUP3 ADD SWAP2 JUMPDEST POP POP POP POP POP DUP2 MSTORE PUSH1 0x20 ADD PUSH1 0x3 DUP3 ADD DUP1 SLOAD PUSH2 0x20CB SWAP1 PUSH2 0x33BB JUMP JUMPDEST DUP1 PUSH1 0x1F ADD PUSH1 0x20 DUP1 SWAP2 DIV MUL PUSH1 0x20 ADD PUSH1 0x40 MLOAD SWAP1 DUP2 ADD PUSH1 0x40 MSTORE DUP1 SWAP3 SWAP2 SWAP1 DUP2 DUP2 MSTORE PUSH1 0x20 ADD DUP3 DUP1 SLOAD PUSH2 0x20F7 SWAP1 PUSH2 0x33BB JUMP JUMPDEST DUP1 ISZERO PUSH2 0x2144 JUMPI DUP1 PUSH1 0x1F LT PUSH2 0x2119 JUMPI PUSH2 0x100 DUP1 DUP4 SLOAD DIV MUL DUP4 MSTORE SWAP2 PUSH1 0x20 ADD SWAP2 PUSH2 0x2144 JUMP JUMPDEST DUP3 ADD SWAP2 SWAP1 PUSH1 0x0 MSTORE PUSH1 0x20 PUSH1 0x0 KECCAK256 SWAP1 JUMPDEST DUP2 SLOAD DUP2 MSTORE SWAP1 PUSH1 0x1 ADD SWAP1 PUSH1 0x20 ADD DUP1 DUP4 GT PUSH2 0x2127 JUMPI DUP3 SWAP1 SUB PUSH1 0x1F AND DUP3 ADD SWAP2 JUMPDEST POP POP POP POP POP DUP2 MSTORE PUSH1 0x20 ADD PUSH1 0x4 DUP3 ADD SLOAD DUP2 MSTORE PUSH1 0x20 ADD PUSH1 0x5 DUP3 ADD SLOAD DUP2 MSTORE PUSH1 0x20 ADD PUSH1 0x6 DUP3 ADD DUP1 SLOAD PUSH2 0x2171 SWAP1 PUSH2 0x33BB JUMP JUMPDEST DUP1 PUSH1 0x1F ADD PUSH1 0x20 DUP1 SWAP2 DIV MUL PUSH1 0x20 ADD PUSH1 0x40 MLOAD SWAP1 DUP2 ADD PUSH1 0x40 MSTORE DUP1 SWAP3 SWAP2 SWAP1 DUP2 DUP2 MSTORE PUSH1 0x20 ADD DUP3 DUP1 SLOAD PUSH2 0x219D SWAP1 PUSH2 0x33BB JUMP JUMPDEST DUP1 ISZERO PUSH2 0x21EA JUMPI DUP1 PUSH1 0x1F LT PUSH2 0x21BF JUMPI PUSH2 0x100 DUP1 DUP4 SLOAD DIV MUL DUP4 MSTORE SWAP2 PUSH1 0x20 ADD SWAP2 PUSH2 0x21EA JUMP JUMPDEST DUP3 ADD SWAP2 SWAP1 PUSH1 0x0 MSTORE PUSH1 0x20 PUSH1 0x0 KECCAK256 SWAP1 JUMPDEST DUP2 SLOAD DUP2 MSTORE SWAP1 PUSH1 0x1 ADD SWAP1 PUSH1 0x20 ADD DUP1 DUP4 GT PUSH2 0x21CD JUMPI DUP3 SWAP1 SUB PUSH1 0x1F AND DUP3 ADD SWAP2 JUMPDEST POP POP POP POP POP DUP2 MSTORE PUSH1 0x20 ADD PUSH1 0x7 DUP3 ADD DUP1 SLOAD PUSH2 0x2203 SWAP1 PUSH2 0x33BB JUMP JUMPDEST DUP1 PUSH1 0x1F ADD PUSH1 0x20 DUP1 SWAP2 DIV MUL PUSH1 0x20 ADD PUSH1 0x40 MLOAD SWAP1 DUP2 ADD PUSH1 0x40 MSTORE DUP1 SWAP3 SWAP2 SWAP1 DUP2 DUP2 MSTORE PUSH1 0x20 ADD DUP3 DUP1 SLOAD PUSH2 0x222F SWAP1 PUSH2 0x33BB JUMP JUMPDEST DUP1 ISZERO PUSH2 0x227C JUMPI DUP1 PUSH1 0x1F LT PUSH2 0x2251 JUMPI PUSH2 0x100 DUP1 DUP4 SLOAD DIV MUL DUP4 MSTORE SWAP2 PUSH1 0x20 ADD SWAP2 PUSH2 0x227C JUMP JUMPDEST DUP3 ADD SWAP2 SWAP1 PUSH1 0x0 MSTORE PUSH1 0x20 PUSH1 0x0 KECCAK256 SWAP1 JUMPDEST DUP2 SLOAD DUP2 MSTORE SWAP1 PUSH1 0x1 ADD SWAP1 PUSH1 0x20 ADD DUP1 DUP4 GT PUSH2 0x225F JUMPI DUP3 SWAP1 SUB PUSH1 0x1F AND DUP3 ADD SWAP2 JUMPDEST POP POP POP POP POP DUP2 MSTORE PUSH1 0x20 ADD PUSH1 0x8 DUP3 ADD PUSH1 0x0 SWAP1 SLOAD SWAP1 PUSH2 0x100 EXP SWAP1 DIV PUSH1 0xFF AND ISZERO ISZERO ISZERO ISZERO DUP2 MSTORE PUSH1 0x20 ADD PUSH1 0x9 DUP3 ADD SLOAD DUP2 MSTORE PUSH1 0x20 ADD PUSH1 0xA DUP3 ADD SLOAD DUP2 MSTORE PUSH1 0x20 ADD PUSH1 0xB DUP3 ADD SLOAD DUP2 MSTORE PUSH1 0x20 ADD PUSH1 0xC DUP3 ADD SLOAD DUP2 MSTORE POP POP DUP2 MSTORE PUSH1 0x20 ADD SWAP1 PUSH1 0x1 ADD SWAP1 PUSH2 0x1FF1 JUMP JUMPDEST POP POP POP POP SWAP3 POP POP POP SWAP2 SWAP1 POP JUMP JUMPDEST DUP3 DUP1 SLOAD DUP3 DUP3 SSTORE SWAP1 PUSH1 0x0 MSTORE PUSH1 0x20 PUSH1 0x0 KECCAK256 SWAP1 DUP2 ADD SWAP3 DUP3 ISZERO PUSH2 0x232C JUMPI SWAP2 PUSH1 0x20 MUL DUP3 ADD JUMPDEST DUP3 DUP2 GT ISZERO PUSH2 0x232B JUMPI DUP3 MLOAD DUP3 SWAP1 DUP2 PUSH2 0x231B SWAP2 SWAP1 PUSH2 0x3604 JUMP JUMPDEST POP SWAP2 PUSH1 0x20 ADD SWAP2 SWAP1 PUSH1 0x1 ADD SWAP1 PUSH2 0x2304 JUMP JUMPDEST JUMPDEST POP SWAP1 POP PUSH2 0x2339 SWAP2 SWAP1 PUSH2 0x24C3 JUMP JUMPDEST POP SWAP1 JUMP JUMPDEST DUP3 DUP1 SLOAD DUP3 DUP3 SSTORE SWAP1 PUSH1 0x0 MSTORE PUSH1 0x20 PUSH1 0x0 KECCAK256 SWAP1 PUSH1 0xD MUL DUP2 ADD SWAP3 DUP3 ISZERO PUSH2 0x2455 JUMPI PUSH1 0x0 MSTORE PUSH1 0x20 PUSH1 0x0 KECCAK256 SWAP2 PUSH1 0xD MUL DUP3 ADD JUMPDEST DUP3 DUP2 GT ISZERO PUSH2 0x2454 JUMPI DUP3 DUP3 PUSH1 0x0 DUP3 ADD SLOAD DUP2 PUSH1 0x0 ADD SSTORE PUSH1 0x1 DUP3 ADD SLOAD DUP2 PUSH1 0x1 ADD SSTORE PUSH1 0x2 DUP3 ADD DUP2 PUSH1 0x2 ADD SWAP1 DUP2 PUSH2 0x239A SWAP2 SWAP1 PUSH2 0x3A84 JUMP JUMPDEST POP PUSH1 0x3 DUP3 ADD DUP2 PUSH1 0x3 ADD SWAP1 DUP2 PUSH2 0x23AF SWAP2 SWAP1 PUSH2 0x3A84 JUMP JUMPDEST POP PUSH1 0x4 DUP3 ADD SLOAD DUP2 PUSH1 0x4 ADD SSTORE PUSH1 0x5 DUP3 ADD SLOAD DUP2 PUSH1 0x5 ADD SSTORE PUSH1 0x6 DUP3 ADD DUP2 PUSH1 0x6 ADD SWAP1 DUP2 PUSH2 0x23D8 SWAP2 SWAP1 PUSH2 0x3A84 JUMP JUMPDEST POP PUSH1 0x7 DUP3 ADD DUP2 PUSH1 0x7 ADD SWAP1 DUP2 PUSH2 0x23ED SWAP2 SWAP1 PUSH2 0x3A84 JUMP JUMPDEST POP PUSH1 0x8 DUP3 ADD PUSH1 0x0 SWAP1 SLOAD SWAP1 PUSH2 0x100 EXP SWAP1 DIV PUSH1 0xFF AND DUP2 PUSH1 0x8 ADD PUSH1 0x0 PUSH2 0x100 EXP DUP2 SLOAD DUP2 PUSH1 0xFF MUL NOT AND SWAP1 DUP4 ISZERO ISZERO MUL OR SWAP1 SSTORE POP PUSH1 0x9 DUP3 ADD SLOAD DUP2 PUSH1 0x9 ADD SSTORE PUSH1 0xA DUP3 ADD SLOAD DUP2 PUSH1 0xA ADD SSTORE PUSH1 0xB DUP3 ADD SLOAD DUP2 PUSH1 0xB ADD SSTORE PUSH1 0xC DUP3 ADD SLOAD DUP2 PUSH1 0xC ADD SSTORE POP POP SWAP2 PUSH1 0xD ADD SWAP2 SWAP1 PUSH1 0xD ADD SWAP1 PUSH2 0x2368 JUMP JUMPDEST JUMPDEST POP SWAP1 POP PUSH2 0x2462 SWAP2 SWAP1 PUSH2 0x24E7 JUMP JUMPDEST POP SWAP1 JUMP JUMPDEST DUP3 DUP1 SLOAD DUP3 DUP3 SSTORE SWAP1 PUSH1 0x0 MSTORE PUSH1 0x20 PUSH1 0x0 KECCAK256 SWAP1 DUP2 ADD SWAP3 DUP3 ISZERO PUSH2 0x24B2 JUMPI PUSH1 0x0 MSTORE PUSH1 0x20 PUSH1 0x0 KECCAK256 SWAP2 DUP3 ADD JUMPDEST DUP3 DUP2 GT ISZERO PUSH2 0x24B1 JUMPI DUP3 DUP3 SWAP1 DUP2 PUSH2 0x24A1 SWAP2 SWAP1 PUSH2 0x3A84 JUMP JUMPDEST POP SWAP2 PUSH1 0x1 ADD SWAP2 SWAP1 PUSH1 0x1 ADD SWAP1 PUSH2 0x248B JUMP JUMPDEST JUMPDEST POP SWAP1 POP PUSH2 0x24BF SWAP2 SWAP1 PUSH2 0x24C3 JUMP JUMPDEST POP SWAP1 JUMP JUMPDEST JUMPDEST DUP1 DUP3 GT ISZERO PUSH2 0x24E3 JUMPI PUSH1 0x0 DUP2 DUP2 PUSH2 0x24DA SWAP2 SWAP1 PUSH2 0x2592 JUMP JUMPDEST POP PUSH1 0x1 ADD PUSH2 0x24C4 JUMP JUMPDEST POP SWAP1 JUMP JUMPDEST JUMPDEST DUP1 DUP3 GT ISZERO PUSH2 0x258E JUMPI PUSH1 0x0 DUP1 DUP3 ADD PUSH1 0x0 SWAP1 SSTORE PUSH1 0x1 DUP3 ADD PUSH1 0x0 SWAP1 SSTORE PUSH1 0x2 DUP3 ADD PUSH1 0x0 PUSH2 0x2511 SWAP2 SWAP1 PUSH2 0x2592 JUMP JUMPDEST PUSH1 0x3 DUP3 ADD PUSH1 0x0 PUSH2 0x2521 SWAP2 SWAP1 PUSH2 0x2592 JUMP JUMPDEST PUSH1 0x4 DUP3 ADD PUSH1 0x0 SWAP1 SSTORE PUSH1 0x5 DUP3 ADD PUSH1 0x0 SWAP1 SSTORE PUSH1 0x6 DUP3 ADD PUSH1 0x0 PUSH2 0x2541 SWAP2 SWAP1 PUSH2 0x2592 JUMP JUMPDEST PUSH1 0x7 DUP3 ADD PUSH1 0x0 PUSH2 0x2551 SWAP2 SWAP1 PUSH2 0x2592 JUMP JUMPDEST PUSH1 0x8 DUP3 ADD PUSH1 0x0 PUSH2 0x100 EXP DUP2 SLOAD SWAP1 PUSH1 0xFF MUL NOT AND SWAP1 SSTORE PUSH1 0x9 DUP3 ADD PUSH1 0x0 SWAP1 SSTORE PUSH1 0xA DUP3 ADD PUSH1 0x0 SWAP1 SSTORE PUSH1 0xB DUP3 ADD PUSH1 0x0 SWAP1 SSTORE PUSH1 0xC DUP3 ADD PUSH1 0x0 SWAP1 SSTORE POP PUSH1 0xD ADD PUSH2 0x24E8 JUMP JUMPDEST POP SWAP1 JUMP JUMPDEST POP DUP1 SLOAD PUSH2 0x259E SWAP1 PUSH2 0x33BB JUMP JUMPDEST PUSH1 0x0 DUP3 SSTORE DUP1 PUSH1 0x1F LT PUSH2 0x25B0 JUMPI POP PUSH2 0x25CF JUMP JUMPDEST PUSH1 0x1F ADD PUSH1 0x20 SWAP1 DIV SWAP1 PUSH1 0x0 MSTORE PUSH1 0x20 PUSH1 0x0 KECCAK256 SWAP1 DUP2 ADD SWAP1 PUSH2 0x25CE SWAP2 SWAP1 PUSH2 0x25D2 JUMP JUMPDEST JUMPDEST POP JUMP JUMPDEST JUMPDEST DUP1 DUP3 GT ISZERO PUSH2 0x25EB JUMPI PUSH1 0x0 DUP2 PUSH1 0x0 SWAP1 SSTORE POP PUSH1 0x1 ADD PUSH2 0x25D3 JUMP JUMPDEST POP SWAP1 JUMP JUMPDEST PUSH1 0x0 PUSH1 0x40 MLOAD SWAP1 POP SWAP1 JUMP JUMPDEST PUSH1 0x0 DUP1 REVERT JUMPDEST PUSH1 0x0 DUP1 REVERT JUMPDEST PUSH1 0x0 DUP2 SWAP1 POP SWAP2 SWAP1 POP JUMP JUMPDEST PUSH2 0x2616 DUP2 PUSH2 0x2603 JUMP JUMPDEST DUP2 EQ PUSH2 0x2621 JUMPI PUSH1 0x0 DUP1 REVERT JUMPDEST POP JUMP JUMPDEST PUSH1 0x0 DUP2 CALLDATALOAD SWAP1 POP PUSH2 0x2633 DUP2 PUSH2 0x260D JUMP JUMPDEST SWAP3 SWAP2 POP POP JUMP JUMPDEST PUSH1 0x0 PUSH1 0x20 DUP3 DUP5 SUB SLT ISZERO PUSH2 0x264F JUMPI PUSH2 0x264E PUSH2 0x25F9 JUMP JUMPDEST JUMPDEST PUSH1 0x0 PUSH2 0x265D DUP5 DUP3 DUP6 ADD PUSH2 0x2624 JUMP JUMPDEST SWAP2 POP POP SWAP3 SWAP2 POP POP JUMP JUMPDEST PUSH1 0x0 DUP2 MLOAD SWAP1 POP SWAP2 SWAP1 POP JUMP JUMPDEST PUSH1 0x0 DUP3 DUP3 MSTORE PUSH1 0x20 DUP3 ADD SWAP1 POP SWAP3 SWAP2 POP POP JUMP JUMPDEST PUSH1 0x0 JUMPDEST DUP4 DUP2 LT ISZERO PUSH2 0x26A0 JUMPI DUP1 DUP3 ADD MLOAD DUP2 DUP5 ADD MSTORE PUSH1 0x20 DUP2 ADD SWAP1 POP PUSH2 0x2685 JUMP JUMPDEST PUSH1 0x0 DUP5 DUP5 ADD MSTORE POP POP POP POP JUMP JUMPDEST PUSH1 0x0 PUSH1 0x1F NOT PUSH1 0x1F DUP4 ADD AND SWAP1 POP SWAP2 SWAP1 POP JUMP JUMPDEST PUSH1 0x0 PUSH2 0x26C8 DUP3 PUSH2 0x2666 JUMP JUMPDEST PUSH2 0x26D2 DUP2 DUP6 PUSH2 0x2671 JUMP JUMPDEST SWAP4 POP PUSH2 0x26E2 DUP2 DUP6 PUSH1 0x20 DUP7 ADD PUSH2 0x2682 JUMP JUMPDEST PUSH2 0x26EB DUP2 PUSH2 0x26AC JUMP JUMPDEST DUP5 ADD SWAP2 POP POP SWAP3 SWAP2 POP POP JUMP JUMPDEST PUSH2 0x26FF DUP2 PUSH2 0x2603 JUMP JUMPDEST DUP3 MSTORE POP POP JUMP JUMPDEST PUSH1 0x0 PUSH1 0xE0 DUP3 ADD SWAP1 POP DUP2 DUP2 SUB PUSH1 0x0 DUP4 ADD MSTORE PUSH2 0x271F DUP2 DUP11 PUSH2 0x26BD JUMP JUMPDEST SWAP1 POP PUSH2 0x272E PUSH1 0x20 DUP4 ADD DUP10 PUSH2 0x26F6 JUMP JUMPDEST DUP2 DUP2 SUB PUSH1 0x40 DUP4 ADD MSTORE PUSH2 0x2740 DUP2 DUP9 PUSH2 0x26BD JUMP JUMPDEST SWAP1 POP DUP2 DUP2 SUB PUSH1 0x60 DUP4 ADD MSTORE PUSH2 0x2754 DUP2 DUP8 PUSH2 0x26BD JUMP JUMPDEST SWAP1 POP DUP2 DUP2 SUB PUSH1 0x80 DUP4 ADD MSTORE PUSH2 0x2768 DUP2 DUP7 PUSH2 0x26BD JUMP JUMPDEST SWAP1 POP DUP2 DUP2 SUB PUSH1 0xA0 DUP4 ADD MSTORE PUSH2 0x277C DUP2 DUP6 PUSH2 0x26BD JUMP JUMPDEST SWAP1 POP DUP2 DUP2 SUB PUSH1 0xC0 DUP4 ADD MSTORE PUSH2 0x2790 DUP2 DUP5 PUSH2 0x26BD JUMP JUMPDEST SWAP1 POP SWAP9 SWAP8 POP POP POP POP POP POP POP POP JUMP JUMPDEST PUSH1 0x0 DUP1 PUSH1 0x0 PUSH1 0x60 DUP5 DUP7 SUB SLT ISZERO PUSH2 0x27B7 JUMPI PUSH2 0x27B6 PUSH2 0x25F9 JUMP JUMPDEST JUMPDEST PUSH1 0x0 PUSH2 0x27C5 DUP7 DUP3 DUP8 ADD PUSH2 0x2624 JUMP JUMPDEST SWAP4 POP POP PUSH1 0x20 PUSH2 0x27D6 DUP7 DUP3 DUP8 ADD PUSH2 0x2624 JUMP JUMPDEST SWAP3 POP POP PUSH1 0x40 PUSH2 0x27E7 DUP7 DUP3 DUP8 ADD PUSH2 0x2624 JUMP JUMPDEST SWAP2 POP POP SWAP3 POP SWAP3 POP SWAP3 JUMP JUMPDEST PUSH1 0x0 PUSH20 0xFFFFFFFFFFFFFFFFFFFFFFFFFFFFFFFFFFFFFFFF DUP3 AND SWAP1 POP SWAP2 SWAP1 POP JUMP JUMPDEST PUSH1 0x0 PUSH2 0x281C DUP3 PUSH2 0x27F1 JUMP JUMPDEST SWAP1 POP SWAP2 SWAP1 POP JUMP JUMPDEST PUSH2 0x282C DUP2 PUSH2 0x2811 JUMP JUMPDEST DUP3 MSTORE POP POP JUMP JUMPDEST PUSH1 0x0 PUSH1 0x60 DUP3 ADD SWAP1 POP PUSH2 0x2847 PUSH1 0x0 DUP4 ADD DUP7 PUSH2 0x2823 JUMP JUMPDEST PUSH2 0x2854 PUSH1 0x20 DUP4 ADD DUP6 PUSH2 0x26F6 JUMP JUMPDEST PUSH2 0x2861 PUSH1 0x40 DUP4 ADD DUP5 PUSH2 0x26F6 JUMP JUMPDEST SWAP5 SWAP4 POP POP POP POP JUMP JUMPDEST PUSH1 0x0 DUP2 MLOAD SWAP1 POP SWAP2 SWAP1 POP JUMP JUMPDEST PUSH1 0x0 DUP3 DUP3 MSTORE PUSH1 0x20 DUP3 ADD SWAP1 POP SWAP3 SWAP2 POP POP JUMP JUMPDEST PUSH1 0x0 DUP2 SWAP1 POP PUSH1 0x20 DUP3 ADD SWAP1 POP SWAP2 SWAP1 POP JUMP JUMPDEST PUSH1 0x0 DUP3 DUP3 MSTORE PUSH1 0x20 DUP3 ADD SWAP1 POP SWAP3 SWAP2 POP POP JUMP JUMPDEST PUSH1 0x0 PUSH2 0x28B1 DUP3 PUSH2 0x2666 JUMP JUMPDEST PUSH2 0x28BB DUP2 DUP6 PUSH2 0x2895 JUMP JUMPDEST SWAP4 POP PUSH2 0x28CB DUP2 DUP6 PUSH1 0x20 DUP7 ADD PUSH2 0x2682 JUMP JUMPDEST PUSH2 0x28D4 DUP2 PUSH2 0x26AC JUMP JUMPDEST DUP5 ADD SWAP2 POP POP SWAP3 SWAP2 POP POP JUMP JUMPDEST PUSH2 0x28E8 DUP2 PUSH2 0x2603 JUMP JUMPDEST DUP3 MSTORE POP POP JUMP JUMPDEST PUSH1 0x0 DUP2 MLOAD SWAP1 POP SWAP2 SWAP1 POP JUMP JUMPDEST PUSH1 0x0 DUP3 DUP3 MSTORE PUSH1 0x20 DUP3 ADD SWAP1 POP SWAP3 SWAP2 POP POP JUMP JUMPDEST PUSH1 0x0 DUP2 SWAP1 POP PUSH1 0x20 DUP3 ADD SWAP1 POP SWAP2 SWAP1 POP JUMP JUMPDEST PUSH1 0x0 DUP2 ISZERO ISZERO SWAP1 POP SWAP2 SWAP1 POP JUMP JUMPDEST PUSH2 0x292F DUP2 PUSH2 0x291A JUMP JUMPDEST DUP3 MSTORE POP POP JUMP JUMPDEST PUSH1 0x0 PUSH2 0x1A0 DUP4 ADD PUSH1 0x0 DUP4 ADD MLOAD PUSH2 0x294E PUSH1 0x0 DUP7 ADD DUP3 PUSH2 0x28DF JUMP JUMPDEST POP PUSH1 0x20 DUP4 ADD MLOAD PUSH2 0x2961 PUSH1 0x20 DUP7 ADD DUP3 PUSH2 0x28DF JUMP JUMPDEST POP PUSH1 0x40 DUP4 ADD MLOAD DUP5 DUP3 SUB PUSH1 0x40 DUP7 ADD MSTORE PUSH2 0x2979 DUP3 DUP3 PUSH2 0x28A6 JUMP JUMPDEST SWAP2 POP POP PUSH1 0x60 DUP4 ADD MLOAD DUP5 DUP3 SUB PUSH1 0x60 DUP7 ADD MSTORE PUSH2 0x2993 DUP3 DUP3 PUSH2 0x28A6 JUMP JUMPDEST SWAP2 POP POP PUSH1 0x80 DUP4 ADD MLOAD PUSH2 0x29A8 PUSH1 0x80 DUP7 ADD DUP3 PUSH2 0x28DF JUMP JUMPDEST POP PUSH1 0xA0 DUP4 ADD MLOAD PUSH2 0x29BB PUSH1 0xA0 DUP7 ADD DUP3 PUSH2 0x28DF JUMP JUMPDEST POP PUSH1 0xC0 DUP4 ADD MLOAD DUP5 DUP3 SUB PUSH1 0xC0 DUP7 ADD MSTORE PUSH2 0x29D3 DUP3 DUP3 PUSH2 0x28A6 JUMP JUMPDEST SWAP2 POP POP PUSH1 0xE0 DUP4 ADD MLOAD DUP5 DUP3 SUB PUSH1 0xE0 DUP7 ADD MSTORE PUSH2 0x29ED DUP3 DUP3 PUSH2 0x28A6 JUMP JUMPDEST SWAP2 POP POP PUSH2 0x100 DUP4 ADD MLOAD PUSH2 0x2A04 PUSH2 0x100 DUP7 ADD DUP3 PUSH2 0x2926 JUMP JUMPDEST POP PUSH2 0x120 DUP4 ADD MLOAD PUSH2 0x2A19 PUSH2 0x120 DUP7 ADD DUP3 PUSH2 0x28DF JUMP JUMPDEST POP PUSH2 0x140 DUP4 ADD MLOAD PUSH2 0x2A2E PUSH2 0x140 DUP7 ADD DUP3 PUSH2 0x28DF JUMP JUMPDEST POP PUSH2 0x160 DUP4 ADD MLOAD PUSH2 0x2A43 PUSH2 0x160 DUP7 ADD DUP3 PUSH2 0x28DF JUMP JUMPDEST POP PUSH2 0x180 DUP4 ADD MLOAD PUSH2 0x2A58 PUSH2 0x180 DUP7 ADD DUP3 PUSH2 0x28DF JUMP JUMPDEST POP DUP1 SWAP2 POP POP SWAP3 SWAP2 POP POP JUMP JUMPDEST PUSH1 0x0 PUSH2 0x2A6F DUP4 DUP4 PUSH2 0x2935 JUMP JUMPDEST SWAP1 POP SWAP3 SWAP2 POP POP JUMP JUMPDEST PUSH1 0x0 PUSH1 0x20 DUP3 ADD SWAP1 POP SWAP2 SWAP1 POP JUMP JUMPDEST PUSH1 0x0 PUSH2 0x2A8F DUP3 PUSH2 0x28EE JUMP JUMPDEST PUSH2 0x2A99 DUP2 DUP6 PUSH2 0x28F9 JUMP JUMPDEST SWAP4 POP DUP4 PUSH1 0x20 DUP3 MUL DUP6 ADD PUSH2 0x2AAB DUP6 PUSH2 0x290A JUMP JUMPDEST DUP1 PUSH1 0x0 JUMPDEST DUP6 DUP2 LT ISZERO PUSH2 0x2AE7 JUMPI DUP5 DUP5 SUB DUP10 MSTORE DUP2 MLOAD PUSH2 0x2AC8 DUP6 DUP3 PUSH2 0x2A63 JUMP JUMPDEST SWAP5 POP PUSH2 0x2AD3 DUP4 PUSH2 0x2A77 JUMP JUMPDEST SWAP3 POP PUSH1 0x20 DUP11 ADD SWAP10 POP POP PUSH1 0x1 DUP2 ADD SWAP1 POP PUSH2 0x2AAF JUMP JUMPDEST POP DUP3 SWAP8 POP DUP8 SWAP6 POP POP POP POP POP POP SWAP3 SWAP2 POP POP JUMP JUMPDEST PUSH1 0x0 DUP2 MLOAD SWAP1 POP SWAP2 SWAP1 POP JUMP JUMPDEST PUSH1 0x0 DUP3 DUP3 MSTORE PUSH1 0x20 DUP3 ADD SWAP1 POP SWAP3 SWAP2 POP POP JUMP JUMPDEST PUSH1 0x0 DUP2 SWAP1 POP PUSH1 0x20 DUP3 ADD SWAP1 POP SWAP2 SWAP1 POP JUMP JUMPDEST PUSH1 0x0 PUSH2 0x2B31 DUP4 DUP4 PUSH2 0x28A6 JUMP JUMPDEST SWAP1 POP SWAP3 SWAP2 POP POP JUMP JUMPDEST PUSH1 0x0 PUSH1 0x20 DUP3 ADD SWAP1 POP SWAP2 SWAP1 POP JUMP JUMPDEST PUSH1 0x0 PUSH2 0x2B51 DUP3 PUSH2 0x2AF9 JUMP JUMPDEST PUSH2 0x2B5B DUP2 DUP6 PUSH2 0x2B04 JUMP JUMPDEST SWAP4 POP DUP4 PUSH1 0x20 DUP3 MUL DUP6 ADD PUSH2 0x2B6D DUP6 PUSH2 0x2B15 JUMP JUMPDEST DUP1 PUSH1 0x0 JUMPDEST DUP6 DUP2 LT ISZERO PUSH2 0x2BA9 JUMPI DUP5 DUP5 SUB DUP10 MSTORE DUP2 MLOAD PUSH2 0x2B8A DUP6 DUP3 PUSH2 0x2B25 JUMP JUMPDEST SWAP5 POP PUSH2 0x2B95 DUP4 PUSH2 0x2B39 JUMP JUMPDEST SWAP3 POP PUSH1 0x20 DUP11 ADD SWAP10 POP POP PUSH1 0x1 DUP2 ADD SWAP1 POP PUSH2 0x2B71 JUMP JUMPDEST POP DUP3 SWAP8 POP DUP8 SWAP6 POP POP POP POP POP POP SWAP3 SWAP2 POP POP JUMP JUMPDEST PUSH1 0x0 PUSH2 0x120 DUP4 ADD PUSH1 0x0 DUP4 ADD MLOAD DUP5 DUP3 SUB PUSH1 0x0 DUP7 ADD MSTORE PUSH2 0x2BD9 DUP3 DUP3 PUSH2 0x28A6 JUMP JUMPDEST SWAP2 POP POP PUSH1 0x20 DUP4 ADD MLOAD PUSH2 0x2BEE PUSH1 0x20 DUP7 ADD DUP3 PUSH2 0x28DF JUMP JUMPDEST POP PUSH1 0x40 DUP4 ADD MLOAD DUP5 DUP3 SUB PUSH1 0x40 DUP7 ADD MSTORE PUSH2 0x2C06 DUP3 DUP3 PUSH2 0x28A6 JUMP JUMPDEST SWAP2 POP POP PUSH1 0x60 DUP4 ADD MLOAD DUP5 DUP3 SUB PUSH1 0x60 DUP7 ADD MSTORE PUSH2 0x2C20 DUP3 DUP3 PUSH2 0x2A84 JUMP JUMPDEST SWAP2 POP POP PUSH1 0x80 DUP4 ADD MLOAD DUP5 DUP3 SUB PUSH1 0x80 DUP7 ADD MSTORE PUSH2 0x2C3A DUP3 DUP3 PUSH2 0x2B46 JUMP JUMPDEST SWAP2 POP POP PUSH1 0xA0 DUP4 ADD MLOAD DUP5 DUP3 SUB PUSH1 0xA0 DUP7 ADD MSTORE PUSH2 0x2C54 DUP3 DUP3 PUSH2 0x28A6 JUMP JUMPDEST SWAP2 POP POP PUSH1 0xC0 DUP4 ADD MLOAD DUP5 DUP3 SUB PUSH1 0xC0 DUP7 ADD MSTORE PUSH2 0x2C6E DUP3 DUP3 PUSH2 0x28A6 JUMP JUMPDEST SWAP2 POP POP PUSH1 0xE0 DUP4 ADD MLOAD DUP5 DUP3 SUB PUSH1 0xE0 DUP7 ADD MSTORE PUSH2 0x2C88 DUP3 DUP3 PUSH2 0x28A6 JUMP JUMPDEST SWAP2 POP POP PUSH2 0x100 DUP4 ADD MLOAD DUP5 DUP3 SUB PUSH2 0x100 DUP7 ADD MSTORE PUSH2 0x2CA4 DUP3 DUP3 PUSH2 0x28A6 JUMP JUMPDEST SWAP2 POP POP DUP1 SWAP2 POP POP SWAP3 SWAP2 POP POP JUMP JUMPDEST PUSH1 0x0 PUSH2 0x2CBD DUP4 DUP4 PUSH2 0x2BBB JUMP JUMPDEST SWAP1 POP SWAP3 SWAP2 POP POP JUMP JUMPDEST PUSH1 0x0 PUSH1 0x20 DUP3 ADD SWAP1 POP SWAP2 SWAP1 POP JUMP JUMPDEST PUSH1 0x0 PUSH2 0x2CDD DUP3 PUSH2 0x2869 JUMP JUMPDEST PUSH2 0x2CE7 DUP2 DUP6 PUSH2 0x2874 JUMP JUMPDEST SWAP4 POP DUP4 PUSH1 0x20 DUP3 MUL DUP6 ADD PUSH2 0x2CF9 DUP6 PUSH2 0x2885 JUMP JUMPDEST DUP1 PUSH1 0x0 JUMPDEST DUP6 DUP2 LT ISZERO PUSH2 0x2D35 JUMPI DUP5 DUP5 SUB DUP10 MSTORE DUP2 MLOAD PUSH2 0x2D16 DUP6 DUP3 PUSH2 0x2CB1 JUMP JUMPDEST SWAP5 POP PUSH2 0x2D21 DUP4 PUSH2 0x2CC5 JUMP JUMPDEST SWAP3 POP PUSH1 0x20 DUP11 ADD SWAP10 POP POP PUSH1 0x1 DUP2 ADD SWAP1 POP PUSH2 0x2CFD JUMP JUMPDEST POP DUP3 SWAP8 POP DUP8 SWAP6 POP POP POP POP POP POP SWAP3 SWAP2 POP POP JUMP JUMPDEST PUSH1 0x0 PUSH1 0x20 DUP3 ADD SWAP1 POP DUP2 DUP2 SUB PUSH1 0x0 DUP4 ADD MSTORE PUSH2 0x2D61 DUP2 DUP5 PUSH2 0x2CD2 JUMP JUMPDEST SWAP1 POP SWAP3 SWAP2 POP POP JUMP JUMPDEST PUSH1 0x0 DUP1 REVERT JUMPDEST PUSH1 0x0 DUP1 REVERT JUMPDEST PUSH32 0x4E487B7100000000000000000000000000000000000000000000000000000000 PUSH1 0x0 MSTORE PUSH1 0x41 PUSH1 0x4 MSTORE PUSH1 0x24 PUSH1 0x0 REVERT JUMPDEST PUSH2 0x2DAB DUP3 PUSH2 0x26AC JUMP JUMPDEST DUP2 ADD DUP2 DUP2 LT PUSH8 0xFFFFFFFFFFFFFFFF DUP3 GT OR ISZERO PUSH2 0x2DCA JUMPI PUSH2 0x2DC9 PUSH2 0x2D73 JUMP JUMPDEST JUMPDEST DUP1 PUSH1 0x40 MSTORE POP POP POP JUMP JUMPDEST PUSH1 0x0 PUSH2 0x2DDD PUSH2 0x25EF JUMP JUMPDEST SWAP1 POP PUSH2 0x2DE9 DUP3 DUP3 PUSH2 0x2DA2 JUMP JUMPDEST SWAP2 SWAP1 POP JUMP JUMPDEST PUSH1 0x0 PUSH8 0xFFFFFFFFFFFFFFFF DUP3 GT ISZERO PUSH2 0x2E09 JUMPI PUSH2 0x2E08 PUSH2 0x2D73 JUMP JUMPDEST JUMPDEST PUSH2 0x2E12 DUP3 PUSH2 0x26AC JUMP JUMPDEST SWAP1 POP PUSH1 0x20 DUP2 ADD SWAP1 POP SWAP2 SWAP1 POP JUMP JUMPDEST DUP3 DUP2 DUP4 CALLDATACOPY PUSH1 0x0 DUP4 DUP4 ADD MSTORE POP POP POP JUMP JUMPDEST PUSH1 0x0 PUSH2 0x2E41 PUSH2 0x2E3C DUP5 PUSH2 0x2DEE JUMP JUMPDEST PUSH2 0x2DD3 JUMP JUMPDEST SWAP1 POP DUP3 DUP2 MSTORE PUSH1 0x20 DUP2 ADD DUP5 DUP5 DUP5 ADD GT ISZERO PUSH2 0x2E5D JUMPI PUSH2 0x2E5C PUSH2 0x2D6E JUMP JUMPDEST JUMPDEST PUSH2 0x2E68 DUP5 DUP3 DUP6 PUSH2 0x2E1F JUMP JUMPDEST POP SWAP4 SWAP3 POP POP POP JUMP JUMPDEST PUSH1 0x0 DUP3 PUSH1 0x1F DUP4 ADD SLT PUSH2 0x2E85 JUMPI PUSH2 0x2E84 PUSH2 0x2D69 JUMP JUMPDEST JUMPDEST DUP2 CALLDATALOAD PUSH2 0x2E95 DUP5 DUP3 PUSH1 0x20 DUP7 ADD PUSH2 0x2E2E JUMP JUMPDEST SWAP2 POP POP SWAP3 SWAP2 POP POP JUMP JUMPDEST PUSH1 0x0 DUP1 PUSH1 0x0 DUP1 PUSH1 0x0 DUP1 PUSH1 0x0 PUSH1 0xE0 DUP9 DUP11 SUB SLT ISZERO PUSH2 0x2EBD JUMPI PUSH2 0x2EBC PUSH2 0x25F9 JUMP JUMPDEST JUMPDEST PUSH1 0x0 PUSH2 0x2ECB DUP11 DUP3 DUP12 ADD PUSH2 0x2624 JUMP JUMPDEST SWAP8 POP POP PUSH1 0x20 PUSH2 0x2EDC DUP11 DUP3 DUP12 ADD PUSH2 0x2624 JUMP JUMPDEST SWAP7 POP POP PUSH1 0x40 DUP9 ADD CALLDATALOAD PUSH8 0xFFFFFFFFFFFFFFFF DUP2 GT ISZERO PUSH2 0x2EFD JUMPI PUSH2 0x2EFC PUSH2 0x25FE JUMP JUMPDEST JUMPDEST PUSH2 0x2F09 DUP11 DUP3 DUP12 ADD PUSH2 0x2E70 JUMP JUMPDEST SWAP6 POP POP PUSH1 0x60 DUP9 ADD CALLDATALOAD PUSH8 0xFFFFFFFFFFFFFFFF DUP2 GT ISZERO PUSH2 0x2F2A JUMPI PUSH2 0x2F29 PUSH2 0x25FE JUMP JUMPDEST JUMPDEST PUSH2 0x2F36 DUP11 DUP3 DUP12 ADD PUSH2 0x2E70 JUMP JUMPDEST SWAP5 POP POP PUSH1 0x80 PUSH2 0x2F47 DUP11 DUP3 DUP12 ADD PUSH2 0x2624 JUMP JUMPDEST SWAP4 POP POP PUSH1 0xA0 PUSH2 0x2F58 DUP11 DUP3 DUP12 ADD PUSH2 0x2624 JUMP JUMPDEST SWAP3 POP POP PUSH1 0xC0 DUP9 ADD CALLDATALOAD PUSH8 0xFFFFFFFFFFFFFFFF DUP2 GT ISZERO PUSH2 0x2F79 JUMPI PUSH2 0x2F78 PUSH2 0x25FE JUMP JUMPDEST JUMPDEST PUSH2 0x2F85 DUP11 DUP3 DUP12 ADD PUSH2 0x2E70 JUMP JUMPDEST SWAP2 POP POP SWAP3 SWAP6 SWAP9 SWAP2 SWAP5 SWAP8 POP SWAP3 SWAP6 POP JUMP JUMPDEST PUSH1 0x0 DUP1 PUSH1 0x40 DUP4 DUP6 SUB SLT ISZERO PUSH2 0x2FAB JUMPI PUSH2 0x2FAA PUSH2 0x25F9 JUMP JUMPDEST JUMPDEST PUSH1 0x0 PUSH2 0x2FB9 DUP6 DUP3 DUP7 ADD PUSH2 0x2624 JUMP JUMPDEST SWAP3 POP POP PUSH1 0x20 PUSH2 0x2FCA DUP6 DUP3 DUP7 ADD PUSH2 0x2624 JUMP JUMPDEST SWAP2 POP POP SWAP3 POP SWAP3 SWAP1 POP JUMP JUMPDEST PUSH1 0x0 PUSH1 0x20 DUP3 ADD SWAP1 POP PUSH2 0x2FE9 PUSH1 0x0 DUP4 ADD DUP5 PUSH2 0x26F6 JUMP JUMPDEST SWAP3 SWAP2 POP POP JUMP JUMPDEST PUSH1 0x0 PUSH8 0xFFFFFFFFFFFFFFFF DUP3 GT ISZERO PUSH2 0x300A JUMPI PUSH2 0x3009 PUSH2 0x2D73 JUMP JUMPDEST JUMPDEST PUSH1 0x20 DUP3 MUL SWAP1 POP PUSH1 0x20 DUP2 ADD SWAP1 POP SWAP2 SWAP1 POP JUMP JUMPDEST PUSH1 0x0 DUP1 REVERT JUMPDEST PUSH1 0x0 PUSH2 0x3033 PUSH2 0x302E DUP5 PUSH2 0x2FEF JUMP JUMPDEST PUSH2 0x2DD3 JUMP JUMPDEST SWAP1 POP DUP1 DUP4 DUP3 MSTORE PUSH1 0x20 DUP3 ADD SWAP1 POP PUSH1 0x20 DUP5 MUL DUP4 ADD DUP6 DUP2 GT ISZERO PUSH2 0x3056 JUMPI PUSH2 0x3055 PUSH2 0x301B JUMP JUMPDEST JUMPDEST DUP4 JUMPDEST DUP2 DUP2 LT ISZERO PUSH2 0x309D JUMPI DUP1 CALLDATALOAD PUSH8 0xFFFFFFFFFFFFFFFF DUP2 GT ISZERO PUSH2 0x307B JUMPI PUSH2 0x307A PUSH2 0x2D69 JUMP JUMPDEST JUMPDEST DUP1 DUP7 ADD PUSH2 0x3088 DUP10 DUP3 PUSH2 0x2E70 JUMP JUMPDEST DUP6 MSTORE PUSH1 0x20 DUP6 ADD SWAP5 POP POP POP PUSH1 0x20 DUP2 ADD SWAP1 POP PUSH2 0x3058 JUMP JUMPDEST POP POP POP SWAP4 SWAP3 POP POP POP JUMP JUMPDEST PUSH1 0x0 DUP3 PUSH1 0x1F DUP4 ADD SLT PUSH2 0x30BC JUMPI PUSH2 0x30BB PUSH2 0x2D69 JUMP JUMPDEST JUMPDEST DUP2 CALLDATALOAD PUSH2 0x30CC DUP5 DUP3 PUSH1 0x20 DUP7 ADD PUSH2 0x3020 JUMP JUMPDEST SWAP2 POP POP SWAP3 SWAP2 POP POP JUMP JUMPDEST PUSH1 0x0 DUP1 PUSH1 0x0 DUP1 PUSH1 0x0 DUP1 PUSH1 0x0 PUSH1 0xE0 DUP9 DUP11 SUB SLT ISZERO PUSH2 0x30F4 JUMPI PUSH2 0x30F3 PUSH2 0x25F9 JUMP JUMPDEST JUMPDEST PUSH1 0x0 DUP9 ADD CALLDATALOAD PUSH8 0xFFFFFFFFFFFFFFFF DUP2 GT ISZERO PUSH2 0x3112 JUMPI PUSH2 0x3111 PUSH2 0x25FE JUMP JUMPDEST JUMPDEST PUSH2 0x311E DUP11 DUP3 DUP12 ADD PUSH2 0x2E70 JUMP JUMPDEST SWAP8 POP POP PUSH1 0x20 DUP9 ADD CALLDATALOAD PUSH8 0xFFFFFFFFFFFFFFFF DUP2 GT ISZERO PUSH2 0x313F JUMPI PUSH2 0x313E PUSH2 0x25FE JUMP JUMPDEST JUMPDEST PUSH2 0x314B DUP11 DUP3 DUP12 ADD PUSH2 0x2E70 JUMP JUMPDEST SWAP7 POP POP PUSH1 0x40 DUP9 ADD CALLDATALOAD PUSH8 0xFFFFFFFFFFFFFFFF DUP2 GT ISZERO PUSH2 0x316C JUMPI PUSH2 0x316B PUSH2 0x25FE JUMP JUMPDEST JUMPDEST PUSH2 0x3178 DUP11 DUP3 DUP12 ADD PUSH2 0x30A7 JUMP JUMPDEST SWAP6 POP POP PUSH1 0x60 DUP9 ADD CALLDATALOAD PUSH8 0xFFFFFFFFFFFFFFFF DUP2 GT ISZERO PUSH2 0x3199 JUMPI PUSH2 0x3198 PUSH2 0x25FE JUMP JUMPDEST JUMPDEST PUSH2 0x31A5 DUP11 DUP3 DUP12 ADD PUSH2 0x2E70 JUMP JUMPDEST SWAP5 POP POP PUSH1 0x80 DUP9 ADD CALLDATALOAD PUSH8 0xFFFFFFFFFFFFFFFF DUP2 GT ISZERO PUSH2 0x31C6 JUMPI PUSH2 0x31C5 PUSH2 0x25FE JUMP JUMPDEST JUMPDEST PUSH2 0x31D2 DUP11 DUP3 DUP12 ADD PUSH2 0x2E70 JUMP JUMPDEST SWAP4 POP POP PUSH1 0xA0 DUP9 ADD CALLDATALOAD PUSH8 0xFFFFFFFFFFFFFFFF DUP2 GT ISZERO PUSH2 0x31F3 JUMPI PUSH2 0x31F2 PUSH2 0x25FE JUMP JUMPDEST JUMPDEST PUSH2 0x31FF DUP11 DUP3 DUP12 ADD PUSH2 0x2E70 JUMP JUMPDEST SWAP3 POP POP PUSH1 0xC0 DUP9 ADD CALLDATALOAD PUSH8 0xFFFFFFFFFFFFFFFF DUP2 GT ISZERO PUSH2 0x3220 JUMPI PUSH2 0x321F PUSH2 0x25FE JUMP JUMPDEST JUMPDEST PUSH2 0x322C DUP11 DUP3 DUP12 ADD PUSH2 0x2E70 JUMP JUMPDEST SWAP2 POP POP SWAP3 SWAP6 SWAP9 SWAP2 SWAP5 SWAP8 POP SWAP3 SWAP6 POP JUMP JUMPDEST PUSH2 0x3244 DUP2 PUSH2 0x2811 JUMP JUMPDEST DUP2 EQ PUSH2 0x324F JUMPI PUSH1 0x0 DUP1 REVERT JUMPDEST POP JUMP JUMPDEST PUSH1 0x0 DUP2 CALLDATALOAD SWAP1 POP PUSH2 0x3261 DUP2 PUSH2 0x323B JUMP JUMPDEST SWAP3 SWAP2 POP POP JUMP JUMPDEST PUSH1 0x0 DUP1 PUSH1 0x0 PUSH1 0x60 DUP5 DUP7 SUB SLT ISZERO PUSH2 0x3280 JUMPI PUSH2 0x327F PUSH2 0x25F9 JUMP JUMPDEST JUMPDEST PUSH1 0x0 PUSH2 0x328E DUP7 DUP3 DUP8 ADD PUSH2 0x3252 JUMP JUMPDEST SWAP4 POP POP PUSH1 0x20 PUSH2 0x329F DUP7 DUP3 DUP8 ADD PUSH2 0x2624 JUMP JUMPDEST SWAP3 POP POP PUSH1 0x40 PUSH2 0x32B0 DUP7 DUP3 DUP8 ADD PUSH2 0x2624 JUMP JUMPDEST SWAP2 POP POP SWAP3 POP SWAP3 POP SWAP3 JUMP JUMPDEST PUSH2 0x32C3 DUP2 PUSH2 0x291A JUMP JUMPDEST DUP3 MSTORE POP POP JUMP JUMPDEST PUSH1 0x0 PUSH1 0x20 DUP3 ADD SWAP1 POP PUSH2 0x32DE PUSH1 0x0 DUP4 ADD DUP5 PUSH2 0x32BA JUMP JUMPDEST SWAP3 SWAP2 POP POP JUMP JUMPDEST PUSH1 0x0 DUP3 DUP3 MSTORE PUSH1 0x20 DUP3 ADD SWAP1 POP SWAP3 SWAP2 POP POP JUMP JUMPDEST PUSH1 0x0 PUSH2 0x3300 DUP3 PUSH2 0x28EE JUMP JUMPDEST PUSH2 0x330A DUP2 DUP6 PUSH2 0x32E4 JUMP JUMPDEST SWAP4 POP DUP4 PUSH1 0x20 DUP3 MUL DUP6 ADD PUSH2 0x331C DUP6 PUSH2 0x290A JUMP JUMPDEST DUP1 PUSH1 0x0 JUMPDEST DUP6 DUP2 LT ISZERO PUSH2 0x3358 JUMPI DUP5 DUP5 SUB DUP10 MSTORE DUP2 MLOAD PUSH2 0x3339 DUP6 DUP3 PUSH2 0x2A63 JUMP JUMPDEST SWAP5 POP PUSH2 0x3344 DUP4 PUSH2 0x2A77 JUMP JUMPDEST SWAP3 POP PUSH1 0x20 DUP11 ADD SWAP10 POP POP PUSH1 0x1 DUP2 ADD SWAP1 POP PUSH2 0x3320 JUMP JUMPDEST POP DUP3 SWAP8 POP DUP8 SWAP6 POP POP POP POP POP POP SWAP3 SWAP2 POP POP JUMP JUMPDEST PUSH1 0x0 PUSH1 0x20 DUP3 ADD SWAP1 POP DUP2 DUP2 SUB PUSH1 0x0 DUP4 ADD MSTORE PUSH2 0x3384 DUP2 DUP5 PUSH2 0x32F5 JUMP JUMPDEST SWAP1 POP SWAP3 SWAP2 POP POP JUMP JUMPDEST PUSH32 0x4E487B7100000000000000000000000000000000000000000000000000000000 PUSH1 0x0 MSTORE PUSH1 0x22 PUSH1 0x4 MSTORE PUSH1 0x24 PUSH1 0x0 REVERT JUMPDEST PUSH1 0x0 PUSH1 0x2 DUP3 DIV SWAP1 POP PUSH1 0x1 DUP3 AND DUP1 PUSH2 0x33D3 JUMPI PUSH1 0x7F DUP3 AND SWAP2 POP JUMPDEST PUSH1 0x20 DUP3 LT DUP2 SUB PUSH2 0x33E6 JUMPI PUSH2 0x33E5 PUSH2 0x338C JUMP JUMPDEST JUMPDEST POP SWAP2 SWAP1 POP JUMP JUMPDEST PUSH32 0x4D757374206265206F776E657221200000000000000000000000000000000000 PUSH1 0x0 DUP3 ADD MSTORE POP JUMP JUMPDEST PUSH1 0x0 PUSH2 0x3422 PUSH1 0xF DUP4 PUSH2 0x2671 JUMP JUMPDEST SWAP2 POP PUSH2 0x342D DUP3 PUSH2 0x33EC JUMP JUMPDEST PUSH1 0x20 DUP3 ADD SWAP1 POP SWAP2 SWAP1 POP JUMP JUMPDEST PUSH1 0x0 PUSH1 0x20 DUP3 ADD SWAP1 POP DUP2 DUP2 SUB PUSH1 0x0 DUP4 ADD MSTORE PUSH2 0x3451 DUP2 PUSH2 0x3415 JUMP JUMPDEST SWAP1 POP SWAP2 SWAP1 POP JUMP JUMPDEST PUSH1 0x0 DUP2 SWAP1 POP DUP2 PUSH1 0x0 MSTORE PUSH1 0x20 PUSH1 0x0 KECCAK256 SWAP1 POP SWAP2 SWAP1 POP JUMP JUMPDEST PUSH1 0x0 PUSH1 0x20 PUSH1 0x1F DUP4 ADD DIV SWAP1 POP SWAP2 SWAP1 POP JUMP JUMPDEST PUSH1 0x0 DUP3 DUP3 SHL SWAP1 POP SWAP3 SWAP2 POP POP JUMP JUMPDEST PUSH1 0x0 PUSH1 0x8 DUP4 MUL PUSH2 0x34BA PUSH32 0xFFFFFFFFFFFFFFFFFFFFFFFFFFFFFFFFFFFFFFFFFFFFFFFFFFFFFFFFFFFFFFFF DUP3 PUSH2 0x347D JUMP JUMPDEST PUSH2 0x34C4 DUP7 DUP4 PUSH2 0x347D JUMP JUMPDEST SWAP6 POP DUP1 NOT DUP5 AND SWAP4 POP DUP1 DUP7 AND DUP5 OR SWAP3 POP POP POP SWAP4 SWAP3 POP POP POP JUMP JUMPDEST PUSH1 0x0 DUP2 SWAP1 POP SWAP2 SWAP1 POP JUMP JUMPDEST PUSH1 0x0 PUSH2 0x3501 PUSH2 0x34FC PUSH2 0x34F7 DUP5 PUSH2 0x2603 JUMP JUMPDEST PUSH2 0x34DC JUMP JUMPDEST PUSH2 0x2603 JUMP JUMPDEST SWAP1 POP SWAP2 SWAP1 POP JUMP JUMPDEST PUSH1 0x0 DUP2 SWAP1 POP SWAP2 SWAP1 POP JUMP JUMPDEST PUSH2 0x351B DUP4 PUSH2 0x34E6 JUMP JUMPDEST PUSH2 0x352F PUSH2 0x3527 DUP3 PUSH2 0x3508 JUMP JUMPDEST DUP5 DUP5 SLOAD PUSH2 0x348A JUMP JUMPDEST DUP3 SSTORE POP POP POP POP JUMP JUMPDEST PUSH1 0x0 SWAP1 JUMP JUMPDEST PUSH2 0x3544 PUSH2 0x3537 JUMP JUMPDEST PUSH2 0x354F DUP2 DUP5 DUP5 PUSH2 0x3512 JUMP JUMPDEST POP POP POP JUMP JUMPDEST JUMPDEST DUP2 DUP2 LT ISZERO PUSH2 0x3573 JUMPI PUSH2 0x3568 PUSH1 0x0 DUP3 PUSH2 0x353C JUMP JUMPDEST PUSH1 0x1 DUP2 ADD SWAP1 POP PUSH2 0x3555 JUMP JUMPDEST POP POP JUMP JUMPDEST PUSH1 0x1F DUP3 GT ISZERO PUSH2 0x35B8 JUMPI PUSH2 0x3589 DUP2 PUSH2 0x3458 JUMP JUMPDEST PUSH2 0x3592 DUP5 PUSH2 0x346D JUMP JUMPDEST DUP2 ADD PUSH1 0x20 DUP6 LT ISZERO PUSH2 0x35A1 JUMPI DUP2 SWAP1 POP JUMPDEST PUSH2 0x35B5 PUSH2 0x35AD DUP6 PUSH2 0x346D JUMP JUMPDEST DUP4 ADD DUP3 PUSH2 0x3554 JUMP JUMPDEST POP POP JUMPDEST POP POP POP JUMP JUMPDEST PUSH1 0x0 DUP3 DUP3 SHR SWAP1 POP SWAP3 SWAP2 POP POP JUMP JUMPDEST PUSH1 0x0 PUSH2 0x35DB PUSH1 0x0 NOT DUP5 PUSH1 0x8 MUL PUSH2 0x35BD JUMP JUMPDEST NOT DUP1 DUP4 AND SWAP2 POP POP SWAP3 SWAP2 POP POP JUMP JUMPDEST PUSH1 0x0 PUSH2 0x35F4 DUP4 DUP4 PUSH2 0x35CA JUMP JUMPDEST SWAP2 POP DUP3 PUSH1 0x2 MUL DUP3 OR SWAP1 POP SWAP3 SWAP2 POP POP JUMP JUMPDEST PUSH2 0x360D DUP3 PUSH2 0x2666 JUMP JUMPDEST PUSH8 0xFFFFFFFFFFFFFFFF DUP2 GT ISZERO PUSH2 0x3626 JUMPI PUSH2 0x3625 PUSH2 0x2D73 JUMP JUMPDEST JUMPDEST PUSH2 0x3630 DUP3 SLOAD PUSH2 0x33BB JUMP JUMPDEST PUSH2 0x363B DUP3 DUP3 DUP6 PUSH2 0x3577 JUMP JUMPDEST PUSH1 0x0 PUSH1 0x20 SWAP1 POP PUSH1 0x1F DUP4 GT PUSH1 0x1 DUP2 EQ PUSH2 0x366E JUMPI PUSH1 0x0 DUP5 ISZERO PUSH2 0x365C JUMPI DUP3 DUP8 ADD MLOAD SWAP1 POP JUMPDEST PUSH2 0x3666 DUP6 DUP3 PUSH2 0x35E8 JUMP JUMPDEST DUP7 SSTORE POP PUSH2 0x36CE JUMP JUMPDEST PUSH1 0x1F NOT DUP5 AND PUSH2 0x367C DUP7 PUSH2 0x3458 JUMP JUMPDEST PUSH1 0x0 JUMPDEST DUP3 DUP2 LT ISZERO PUSH2 0x36A4 JUMPI DUP5 DUP10 ADD MLOAD DUP3 SSTORE PUSH1 0x1 DUP3 ADD SWAP2 POP PUSH1 0x20 DUP6 ADD SWAP5 POP PUSH1 0x20 DUP2 ADD SWAP1 POP PUSH2 0x367F JUMP JUMPDEST DUP7 DUP4 LT ISZERO PUSH2 0x36C1 JUMPI DUP5 DUP10 ADD MLOAD PUSH2 0x36BD PUSH1 0x1F DUP10 AND DUP3 PUSH2 0x35CA JUMP JUMPDEST DUP4 SSTORE POP JUMPDEST PUSH1 0x1 PUSH1 0x2 DUP9 MUL ADD DUP9 SSTORE POP POP POP JUMPDEST POP POP POP POP POP POP JUMP JUMPDEST PUSH32 0x4E487B7100000000000000000000000000000000000000000000000000000000 PUSH1 0x0 MSTORE PUSH1 0x32 PUSH1 0x4 MSTORE PUSH1 0x24 PUSH1 0x0 REVERT JUMPDEST PUSH32 0x4F776E65722063616E6E6F7420706C6163652062657473000000000000000000 PUSH1 0x0 DUP3 ADD MSTORE POP JUMP JUMPDEST PUSH1 0x0 PUSH2 0x373B PUSH1 0x17 DUP4 PUSH2 0x2671 JUMP JUMPDEST SWAP2 POP PUSH2 0x3746 DUP3 PUSH2 0x3705 JUMP JUMPDEST PUSH1 0x20 DUP3 ADD SWAP1 POP SWAP2 SWAP1 POP JUMP JUMPDEST PUSH1 0x0 PUSH1 0x20 DUP3 ADD SWAP1 POP DUP2 DUP2 SUB PUSH1 0x0 DUP4 ADD MSTORE PUSH2 0x376A DUP2 PUSH2 0x372E JUMP JUMPDEST SWAP1 POP SWAP2 SWAP1 POP JUMP JUMPDEST PUSH32 0x496E73756666696369656E7420616D6F756E7400000000000000000000000000 PUSH1 0x0 DUP3 ADD MSTORE POP JUMP JUMPDEST PUSH1 0x0 PUSH2 0x37A7 PUSH1 0x13 DUP4 PUSH2 0x2671 JUMP JUMPDEST SWAP2 POP PUSH2 0x37B2 DUP3 PUSH2 0x3771 JUMP JUMPDEST PUSH1 0x20 DUP3 ADD SWAP1 POP SWAP2 SWAP1 POP JUMP JUMPDEST PUSH1 0x0 PUSH1 0x20 DUP3 ADD SWAP1 POP DUP2 DUP2 SUB PUSH1 0x0 DUP4 ADD MSTORE PUSH2 0x37D6 DUP2 PUSH2 0x379A JUMP JUMPDEST SWAP1 POP SWAP2 SWAP1 POP JUMP JUMPDEST PUSH32 0x596F75206861766520616C726561647920706C6163656420796F757220626574 PUSH1 0x0 DUP3 ADD MSTORE PUSH32 0x20696E2074686973206D61746368000000000000000000000000000000000000 PUSH1 0x20 DUP3 ADD MSTORE POP JUMP JUMPDEST PUSH1 0x0 PUSH2 0x3839 PUSH1 0x2E DUP4 PUSH2 0x2671 JUMP JUMPDEST SWAP2 POP PUSH2 0x3844 DUP3 PUSH2 0x37DD JUMP JUMPDEST PUSH1 0x40 DUP3 ADD SWAP1 POP SWAP2 SWAP1 POP JUMP JUMPDEST PUSH1 0x0 PUSH1 0x20 DUP3 ADD SWAP1 POP DUP2 DUP2 SUB PUSH1 0x0 DUP4 ADD MSTORE PUSH2 0x3868 DUP2 PUSH2 0x382C JUMP JUMPDEST SWAP1 POP SWAP2 SWAP1 POP JUMP JUMPDEST PUSH32 0x4E487B7100000000000000000000000000000000000000000000000000000000 PUSH1 0x0 MSTORE PUSH1 0x11 PUSH1 0x4 MSTORE PUSH1 0x24 PUSH1 0x0 REVERT JUMPDEST PUSH1 0x0 PUSH2 0x38A9 DUP3 PUSH2 0x2603 JUMP JUMPDEST SWAP2 POP PUSH2 0x38B4 DUP4 PUSH2 0x2603 JUMP JUMPDEST SWAP3 POP DUP3 DUP3 ADD SWAP1 POP DUP1 DUP3 GT ISZERO PUSH2 0x38CC JUMPI PUSH2 0x38CB PUSH2 0x386F JUMP JUMPDEST JUMPDEST SWAP3 SWAP2 POP POP JUMP JUMPDEST PUSH1 0x0 PUSH2 0x38DD DUP3 PUSH2 0x2603 JUMP JUMPDEST SWAP2 POP PUSH2 0x38E8 DUP4 PUSH2 0x2603 JUMP JUMPDEST SWAP3 POP DUP3 DUP3 MUL PUSH2 0x38F6 DUP2 PUSH2 0x2603 JUMP JUMPDEST SWAP2 POP DUP3 DUP3 DIV DUP5 EQ DUP4 ISZERO OR PUSH2 0x390D JUMPI PUSH2 0x390C PUSH2 0x386F JUMP JUMPDEST JUMPDEST POP SWAP3 SWAP2 POP POP JUMP JUMPDEST PUSH32 0x4E487B7100000000000000000000000000000000000000000000000000000000 PUSH1 0x0 MSTORE PUSH1 0x12 PUSH1 0x4 MSTORE PUSH1 0x24 PUSH1 0x0 REVERT JUMPDEST PUSH1 0x0 PUSH2 0x394E DUP3 PUSH2 0x2603 JUMP JUMPDEST SWAP2 POP PUSH2 0x3959 DUP4 PUSH2 0x2603 JUMP JUMPDEST SWAP3 POP DUP3 PUSH2 0x3969 JUMPI PUSH2 0x3968 PUSH2 0x3914 JUMP JUMPDEST JUMPDEST DUP3 DUP3 DIV SWAP1 POP SWAP3 SWAP2 POP POP JUMP JUMPDEST PUSH1 0x0 DUP2 SWAP1 POP SWAP3 SWAP2 POP POP JUMP JUMPDEST POP JUMP JUMPDEST PUSH1 0x0 PUSH2 0x398F PUSH1 0x0 DUP4 PUSH2 0x3974 JUMP JUMPDEST SWAP2 POP PUSH2 0x399A DUP3 PUSH2 0x397F JUMP JUMPDEST PUSH1 0x0 DUP3 ADD SWAP1 POP SWAP2 SWAP1 POP JUMP JUMPDEST PUSH1 0x0 PUSH2 0x39B0 DUP3 PUSH2 0x3982 JUMP JUMPDEST SWAP2 POP DUP2 SWAP1 POP SWAP2 SWAP1 POP JUMP JUMPDEST PUSH32 0x4661696C656420746F2073656E64206574686572000000000000000000000000 PUSH1 0x0 DUP3 ADD MSTORE POP JUMP JUMPDEST PUSH1 0x0 PUSH2 0x39F0 PUSH1 0x14 DUP4 PUSH2 0x2671 JUMP JUMPDEST SWAP2 POP PUSH2 0x39FB DUP3 PUSH2 0x39BA JUMP JUMPDEST PUSH1 0x20 DUP3 ADD SWAP1 POP SWAP2 SWAP1 POP JUMP JUMPDEST PUSH1 0x0 PUSH1 0x20 DUP3 ADD SWAP1 POP DUP2 DUP2 SUB PUSH1 0x0 DUP4 ADD MSTORE PUSH2 0x3A1F DUP2 PUSH2 0x39E3 JUMP JUMPDEST SWAP1 POP SWAP2 SWAP1 POP JUMP JUMPDEST PUSH1 0x0 PUSH2 0x3A31 DUP3 PUSH2 0x2603 JUMP JUMPDEST SWAP2 POP PUSH32 0xFFFFFFFFFFFFFFFFFFFFFFFFFFFFFFFFFFFFFFFFFFFFFFFFFFFFFFFFFFFFFFFF DUP3 SUB PUSH2 0x3A63 JUMPI PUSH2 0x3A62 PUSH2 0x386F JUMP JUMPDEST JUMPDEST PUSH1 0x1 DUP3 ADD SWAP1 POP SWAP2 SWAP1 POP JUMP JUMPDEST PUSH1 0x0 DUP2 SLOAD SWAP1 POP PUSH2 0x3A7D DUP2 PUSH2 0x33BB JUMP JUMPDEST SWAP1 POP SWAP2 SWAP1 POP JUMP JUMPDEST DUP2 DUP2 SUB PUSH2 0x3A92 JUMPI POP POP PUSH2 0x3B6A JUMP JUMPDEST PUSH2 0x3A9B DUP3 PUSH2 0x3A6E JUMP JUMPDEST PUSH8 0xFFFFFFFFFFFFFFFF DUP2 GT ISZERO PUSH2 0x3AB4 JUMPI PUSH2 0x3AB3 PUSH2 0x2D73 JUMP JUMPDEST JUMPDEST PUSH2 0x3ABE DUP3 SLOAD PUSH2 0x33BB JUMP JUMPDEST PUSH2 0x3AC9 DUP3 DUP3 DUP6 PUSH2 0x3577 JUMP JUMPDEST PUSH1 0x0 PUSH1 0x1F DUP4 GT PUSH1 0x1 DUP2 EQ PUSH2 0x3AF8 JUMPI PUSH1 0x0 DUP5 ISZERO PUSH2 0x3AE6 JUMPI DUP3 DUP8 ADD SLOAD SWAP1 POP JUMPDEST PUSH2 0x3AF0 DUP6 DUP3 PUSH2 0x35E8 JUMP JUMPDEST DUP7 SSTORE POP PUSH2 0x3B63 JUMP JUMPDEST PUSH1 0x1F NOT DUP5 AND PUSH2 0x3B06 DUP8 PUSH2 0x3458 JUMP JUMPDEST SWAP7 POP PUSH2 0x3B11 DUP7 PUSH2 0x3458 JUMP JUMPDEST PUSH1 0x0 JUMPDEST DUP3 DUP2 LT ISZERO PUSH2 0x3B39 JUMPI DUP5 DUP10 ADD SLOAD DUP3 SSTORE PUSH1 0x1 DUP3 ADD SWAP2 POP PUSH1 0x1 DUP6 ADD SWAP5 POP PUSH1 0x20 DUP2 ADD SWAP1 POP PUSH2 0x3B14 JUMP JUMPDEST DUP7 DUP4 LT ISZERO PUSH2 0x3B56 JUMPI DUP5 DUP10 ADD SLOAD PUSH2 0x3B52 PUSH1 0x1F DUP10 AND DUP3 PUSH2 0x35CA JUMP JUMPDEST DUP4 SSTORE POP JUMPDEST PUSH1 0x1 PUSH1 0x2 DUP9 MUL ADD DUP9 SSTORE POP POP POP JUMPDEST POP POP POP POP POP POP JUMPDEST JUMP INVALID LOG2 PUSH5 0x6970667358 0x22 SLT KECCAK256 0xE7 PUSH4 0x447D756D DUP16 0xC6 DELEGATECALL SIGNEXTEND CALLCODE DUP8 0xBE 0xF DUP12 CODESIZE 0x1E SWAP10 PUSH20 0x31FAD7121ED61C3D64E5C626C164736F6C634300 ADDMOD XOR STOP CALLER "
        },
        "methodIdentifiers": {
          "bettors(uint256,uint256,uint256)": "12ea5dcd",
          "createBet(uint256,uint256,uint256)": "9062ce7d",
          "createEvent(string,string,string[],string,string,string,string)": "b494ec6a",
          "createMatch(uint256,uint256,string,string,uint256,uint256,string)": "5605422b",
          "declareWinnerAndDistribute(uint256,uint256,uint256)": "9f299a52",
          "eventIDToEvent(uint256)": "00cee13d",
          "events(uint256)": "0b791430",
          "getEvents()": "404aa8f9",
          "getMatches(uint256)": "e60d585a",
          "getTotalBetAmount(uint256,uint256)": "7538e2a3",
          "hasBetted(address,uint256,uint256)": "c4a4cd03",
          "newEventID()": "cd3fcd43"
        }
      }
    }
  }
}